:100000000C9469000C9491000C9491000C94910054
:100010000C9491000C9491000C9491000C9491001C
:100020000C9491000C9491000C9491000C9491000C
:100030000C9491000C9404010C9491000C94910088
:100040000C94B0010C9491000C9486040C94B804A8
:100050000C9491000C9491000C9491000C949100DC
:100060000C9491000C9491007C0189018E01940103
:10007000960198019D0100000008000201000003A4
:100080000407000000000000000001020408102026
:10009000408001020408102001020408102004041A
:1000A0000404040404040202020202020303030320
:1000B00003030000000023002600290000000000C8
:1000C000250028002B0000000000240027002A0043
:1000D000E80411241FBECFEFD8E0DEBFCDBF11E092
:1000E000A0E0B1E0E6E6FBE002C005900D92A6318B
:1000F000B107D9F721E0A6E1B1E001C01D92A73C0C
:10010000B207E1F710E0C2EDD0E004C02297FE0193
:100110000E949505C03DD107C9F70E942C050C949B
:10012000B1050C94000089E00E941803892B41F46A
:1001300088B18F6088B96AE58AE291E00C94630522
:1001400088B1807F88B90895449A68EE73E080E0B2
:1001500090E00E941D02449868E57BE180E090E019
:100160000C941D0226E040E855E260E070E08AE26F
:1001700091E00E94240460E089E00E94A90261E00D
:1001800089E00E94E20261E083E00E94A90261E04E
:1001900083E00E94E20287B18F6087B988B18F60E7
:1001A00088B964EF71E080E090E00E941D0288B1A0
:1001B000807F88B90E94A40060E47CE980E090E040
:1001C0000E941D0281E080931F0110921E014AE0EF
:1001D00050E060E070E08AE291E00C946A051092D1
:1001E0008000109281001092160110921701109257
:1001F00018011092190110921A0110921B0110920D
:100200001C0110921D0108951F920F920FB60F92BC
:1002100011242F933F934F935F936F937F938F930B
:100220009F93AF93BF93EF93FF932091160130916B
:100230001701409118015091190160911A017091B4
:100240001B0180911C0190911D01A1E00E94990564
:100250002093160130931701409318015093190110
:1002600060931A0170931B0180931C0190931D01F0
:1002700020911601309117014091180150911901F8
:1002800060911A0170911B0180911C0190911D01D8
:10029000AAE00E94A50511F40E94EF00FF91EF91E2
:1002A000BF91AF919F918F917F916F915F914F918E
:1002B0003F912F910F900FBE0F901F9018958AE2DB
:1002C00091E00E944103181619060CF040C08AE222
:1002D00091E00E945A0380932001992787FD909511
:1002E000A92FB92FFC01E154F109E730F10578F5A8
:1002F000EC5CFF4F0C94930588B18F6088B960ED7A
:1003000077E080E090E00E941D0288B1807F88B98C
:10031000089588B18F6088B981E017C088B1807F67
:1003200088B910921E0108955B9A08955B9808950C
:100330008BB198E089278BB9089588B19FE0892710
:1003400088B980911E0191E0892780931E0108954C
:1003500080911E01811102C00E9493000C945F01E4
:100360001F920F920FB60F9211242F933F938F93EA
:100370009F93AF93BF938091220190912301A0910D
:100380002401B09125013091210123E0230F2D3765
:1003900020F40196A11DB11D05C026E8230F029689
:1003A000A11DB11D2093210180932201909323016F
:1003B000A0932401B09325018091260190912701FB
:1003C000A0912801B09129010196A11DB11D809332
:1003D000260190932701A0932801B0932901BF9192
:1003E000AF919F918F913F912F910F900FBE0F90E2
:1003F0001F9018953FB7F89480912601909127019E
:10040000A0912801B091290126B5A89B05C02F3FD6
:1004100019F00196A11DB11D3FBF6627782F892FC6
:100420009A2F620F711D811D911D42E0660F771F8B
:10043000881F991F4A95D1F70895CF92DF92EF92C6
:10044000FF92CF93DF936B017C010E94FA01EB01D5
:10045000C114D104E104F10489F00E9470050E94E6
:10046000FA016C1B7D0B683E734090F381E0C81A63
:10047000D108E108F108C851DC4FEACFDF91CF91F4
:10048000FF90EF90DF90CF900895789484B58260CC
:1004900084BD84B5816084BD85B5826085BD85B528
:1004A000816085BDEEE6F0E0808181608083E1E8D7
:1004B000F0E010828081826080838081816080830F
:1004C000E0E8F0E0808181608083E1EBF0E0808112
:1004D00084608083E0EBF0E0808181608083EAE7E4
:1004E000F0E080818460808380818260808380816D
:1004F000816080838081806880831092C10008952C
:10050000833081F028F4813099F08230A1F0089591
:100510008730A9F08830B9F08430D1F48091800020
:100520008F7D03C0809180008F7780938000089535
:1005300084B58F7702C084B58F7D84BD0895809186
:10054000B0008F7703C08091B0008F7D8093B000A2
:100550000895CF93DF9390E0FC01E657FF4F24917D
:10056000FC01E256FF4F8491882349F190E0880F07
:10057000991FFC01EA53FF4FA591B49184549F4FFA
:10058000FC01C591D4919FB7611108C0F8948C917A
:10059000209582238C93888182230AC0623051F493
:1005A000F8948C91322F309583238C938881822B01
:1005B000888304C0F8948C91822B8C939FBFDF9129
:1005C000CF9108950F931F93CF93DF931F92CDB7D1
:1005D000DEB7282F30E0F901EA58FF4F8491F90186
:1005E000E657FF4F1491F901E256FF4F04910023A3
:1005F000C9F0882321F069830E9480026981E02F7D
:10060000F0E0EE0FFF1FE454FF4FA591B4919FB7A8
:10061000F8948C91611103C01095812301C0812B46
:100620008C939FBF0F90DF91CF911F910F910895F1
:10063000CF93DF93282F30E0F901EA58FF4F8491E0
:10064000F901E657FF4FD491F901E256FF4FC491EB
:10065000CC2391F081110E948002EC2FF0E0EE0F8C
:10066000FF1FEE54FF4FA591B4912C912D2381E0F3
:1006700090E021F480E002C080E090E0DF91CF9133
:100680000895FC01818D228D90E0805C9F4F821B3C
:1006900091098F7399270895FC01918D828D981788
:1006A00031F0828DE80FF11D858D90E008958FEF78
:1006B0009FEF0895FC01918D828D981761F0828DD6
:1006C000DF01A80FB11D5D968C91928D9F5F9F7386
:1006D000928F90E008958FEF9FEF08958EED94E054
:1006E000892B49F080E090E0892B29F00E94DE04FC
:1006F00081110C9400000895FC01848DDF01A80F86
:10070000B11DA35ABF4F2C91848D90E001968F7339
:100710009927848FA689B7892C93A089B1898C9158
:1007200080648C93938D848D981306C00288F3891E
:10073000E02D80818F7D80830895CF93DF93EC013E
:10074000888D8823C9F0EA89FB89808185FD05C0F1
:10075000A889B9898C9186FD0FC00FB607FCF5CF2B
:10076000808185FFF2CFA889B9898C9185FFEDCF73
:10077000CE010E947C03E7CFDF91CF910895CF9205
:10078000DF92FF920F931F93CF93DF931F92CDB70A
:10079000DEB76C0181E0D60158968C9358975B9632
:1007A0009C915B975C968C915C97981307C05096D0
:1007B000ED91FC915197808185FD2EC0F601038D4E
:1007C00010E00F5F1F4F0F731127F02EF601848D7D
:1007D000F81211C00FB607FCF9CFD6015096ED9173
:1007E000FC915197808185FFF1CFC60169830E94FA
:1007F0007C036981EBCF838DE80FF11DE35AFF4F36
:100800006083D6015B960C935B975296ED91FC91B9
:100810005397808180620CC0D6015696ED91FC9171
:10082000579760835096ED91FC9151978081806439
:10083000808381E090E00F90DF91CF911F910F9125
:10084000FF90DF90CF900895BF92CF92DF92EF920A
:10085000FF92CF93DF93EC016A017B01B22EE8890E
:10086000F98982E08083411581EE580761057105A1
:10087000A1F060E079E08DE390E0A70196010E948D
:100880007105215031094109510956954795379510
:100890002795211580E1380798F0E889F9891082B9
:1008A00060E874E88EE190E0A70196010E9471056E
:1008B000215031094109510956954795379527959A
:1008C000EC85FD853083EE85FF852083188EEC89CD
:1008D000FD89B082EA89FB89808180618083EA8911
:1008E000FB89808188608083EA89FB8980818068B8
:1008F0008083EA89FB8980818F7D8083DF91CF911E
:10090000FF90EF90DF90CF90BF9008951F920F92CD
:100910000FB60F9211242F938F939F93EF93FF9312
:10092000E0913A01F0913B018081E0914001F0912A
:10093000410182FD12C09081809143018F5F8F73CE
:1009400020914401821751F0E0914301F0E0E65D0F
:10095000FE4F958F8093430101C08081FF91EF91FD
:100960009F918F912F910F900FBE0F901F90189510
:100970001F920F920FB60F9211242F933F934F9314
:100980005F936F937F938F939F93AF93BF93EF93F7
:10099000FF938AE291E00E947C03FF91EF91BF9167
:1009A000AF919F918F917F916F915F914F913F9107
:1009B0002F910F900FBE0F901F9018958AE291E033
:1009C0000E94410321E0892B09F420E0822F089541
:1009D00010922D0110922C0188EE93E0A0E0B0E07F
:1009E00080932E0190932F01A0933001B093310199
:1009F0008AE091E090932B0180932A0185EC90E0AE
:100A0000909337018093360184EC90E09093390104
:100A10008093380180EC90E090933B0180933A0101
:100A200081EC90E090933D0180933C0182EC90E05A
:100A300090933F0180933E0186EC90E090934101BA
:100A4000809340011092430110924401109245019D
:100A500010924601089508950E9445020E942B05B8
:100A60000E94B200CEE6D3E00E94A8012097E1F3F5
:100A70000E946E03F9CFCF92DF92EF92FF920F9315
:100A80001F93CF93DF937C016A01EB0100E010E03C
:100A90000C151D0571F06991D701ED91FC91019044
:100AA000F081E02DC7010995892B19F00F5F1F4FC9
:100AB000EFCFC801DF91CF911F910F91FF90EF9081
:100AC000DF90CF900895DC01ED91FC910190F081D1
:100AD000E02D0994FC014483558366837783089550
:100AE0000895A1E21A2EAA1BBB1BFD010DC0AA1F6F
:100AF000BB1FEE1FFF1FA217B307E407F50720F087
:100B0000A21BB30BE40BF50B661F771F881F991F01
:100B10001A9469F760957095809590959B01AC014A
:100B2000BD01CF010895EE0FFF1F0590F491E02D58
:100B300009940024A7FD00942A0F301D401D501D6C
:100B4000601D701D801D901D08950024A7FD009458
:100B50002A17300540055005600570058005900591
:060B60000895F894FFCF98
:100B66000000C701800000000000BF033B054103F1
:060B76005A034C039D032D
:00000001FF
