:100000000C9463000C948B000C948B000C948B006C
:100010000C948B000C948B000C948B000C948D062C
:100020000C948B000C948B000C948B000C948B0024
:100030000C948B000C948B000C948B000C948B0014
:100040000C94A8020C948B000C948B000C948B00E5
:100050000C948B000C948B000C948B000C948B00F4
:100060000C948B000C948B0000000008000201002F
:100070000003040700000000000000000102040863
:100080001020408001020408102001020408102002
:10009000040404040404040402020202020203032E
:1000A00003030303000000002300260029000000D2
:1000B0000000250028002B0000000000240027007D
:1000C0002A0002001B0111241FBECFEFD8E0DEBFC3
:1000D000CDBF11E0A0E0B1E0E8E9FEE002C005908C
:1000E0000D92A434B107D9F721E0A4E4B1E001C036
:1000F0001D92AD37B207E1F710E0C6ECD0E004C0C6
:100100002297FE010E943707C43CD107C9F70E941D
:10011000FA030C944A070C94000062E088E00E9405
:10012000610362E089E00E94610362E08AE00E946C
:10013000610361E08CE00E94610320E042E060E145
:1001400087E491E00E94E40187E491E00E94C3010A
:1001500061E071E087E491E00C94470488E00E943C
:10016000D003892B39F481E0809346011092450138
:100170001092440189E00E94D003892B39F4109237
:10018000460181E080934501109244018AE00E947B
:10019000D003892B39F4109246011092450181E079
:1001A00080934401809146018823A1F020E030E053
:1001B000A90160E375E78CE00E94490441E060E03A
:1001C00087E491E00E94CA0161E171E087E491E077
:1001D0000E944704809145018823A1F020E030E08F
:1001E000A90168EC7FEA8CE00E94490441E060E0EC
:1001F00087E491E00E94CA016FE171E087E491E039
:100200000E944704809144018823A1F020E030E05F
:10021000A90168EC7FEA8CE00E94490441E060E0BB
:1002200087E491E00E94CA016DE271E087E491E009
:100230000C9447040895CF92EF920F9387E0C82E55
:1002400096E0E92E05E024E043E062E087E491E0F7
:100250000E9482020F91EF90CF900895CF93DF9389
:10026000EC0160E08E810E949A0381E090E00E94A0
:10027000F20261E08E810E949A0381E090E00E9488
:10028000F20260E08E810E949A0384E690E0DF91A2
:10029000CF910C94F202EF92FF920F931F93CF93A2
:1002A000DF938C01C0E0D0E0E62EF12CB7010C2EDC
:1002B00002C0759567950A94E2F76170F801EC0F3A
:1002C000FD1F87810E949A032196C430D10571F7E2
:1002D000C801DF91CF911F910F91FF90EF900C9487
:1002E0002E01EF92FF920F931F93CF93DF938C0118
:1002F000C0E0D0E0E62EF12CB7010C2E02C07595BF
:1003000067950A94E2F76170F801EC0FFD1F878191
:100310000E949A032196C830D10571F7C801DF9178
:10032000CF911F910F91FF90EF900C942E011F938E
:10033000CF93DF93EC01162F642F8C810E949A03D8
:100340008D818F3F19F060E00E949A038F85612FA5
:1003500084FF06C0CE01DF91CF911F910C947101F3
:1003600070E084E0759567958A95E1F7CE010E946B
:100370004B01612FCE01DF91CF911F910C944B0166
:1003800040E00C94970161E00E94C00180ED97E08D
:100390000C94F202443008F043E0FC012389421738
:1003A00010F04FEF420FFC01E40FF11D2489260FDE
:1003B0002068622F0C94C001FC016089262F246004
:1003C000208B6C600C94C0010F931F93CF93DF932D
:1003D000EC01423018F08F8588608F874B8B1C8A28
:1003E00080E48D8B6E8B70E0605C7F4F6F8B22237F
:1003F00029F0413019F48F8584608F8761E08C810A
:100400000E9461038D818F3F19F061E00E946103BA
:1004100061E08E810E94610300E010E08F8584FF1F
:1004200003C088E090E002C084E090E0081719075C
:1004300054F4FE01E00FF11F61E087810E94610327
:100440000F5F1F4FEBCF80E593EC0E94F20260E05C
:100450008C810E949A0360E08E810E949A038D81B4
:100460008F3F19F060E00E949A036F8564FD1DC004
:1004700063E0CE010E944B0184E991E10E94F20207
:1004800063E0CE010E944B0184E991E10E94F202F7
:1004900063E0CE010E944B0186E990E00E94F202E7
:1004A00062E0CE010E944B0116C06062CE010E9444
:1004B000C00184E991E10E94F2026F856062CE0181
:1004C0000E94C00186E990E00E94F2026F8560629E
:1004D000CE010E94C0016F856062CE010E94C00102
:1004E00084E0888BCE010E94DC01CE010E94C30112
:1004F00082E0898B66E0CE01DF91CF911F910F9151
:100500000C94C001CF92EF920F93FC0113821282E0
:100510008FE391E09183808364838FEF85834683AB
:1005200027830087E186C286138614861586168681
:10053000178620E041E060E1CF010F91EF90CF906E
:100540000C94E40141E00E94970181E090E008955D
:100550001F920F920FB60F9211242F933F938F93F8
:100560009F93AF93BF938091600190916101A0919F
:100570006201B091630130915F0123E0230F2D37B9
:1005800020F40196A11DB11D05C026E8230F029697
:10059000A11DB11D20935F018093600190936101C3
:1005A000A0936201B0936301809164019091650111
:1005B000A0916601B09167010196A11DB11D8093C4
:1005C000640190936501A0936601B0936701BF91A8
:1005D000AF919F918F913F912F910F900FBE0F90F0
:1005E0001F9018958230910538F0880F991F880F59
:1005F000991F05970197F1F70895789484B5826063
:1006000084BD84B5816084BD85B5826085BD85B5B6
:10061000816085BDEEE6F0E0808181608083E1E865
:10062000F0E010828081826080838081816080839D
:10063000E0E8F0E0808181608083E1EBF0E08081A0
:1006400084608083E0EBF0E0808181608083EAE772
:10065000F0E08081846080838081826080838081FB
:10066000816080838081806880831092C1000895BA
:10067000833081F028F4813099F08230A1F0089520
:100680008730A9F08830B9F08430D1F480918000AF
:100690008F7D03C0809180008F77809380000895C4
:1006A00084B58F7702C084B58F7D84BD0895809115
:1006B000B0008F7703C08091B0008F7D8093B00031
:1006C0000895CF93DF9390E0FC01E458FF4F24910D
:1006D000FC01E057FF4F8491882349F190E0880F97
:1006E000991FFC01E854FF4FA591B49182559F4F8B
:1006F000FC01C591D4919FB7611108C0F8948C9109
:10070000209582238C93888182230AC0623051F421
:10071000F8948C91322F309583238C938881822B8F
:10072000888304C0F8948C91822B8C939FBFDF91B7
:10073000CF9108950F931F93CF93DF931F92CDB75F
:10074000DEB7282F30E0F901E859FF4F8491F90115
:10075000E458FF4F1491F901E057FF4F0491002333
:10076000C9F0882321F069830E9438036981E02F52
:10077000F0E0EE0FFF1FE255FF4FA591B4919FB738
:10078000F8948C91611103C01095812301C0812BD5
:100790008C939FBF0F90DF91CF911F910F91089580
:1007A000CF93DF93282F30E0F901E859FF4F849170
:1007B000F901E458FF4FD491F901E057FF4FC4917C
:1007C000CC2391F081110E943803EC2FF0E0EE0F62
:1007D000FF1FEC55FF4FA591B4912C912D2381E083
:1007E00090E021F480E002C080E090E0DF91CF91C2
:1007F000089508950E94FD020E94F9030E948D0051
:10080000C0E0D0E00E94AE002097E1F30E9400001B
:10081000F9CFCF92DF92EF92FF920F931F93CF9376
:10082000DF937C016A01EB0100E010E00C151D056F
:1008300071F06991D701ED91FC910190F081E02D6B
:10084000C7010995892B19F00F5F1F4FEFCFC80122
:10085000DF91CF911F910F91FF90EF90DF90CF909C
:1008600008956115710581F0DB010D900020E9F715
:10087000AD0141505109461B570BDC01ED91FC9134
:100880000280F381E02D099480E090E008950C94BB
:1008900031043F924F925F926F927F928F929F921C
:1008A000AF92BF92CF92DF92EF92FF920F931F937E
:1008B000CF93DF9300D000D0CDB7DEB78B012901F5
:1008C0003A0190910001981721F09F3F09F0DAC199
:1008D00004C0E2ECF0E0349081C080930001E2ECCF
:1008E000F0E0E491EF3F09F4CDC1E13031F1E230C5
:1008F00009F44BC0E11171C014BC15BC94B59260F1
:1009000094BD95B5916095BD282F30E0F901E05771
:10091000FF4FE491F0E0EE0FFF1FE255FF4F4591CE
:1009200054915093780140937701F901E458FF4FB7
:10093000249120937601312C53C0109280001092A4
:100940008100909181009860909381009091810046
:10095000916090938100282F30E0F901E057FF4F1C
:10096000E491F0E0EE0FFF1FE255FF4F45915491E7
:100970005093710140937001F901E458FF4F2491A5
:1009800020936F01332433942BC01092B000109247
:10099000B1009091B00092609093B0009091B1003E
:1009A00091609093B100282F30E0F901E057FF4F9C
:1009B000E491F0E0EE0FFF1FE255FF4F4591549197
:1009C00050936A0140936901F901E458FF4F249163
:1009D0002093680152E0352E03C03E2E37FC52C1F1
:1009E00061E00E9461034801A12CB12C832D8D7F11
:1009F00009F0C7C060E072E18AE790E0A5019401C8
:100A00000E940B0729833A834B835C8369017A0137
:100A100081E0C81AD108E108F1089FEFC916D10496
:100A2000E104F10409F008F49AC060E472E48FE094
:100A300090E0A50194010E940B0769017A01E1E0B1
:100A4000CE1AD108E108F108F2E03F1219C08FEF89
:100A5000C816D104E104F10409F008F48AC060E981
:100A600070ED83E090E0A50194010E940B076901FD
:100A70007A0191E0C91AD108E108F10883E001C0C8
:100A800082E0EFEFCE16D104E104F10409F008F49E
:100A900067C068E478EE81E090E0A50194010E94CF
:100AA0000B0769017A01F1E0CF1AD108E108F108DA
:100AB0003320E1F082E038121BC09FEFC916D10449
:100AC000E104F10409F008F4DBC064E274EF80E0B3
:100AD00090E0A50194010E940B0769017A01E1E011
:100AE000CE1AD108E108F10885E003C083E001C017
:100AF00084E0FFEFCF16D104E104F10489F180F125
:100B000062E17AE780E090E0A50194010E940B0782
:100B100069017A0181E0C81AD108E108F1083110B1
:100B200002C084E001C086E09FEFC916D104E10451
:100B3000F104B1F0A8F0C980DA80EB80FC809AE083
:100B4000F594E794D794C7949A95D1F7E1E0CE1A3B
:100B5000D108E108F108332031F087E00BC081E0D3
:100B6000332011F007C085E095B5987F982B95BD8F
:100B700038C082E09091B100987F982B9093B1009B
:100B800030C060E072E18AE790E0A50194010E9424
:100B90000B0769017A01F1E0CF1AD108E108F108E9
:100BA000C114D10481E0E806F10488F068E478EE2D
:100BB00081E090E0A50194010E940B0769017A0190
:100BC00091E0C91AD108E108F10893E001C091E071
:100BD000E1E03E1206C080918100887F892B8093DE
:100BE0008100411451046104710471F0D801AA0F0D
:100BF000BB1FA30192010E942A0728EE33E040E0C8
:100C000050E00E94E90603C02FEF3FEFA901F1E099
:100C10003F16A1F082E0381619F1311033C0C7BC7D
:100C20002093790130937A0140937B0150937C01AA
:100C300080916E00826080936E0024C0D092890003
:100C4000C092880020937201309373014093740125
:100C50005093750180916F00826080936F0012C085
:100C6000C092B30020936B0130936C0140936D01EF
:100C700050936E018091700082608093700002C07A
:100C800084E078CF0F900F900F900F90DF91CF916D
:100C90001F910F91FF90EF90DF90CF90BF90AF909A
:100CA0009F908F907F906F905F904F903F900895AE
:100CB000813039F018F0823051F0089510926E00B2
:100CC000089580916F008D7F80936F0008958091CB
:100CD00070008D7F8093700081E08093B0008091E0
:100CE000B100887F84608093B1001092B3000895B2
:100CF000CF93C82F809100018C1307C0E2ECF0E085
:100D000084919FEF9093000101C08FEF0E945806DD
:100D100060E08C2FCF910C949A031F920F920FB624
:100D20000F9211242F933F934F935F936F937F9371
:100D30008F939F93AF93BF93EF93FF9380916B013A
:100D400090916C01A0916D01B0916E01892B8A2B5D
:100D50008B2B51F190916801E0916901F0916A014A
:100D600080818927808380916B0190916C01A09193
:100D70006D01B0916E01181619061A061B06C4F40F
:100D800080916B0190916C01A0916D01B0916E0109
:100D90000197A109B10980936B0190936C01A09315
:100DA0006D01B0936E0104C0809100010E9478062D
:100DB000FF91EF91BF91AF919F918F917F916F9133
:100DC0005F914F913F912F910F900FBE0F901F9009
:100DD0001895A1E21A2EAA1BBB1BFD010DC0AA1F6C
:100DE000BB1FEE1FFF1FA217B307E407F50720F094
:100DF000A21BB30BE40BF50B661F771F881F991F0F
:100E00001A9469F760957095809590959B01AC0157
:100E1000BD01CF010895052E97FB1EF400940E949A
:100E2000220757FD07D00E94E90607FC03D04EF4C5
:100E30000C94220750954095309521953F4F4F4F88
:100E40005F4F089590958095709561957F4F8F4F76
:100E50009F4F08950E943B07A59F900DB49F900D52
:100E6000A49F800D911D11240895EE0FFF1F059082
:100E7000F491E02D0994A29FB001B39FC001A39FFC
:100E8000700D811D1124911DB29F700D811D1124C3
:080E9000911D0895F894FFCFB5
:100E9800FF20506F77657220465251284B487A29B7
:100EA8000020204C4F572020202020203330004D98
:100EB800454449554D2020202020343500204849FC
:100EC800474820202020202036350000000000A2BE
:040ED8000209040007
:00000001FF
