:100000000C94D2000C94FA000C94FA000C94FA00B0
:100010000C94FA000C94FA000C94FA000C94FA0078
:100020000C94FA000C94FA000C94FA000C94FA0068
:100030000C94FA000C94FA000C94FA000C94FA0058
:100040000C9475020C94FA000C94E3040C941505BE
:100050000C94FA000C94FA000C94FA000C94FA0038
:100060000C94FA000C94FA0001020408102040805D
:1000700001020408102001020408102004040404F2
:100080000404040402020202020203030303030342
:1000900000000000250028002B00000000002400C4
:1000A00027002A0000407A10F35A00A0724E180967
:1000B0000010A5D4E80000E87648170000E40B54CF
:1000C000020000CA9A3B000000E1F505000080969E
:1000D0009800000040420F000000A08601000000D0
:1000E000102700000000E80300000000640000008A
:1000F00000000A00000000000100000000002C7653
:10010000D888DC674F0823DFC1DFAE59E1B1B7966D
:10011000E5E3E453C63AE651997696E8E6C28426CA
:10012000EB898C9B62ED407C6FFCEFBC9C9F40F2A6
:10013000BAA56FA5F490055A2AF75C936B6CF96722
:100140006DC11BFCE0E40D47FEF520E6B500D0EDE7
:10015000902E0300943577050080841E080000204F
:100160004E0A000000C80C333333330F986E1283ED
:100170001141EF8D2114893BE65516CFFEE6DB18C1
:10018000D1844B381BF77C1D901DA4BBE424203286
:1001900084725E228100C9F124ECA1E53D276B0247
:1001A0004505710211241FBECFEFD8E0DEBFCDBFE1
:1001B00011E0A0E0B1E0E4EEFAE102C005900D929A
:1001C000A433B107D9F721E0A4E3B1E001C01D9247
:1001D000AC3FB207E1F711E0C2EAD1E004C02297D8
:1001E000FE010E94B208CE39D107C9F70E948905E5
:1001F0000C94650D0C94000026E040E855E260E0A8
:1002000070E08BE591E00E94810460E08EE00E9446
:10021000650360E08FE00E94650383E00E94450370
:100220008EE00E94480390934F0180934E0190937B
:100230005101809350018EE00E944803BC01882741
:1002400077FD8095982F0E94DA0723EC35EF44E183
:1002500051E40E94700760934201709343018093C0
:100260004401909345016093460170934701809348
:1002700048019093490160914E0170914F01695F6F
:100280007E4F8BE591E00E94FA056BE071E084E31C
:1002900091E00E949006409142015091430160918B
:1002A00044017091450184E391E00E94D40664E327
:1002B00071E08BE591E00C94E805CF92DF92EF922C
:1002C000FF920F931F93CF93DF938EE00E9448031A
:1002D00090935101809350018FE00E944803BC012C
:1002E000882777FD8095982F0E94DA0723EC35EF59
:1002F00044E151E40E9470079B01AC016093460108
:1003000070934701809348019093490180914E0179
:1003100090914F016091500170915101861B970B94
:1003200097FF03C091958195910990934D0180931A
:100330004C01609142017091430180914401909180
:1003400045010E9407076B017C0120E030E0A90114
:100350000E948A08181624F0F7FAF094F7F8F0943F
:10036000C0923E01D0923F01E0924001F0924101E3
:1003700060ED77E080E090E00E94E2028EE00E9473
:10038000480390934F0180934E018FE00E944803F1
:10039000BC01882777FD8095982F0E94DA0723EC0F
:1003A00035EF44E151E40E9470076093420170937D
:1003B0004301809344019093450100914E011091B7
:1003C0004F012091500130915101E801C21BD30B24
:1003D000D7FF03C0D195C195D109D0934B01C093EC
:1003E0004A012091460130914701409148015091C6
:1003F00049010E9407076B017C0120E030E0A90160
:100400000E948A08181624F0F7FAF094F7F8F0948E
:10041000C0923A01D0923B01E0923C01F0923D0142
:1004200080914C0190914D01C817D90739F0B8015E
:10043000695F7E4F8BE591E00E94FA0520913E01B5
:1004400030913F01409140015091410160913A014A
:1004500070913B0180913C0190913D010E94070702
:100460006B017C0120E030E0A9010E948A08181687
:100470004CF020E030E0A901C701B6010E946C07F2
:1004800087FF20C06EE071E084E391E00E94900657
:1004900040914201509143016091440170914501A6
:1004A00084E391E00E94D40664E371E08BE591E07F
:1004B000DF91CF911F910F91FF90EF90DF90CF9040
:1004C0000C94E805DF91CF911F910F91FF90EF9071
:1004D000DF90CF90089564E271E084E391E00C94A2
:1004E0007A0684E391E00C940C061F920F920FB6EB
:1004F0000F9211242F933F938F939F93AF93BF93AA
:100500008091530190915401A0915501B0915601F1
:100510003091520123E0230F2D3720F40196A11DC5
:10052000B11D05C026E8230F0296A11DB11D209321
:1005300052018093530190935401A0935501B093BD
:1005400056018091570190915801A0915901B091A5
:100550005A010196A11DB11D809357019093580136
:10056000A0935901B0935A01BF91AF919F918F9180
:100570003F912F910F900FBE0F901F9018953FB78E
:10058000F8948091570190915801A0915901B09130
:100590005A0126B5A89B05C02F3F19F00196A11D51
:1005A000B11D3FBF6627782F892F9A2F620F711DCB
:1005B000811D911D42E0660F771F881F991F4A9584
:1005C000D1F70895CF92DF92EF92FF92CF93DF930E
:1005D0006B017C010E94BF02EB01C114D104E10454
:1005E000F10489F00E9406070E94BF026C1B7D0B7C
:1005F000683E734090F381E0C81AD108E108F10821
:10060000C851DC4FEACFDF91CF91FF90EF90DF90A0
:10061000CF900895789484B5826084BD84B581605C
:1006200084BD85B5826085BD85B5816085BDEEE6FA
:10063000F0E0808181608083E1E8F0E010828081D9
:1006400082608083808181608083E0E8F0E0808147
:1006500081608083E1EBF0E0808184608083E0EB67
:10066000F0E0808181608083EAE7F0E0808184604F
:1006700080838081826080838081816080838081AB
:10068000806880831092C1000895809306010895C8
:100690008E3008F08E5087702091060190E4299FDB
:1006A00090011124822B80937C0080917A008064D9
:1006B00080937A0080917A0086FDFCCF809178004B
:1006C0002091790090E0922B0895CF93DF9390E0F2
:1006D000FC01E859FF4F2491FC01E458FF4F84913D
:1006E000882349F190E0880F991FFC01E656FF4FDF
:1006F000A591B49180579F4FFC01C591D4919FB7AC
:10070000611108C0F8948C91209582238C93888184
:1007100082230AC0623051F4F8948C91322F3095C4
:1007200083238C938881822B888304C0F8948C91D6
:10073000822B8C939FBFDF91CF910895FC01818D17
:10074000228D90E0805C9F4F821B91098F739927C7
:100750000895FC01918D828D981731F0828DE80FFC
:10076000F11D858D90E008958FEF9FEF0895FC01B6
:10077000918D828D981761F0828DDF01A80FB11DD8
:100780005D968C91928D9F5F9F73928F90E00895FC
:100790008FEF9FEF08958BE395E0892B49F080E080
:1007A00090E0892B29F00E943B0581110C940000F8
:1007B0000895FC01848DDF01A80FB11DA35ABF4F1E
:1007C0002C91848D90E001968F739927848FA68950
:1007D000B7892C93A089B1898C9180648C93938D77
:1007E000848D981306C00288F389E02D80818F7D67
:1007F00080830895CF93DF93EC01888D8823C9F01F
:10080000EA89FB89808185FD05C0A889B9898C9119
:1008100086FD0FC00FB607FCF5CF808185FFF2CFB4
:10082000A889B9898C9185FFEDCFCE010E94D903AB
:10083000E7CFDF91CF910895CF92DF92FF920F9390
:100840001F93CF93DF931F92CDB7DEB76C0181E08A
:10085000D60158968C9358975B969C915B975C96C3
:100860008C915C97981307C05096ED91FC9151972D
:10087000808185FD2EC0F601038D10E00F5F1F4FB4
:100880000F731127F02EF601848DF81211C00FB6E8
:1008900007FCF9CFD6015096ED91FC9151978081DC
:1008A00085FFF1CFC60169830E94D9036981EBCF2F
:1008B000838DE80FF11DE35AFF4F6083D6015B96ED
:1008C0000C935B975296ED91FC91539780818062D7
:1008D0000CC0D6015696ED91FC91579760835096C7
:1008E000ED91FC91519780818064808381E090E05C
:1008F0000F90DF91CF911F910F91FF90DF90CF90DC
:100900000895BF92CF92DF92EF92FF92CF93DF9341
:10091000EC016A017B01B22EE889F98982E08083CB
:10092000411581EE580761057105A1F060E079E09D
:100930008DE390E0A70196010E948E0821503109B5
:10094000410951095695479537952795211580E11D
:10095000380798F0E889F989108260E874E88EE138
:1009600090E0A70196010E948E08215031094109AB
:1009700051095695479537952795EC85FD85308328
:10098000EE85FF852083188EEC89FD89B082EA8987
:10099000FB89808180618083EA89FB89808188600E
:1009A0008083EA89FB89808180688083EA89FB896A
:1009B00080818F7D8083DF91CF91FF90EF90DF90DA
:1009C000CF90BF9008951F920F920FB60F921124EF
:1009D0002F938F939F93EF93FF93E0916B01F0918F
:1009E0006C018081E0917101F091720182FD12C071
:1009F0009081809174018F5F8F73209175018217B0
:100A000051F0E0917401F0E0E55AFE4F958F80932C
:100A1000740101C08081FF91EF919F918F912F917F
:100A20000F900FBE0F901F9018951F920F920FB648
:100A30000F9211242F933F934F935F936F937F9364
:100A40008F939F93AF93BF93EF93FF938BE591E0C9
:100A50000E94D903FF91EF91BF91AF919F918F9128
:100A60007F916F915F914F913F912F910F900FBEAA
:100A70000F901F9018958BE591E00E949E0321E056
:100A8000892B09F420E0822F089510925E011092C4
:100A90005D0188EE93E0A0E0B0E080935F01909369
:100AA0006001A0936101B093620186E191E09093AF
:100AB0005C0180935B0185EC90E0909368018093EA
:100AC000670184EC90E090936A018093690180EC67
:100AD00090E090936C0180936B0181EC90E0909397
:100AE0006E0180936D0182EC90E090937001809391
:100AF0006F0186EC90E090937201809371011092E7
:100B00007401109275011092760110927701089588
:100B100008950E940A030E9488050E94FC00CBEC05
:100B2000D3E00E945D012097E1F30E94CB03F9CF4F
:100B3000CF92DF92EF92FF920F931F93CF93DF93A9
:100B40007C016A01EB0100E010E00C151D0571F05D
:100B50006991D701ED91FC910190F081E02DC701E1
:100B60000995892B19F00F5F1F4FEFCFC801DF9157
:100B7000CF911F910F91FF90EF90DF90CF9008954C
:100B80006115710581F0DB010D900020E9F7AD01E1
:100B900041505109461B570BDC01ED91FC9102803D
:100BA000F381E02D099480E090E00895DC01ED915F
:100BB000FC91DB0114964D915C9115976D917C91A0
:100BC0000280F381E02D099462E271E00C94C0058B
:100BD0000F931F93CF93DF93EC010E94D6058C01F6
:100BE000CE010E94E405800F911FDF91CF911F91EC
:100BF0000F9108950F931F93CF93DF93EC010E9401
:100C0000C0058C01CE010E94E405800F911FDF9189
:100C1000CF911F910F910895FC01808191810C94D7
:100C20006F09CF93DF93EC0188819981009711F0D0
:100C30000E946F09198218821D821C821B821A82EF
:100C4000DF91CF9108950F931F93CF93DF93EC0122
:100C50008B016F5F7F4F888199810E94FE09009709
:100C600031F0998388831B830A8381E001C080E08F
:100C7000DF91CF911F910F910895CF93DF93EC01F6
:100C800088819981892B29F08A819B818617970712
:100C900060F4CE010E942306882341F08C819D815F
:100CA000892B19F4E881F981108281E0DF91CF91DD
:100CB0000895EF92FF920F931F93CF93DF93EC0170
:100CC0007B018A01BA010E943D06811104C0CE0158
:100CD0000E94110607C01D830C83B701888199818A
:100CE0000E94D10ACE01DF91CF911F910F91FF9009
:100CF000EF900895FC0111821082138212821582F6
:100D000014826115710559F0FB0101900020E9F78B
:100D1000AF0141505109461B570B0C9459060895D9
:100D2000CF93DF93EC016115710561F0FB01019038
:100D30000020E9F7AF0141505109461B570B0E94B3
:100D4000590602C00E941106CE01DF91CF9108958D
:100D5000EF92FF920F931F93CF93DF93EC017B01F0
:100D60000C811D816115710511F480E016C04115DB
:100D7000510591F0040F151FB8010E943D0688230C
:100D8000A1F3288139818C819D81B701820F931F46
:100D90000E94D10A1D830C8381E0DF91CF911F91C6
:100DA0000F91FF90EF900895EF92FF920F931F9392
:100DB000CF93DF93CDB7DEB764970FB6F894DEBF5D
:100DC0000FBECDBF7C01CB01BA018E010F5F1F4F5B
:100DD00022E044E00E94B608FC0101900020E9F7FF
:100DE000AF0141505109481B590BBC01C7010E947A
:100DF000A80664960FB6F894DEBF0FBECDBFDF9194
:100E0000CF911F910F91FF90EF9008950895505842
:100E1000BB27AA270ED044C135D130F03AD120F0FB
:100E200031F49F3F11F41EF42AC10EF4E095E7FB64
:100E300020C1E92F46D180F3BA17620773078407F0
:100E4000950718F071F49EF55EC10EF4E0950B2E37
:100E5000BA2FA02D0B01B90190010C01CA01A0010C
:100E60001124FF27591B99F0593F50F4503E68F167
:100E70001A16F040A22F232F342F4427585FF3CFA8
:100E8000469537952795A795F0405395C9F77EF479
:100E90001F16BA0B620B730B840BBAF09150A1F0C2
:100EA000FF0FBB1F661F771F881FC2F70EC0BA0F48
:100EB000621F731F841F48F4879577956795B795D0
:100EC000F7959E3F08F0B3CF9395880F08F09927C8
:100ED000EE0F979587950895A8D008F481E00895BE
:100EE0000CD0DEC0D6D040F0CDD030F021F45F3F42
:100EF00019F0BFC0511108C1C2C0E3D098F39923C3
:100F0000C9F35523B1F3951B550BBB27AA276217CD
:100F10007307840738F09F5F5F4F220F331F441F12
:100F2000AA1FA9F333D00E2E3AF0E0E830D091504A
:100F30005040E695001CCAF729D0FE2F27D0660F37
:100F4000771F881FBB1F261737074807AB07B0E876
:100F500009F0BB0B802DBF01FF2793585F4F2AF08C
:100F60009E3F510568F085C0CFC05F3FECF3983ECF
:100F7000DCF3869577956795B795F7959F5FC9F7E9
:100F8000880F911D9695879597F90895E1E0660F72
:100F9000771F881FBB1F621773078407BA0720F0EB
:100FA000621B730B840BBA0BEE1F88F7E095089554
:100FB000E89409C097FB3EF49095809570956195F3
:100FC0007F4F8F4F9F4F9923A9F0F92F96E9BB27A9
:100FD0009395F695879577956795B795F111F8CF25
:100FE000FAF4BB0F11F460FF1BC06F5F7F4F8F4F90
:100FF0009F4F16C0882311F096E911C0772321F086
:101000009EE8872F762F05C0662371F096E8862F1D
:1010100070E060E02AF09A95660F771F881FDAF774
:10102000880F9695879597F90895990F0008550FA1
:10103000AA0BE0E8FEEF16161706E807F907C0F05E
:1010400012161306E407F50798F0621B730B840B66
:10105000950B39F40A2661F0232B242B252B21F440
:1010600008950A2609F4A140A6958FEF811D811DE0
:10107000089597F99F6780E870E060E008959FEF1A
:1010800080EC089500240A9416161706180609061F
:10109000089500240A9412161306140605060895EE
:1010A000092E0394000C11F4882352F0BB0F40F476
:1010B000BF2B11F460FF04C06F5F7F4F8F4F9F4FB6
:1010C000089557FD9058440F551F59F05F3F71F038
:1010D0004795880F97FB991F61F09F3F79F087959F
:1010E0000895121613061406551FF2CF4695F1DF28
:1010F00008C0161617061806991FF1CF86957105B8
:10110000610508940895E894BB2766277727CB01EB
:1011100097F908958ADF08F48FEF0895A1E21A2E57
:10112000AA1BBB1BFD010DC0AA1FBB1FEE1FFF1F8B
:10113000A217B307E407F50720F0A21BB30BE40BDB
:10114000F50B661F771F881F991F1A9469F7609522
:101150007095809590959B01AC01BD01CF010895DC
:10116000EE0FFF1F0590F491E02D0994EF920F937D
:101170001F93CF93DF93E80147FF02C034E101C022
:1011800034E0E42FFF27E7FDF095F7FF03C0F1956A
:10119000E195F109E32E022F2E2FAE010E94D80A0D
:1011A000CE01DF91CF911F910F91EF900895CF93D2
:1011B000DF938230910510F482E090E0E091FA0133
:1011C000F091FB0120E030E0A0E0B0E0309739F191
:1011D0004081518148175907B8F04817590771F4F1
:1011E00082819381109729F013969C938E93129786
:1011F0002CC09093FB018093FA0127C02115310583
:1012000031F04217530718F0A901DB0101C0EF01CB
:101210009A01BD01DF010280F381E02DD7CF2115B6
:101220003105F9F0281B390B2430310580F48A810F
:101230009B816115710521F0FB019383828304C0BA
:101240009093FB018093FA01FE01329644C0FE01A7
:10125000E20FF31F81939193225031093983288340
:101260003AC02091F8013091F901232B41F42091EB
:101270000201309103013093F9012093F80120918C
:101280000001309101012115310541F42DB73EB720
:101290004091040150910501241B350BE091F801A8
:1012A000F091F901E217F307A0F42E1B3F0B28176A
:1012B000390778F0AC014E5F5F4F2417350748F0CF
:1012C0004E0F5F1F5093F9014093F8018193919362
:1012D00002C0E0E0F0E0CF01DF91CF910895CF931D
:1012E000DF93009709F487C0FC01329713821282C2
:1012F000C091FA01D091FB01209781F420813181C6
:10130000280F391F8091F8019091F90182179307F6
:1013100079F5F093F901E093F8016DC0DE0120E06A
:1013200030E0AE17BF0750F412964D915C911397C1
:101330009D014115510509F1DA01F3CFB383A28371
:1013400040815181840F951F8A179B0771F48D91FD
:101350009C911197840F951F02969183808312961A
:101360008D919C911397938382832115310529F4E4
:10137000F093FB01E093FA013EC0D9011396FC9370
:10138000EE9312974D915D91A40FB51FEA17FB07DD
:1013900079F480819181840F951F0296D90111966D
:1013A0009C938E938281938113969C938E93129734
:1013B000E0E0F0E08A819B81009719F0FE01EC01EA
:1013C000F9CFCE01029628813981820F931F209197
:1013D000F8013091F9012817390769F4309729F499
:1013E0001092FB011092FA0102C013821282D09374
:1013F000F901C093F801DF91CF910895A0E0B0E02A
:10140000E4E0FAE00C94320DEC01CB01209719F4E2
:101410000E94D708B8C0FE01E60FF71F9E012250B8
:101420003109E217F30708F4ACC0D9010D911C9102
:10143000119706171707B8F00530110508F49FC07B
:10144000A801445051094617570708F498C00250A4
:101450001109061B170B019311936D937C93CF0118
:101460000E946F098CC05B01A01AB10A4E01800E68
:10147000911EA091FA01B091FB01612C712C60E0EA
:1014800070E0109709F449C0A815B905C9F5ED90A9
:10149000FC901197670142E0C40ED11CCA14DB0412
:1014A00078F147018A189B08640142E0C40ED11C00
:1014B0001296BC9012971396AC91B5E0CB16D1045E
:1014C00040F0B282A38391828082D9018D939C9354
:1014D00009C00E5F1F4F0E0D1F1DF9011183008300
:1014E000EB2DFA2F6115710531F0DB011396FC939A
:1014F000EE93129744C0F093FB01E093FA013FC0D2
:101500006D917C9111976616770608F43B01BD0139
:1015100012960D90BC91A02DB4CF6091F8017091FE
:10152000F90168157905E9F468167906D0F4409157
:101530000001509101014115510541F44DB75EB7CD
:101540006091040170910501461B570BE417F507E4
:10155000C0F4F093F901E093F801F90191838083DD
:101560000EC00E94D7087C01009759F0A801BE0167
:101570000E94C80ACE010E946F09C70104C0CE01B3
:1015800002C080E090E0CDB7DEB7EEE00C944E0DE7
:10159000FB01DC0102C001900D9241505040D8F790
:1015A0000895FB01DC0101900D920020E1F7089500
:1015B0006F927F929F92AF92BF92CF92DF92EF9203
:1015C000FF920F931F93CF93DF93CDB7DEB7299789
:1015D0000FB6F894DEBF0FBECDBF6A01B22E102F3A
:1015E0000C3320F4FF24F394F00E02C04CE3F42EED
:1015F0000F2D27E0AE014F5F5F4F0E94560C79819F
:10160000272F2970213031F0E1FC06C0E0FC06C034
:1016100060E005C06DE203C06BE201C060E2AE2D88
:10162000A07173FF36C0662311F084E001C083E02F
:101630008B1510F4B81A01C0B12CA1110BC0F60122
:101640008B2D90E2882319F091938150FBCFCB0C26
:10165000D11CB12C662331F0F601608396012F5F17
:101660003F4F6901C6010396E2FE05C02EE4F60174
:10167000208331E404C02EE6F601208331E6318375
:101680002283FC012B2D30E22223F1F131932150F2
:10169000FBCF72FF40C0662311F084E001C083E0FD
:1016A0008B1510F4B81A01C0B12CA1110BC0F601B2
:1016B0008B2D90E2882319F091938150FBCFCB0CB6
:1016C000D11CB12C662331F0F601608396012F5FA7
:1016D0003F4F6901C6010396E2FE07C029E4F60107
:1016E00020832EE4218326E406C029E6F601208328
:1016F0002EE6218326E62283FC012B2D30E22223D5
:1017000019F031932150FBCFFC01EB0DF11D10823C
:101710008EEF9FEFB7C0B1E0611101C0B0E04B2F79
:1017200050E01816190624F49C012F5F3F4F02C0A9
:1017300021E030E0240F351F112329F0412F50E024
:101740004F5F5F4F02C040E050E0420F531F2B2D10
:1017500030E04217530714F4B41A01C0B12C2E2DF7
:10176000287159F4F6012B2D30E2222319F0319320
:101770002150FBCFCB0CD11CB12CBB2331F0F60197
:10178000608396012F5F3F4F6901A1110BC0F601E5
:101790002B2D30E3222319F031932150FBCFCB0CBA
:1017A000D11CB12CF80E0A81372F3071A32E74FF93
:1017B00003C0013309F4FA941F142CF42F2D29309F
:1017C00018F028E001C021E0682F392F97FF02C0F0
:1017D00060E030E0462F532F612C712C3EE2932EB7
:1017E000BC01621B71099B01DC01A41BB50BE1E08C
:1017F000F0E0EC0FFD1FAE0FBF1FE12EF12CF194B6
:10180000E194F1084F3FFFEF5F0731F4F60190825A
:10181000B6016F5F7F4F6B01841795074CF024175B
:10182000350734F4BD01660D771DFB01118101C040
:1018300010E341505109FFEF6F1A7F0AB6016F5F45
:101840007F4F4E155F0524F0F60110836B01DACF50
:101850004817590739F4063320F4053319F4A11059
:1018600001C011E3F6011083FB018B2D90E2882368
:1018700019F091938150FBCFFB01EB0DF11D10820C
:1018800080E090E029960FB6F894DEBF0FBECDBF82
:10189000DF91CF911F910F91FF90EF90DF90CF904C
:1018A000BF90AF909F907F906F900895283008F080
:1018B00027E03327DA01990F311D87FD91600096EB
:1018C0006105710539F432602E5F3D9330E32A954E
:1018D000E1F708959F3F30F080387105610509F008
:1018E0003C5F3C5F3D93913008F08068911DDF9331
:1018F000CF931F930F93FF92EF92192F987F969596
:10190000E92F96959695E90FFF27E250FF4F99270B
:101910003327EE24FF24A701E701059008940794DC
:1019200028F4360FE71EF81E491F511D660F771F5A
:10193000881F991F0694A1F70590079428F4E70ED5
:10194000F81E491F561FC11D770F881F991F661F5C
:101950000694A1F70590079428F4F80E491F561F26
:10196000C71FD11D880F991F661F771F0694A1F707
:101970000590079420F4490F561FC71FD81F990FD1
:10198000661F771F881F0694A9F78491109517701A
:1019900041F0D695C79557954795F794E7941A95D2
:1019A000C1F7E4EAF0E068941590159135916591DE
:1019B000959105907FE27395E118F10A430B560B60
:1019C000C90BD009C0F7E10CF11E431F561FC91FF8
:1019D000D01D7EF4703311F48A95E6CFE89401505F
:1019E00030F0080F0AF40027021708F4202F23957F
:1019F000022F7A3328F079E37D932A95E9F710C016
:101A00007D932A9589F6069497956795379517954E
:101A10001794E118F10A430B560BC90BD00998F043
:101A200023957E9173957A3308F070E37C932013AD
:101A3000B8F77E9170617D9330F0839571E37D936B
:101A400070E32A95E1F71124EF90FF900F911F9119
:101A5000CF91DF91992787FD909508952F923F921E
:101A60004F925F926F927F928F929F92AF92BF92AE
:101A7000CF92DF92EF92FF920F931F93CF93DF935A
:101A8000CDB7DEB7CA1BDB0B0FB6F894DEBF0FBEB7
:101A9000CDBF09942A88398848885F846E847D8404
:101AA0008C849B84AA84B984C884DF80EE80FD8006
:101AB0000C811B81AA81B981CE0FD11D0FB6F8947C
:101AC000DEBF0FBECDBFED01089511E0C2EAD1E047
:101AD00004C0FE010E94B2082296C43AD107C9F799
:041AE000F894FFCFA8
:101AE4000000FC0180000147333A005433005433B2
:101AF4003A00000000001C0498059E03B703A903E4
:101B0400FA030D0A006E616E00696E66006F7666F8
:041B1400002E00009F
:00000001FF
