:100000000C9435000C945D000C945D000C945D0024
:100010000C945D000C945D000C945D000C945D00EC
:100020000C945D000C945D000C945D000C945D00DC
:100030000C945D000C945D000C945D000C945D00CC
:100040000C94E4020C945D000C9405050C943705A7
:100050000C945D000C945D000C945D000C945D00AC
:100060000C945D000C945D00670511241FBECFEF5A
:10007000D8E0DEBFCDBF11E0A0E0B1E0E6E5F8E1F9
:1000800002C005900D92A43EB107D9F722E0A4EE7C
:10009000B1E001C01D92A53DB207E1F710E0CAE64C
:1000A000D0E004C02297FE010E947709C836D1072C
:1000B000C9F70E94AB050C94290C0C94000040ED8C
:1000C00057E060E070E084EF91E00E944B0220E88E
:1000D00035E240E050E064E372E084EF91E00E949A
:1000E0005E0284EF91E00E94480266E071E0809138
:1000F0002502909126020E94F8056AE070E080E0F7
:1001000090E00E945D0341E060E084EF91E00E9496
:10011000C90226E040E855E260E070E084E392E046
:100120000C94A304CF92DF92EF92FF920F931F9350
:10013000CF93DF93CDB7DEB72C970FB6F894DEBF21
:100140000FBECDBF0E942E03672B682B692B41F495
:100150000E942E03623071058105910508F476C076
:100160000E942E036093EC017093ED018093EE01E9
:100170009093EF010091F0011091F1012091F201B3
:100180003091F301601771078207930740F4609381
:10019000F0017093F1018093F2019093F3010091CB
:1001A000F0011091F1012091F2013091F3016B0106
:1001B0007C01C01AD10AE20AF30A970186010A3FBC
:1001C00011052105310508F441C06093F0017093D9
:1001D000F1018093F2019093F30184EF91E00E948A
:1001E000480268E171E080912502909126020E9408
:1001F000F80560E271E080912502909126020E944C
:10020000F8050E942E03AB01BC012AE030E080918A
:100210002502909126020E94C00662E271E0809160
:100220002502909126020E94F80565E070E080E0CA
:1002300090E00E945D036AE070E080E090E00E9440
:100240005D0361E084EF91E00E948B026DE771E055
:10025000CE0107960E94A10764E372E0CE010196E9
:100260000E941907BE016F5F7F4FCE0107960E9463
:10027000ED07CE0101960E943307CE0107960E943A
:10028000E8086BE271E0CE0101960E94A107BE0171
:100290006F5F7F4FCE0107960E947408182FCE0122
:1002A00001960E9433071123A9F12B853C8545E077
:1002B00050E0BE01695F7F4FCE0101960E94A30806
:1002C000CE0101960E9447097093EB016093EA0109
:1002D000CE0101960E94330760E371E084E392E06F
:1002E0000E94F8056091EA017091EB014AE050E04C
:1002F00084E392E00E94A8068091EA019091EB01CC
:100300000E94D90B4AE050E0682F84E392E00E94FB
:10031000D40683C06CE471E0CE0101960E94A1076F
:10032000BE016F5F7F4FCE0107960E947408182FA1
:10033000CE0101960E943307112309F46EC060E2DA
:10034000CE0107960E949F089093E7018093E601F3
:10035000AC014F5F5F4F60E2CE0107960E948308B9
:100360009093E5018093E4014091E6015091E7010B
:100370009C01BE01695F7F4FCE0101960E94A308D8
:10038000CE0101960E9447097093EB016093EA0148
:10039000CE0101960E9433072B853C854091E401F4
:1003A0005091E501BE01695F7F4FCE0101960E9429
:1003B000A308CE0101960E9447097093E90160935A
:1003C000E801CE0101960E94330762E571E084E303
:1003D00092E00E94F8056091E8017091E9014AE01D
:1003E00050E084E392E00E94A80661E671E084E3B5
:1003F00092E00E94F8056091EA017091EB014AE0F9
:1004000050E084E392E00E94A8066091E8018091A8
:10041000EA019091EB010E94E10BCE0107960E9448
:1004200033072C960FB6F894DEBF0FBECDBFDF9119
:10043000CF911F910F91FF90EF90DF90CF90089593
:100440000F931F93CF93DF93EC01662359F00E9423
:100450002E0369837A838B839C83DF91CF911F91D5
:100460000F9108950E942E0309811A812B813C81EE
:10047000601B710B820B930B64367105810591052E
:1004800030F763E070E080E090E00E945D03EACF27
:1004900060E00C942002FC0113AA14AA15AA16AA63
:1004A0001182128213821482411551056105710572
:1004B00021F0CB01BA010C945D030895FB01BA0150
:1004C000A901DC01D296FC93EE93D19726E0CF01EF
:1004D0000C94A3041F93CF93DF93EC01162F6EE6C9
:1004E00071E089A99AA90E94F8054AE050E0612FBD
:1004F00089A99AA90E94CD0665E771E089A99AA900
:100500000E94F80562E370E080E090E0DF91CF9117
:100510001F910C945D031F93CF93DF93EC01162F73
:100520008D81882389F189A99AA9DC01ED91FC913B
:100530000480F581E02D0995892BA9F307C02637A2
:10054000310519F12835310509F41D8289A99AA9C7
:10055000DC01ED91FC910480F581E02D09951816E0
:10056000190694F489A99AA9DC01ED91FC91068001
:10057000F781E02D09959C01332723363105F9F6E3
:10058000612FCE010E946A0283E6DF91CF911F9115
:1005900008950F931F93CF93DF931F92CDB7DEB7CC
:1005A0008C01662349F081E0F801858360E0C80191
:1005B00049830E948B024981F80145830F90DF91A6
:1005C000CF911F910F9108951F920F920FB60F9226
:1005D00011242F933F938F939F93AF93BF93809159
:1005E0002C0290912D02A0912E02B0912F023091F9
:1005F0002B0223E0230F2D3720F40196A11DB11DFE
:1006000005C026E8230F0296A11DB11D20932B02E1
:1006100080932C0290932D02A0932E02B0932F0270
:100620008091300290913102A0913202B091330258
:100630000196A11DB11D8093300290933102A093C9
:100640003202B0933302BF91AF919F918F913F914E
:100650002F910F900FBE0F901F9018952FB7F89401
:1006600060912C0270912D0280912E0290912F02A8
:100670002FBF08953FB7F8948091300290913102D6
:10068000A0913202B091330226B5A89B05C02F3F3E
:1006900019F00196A11DB11D3FBF6627782F892F44
:1006A0009A2F620F711D811D911D42E0660F771F09
:1006B000881F991F4A95D1F70895CF92DF92EF9244
:1006C000FF92CF93DF936B017C010E943A03EB0111
:1006D000C114D104E104F10489F00E9452090E947E
:1006E0003A036C1B7D0B683E734090F381E0C81A9F
:1006F000D108E108F108C851DC4FEACFDF91CF9172
:10070000FF90EF90DF90CF900895789484B5826049
:1007100084BD84B5816084BD85B5826085BD85B5A5
:10072000816085BDEEE6F0E0808181608083E1E854
:10073000F0E010828081826080838081816080838C
:10074000E0E8F0E0808181608083E1EBF0E080818F
:1007500084608083E0EBF0E0808181608083EAE761
:10076000F0E08081846080838081826080838081EA
:10077000816080838081806880831092C1000895A9
:10078000FC01818D228D90E0805C9F4F821B91093E
:100790008F7399270895FC01918D828D981731F000
:1007A000828DE80FF11D858D90E008958FEF9FEF0A
:1007B0000895FC01918D828D981761F0828DDF0183
:1007C000A80FB11D5D968C91928D9F5F9F73928F44
:1007D00090E008958FEF9FEF08958DE595E0892BC8
:1007E00049F080E090E0892B29F00E945D0581119D
:1007F0000C9400000895FC01848DDF01A80FB11D49
:10080000A35ABF4F2C91848D90E001968F73992746
:10081000848FA689B7892C93A089B1898C91806433
:100820008C93938D848D981306C00288F389E02DF4
:1008300080818F7D80830895CF93DF93EC01888D35
:100840008823C9F0EA89FB89808185FD05C0A889D4
:10085000B9898C9186FD0FC00FB607FCF5CF80815A
:1008600085FFF2CFA889B9898C9185FFEDCFCE01A4
:100870000E94FB03E7CFDF91CF910895CF92DF92E3
:10088000FF920F931F93CF93DF931F92CDB7DEB7E5
:100890006C0181E0D60158968C9358975B969C9199
:1008A0005B975C968C915C97981307C05096ED917E
:1008B000FC915197808185FD2EC0F601038D10E0DB
:1008C0000F5F1F4F0F731127F02EF601848DF81262
:1008D00011C00FB607FCF9CFD6015096ED91FC91EF
:1008E0005197808185FFF1CFC60169830E94FB0388
:1008F0006981EBCF838DE80FF11DE35AFF4F6083D1
:10090000D6015B960C935B975296ED91FC915397B1
:10091000808180620CC0D6015696ED91FC9157976C
:1009200060835096ED91FC91519780818064808323
:1009300081E090E00F90DF91CF911F910F91FF9098
:10094000DF90CF900895BF92CF92DF92EF92FF9207
:10095000CF93DF93EC016A017B01B22EE889F9891C
:1009600082E08083411581EE580761057105A1F091
:1009700060E079E08DE390E0A70196010E945309C1
:1009800021503109410951095695479537952795C9
:10099000211580E1380798F0E889F989108260E82C
:1009A00074E88EE190E0A70196010E94530921505E
:1009B0003109410951095695479537952795EC8599
:1009C000FD853083EE85FF852083188EEC89FD89B7
:1009D000B082EA89FB89808180618083EA89FB8912
:1009E000808188608083EA89FB8980818068808338
:1009F000EA89FB8980818F7D8083DF91CF91FF9091
:100A0000EF90DF90CF90BF9008951F920F920FB696
:100A10000F9211242F938F939F93EF93FF93E09165
:100A20004402F09145028081E0914A02F0914B022C
:100A300082FD12C0908180914D028F5F8F73209153
:100A40004E02821751F0E0914D02F0E0EC5CFD4F58
:100A5000958F80934D0201C08081FF91EF919F910E
:100A60008F912F910F900FBE0F901F9018951F928E
:100A70000F920FB60F9211242F933F934F935F93D2
:100A80006F937F938F939F93AF93BF93EF93FF9356
:100A900084E392E00E94FB03FF91EF91BF91AF913D
:100AA0009F918F917F916F915F914F913F912F9186
:100AB0000F900FBE0F901F90189584E392E00E9454
:100AC000C00321E0892B09F420E0822F08951092C1
:100AD00037021092360288EE93E0A0E0B0E08093F7
:100AE000380290933902A0933A02B0933B028AEC09
:100AF00091E0909335028093340285EC90E09093DE
:100B000041028093400284EC90E0909343028093F2
:100B1000420280EC90E0909345028093440281EC85
:100B200090E0909347028093460282EC90E090938D
:100B300049028093480286EC90E090934B028093A8
:100B40004A0210924D0210924E0210924F021092E1
:100B50005002089508950E9485030E94AA050E94EC
:100B60005F00CDEED3E00E9492002097E1F30E9457
:100B7000ED03F9CFCF92DF92EF92FF920F931F9385
:100B8000CF93DF937C016A01EB0100E010E00C15CC
:100B90001D0571F06991D701ED91FC910190F081F3
:100BA000E02DC7010995892B19F00F5F1F4FEFCF7B
:100BB000C801DF91CF911F910F91FF90EF90DF90CF
:100BC000CF9008956115710581F0DB010D90002033
:100BD000E9F7AD0141505109461B570BDC01ED917E
:100BE000FC910280F381E02D099480E090E008956B
:100BF0000C94E205DC01ED91FC910190F081E02D77
:100C000009946BE771E00C94E2058F929F92AF928A
:100C1000BF92CF92DF92EF92FF920F931F93CF93E9
:100C2000DF93CDB7DEB7A1970FB6F894DEBF0FBE46
:100C3000CDBF7C01C42EE52FCB01D22E19A221E01D
:100C40002D1510F02AE0D22E8E010F5D1F4F8D2C36
:100C5000912CA12CB12C6C2D7E2FA50194010E940A
:100C600053098C2DD29E80191124015011098A300C
:100C700014F4805D01C0895CF80180832115310581
:100C80004105510521F0C22EE32FCA01E4CFB8017E
:100C9000C7010E94E205A1960FB6F894DEBF0FBE11
:100CA000CDBFDF91CF911F910F91FF90EF90DF901B
:100CB000CF90BF90AF909F908F900895CF92DF928A
:100CC000EF92FF920F931F93CF93DF93EC016A0192
:100CD0007B012115310579F4E881F9810190F081DA
:100CE000E02D642FDF91CF911F910F91FF90EF9036
:100CF000DF90CF9009942A303105E9F477FF1AC0CC
:100D00006DE20E94FA058C0144275527BA014C195F
:100D10005D096E097F092AE0CE010E940506800F59
:100D2000911FDF91CF911F910F91FF90EF90DF9076
:100D3000CF9008952AE0B701A601CE01DF91CF91AF
:100D40001F910F91FF90EF90DF90CF900C940506CC
:100D50000F931F93CF93DF93EC019A01AB016627AA
:100D600057FD6095762F0E945E068C01CE010E9491
:100D70000106800F911FDF91CF911F910F91089570
:100D80002115310541F4DC01ED91FC910190F081D8
:100D9000E02D642F09940C9405069A01462F50E02B
:100DA00060E070E00C94C0060F931F93CF93DF9325
:100DB000EC019A01462F50E060E070E00E94C0060E
:100DC0008C01CE010E940106800F911FDF91CF910F
:100DD0001F910F9108950F931F93CF93DF93EC0111
:100DE0000E942E03688779878A879B87E881F9812B
:100DF0000680F781E02DCE01099597FF15C00E946E
:100E00002E03088519852A853B85601B710B820B93
:100E1000930B0C811D812E813F8160177107820722
:100E2000930720F38FEF9FEFDF91CF911F910F91E9
:100E300008950F931F93CF93DF93EC018B016DE720
:100E400071E00E94A107C8010E94EB0697FD05C052
:100E5000682FCE010E943D08F6CFCE01DF91CF91E1
:100E60001F910F910895FC01808191810C94130AC8
:100E7000CF93DF93EC0188819981009711F00E9454
:100E8000130A198218821D821C821B821A82DF912A
:100E9000CF9108950F931F93CF93DF93EC018B01B4
:100EA0006F5F7F4F888199810E94A20A009731F07D
:100EB000998388831B830A8381E001C080E0DF91EE
:100EC000CF911F910F910895CF93DF93EC0188810B
:100ED0009981892B29F08A819B818617970760F475
:100EE000CE010E944A07882341F08C819D81892B85
:100EF00019F4E881F981108281E0DF91CF910895A2
:100F0000EF92FF920F931F93CF93DF93EC017B013E
:100F10008A01BA010E946407811104C0CE010E94B7
:100F2000380707C01D830C83B701888199810E940F
:100F3000AF0BCE01DF91CF911F910F91FF90EF90FA
:100F40000895FC011182108213821282158214828C
:100F50006115710559F0FB0101900020E9F7AF011F
:100F600041505109461B570B0C94800708950F936D
:100F70001F93CF93DF938C01EB01FC018081918162
:100F8000009799F0428153812C813D81421753078C
:100F900050F0688179810E94AF0B8C819D81F801AE
:100FA0009583848313C00E94130A88819981F80174
:100FB000918380838A819B81938382838C819D81AD
:100FC00095838483198218821B821A821D821C8257
:100FD000DF91CF911F910F910895CF93DF93EC0193
:100FE0008617970711F00E94B707CE01DF91CF91C6
:100FF0000895CF93DF93EC016115710561F0FB015A
:1010000001900020E9F7AF0141505109461B570BF1
:101010000E94800702C00E943807CE01DF91CF9165
:101020000895EF92FF920F931F93CF93DF93EC01FC
:101030007B010C811D816115710511F480E016C0E2
:101040004115510591F0040F151FB8010E94640766
:101050008823A1F3288139818C819D81B701820F7A
:10106000931F0E94AF0B1D830C8381E0DF91CF9112
:101070001F910F91FF90EF900895CF93DF9300D0D1
:10108000CDB7DEB769831A8241E050E0BE016F5FE1
:101090007F4F0E9411080F900F90DF91CF9108951C
:1010A000FA01DB0114964D915C911597DC011496C1
:1010B0002D913C911597241B350B2E173F0788F077
:1010C0008D919C91009769F0DB016D917C91611588
:1010D000710539F08E0F9F1F0E94B60B21E0892BFE
:1010E00009F020E0822F0895FC0144815581FB0125
:1010F000248135814217530720F040E050E00C94E2
:10110000500880E00895CF93DF93FC01848195819E
:101110004817590778F4C081D181772767FD70950A
:10112000CE01840F951F0E94A40B009719F08C1B11
:101130009D0B02C08FEF9FEFDF91CF91089540E0AC
:1011400050E00C948308BF92CF92DF92EF92FF920F
:101150000F931F93CF93DF936C017B01EA01890109
:101160002417350720F48D2FE901042F182F6DE780
:1011700071E0C6010E94A107D70114968D919C9140
:101180001597C817D907C8F48017910708F48C0180
:10119000D701ED91FC911197E00FF11FB080108203
:1011A0006D917C916C0F7D1FC6010E94F907D701DC
:1011B000ED91FC91E00FF11FB082C601DF91CF915C
:1011C0001F910F91FF90EF90DF90CF90BF90089507
:1011D000AF92BF92CF92DF92EF92FF920F931F9345
:1011E000CF93DF937C01DC01CD90DC901197C1148B
:1011F000D10409F441C01496CD91DC911597209744
:10120000D9F156018501BFEFAB1ABB0AF801808105
:10121000992787FD90950E94930B892B99F7219729
:10122000CC0DDD1D8881992787FD90950E94930B39
:10123000892B91F4AE014F5F5F4F401B510BD701DB
:1012400015965C934E931497C016D10650F4B801CE
:10125000C6010E949B0B05C0C017D10758F3219708
:10126000E1CFD701ED91FC91119714968D919C914E
:101270001597E80FF91F1082DF91CF911F910F9101
:10128000FF90EF90DF90CF90BF90AF900895FC015A
:1012900080819181009711F00C946C0B60E070E0FC
:1012A000CB0108950895A1E21A2EAA1BBB1BFD01D4
:1012B0000DC0AA1FBB1FEE1FFF1FA217B307E40735
:1012C000F50720F0A21BB30BE40BF50B661F771F8D
:1012D000881F991F1A9469F760957095809590956D
:1012E0009B01AC01BD01CF010895EE0FFF1F0590DA
:1012F000F491E02D0994CF93DF938230910510F49F
:1013000082E090E0E091D302F091D40220E030E05E
:10131000A0E0B0E0309739F140815181481759077A
:10132000B8F04817590771F482819381109729F01A
:1013300013969C938E9312972CC09093D402809313
:10134000D30227C02115310531F04217530718F099
:10135000A901DB0101C0EF019A01BD01DF0102809B
:10136000F381E02DD7CF21153105F9F0281B390B7A
:101370002430310580F48A819B816115710521F04B
:10138000FB019383828304C09093D4028093D302A1
:10139000FE01329644C0FE01E20FF31F8193919348
:1013A00022503109398328833AC02091D1023091EB
:1013B000D202232B41F4209102013091030130939A
:1013C000D2022093D1022091000130910101211518
:1013D000310541F42DB73EB740910401509105010C
:1013E000241B350BE091D102F091D202E217F307F2
:1013F000A0F42E1B3F0B2817390778F0AC014E5F85
:101400005F4F2417350748F04E0F5F1F5093D202ED
:101410004093D1028193919302C0E0E0F0E0CF01CC
:10142000DF91CF910895CF93DF93009709F487C0A0
:10143000FC01329713821282C091D302D091D40260
:10144000209781F420813181280F391F8091D102AA
:101450009091D2028217930779F5F093D202E0932C
:10146000D1026DC0DE0120E030E0AE17BF0750F4BE
:1014700012964D915C9113979D014115510509F10B
:10148000DA01F3CFB383A28340815181840F951F8A
:101490008A179B0771F48D919C911197840F951F6A
:1014A00002969183808312968D919C9113979383DA
:1014B00082832115310529F4F093D402E093D302FD
:1014C0003EC0D9011396FC93EE9312974D915D9116
:1014D000A40FB51FEA17FB0779F480819181840F6F
:1014E000951F0296D90111969C938E9382819381C8
:1014F00013969C938E931297E0E0F0E08A819B8193
:10150000009719F0FE01EC01F9CFCE010296288177
:101510003981820F931F2091D1023091D202281776
:10152000390769F4309729F41092D4021092D3024B
:1015300002C013821282D093D202C093D102DF91F3
:10154000CF910895A0E0B0E0E8EAFAE00C94F60B41
:10155000EC01CB01209719F40E947B09B8C0FE0171
:10156000E60FF71F9E0122503109E217F30708F436
:10157000ACC0D9010D911C91119706171707B8F04F
:101580000530110508F49FC0A801445051094617C1
:10159000570708F498C002501109061B170B019356
:1015A00011936D937C93CF010E94130A8CC05B0151
:1015B000A01AB10A4E01800E911EA091D302B091E3
:1015C000D402612C712C60E070E0109709F449C0DE
:1015D000A815B905C9F5ED90FC901197670142E097
:1015E000C40ED11CCA14DB0478F147018A189B0889
:1015F000640142E0C40ED11C1296BC90129713965F
:10160000AC91B5E0CB16D10440F0B282A3839182B5
:101610008082D9018D939C9309C00E5F1F4F0E0DE0
:101620001F1DF90111830083EB2DFA2F6115710540
:1016300031F0DB011396FC93EE93129744C0F093C4
:10164000D402E093D3023FC06D917C91119766164E
:10165000770608F43B01BD0112960D90BC91A02DB8
:10166000B4CF6091D1027091D20268157905E9F486
:1016700068167906D0F4409100015091010141159E
:10168000510541F44DB75EB76091040170910501B9
:10169000461B570BE417F507C0F4F093D202E09312
:1016A000D102F901918380830EC00E947B097C01E5
:1016B000009759F0A801BE010E949B0BCE010E9429
:1016C000130AC70104C0CE0102C080E090E0CDB78C
:1016D000DEB7EEE00C94120C1F93FC0199278827CB
:1016E000BC01E89411911032E9F3193010F01E306A
:1016F000C8F31B3251F01D3249F4689406C00E94B1
:10170000C40B610F711D811D911D119110531A3071
:10171000B0F33EF490958095709561957F4F8F4F13
:101720009F4F1F91089591115AC0803219F089502E
:101730008550D0F70895FB01DC0102C001900D92A5
:1017400041505040D8F70895FC018191861721F04F
:101750008823D9F7992708953197CF010895FB0180
:10176000DC0101900D920020E1F70895FB01DC01FE
:101770004150504030F08D910190801919F40020B3
:10178000B9F7881B990B0895592F482F372F262F0B
:10179000660F771F881F991F660F771F881F991F75
:1017A000620F731F841F951F660F771F881F991F75
:1017B0000895F999FECF92BD81BDF89A992780B519
:1017C0000895262FF999FECF1FBA92BD81BD20BD85
:1017D0000FB6F894FA9AF99A0FBE019608959927D0
:1017E000882708952F923F924F925F926F927F9237
:1017F0008F929F92AF92BF92CF92DF92EF92FF9221
:101800000F931F93CF93DF93CDB7DEB7CA1BDB0BCC
:101810000FB6F894DEBF0FBECDBF09942A88398871
:1018200048885F846E847D848C849B84AA84B98478
:10183000C884DF80EE80FD800C811B81AA81B98184
:10184000CE0FD11D0FB6F894DEBF0FBECDBFED0198
:061850000895F894FFCF9B
:101856000000D5028000564D4450565F317C315F02
:10186600564D4450560D0A00564D4450455F3100C2
:101876007C005F564D4450450D0A00726561640058
:1018860072656164696E6720646174612066726F57
:101896006D20616464726573733A200077726974AF
:1018A600650077726974696E6720646174613A20B5
:1018B60000746F20616464726573733A2000564D3C
:1018C6004450435F005F564D4450430D0A00457235
:1018D600726F723A20417474656D707420746F2053
:1018E600736574206120726561642D6F6E6C79205A
:1018F6007661726961626C65206F722064617461E1
:101906002074797065206E6F7420737570706F72B5
:101916007465640D0A00000000003E04BA05C003A9
:10192600D903CB031C046E616E00696E66006F7688
:0419360066002E0019
:00000001FF
