:100000000C945E000C9486000C9486000C94860080
:100010000C9486000C9486000C9486000C94B4001A
:100020000C9486000C9486000C9486000C94860038
:100030000C9486000C9486000C9486000C94860028
:100040000C948E090C9486000C9486000C94860007
:100050000C9486000C9486000C9486000C94860008
:100060000C9486000C948600000000080002010039
:100070000003040700000000000000000102040863
:100080001020408001020408102001020408102002
:10009000040404040404040402020202020203032E
:1000A0000303030300000000250028002B000000CC
:1000B0000000240027002A00DA00000111241FBEDE
:1000C000CFEFD8E0DEBFCDBF11E0A0E0B1E0ECEFB4
:1000D000FCE102C005900D92A431B107D9F721E0EF
:1000E000A4E1B1E001C01D92A937B207E1F710E029
:1000F000CAEBD0E004C02297FE010E94260CC83B48
:10010000D107C9F70E94020B0C94710E0C940000E9
:1001100046E051E066E070E084E191E00E94010475
:1001200084E191E00E94080162E070E084E191E0E6
:100130000E94040184E191E00C947903CF93DF9352
:10014000C1E0D0E0BE0184E191E00E94870968EE41
:1001500073E080E090E00E94FB092196CB30D1054E
:1001600089F7DF91CF9108951F920F920FB60F92EA
:1001700011242F933F934F935F936F937F938F93AC
:100180009F93AF93BF93EF93FF9384E191E00E941D
:10019000DC06FF91EF91BF91AF919F918F917F917D
:1001A0006F915F914F913F912F910F900FBE0F90E4
:1001B0001F901895AF92BF92CF92DF92EF92FF926D
:1001C0000F931F9389E0A82EB12C98E0C92ED12C53
:1001D00027E0E22EF12C06E010E025E030E044E0DC
:1001E00050E063E070E084E191E00E9465011F91BE
:1001F0000F91FF90EF90DF90CF90BF90AF90089558
:1002000085E691E00C94110BFC0173AF62AF089589
:10021000FC0117A616A681E090E091AB80AB93ABF2
:1002200082AB15AA14AA08950F931F93CF93DF935F
:10023000EC0100E010E08E8D9F8D0817190774F413
:10024000C801880F991FEC8DFD8DE80FF91F68A973
:1002500080810E94CB0A0F5F1F4FEDCF6CA9888170
:100260000E94CB0A6CA98A810E94CB0A6CA98C815E
:100270000E94CB0A6CA98E810E94CB0A6CA988854A
:100280000E94CB0A6CA98A850E94CB0A6CA98C8536
:100290000E94CB0A8E859F858F3F2FEF920719F022
:1002A0006CA90E94CB0A8A8D9B8D8F3F2FEF9207FE
:1002B00039F068A9DF91CF911F910F910C94CB0A6F
:1002C000DF91CF911F910F9108952F923F924F92FE
:1002D0005F926F927F928F929F92AF92BF92CF92D6
:1002E000DF92EF92FF920F931F93CF93DF93EC0176
:1002F000962E872E3A01190162E171E08F5A9F4FC5
:100300000E947F0B44244394512C5FA64EA619AA49
:1003100018AA1BAA1AAA5DAA4CAA988289827B8273
:100320006A823D822C821F830E83F986E886DB86F3
:10033000CA86BD86AC860FEF1FEF1F870E8761E070
:10034000892D0E94920A61E08A810E94920A61E0EE
:100350008C810E94920A61E08E810E94920A61E083
:1003600088850E94920A61E08A850E94920A61E073
:100370008C850E94920A1F8E1E8E8CA99DA9998B36
:10038000888B9B8B8A8B1D8B0C8B1F8B0E8B198FF5
:10039000088F1B8F0A8F18A219A21AA21BA21CA2D7
:1003A0001DA21EA21FA218A619A61AA61BA684E6A5
:1003B00090E09DA78CA71FAA1EAA59AE48AE1BAFFE
:1003C0000AAF1CAE1DAE1EAE1FAEFE01E05CFF4FBD
:1003D000108211821282138234961082118212824C
:1003E0001382349610821182128213823496118203
:1003F0001082329611821082329680E28083CE0182
:10040000DF91CF911F910F91FF90EF90DF90CF90F0
:10041000BF90AF909F908F907F906F905F904F9024
:100420003F902F900C9414012F923F924F925F9225
:100430006F927F928F929F92AF92BF92CF92DF92F4
:10044000EF92FF920F931F93CF93DF9300D000D0D2
:10045000CDB7DEB76C014A015B013C832B8377FF8C
:100460000CC066277727CB01681979098A099B098F
:1004700021E030E03A83298304C0CB01BA011A821B
:100480001982F601E68CF78C9701215031094B81D6
:100490005C814217530719F1212C312CE41AF50A1B
:1004A00051E0E51AF1084AE0442E512C612C712CE0
:1004B0002E143F0454F4A30192010E94BC0BCA0104
:1004C000B901EFEF2E1A3E0AF3CF2B813C812017A2
:1004D00031072CF4611571058105910549F02AE079
:1004E00030E040E050E00E94BC0B80E3860F14C077
:1004F0002B813C812F5F3F4FB501A401C6010E94B3
:1005000014028D3211F480E207C08032E1F3498198
:100510005A81452BC1F38DE20F900F900F900F90F1
:10052000DF91CF911F910F91FF90EF90DF90CF90CF
:10053000BF90AF909F908F907F906F905F904F9003
:100540003F902F9008958F929F92AF92BF92CF923B
:10055000DF92EF92FF92CF93DF934A015B01FC01A0
:10056000C68DD78DE1E0F0E0C12CD12C7601C3948B
:10057000AAE0B0E0A70196010E94DB0BEC17FD0793
:1005800024F46B017C013196F3CF6150710981092C
:100590009109681579058A059B057CF061E070E09A
:1005A00080E090E06C197D098E099F0986169706F8
:1005B000A806B90614F0C501B401DF91CF91FF90F0
:1005C000EF90DF90CF90BF90AF909F908F90089565
:1005D0002F923F924F925F926F927F928F929F9253
:1005E000AF92BF92CF92DF92EF92FF920F931F9341
:1005F000CF93DF93EC01C8A0D9A0EAA0FBA0ACA5E3
:10060000BDA5A70196010E94E60B24E630E040E07C
:1006100050E00E94BC0B2CA33DA34EA35FA3C21AC3
:10062000D30AE40AF50AC8A6D9A6EAA6FBA68AADAB
:100630009BAD019609F44AC0F8948CA09DA0AEA091
:10064000BFA08E01005C1F4F60E1462E512C612C33
:10065000712CC501B401A30192010E94BC0B215071
:10066000310941095109F8012083318342835383C1
:10067000C8A4D9A4EAA4FBA41E01F4E42F0E311CE3
:10068000C701B601A30192010E94BC0B21503109A0
:1006900041095109F1012083318342835383892821
:1006A0008A288B2829F4F801108211821282138281
:1006B000CD28CE28CF2829F4F10110821182128290
:1006C00013821CAE1DAE1EAE1FAE7894DF91CF918B
:1006D0001F910F91FF90EF90DF90CF90BF90AF9060
:1006E0009F908F907F906F905F904F903F902F9052
:1006F0000895CF93DF93EC01F8948AAD9BAD892BDD
:1007000081F414BC15BC16BC83E087BD84B582603F
:1007100084BD85B5836085BD80916E0082608093C5
:100720006E008AAD9BAD0197E9F4109280001092A3
:100730008100109285001092840083E090E09093F5
:100740008900809388008091810088608093810077
:100750008091810083608093810080916F0082602E
:1007600080936F008AAD9BAD0297C1F41092B000E8
:100770001092B1001092B20083E08093B300809198
:10078000B00082608093B0008091B100846080935B
:10079000B100809170008260809370007894CE01E7
:1007A0000E94E8021CAE1DAE1EAE1FAEDF91CF91BF
:1007B0000895CF93DF93EC019B01442737FD4095CB
:1007C000542F60E472E48FE090E00E94BC0BCA01F9
:1007D000B9012E8D3F8D4A8D5B8D4F3F5F4F11F0DC
:1007E0002F5F3F4F442737FD4095542F0E94BC0B8D
:1007F00028A339A34AA35BA3CE01DF91CF910C9428
:10080000E8020F931F93CF93DF93EC015D8F4C8F22
:100810007F8F6E8F00E010E08E8D9F8D0817190777
:1008200074F4C801880F991FEC8DFD8DE80FF91F36
:1008300061E080810E94920A0F5F1F4FEDCFCE01D1
:100840000E94140164E670E0CE01DF91CF911F9108
:100850000F910C94D9030F931F93CF93DF93EC0167
:100860008B010E941401000F111FEC8DFD8DE00F14
:10087000F11F6EA58081DF91CF911F910F910C9494
:10088000CB0ACF93DF93EC01633791F40E941401FC
:100890006EA58A8D0E94CB0A68898C890E94CB0A3A
:1008A00068898E890E94CB0A6A89888D0E94CB0A4A
:1008B000CE01DF91CF910C941401FC0162A98685D1
:1008C0000C94CB0AFC0164A986850C94CB0AFC012C
:1008D00062A983A9608B818B828D938D019619F417
:1008E00084890C94CB0A0895FC0164A985A9608BC6
:1008F000818B828D938D019619F484890C94CB0A97
:1009000008950F931F93CF93DF93EC018B016CA994
:1009100088810E94CB0A6CA98A810E94CB0A6CA9AB
:100920008C810E94CB0A6CA98E810E94CB0A6CA993
:1009300088850E94CB0A6CA98A850E94CB0A6CA983
:100940008C850E94CB0A0130110539F46AA98A818D
:100950000E94CB0A6AA98C8115C002301105A9F446
:100960006AA988810E94CB0A6AA98A810E94CB0A5F
:100970006AA98C850E94CB0A6AA988850E94CB0A45
:100980006AA98E810E94CB0A44C003301105A9F4E4
:100990006AA988810E94CB0A6AA98A810E94CB0A2F
:1009A0006AA98C850E94CB0A6AA98C810E94CB0A15
:1009B0006AA98E810E94CB0A42C00430110589F4D5
:1009C0006AA98A850E94CB0A6AA98C850E94CB0AF3
:1009D0006AA98A810E94CB0A6AA98C810E94CB0AEB
:1009E0005AC005301105A9F46AA988810E94CB0A72
:1009F0006AA98A850E94CB0A6AA98C850E94CB0AC3
:100A00006AA98C810E94CB0A6AA98E810E94CB0AB6
:100A10005CC00630110599F46AA988810E94CB0A4E
:100A20006AA98A850E94CB0A6AA988850E94CB0A96
:100A30006AA98E810E94CB0A6AA98C8127C00730DF
:100A4000110559F46AA988810E94CB0A6AA98A8192
:100A50000E94CB0A6AA98C8150C008301105D9F4D4
:100A60006AA988810E94CB0A6AA98A810E94CB0A5E
:100A70006AA98C810E94CB0A6AA98E810E94CB0A46
:100A80006AA988850E94CB0A6AA98A850E94CB0A36
:100A90006AA98C8532C009301105B9F46AA98C8520
:100AA0000E94CB0A6AA98A850E94CB0A6AA988811A
:100AB0000E94CB0A6AA98A810E94CB0A6AA98C810A
:100AC0000E94CB0A6AA98E8118C0012BE1F46AA9A1
:100AD00088810E94CB0A6AA98A810E94CB0A6AA9EE
:100AE0008C810E94CB0A6AA98E810E94CB0A6AA9D6
:100AF00088850E94CB0A6AA98A85DF91CF911F91D0
:100B00000F910C94CB0ADF91CF911F910F91089513
:100B10001F93CF93DF93EC01162F6CA988810E945D
:100B2000CB0A6CA98A810E94CB0A6CA98C810E9495
:100B3000CB0A6CA98E810E94CB0A6CA988850E9481
:100B4000CB0A6CA98A850E94CB0A6CA98C850E946D
:100B5000CB0A1D3271F0183F81F46AA988810E9486
:100B6000CB0A6AA98A810E94CB0A6AA98A850E9457
:100B7000CB0A6AA98C850E94CB0A80ED810F8A304E
:100B800048F4612F772767FD709560537109CE0196
:100B90000E9481048FE9810F8A3108F410521134C8
:100BA00029F46AA988810E94CB0A3CC0123419F446
:100BB0006AA98C8116C0133419F46AA9888198C077
:100BC000143459F46AA98A810E94CB0A6AA98C81DB
:100BD0000E94CB0A6AA98E8140C0153429F46AA903
:100BE00088810E94CB0A6DC0163419F46AA98881E5
:100BF0006AC0173419F46AA9888176C0183491F054
:100C0000193409F47BC01A3459F46AA98A810E9404
:100C1000CB0A6AA98C810E94CB0A6AA98E8114C072
:100C20001B3439F46AA98A810E94CB0A6AA98C8193
:100C30004AC01C3409F45EC01D3459F46AA9888185
:100C40000E94CB0A6AA98C810E94CB0A6AA9888576
:100C50005BC01E3429F46AA98C810E94CB0A1FC094
:100C60001F3429F46AA988810E94CB0A3BC0103541
:100C700039F46AA988810E94CB0A6AA98A8123C0B3
:100C8000113559F46AA988810E94CB0A6AA98A8120
:100C90000E94CB0A6AA98C811AC0123519F46AA97C
:100CA000888519C0133559F46AA988810E94CB0A36
:100CB0006AA98C810E94CB0A6AA98E8108C014356A
:100CC00079F46AA98E810E94CB0A6AA988850E945C
:100CD000CB0A6AA98A850E94CB0A6AA98C8514C0AE
:100CE0001535A9F46AA98A810E94CB0A6AA98C8168
:100CF0000E94CB0A6AA98E810E94CB0A6AA98885C4
:100D00000E94CB0A6AA98A850E94CB0A51C0163577
:100D100059F46AA98C810E94CB0A6AA98E810E942B
:100D2000CB0A6AA988853FC0173559F46AA98A8118
:100D30000E94CB0A6AA98E810E94CB0A6AA98A8581
:100D400032C0183559F46AA98A810E94CB0A6AA96F
:100D50008C810E94CB0A6AA988850CC0193579F468
:100D60006AA98A810E94CB0A6AA98C810E94CB0A57
:100D70006AA98E810E94CB0A6AA98A8510C01A3599
:100D8000B9F46AA988810E94CB0A6AA98A810E9463
:100D9000CB0A6AA98E810E94CB0A6AA988850E9423
:100DA000CB0A6AA98C85DF91CF911F910C94CB0A55
:100DB000DF91CF911F9108958F929F92AF92BF9232
:100DC000CF92DF92EF92FF920F931F93CF93DF9317
:100DD000EC014CAD5DAD6EAD7FAD4F5F5F4F6F4FC2
:100DE0007F4F4CAF5DAF6EAF7FAFFC01E05CFF4F5C
:100DF00080819181A281B381481759076A077B07D7
:100E00002CF188AD99AD019709F51CAE1DAE1EAE53
:100E10001FAE19AE18AE60E2CE010E9488058E01A9
:100E2000005B1F4FD8018C91803731F08E3221F05A
:100E3000833711F0863619F4CE010E946204F8015E
:100E400080818A3319F4CE010E9474044CAD5DADEB
:100E50006EAD7FADFE01EC5BFF4F80819181A28181
:100E6000B381481759076A077B070CF42CC188AD7A
:100E700099AD892B09F027C11CAE1DAE1EAE1FAE69
:100E800081E090E099AF88AF8EA99FA901969FABB2
:100E90008EAB2E8D3F8D8217930754F04A8D5B8D5C
:100EA0004F3F5F4F19F08217930711F01FAA1EAA38
:100EB0006EA97FA96217730729F463E7CE010E9428
:100EC000410403C0CE010E942B047E0120E5E20E06
:100ED000F11CD7018C91803711F0863601F56E0137
:100EE000BCE4CB0ED11CF601008111812EA93FA9D3
:100EF00034974081518162817381CE010E94140236
:100F0000682FCE010E948805D6012D913C918EA9B3
:100F10009FA92817390719F4CE010E945D04F70133
:100F20008081893691F40E8D1F8D2EA93FA9FE0177
:100F3000E85BFF4F4081518162817381CE010E9445
:100F40001402682FCE010E948805D7018C918A3344
:100F500021F08E3211F08F35A1F5CA8CDB8C2EA9D1
:100F60003FA90E8D1F8D2017310721F4CE010E945D
:100F7000670427C0FE01E85BFF4F40815181628119
:100F80007381CE010E941402682FCE010E94880551
:100F9000F70180818A3331F4CD20C09419F4CE0159
:100FA0000E946704D7018C918E3259F48E8D9F8DEB
:100FB00003972EA93FA92817390719F4CE010E94DB
:100FC0005D04F7018081833771F58E01025B1F4F4D
:100FD000D8014D915C9180E090E0C12CD12CFA01B8
:100FE000EC0DFD1D6081662381F02EA93FA98217BB
:100FF00093075CF421812E3219F4BFEFCB1ADB0A80
:10100000EFEFCE1ADE0A0196EACFCE010E948805E4
:10101000D801ED91FC91EC0DFD1D81818E3219F40A
:10102000CE010E945D04F70180818F3609F04BC02C
:10103000A12CB12C00E010E04E01F5E58F0E911CC3
:101040009E012F5A3F4F7901D4018D919C91F80157
:1010500031966F010817190728F48EA99FA9A816C1
:10106000B90604F1B801C7010E94950BDC016C912F
:10107000CE010E948805B601C7010E94950BFC01B4
:1010800080818E3201F5CE01DF91CF911F910F91BA
:10109000FF90EF90DF90CF90BF90AF909F908F9098
:1010A0000C945D04BF01C7010E94950BDC018C917B
:1010B0008E3239F486010F5F1F4F3FEFA31AB30A38
:1010C000C3CF6801F7CFDF91CF911F910F91FF90B0
:1010D000EF90DF90CF90BF90AF909F908F9008954A
:1010E000CB01009781F0611520E4720714F40C9491
:1010F000230A68EE73E00E94A80B882777FD80958D
:10110000982F0C94FB0908952F923F924F925F9273
:101110006F927F928F929F92AF92BF92CF92DF9207
:10112000EF92FF920F931F93CF93DF93EC014A014D
:101130005B0119018AAD9BAD0E8D1F8D019609F0E3
:1011400098C0E1E0F0E0412C512C32014394AAE038
:10115000B0E0A30192010E94DB0BE017F10724F439
:101160002B013C013196F3CF61507109810991093E
:10117000681579058A059B0574F0C12CD12C760180
:10118000C394C418D508E608F7088C149D04AE046F
:10119000BF042CF002C04B015C01750164015801D1
:1011A0002114310429F0A218B30881E0A81AB1086B
:1011B000F7FE0CC0F094E094D094C094C11CD11CF4
:1011C000E11CF11C88248394912C02C0812C912C69
:1011D00001501109BAE04B2E512C612C712C17FDD6
:1011E00064C0B801CE010E942B04C114D104E104F3
:1011F000F10449F40A151B0534F48E8D9F8D019777
:101200000817190781F4C701B601A30192010E94D2
:10121000BC0BCE010E948104A016B10671F4CE0170
:101220000E945D040AC0892811F06DE201C060E2ED
:10123000CE010E948805812C912CC701B601A30123
:1012400092010E94BC0B69017A016CA17DA1CE01C3
:101250000E94700860E2CE010E948805CE010E94C3
:10126000620468A579A5CE010E9470080150110999
:10127000B6CF2114310421F00219130901501109CC
:10128000FE01E05BFF4F80E78083B501A401CE0142
:101290000E94A302FE01E85BFF4F6083718382839B
:1012A0009383C45BDF4F19830883DF91CF911F9134
:1012B0000F91FF90EF90DF90CF90BF90AF909F90F5
:1012C0008F907F906F905F904F903F902F900895F8
:1012D000CF93DF93EC018AAD9BAD019639F420E00A
:1012E00030E0CE01DF91CF910C948408FE01E05BE9
:1012F000FF4F89E68083CE010E94A302C85BDF4FC7
:10130000688379838A839B83DF91CF910895AB01B2
:10131000662757FD6095762F0C9468091F920F92EF
:101320000FB60F9211242F933F938F939F93AF93F8
:10133000BF9380916C0190916D01A0916E01B0916D
:101340006F0130916B0123E0230F2D3720F40196BC
:10135000A11DB11D05C026E8230F0296A11DB11DD8
:1013600020936B0180936C0190936D01A0936E01AB
:10137000B0936F018091700190917101A091720101
:10138000B09173010196A11DB11D809370019093DE
:101390007101A0937201B0937301BF91AF919F91BE
:1013A0008F913F912F910F900FBE0F901F90189526
:1013B0003FB7F8948091700190917101A0917201F2
:1013C000B091730126B5A89B05C02F3F19F0019677
:1013D000A11DB11D3FBF6627782F892F9A2F620F5D
:1013E000711D811D911D42E0660F771F881F991F97
:1013F0004A95D1F70895CF92DF92EF92FF92CF9363
:10140000DF936B017C010E94D809EB01C114D10468
:10141000E104F10489F00E94A70B0E94D8096C1B1B
:101420007D0B683E734090F381E0C81AD108E10853
:10143000F108C851DC4FEACFDF91CF91FF90EF90D8
:10144000DF90CF9008958230910538F0880F991F72
:10145000880F991F05970197F1F70895789484B53F
:10146000826084BD84B5816084BD85B5826085BDA0
:1014700085B5816085BDEEE6F0E080818160808386
:10148000E1E8F0E010828081826080838081816069
:101490008083E0E8F0E0808181608083E1EBF0E030
:1014A000808184608083E0EBF0E0808181608083D4
:1014B000EAE7F0E0808184608083808182608083BD
:1014C0008081816080838081806880831092C100E8
:1014D0000895833081F028F4813099F08230A1F0B2
:1014E00008958730A9F08830B9F08430D1F4809124
:1014F00080008F7D03C0809180008F778093800073
:10150000089584B58F7702C084B58F7D84BD08951A
:101510008091B0008F7703C08091B0008F7D809361
:10152000B0000895CF93DF9390E0FC01E458FF4FA3
:101530002491FC01E057FF4F8491882349F190E00A
:10154000880F991FFC01E255FF4FA591B4918C556E
:101550009F4FFC01C591D4919FB7611108C0F894C9
:101560008C91209582238C93888182230AC06230DB
:1015700051F4F8948C91322F309583238C93888189
:10158000822B888304C0F8948C91822B8C939FBF0C
:10159000DF91CF9108950F931F93CF93DF931F9205
:1015A000CDB7DEB7282F30E0F901E859FF4F84911D
:1015B000F901E458FF4F1491F901E057FF4F0491EE
:1015C0000023C9F0882321F069830E94690A698198
:1015D000E02FF0E0EE0FFF1FEC55FF4FA591B49107
:1015E0009FB7F8948C91611103C01095812301C0BD
:1015F000812B8C939FBF0F90DF91CF911F910F9103
:10160000089508950E942E0A0E94010B0E948800EE
:10161000C0E0D0E00E949E002097E1F30E9400000D
:10162000F9CFFC01808191810C94D10CCF93DF9391
:10163000EC0188819981009711F00E94D10C1982E8
:1016400018821D821C821B821A82DF91CF9108951D
:101650000F931F93CF93DF93EC018B016F5F7F4F4D
:10166000888199810E94600D009731F09983888369
:101670001B830A8381E001C080E0DF91CF911F913D
:101680000F910895CF93DF93EC0188819981892B85
:1016900029F08A819B818617970760F4CE010E940A
:1016A000280B882341F08C819D81892B19F4E881D6
:1016B000F981108281E0DF91CF910895EF92FF923E
:1016C0000F931F93CF93DF93EC017B018A01BA0143
:1016D0000E94420B811104C0CE010E94160B07C06C
:1016E0001D830C83B701888199810E94330ECE013E
:1016F000DF91CF911F910F91FF90EF900895FC0122
:101700001182108213821282158214826115710572
:1017100059F0FB0101900020E9F7AF014150510958
:10172000461B570B0C945E0B0895FC018481958138
:101730006817790720F480819181009729F410922D
:10174000740184E791E00895860F971F0895089526
:1017500097FB072E16F4009407D077FD09D00E945E
:10176000EE0B07FC05D03EF4909581959F4F0895B0
:10177000709561957F4F0895052E97FB1EF4009498
:101780000E94D30B57FD07D00E94020C07FC03D028
:101790004EF40C94D30B50954095309521953F4FC6
:1017A0004F4F5F4F089590958095709561957F4F4D
:1017B0008F4F9F4F08950E942A0CA59F900DB49FB4
:1017C000900DA49F800D911D11240895B7FF0C94D6
:1017D000DB0B0E94DB0B821B930B0895AA1BBB1B28
:1017E00051E107C0AA1FBB1FA617B70710F0A61B21
:1017F000B70B881F991F5A95A9F780959095BC0142
:10180000CD010895A1E21A2EAA1BBB1BFD010DC03C
:10181000AA1FBB1FEE1FFF1FA217B307E407F507A0
:1018200020F0A21BB30BE40BF50B661F771F881F7C
:10183000991F1A9469F760957095809590959B0112
:10184000AC01BD01CF010895EE0FFF1F0590F4918B
:10185000E02D0994A29FB001B39FC001A39F700D1A
:10186000811D1124911DB29F700D811D1124911DA8
:101870000895CF93DF938230910510F482E090E0D9
:10188000E0917701F091780120E030E0A0E0B0E055
:10189000309739F14081518148175907B8F04817FE
:1018A000590771F482819381109729F013969C93C4
:1018B0008E9312972CC0909378018093770127C064
:1018C0002115310531F04217530718F0A901DB014A
:1018D00001C0EF019A01BD01DF010280F381E02D1B
:1018E000D7CF21153105F9F0281B390B24303105EC
:1018F00080F48A819B816115710521F0FB0193833E
:10190000828304C09093780180937701FE01329620
:1019100044C0FE01E20FF31F8193919322503109DD
:10192000398328833AC02091750130917601232BA9
:1019300041F420910201309103013093760120930C
:10194000750120910001309101012115310541F40B
:101950002DB73EB74091040150910501241B350B72
:10196000E0917501F0917601E217F307A0F42E1BC8
:101970003F0B2817390778F0AC014E5F5F4F2417F3
:10198000350748F04E0F5F1F509376014093750165
:101990008193919302C0E0E0F0E0CF01DF91CF911D
:1019A0000895CF93DF93009709F487C0FC01329725
:1019B00013821282C0917701D0917801209781F42F
:1019C00020813181280F391F809175019091760116
:1019D0008217930779F5F0937601E09375016DC056
:1019E000DE0120E030E0AE17BF0750F412964D91B3
:1019F0005C9113979D014115510509F1DA01F3CF6F
:101A0000B383A28340815181840F951F8A179B075E
:101A100071F48D919C911197840F951F029691837B
:101A2000808312968D919C911397938382832115C5
:101A3000310529F4F0937801E09377013EC0D90194
:101A40001396FC93EE9312974D915D91A40FB51FE1
:101A5000EA17FB0779F480819181840F951F029624
:101A6000D90111969C938E938281938113969C93B6
:101A70008E931297E0E0F0E08A819B81009719F045
:101A8000FE01EC01F9CFCE01029628813981820F47
:101A9000931F20917501309176012817390769F459
:101AA000309729F4109278011092770102C01382C6
:101AB0001282D0937601C0937501DF91CF91089582
:101AC000A0E0B0E0E6E6FDE00C943E0EEC01CB01B8
:101AD000209719F40E94390CB8C0FE01E60FF71FD9
:101AE0009E0122503109E217F30708F4ACC0D90176
:101AF0000D911C91119706171707B8F005301105C5
:101B000008F49FC0A801445051094617570708F42C
:101B100098C002501109061B170B019311936D9386
:101B20007C93CF010E94D10C8CC05B01A01AB10A3A
:101B30004E01800E911EA0917701B0917801612C29
:101B4000712C60E070E0109709F449C0A815B90540
:101B5000C9F5ED90FC901197670142E0C40ED11CCD
:101B6000CA14DB0478F147018A189B08640142E03B
:101B7000C40ED11C1296BC9012971396AC91B5E08E
:101B8000CB16D10440F0B282A38391828082D90126
:101B90008D939C9309C00E5F1F4F0E0D1F1DF90101
:101BA00011830083EB2DFA2F6115710531F0DB01F4
:101BB0001396FC93EE93129744C0F0937801E09350
:101BC00077013FC06D917C9111976616770608F4F6
:101BD0003B01BD0112960D90BC91A02DB4CF609138
:101BE00075017091760168157905E9F46816790632
:101BF000D0F440910001509101014115510541F48B
:101C00004DB75EB76091040170910501461B570BFB
:101C1000E417F507C0F4F0937601E0937501F9013C
:101C2000918380830EC00E94390C7C01009759F08B
:101C3000A801BE010E942A0ECE010E94D10CC7014C
:101C400004C0CE0102C080E090E0CDB7DEB7EEE088
:101C50000C945A0EFB01DC0102C001900D92415020
:101C60005040D8F70895FB01DC0101900D9200204F
:101C7000E1F708952F923F924F925F926F927F9279
:101C80008F929F92AF92BF92CF92DF92EF92FF928C
:101C90000F931F93CF93DF93CDB7DEB7CA1BDB0B38
:101CA0000FB6F894DEBF0FBECDBF09942A883988DD
:101CB00048885F846E847D848C849B84AA84B984E4
:101CC000C884DF80EE80FD800C811B81AA81B981F0
:101CD000CE0FD11D0FB6F894DEBF0FBECDBFED0104
:101CE000089510E0CAEBD0E004C0FE010E94260C6B
:0C1CF0002296CC3BD107C9F7F894FFCF37
:101CFC000000790180000A000B000C000D000E00A2
:041D0C000F000000C4
:00000001FF
