:100000000C9479000C94A1000C94A1000C94A10014
:100010000C94A1000C94A1000C94A1000C94A100DC
:100020000C94A1000C9410020C94A1000C94A1005B
:100030000C94A1000C943F010C94A1000C94A1001D
:100040000C9416030C94A1000C94EC050C941E0661
:100050000C94A1000C94A1000C94A1000C94A1009C
:100060000C94A1000C94A100EE02F402FA02000329
:100070000903090309030903090309030903090320
:10008000090309030903090376028302D3028A02E2
:100090009D02AF02D7020000000800020100000329
:1000A0000407000000000000000001020408102006
:1000B00040800102040810200102040810200404FA
:1000C0000404040404040202020202020303030300
:1000D00003030000000023002600290000000000A8
:1000E000250028002B0000000000240027002A0023
:1000F0004E0611241FBECFEFD8E0DEBFCDBF11E00A
:10010000A0E0B1E0E2E2FEE002C005900D92A03175
:10011000B107D9F721E0A0E1B1E001C01D92A43CF4
:10012000B207E1F710E0C2EFD0E004C02297FE0171
:100130000E94F506C03FD107C9F70E9492060C94B1
:100140000F070C940000EF92FF920F931F93CF9331
:10015000DF931F92CDB7DEB77C01FC0100811181D6
:10016000C80169830E94F9066981681719F0C801FE
:100170000E940107C7010F90DF91CF911F910F914E
:10018000FF90EF900895449A68EE73E080E090E06D
:100190000E948303449868E57BE180E090E00C9442
:1001A0008303F89410928000E1E8F0E0108210924E
:1001B000850010928400808184608083EFE6F0E007
:1001C00080818160808378941092180110921901C7
:1001D00010921A0110921B01089510928000109243
:1001E0008100109218011092190110921A011092B8
:1001F0001B01089526E040E855E260E070E087E2E8
:1002000091E00E948A0561E083E00E940F0461E0B2
:1002100083E00E94480460E089E00E940F0461E0EE
:1002200089E00E94480487B18F6087B988B18F60E8
:1002300088B964EF71E080E090E00E94830388B1A8
:10024000807F88B960E083E00E9448040E94C30078
:1002500060E177E280E090E00E94830310921C014D
:1002600087EF91E00E94F9068F3F29F460E087EF65
:1002700091E00E9401070E94D1000C94ED001F92B2
:100280000F920FB60F9211242F933F934F935F93CA
:100290006F937F938F939F93AF93BF93EF93FF934E
:1002A0008091180190911901A0911A01B0911B0140
:1002B0000196A11DB11D8093180190931901A0937F
:1002C0001A01B0931B018091180190911901A0911E
:1002D0001A01B0911B01CC97A105B10511F40E9440
:1002E000ED00FF91EF91BF91AF919F918F917F9121
:1002F0006F915F914F913F912F910F900FBE0F9093
:100300001F901895F8941092B000E1EBF0E0108285
:100310001092B200808184608083E0E7F0E0808109
:1003200081608083789410921401109215011092CC
:1003300016011092170108951092B0001092B100AA
:1003400010921401109215011092160110921701CB
:10035000089589E00E947E04892B09F050C00E9414
:1003600082018091100190911101A0911201B09130
:1003700013018D3D9240A105B10588F480911401CF
:1003800090911501A0911601B09117018093100171
:1003900090931101A0931201B0931301E2CF89E071
:1003A0000E947E04892BD9F588B18F6088B980912D
:1003B0008000811111C08091810081110DC06AE51A
:1003C00087E291E00E94C90687EF91E00E94F9065A
:1003D000811102C00E94D10087EF91E00E94F906CE
:1003E00028EE33E0482F429FC001439F900D112417
:1003F000BC01882777FD8095982F0C94830388B1E2
:10040000807F88B90E9482010E949C011092100195
:100410001092110110921201109213010895089583
:100420001F920F920FB60F9211242F933F934F9369
:100430005F936F937F938F939F93AF93BF93EF934C
:10044000FF938091140190911501A0911601B09134
:1004500017010196A11DB11D809314019093150100
:10046000A0931601B093170180911401909115018A
:10047000A0911601B091170180389448AE41B105A2
:1004800011F40E949C01FF91EF91BF91AF919F9158
:100490008F917F916F915F914F913F912F910F902D
:1004A0000FBE0F901F901895CF93DF9300D0CDB75C
:1004B000DEB787E291E00E94A704181619060CF037
:1004C000A8C087E291E00E94C00480931D01992793
:1004D00087FD9095A92FB92FFC01F197E731F10520
:1004E00008F097C0EC5CFF4F0C94F30688B18F6066
:1004F00088B960ED77E080E090E00E94830388B1E6
:10050000807F88B986C088B18F6088B981E0809388
:100510001C017FC088B1807F88B910921C0183E0E4
:100520000E947E04892B09F074C05B9A60E587E223
:1005300091E00E94C9066AE421C083E00E947E0423
:10054000019709F066C05B9888B1807F88B960E543
:1005500087E291E00E94C90610921C015AC08BB13B
:1005600098E089278BB983E00E947E04019789F483
:1005700060E587E291E00E94C90668E587E291E0C4
:100580000E94C90660E67AEE80E090E00E94830354
:1005900040C060E787E291E00E94C90668E787E211
:1005A00091E00E94C90688B1807F88B9D5CF88B113
:1005B0009FE0892788B980911C0191E08927809369
:1005C0001C018EE00E947E04019711F469E501C0D0
:1005D00069E787E291E00E94C9061BC087EF91E0BE
:1005E0009A83898360E011C087EF91E09A838983C1
:1005F00065E00BC087EF91E09A8389836AE005C0CC
:1006000087EF91E09A83898364E1CE0101960E948D
:10061000A3000F900F90DF91CF91089580911C015E
:10062000811102C00E94A9010C9454021F920F92E2
:100630000FB60F9211242F933F938F939F93AF93F5
:10064000BF9380911F0190912001A0912101B09151
:10065000220130911E0123E0230F2D3720F4019653
:10066000A11DB11D05C026E8230F0296A11DB11DD5
:1006700020931E0180931F0190932001A0932101DC
:10068000B09322018091230190912401A091250132
:10069000B09126010196A11DB11D80932301909375
:1006A0002401A0932501B0932601BF91AF919F91A2
:1006B0008F913F912F910F900FBE0F901F90189523
:1006C0003FB7F8948091230190912401A0912501D6
:1006D000B091260126B5A89B05C02F3F19F00196C1
:1006E000A11DB11D3FBF6627782F892F9A2F620F5A
:1006F000711D811D911D42E0660F771F881F991F94
:100700004A95D1F70895CF92DF92EF92FF92CF935F
:10071000DF936B017C010E946003EB01C114D104E3
:10072000E104F10489F00E94D0060E9460036C1B72
:100730007D0B683E734090F381E0C81AD108E10850
:10074000F108C851DC4FEACFDF91CF91FF90EF90D5
:10075000DF90CF900895789484B5826084BD84B58D
:10076000816084BD85B5826085BD85B5816085BDAC
:10077000EEE6F0E0808181608083E1E8F0E01082C5
:10078000808182608083808181608083E0E8F0E006
:10079000808181608083E1EBF0E0808184608083F0
:1007A000E0EBF0E0808181608083EAE7F0E0808127
:1007B0008460808380818260808380818160808387
:1007C0008081806880831092C1000895833081F019
:1007D00028F4813099F08230A1F008958730A9F093
:1007E0008830B9F08430D1F4809180008F7D03C0CF
:1007F000809180008F7780938000089584B58F77F3
:1008000002C084B58F7D84BD08958091B0008F773C
:1008100003C08091B0008F7D8093B0000895CF9386
:10082000DF9390E0FC01E655FF4F2491FC01E25478
:10083000FF4F8491882349F190E0880F991FFC01B4
:10084000EA51FF4FA591B49184529F4FFC01C5918D
:10085000D4919FB7611108C0F8948C9120958223A0
:100860008C93888182230AC0623051F4F8948C9171
:10087000322F309583238C938881822B888304C008
:10088000F8948C91822B8C939FBFDF91CF91089528
:100890000F931F93CF93DF931F92CDB7DEB7282F0F
:1008A00030E0F901EA56FF4F8491F901E655FF4F18
:1008B0001491F901E254FF4F04910023C9F08823F9
:1008C00021F069830E94E6036981E02FF0E0EE0FDA
:1008D000FF1FE452FF4FA591B4919FB7F8948C91FC
:1008E000611103C01095812301C0812B8C939FBFA0
:1008F0000F90DF91CF911F910F910895CF93DF93C8
:10090000282F30E0F901EA56FF4F8491F901E655AE
:10091000FF4FD491F901E254FF4FC491CC2391F0E1
:1009200081110E94E603EC2FF0E0EE0FFF1FEE5264
:10093000FF4FA591B4912C912D2381E090E021F4FB
:1009400080E002C080E090E0DF91CF910895FC014B
:10095000818D228D90E0805C9F4F821B91098F7367
:1009600099270895FC01918D828D981731F0828D21
:10097000E80FF11D858D90E008958FEF9FEF0895AA
:10098000FC01918D828D981761F0828DDF01A80F97
:10099000B11D5D968C91928D9F5F9F73928F90E0B9
:1009A00008958FEF9FEF089584E496E0892B49F036
:1009B00080E090E0892B29F00E94440681110C947C
:1009C00000000895FC01848DDF01A80FB11DA35A1A
:1009D000BF4F2C91848D90E001968F739927848F5F
:1009E000A689B7892C93A089B1898C9180648C9356
:1009F000938D848D981306C00288F389E02D808141
:100A00008F7D80830895CF93DF93EC01888D8823B9
:100A1000C9F0EA89FB89808185FD05C0A889B9896B
:100A20008C9186FD0FC00FB607FCF5CF808185FF46
:100A3000F2CFA889B9898C9185FFEDCFCE010E94B4
:100A4000E204E7CFDF91CF910895CF92DF92FF923A
:100A50000F931F93CF93DF931F92CDB7DEB76C0137
:100A600081E0D60158968C9358975B969C915B9742
:100A70005C968C915C97981307C05096ED91FC9111
:100A80005197808185FD2EC0F601038D10E00F5F28
:100A90001F4F0F731127F02EF601848DF81211C02D
:100AA0000FB607FCF9CFD6015096ED91FC91519706
:100AB000808185FFF1CFC60169830E94E2046981CC
:100AC000EBCF838DE80FF11DE35AFF4F6083D60112
:100AD0005B960C935B975296ED91FC9153978081B6
:100AE00080620CC0D6015696ED91FC9157976083B9
:100AF0005096ED91FC91519780818064808381E0D4
:100B000090E00F90DF91CF911F910F91FF90DF90B8
:100B1000CF900895BF92CF92DF92EF92FF92CF9342
:100B2000DF93EC016A017B01B22EE889F98982E04A
:100B30008083411581EE580761057105A1F060E0E1
:100B400079E08DE390E0A70196010E94D106215043
:100B50003109410951095695479537952795211532
:100B600080E1380798F0E889F989108260E874E834
:100B70008EE190E0A70196010E94D1062150310933
:100B8000410951095695479537952795EC85FD857F
:100B90003083EE85FF852083188EEC89FD89B08235
:100BA000EA89FB89808180618083EA89FB89808171
:100BB00088608083EA89FB89808180688083EA89F4
:100BC000FB8980818F7D8083DF91CF91FF90EF90B3
:100BD000DF90CF90BF9008951F920F920FB60F92A3
:100BE00011242F938F939F93EF93FF93E0913701FD
:100BF000F09138018081E0913D01F0913E0182FD4C
:100C000012C09081809140018F5F8F7320914101CC
:100C1000821751F0E0914001F0E0E95DFE4F958FC1
:100C20008093400101C08081FF91EF919F918F914E
:100C30002F910F900FBE0F901F9018951F920F923B
:100C40000FB60F9211242F933F934F935F936F939F
:100C50007F938F939F93AF93BF93EF93FF9387E21D
:100C600091E00E94E204FF91EF91BF91AF919F91BB
:100C70008F917F916F915F914F913F912F910F9045
:100C80000FBE0F901F90189587E291E00E94A70475
:100C900021E0892B09F420E0822F089510922A0187
:100CA0001092290188EE93E0A0E0B0E080932B0140
:100CB00090932C01A0932D01B0932E0184E091E03C
:100CC000909328018093270185EC90E09093340164
:100CD0008093330184EC90E090933601809335014A
:100CE00080EC90E0909338018093370181EC90E0A4
:100CF00090933A018093390182EC90E090933C010B
:100D000080933B0186EC90E090933E0180933D01FF
:100D10001092400110924101109242011092430141
:100D2000089508950E94AB030E9491060E94FA0064
:100D3000C4EDD4E00E940E032097E1F30E94D40496
:100D4000F9CFCF92DF92EF92FF920F931F93CF9341
:100D5000DF937C016A01EB0100E010E00C151D053A
:100D600071F06991D701ED91FC910190F081E02D36
:100D7000C7010995892B19F00F5F1F4FEFCFC801ED
:100D8000DF91CF911F910F91FF90EF90DF90CF9067
:100D90000895DC01ED91FC910190F081E02D099422
:100DA0000895A1E21A2EAA1BBB1BFD010DC0AA1FAC
:100DB000BB1FEE1FFF1FA217B307E407F50720F0C4
:100DC000A21BB30BE40BF50B661F771F881F991F3F
:100DD0001A9469F760957095809590959B01AC0188
:100DE000BD01CF010895EE0FFF1F0590F491E02D96
:100DF0000994F999FECF92BD81BDF89A992780B5E3
:100E00000895262FF999FECF1FBA92BD81BD20BD4E
:100E10000FB6F894FA9AF99A0FBE01960895F894CD
:020E2000FFCF02
:100E2200000000002505A106A704C004B2040305C2
:00000001FF
