:100000000C9463000C948B000C948B000C9486026F
:100010000C9486020C9486020C948B000C948B003A
:100020000C948B000C948B000C948B000C948B0024
:100030000C948B000C948B000C948B000C948B0014
:100040000C9417040C948B000C948B000C948B0074
:100050000C948B000C948B000C948B000C948B00F4
:100060000C948B000C948B0000000008000201002F
:100070000003040700000000000000000102040863
:100080001020408001020408102001020408102002
:10009000040404040404040402020202020203032E
:1000A00003030303000000002300260029000000D2
:1000B0000000250028002B0000000000240027007D
:1000C0002A0088018F0111241FBECFEFD8E0DEBFC8
:1000D000CDBF11E0A0E0B1E0E8E4FDE002C0059092
:1000E0000D92A638B107D9F721E0A6E8B1E001C02A
:1000F0001D92A23FB207E1F710E0C4ECD0E004C0CB
:100100002297FE010E949306C23CD107C9F70E94C4
:10011000A9050C9497060C94000040E05BE460E0B5
:1001200070E086E891E00E94890360E071E086E873
:1001300091E00E94F60560E084E00E94100560E016
:1001400085E00E94100560E086E00C941005CF93D6
:10015000DF93EC0160E071E086E891E00E94F60533
:1001600064E670E080E090E00E9484046BE071E05F
:1001700086E891E00E94030664E670E080E090E08B
:100180000E948404C230D10509F1C330D105C9F100
:10019000219709F084C066E271E086E891E00E9450
:1001A000F60564E271E086E891E00E94F60568E2F7
:1001B00071E086E891E00E94F60564E271E086E86D
:1001C00091E00E94F60561E371E035C066E271E0FE
:1001D00086E891E00E94F60564E271E086E891E02D
:1001E0000E94F60568E271E086E891E00E94F6055B
:1001F00064E271E086E891E00E94F6056CE571E04A
:100200001AC066E271E086E891E00E94F60564E2B9
:1002100071E086E891E00E94F60568E271E086E808
:1002200091E00E94F60564E271E086E891E00E94A8
:10023000F60560E671E086E891E00E94F60564E26A
:1002400071E086E891E00E94F60565E371E086E8DA
:1002500091E00E94F60564E271E086E891E00E9478
:10026000F6056DE371E086E891E00E94F60564E230
:1002700071E086E891E00E94F6056FE371E086E8A0
:1002800091E00E94F60564E271E086E891E00E9448
:10029000F6056AE571E086E891E00E94F60564E6FD
:1002A00070E080E090E00E9484046AE186E891E0DA
:1002B0000E94150664E670E080E090E00E948404ED
:1002C00086E891E00E94FF0568E873E180E090E035
:1002D000DF91CF910C94840484E00E947F05892BE8
:1002E00021F081E090E00E94A70085E00E947F0558
:1002F000892B21F082E090E00E94A70086E00E9416
:100300007F05892B21F083E090E00C94A7000895ED
:1003100020E048E067E086E891E00C94590386E825
:1003200091E00C9400032091E7013091E801281737
:100330003907B9F49091A5018091A601981789F029
:10034000E091A501F0E0E955FE4F80812091A501E3
:1003500030E02F5F3F4F2F7333272093A50190E0AC
:1003600008958FEF9FEF08951F93CF93DF93DC01E4
:100370005C968D919C915D97009749F481E090E0A7
:1003800013969C938E93129780E090E03BC0519619
:10039000ED91FC91529750962C915097322F3095B9
:1003A0001FB75E964C915E9741FB772770F941FD30
:1003B0006095F8944081772311F0422B01C04323CC
:1003C0004083EC012197F1F748E0508160FF02C0C3
:1003D000522B01C053235083EC012197F1F766950E
:1003E000415099F78081772311F0832301C0822B3C
:1003F00080831FBF5C968D919C915D970197F1F76B
:1004000081E090E0DF91CF911F9108952091E70165
:100410003091E8012817390781F49091A501809166
:10042000A601981751F0E091A501F0E0E955FE4FC3
:100430008081992787FD909508958FEF9FEF08950C
:100440002091E7013091E8012817390771F4809174
:10045000A6012091A50190E0805C9F4F821B91092D
:1004600060E470E00E942806089580E090E008951E
:100470002091E7013091E8012817390739F48FB747
:10048000F8941092A6011092A5018FBF0895E091F3
:10049000E701F091E801E817F90769F4A389B48945
:1004A0009C918589809589238C931092E801109204
:1004B000E70181E0089580E00895CF93DF93EC0198
:1004C0008A8D9B8D892BF1F08091E7019091E80155
:1004D0008C179D07B9F0009711F00E9447028E8D8E
:1004E0008E7F8E8F1092A6011092A501D093E80105
:1004F000C093E701EB89FC8980819D89892B8083EA
:1005000081E001C080E0DF91CF9108951F920F92AA
:100510000FB60F9211242F933F934F935F936F93D6
:100520007F938F939F93AF93BF93EF93FF93E0914C
:10053000E701F091E801309709F451C0868DA68556
:10054000B785958581FF04C08C91892329F447C024
:100550008C91892309F043C0A389B4899C91858932
:10056000809589238C93868997890197F1F7208D4F
:10057000318DA685B785758558E040E0C9010197A2
:10058000F1F7842F90E095958795482F6C9167231C
:1005900009F04068515091F7868D81FD409580911A
:1005A000A60190E001968F7399272091A501281745
:1005B00049F0A091A601B0E0A955BE4F4C9380939D
:1005C000A60103C0868D8160868F828D938D0197F1
:1005D000F1F7A389B4898C919589892B8C93FF912C
:1005E000EF91BF91AF919F918F917F916F915F91AB
:1005F0004F913F912F910F900FBE0F901F90189524
:1006000028E631E0FC01318320830C9447021F93DC
:10061000CF93DF93EC01162F6E8D6695617081E0AC
:100620006827812F0E94490561E0812F0E941005F3
:10063000812F90E0FC01E458FF4FE491E88BFC012E
:10064000E057FF4FE491F0E0EE0FFF1FE255FF4F40
:10065000859194919A8B898BDF91CF911F91089509
:100660001F93CF93DF93EC01162F60E0812F0E9440
:1006700010058E8D81FD04C061E0812F0E94490527
:100680001C87812F90E0FC01E458FF4FE491ED8737
:10069000FC01E057FF4FE491F0E0EE0FFF1FEC5537
:1006A000FF4F859194919F878E87DF91CF911F9106
:1006B0000895FF920F931F93CF93DF93EC01F62ED3
:1006C000522F1B821A8208EE13E020E030E00C83E8
:1006D0001D832E833F8388E691E0998388831F8A58
:1006E0001E8A198E188E1B8E1A8E1D8E1C8E8E8D54
:1006F0008E7F50FB81F98E8F642FCE010E940703FD
:100700006F2DCE01DF91CF911F910F91FF900C942F
:100710003003CF93DF93EC019A01AB011B8E1A8E4D
:10072000198E188E1F8A1E8A60E079E08DE390E0B2
:100730000E945E06C9012430310520F0B9016350E2
:10074000710902C061E070E07D8F6C8FEC85E6314D
:1007500008F068C0B901769567956431710518F0A5
:100760006351710902C061E070E07F8B6E8B069768
:1007700018F0C901059702C081E090E0998F888F39
:10078000C901880F991F820F931F9695879596959B
:1007900087958D30910510F00C9702C081E090E0B4
:1007A0009B8F8A8F20916800E83050F091E0EE3006
:1007B00008F490E081E001C0880F9A95EAF701C043
:1007C00084E0822B809368002C85283038F02E300E
:1007D00040F0263148F48CE690E008C08DE690E0C9
:1007E00005C08BE690E002C080E090E09C8B8B8B94
:1007F000283030F481E001C0880F2A95EAF70DC057
:10080000822F90E02E3010F4089701C00E9791E0EF
:1008100001C0990F8A95EAF7892F8D8B8C8D9D8D5C
:100820000197F1F7CE01DF91CF910C945D021F92F9
:100830000F920FB60F9211242F933F938F939F9394
:10084000AF93BF938091EA019091EB01A091EC01ED
:10085000B091ED013091E90123E0230F2D3720F411
:100860000196A11DB11D05C026E8230F0296A11D0A
:10087000B11D2093E9018093EA019093EB01A093CD
:10088000EC01B093ED018091EE019091EF01A09108
:10089000F001B091F1010196A11DB11D8093EE010F
:1008A0009093EF01A093F001B093F101BF91AF914C
:1008B0009F918F913F912F910F900FBE0F901F909E
:1008C00018953FB7F8948091EE019091EF01A091B7
:1008D000F001B091F10126B5A89B05C02F3F19F09A
:1008E0000196A11DB11D3FBF6627782F892F9A2F32
:1008F000620F711D811D911D42E0660F771F881FD9
:10090000991F4A95D1F70895CF92DF92EF92FF9207
:10091000CF93DF936B017C010E946104EB01C11452
:10092000D104E104F10489F00E9427060E946104C9
:100930006C1B7D0B683E734090F381E0C81AD108B0
:10094000E108F108C851DC4FEACFDF91CF91FF9069
:10095000EF90DF90CF900895789484B5826084BD45
:1009600084B5816084BD85B5826085BD85B58160B3
:1009700085BDEEE6F0E0808181608083E1E8F0E013
:100980001082808182608083808181608083E0E842
:10099000F0E0808181608083E1EBF0E08081846021
:1009A0008083E0EBF0E0808181608083EAE7F0E023
:1009B0008081846080838081826080838081816087
:1009C00080838081806880831092C1000895833085
:1009D00081F028F4813099F08230A1F008958730B9
:1009E000A9F08830B9F08430D1F4809180008F7DF7
:1009F00003C0809180008F7780938000089584B534
:100A00008F7702C084B58F7D84BD08958091B0003A
:100A10008F7703C08091B0008F7D8093B0000895E0
:100A2000CF93DF9390E0FC01E458FF4F2491FC0149
:100A3000E057FF4F8491882349F190E0880F991F78
:100A4000FC01E854FF4FA591B49182559F4FFC01E2
:100A5000C591D4919FB7611108C0F8948C912095ED
:100A600082238C93888182230AC0623051F4F894E7
:100A70008C91322F309583238C938881822B8883AD
:100A800004C0F8948C91822B8C939FBFDF91CF91FF
:100A900008950F931F93CF93DF931F92CDB7DEB7C7
:100AA000282F30E0F901E859FF4F8491F901E4580B
:100AB000FF4F1491F901E057FF4F04910023C9F053
:100AC000882321F069830E94E7046981E02FF0E028
:100AD000EE0FFF1FE255FF4FA591B4919FB7F89419
:100AE0008C91611103C01095812301C0812B8C93DF
:100AF0009FBF0F90DF91CF911F910F910895CF93DA
:100B0000DF93282F30E0F901E859FF4F8491F90174
:100B1000E458FF4FD491F901E057FF4FC491CC2323
:100B200091F081110E94E704EC2FF0E0EE0FFF1F1F
:100B3000EC55FF4FA591B4912C912D2381E090E0CD
:100B400021F480E002C080E090E0DF91CF91089531
:100B500008950E94AC040E94A8050E948D00C0E088
:100B6000D0E00E946C012097E1F30E940000F9CFD1
:100B7000CF92DF92EF92FF920F931F93CF93DF9369
:100B80007C016A01EB0100E010E00C151D0571F01D
:100B90006991D701ED91FC910190F081E02DC701A1
:100BA0000995892B19F00F5F1F4FEFCFC801DF9117
:100BB000CF911F910F91FF90EF90DF90CF9008950C
:100BC0006115710581F0DB010D900020E9F7AD01A1
:100BD00041505109461B570BDC01ED91FC910280FD
:100BE000F381E02D099480E090E008950C94E005F5
:100BF000DC01ED91FC910190F081E02D099464E716
:100C000071E00C94E0050F931F93CF93DF93EC01F9
:100C10000E94E0058C01CE010E94FF05800F911F0C
:100C2000DF91CF911F910F9108950F931F93CF9351
:100C3000DF93EC010E94F8058C01CE010E94FF05B4
:100C4000800F911FDF91CF911F910F91089508950B
:100C500097FB072E16F4009407D077FD09D00E9469
:100C60007D0607FC05D03EF4909581959F4F089531
:100C7000709561957F4F0895A1E21A2EAA1BBB1BA8
:100C8000FD010DC0AA1FBB1FEE1FFF1FA217B30758
:100C9000E407F50720F0A21BB30BE40BF50B661F6E
:100CA000771F881F991F1A9469F760957095809532
:100CB00090959B01AC01BD01CF010895052E97FBD6
:100CC0001EF400940E94750657FD07D00E943C0652
:100CD00007FC03D04EF40C94750650954095309562
:100CE00021953F4F4F4F5F4F089590958095709598
:100CF00061957F4F8F4F9F4F0895AA1BBB1B51E1FA
:100D000007C0AA1FBB1FA617B70710F0A61BB70B7B
:100D1000881F991F5A95A9F780959095BC01CD0120
:100D20000895EE0FFF1F0590F491E02D099410E057
:100D3000C4ECD0E004C0FE010E9493062296C63C9B
:080D4000D107C9F7F894FFCFB9
:100D480041542B434D47463D310D004154202B2043
:100D5800434D4753203D20222B3132353633363927
:100D68003435333622007B006465746563746F72B2
:100D7800003A312C0072656D61726B73003A00465F
:100D8800697265207374617274656420616E642091
:100D9800737072656164696E67007D003A322C0079
:100DA8003A332C0000000000B401B805200293017A
:100DB800060238020D0A006E616E00696E66006FE9
:060DC8007666002E00001B
:00000001FF
