:100000000C948D000C94B5000C94B5000C948F06E4
:100010000C948F060C948F060C94B5000C94B500CC
:100020000C94B5000C94B5000C94B5000C94B5007C
:100030000C94B5000C94B5000C94B5000C94B5006C
:100040000C9420080C94B5000C940D0B0C943F0BF1
:100050000C94B5000C94B5000C94B5000C94B5004C
:100060000C94B5000C94B5004E4554574F524B00BC
:100070004C4F4747494E47204F4E20544F000000F9
:100080000008000201000003040700000000000057
:100090000000010204081020408001020408102022
:1000A00001020408102004040404040404040202ED
:1000B0000202020203030303030300000000230003
:1000C0002600290000000000250028002B00000069
:1000D0000000240027002A004E414E494E49545941
:1000E000494E46CDCCCC3D0AD7233C17B7D1387703
:1000F000CC2B329595E6241FB14F0A000020410019
:1001000000C84200401C4620BCBE4CCA1B0E5AAE62
:10011000C59D7400B5026F0BDA0211241FBECFEF2C
:10012000D8E0DEBFCDBF11E0A0E0B1E0E0ECFAE244
:1001300002C005900D92AE3EB107D9F723E0AEEEB6
:10014000B1E001C01D92A632B207E1F711E0C8E1AB
:10015000D1E004C02297FE010E943511C431D107BD
:10016000C9F70E94B30B0C9453150C9400008EEE4B
:1001700091E00E941D0D84EF91E00E941D0D87E12A
:1001800092E00C940907CF93DF93EA01462F682F82
:100190008FEF91E00E94BE04BE018FEF91E0DF91EE
:1001A000CF910C94230C60E08AE00E94690968EE0C
:1001B00073E080E090E00E94990861E08AE00C948E
:1001C0006909CF93DF93EC0166E071E087E192E08B
:1001D0000E94310C64E670E080E090E00E94990893
:1001E00061E171E087E192E00E943E0C64E670E01C
:1001F00080E090E00E9499086DE271E087E192E072
:100200000E943E0C4AE050E0BE0187E192E00E946D
:10021000050D61EB71E087E192E00E94310C64E62C
:1002200070E080E090E00E9499086AE187E192E046
:100230000E94500C64E670E080E090E00E94990813
:1002400087E192E00E943A0C68E873E180E090E078
:10025000DF91CF910C94990866E071E087E192E01C
:100260000E94310C64E670E080E090E00E94990802
:1002700061E171E087E192E00E943E0C64E670E08B
:1002800080E090E00E94990866E471E087E192E0E6
:100290000E943E0C64E670E080E090E00E949908C5
:1002A0006AE187E192E00E94500C64E670E080E031
:1002B00090E00E94990887E192E00E943A0C68E879
:1002C00073E180E090E00C9499080F931F93CF9313
:1002D000DF93CDB7DEB72C970FB6F894DEBF0FBE15
:1002E000CDBF61E080E10E94300961E08AE00E94B8
:1002F000300961E081E10E94300961E082E10E9401
:10030000300961E083E10E94300961E08FE00E94E2
:1003100030090E94D30026E040E855E260E070E03A
:1003200083E892E00E94AB0A20E044E064E18FEFB2
:1003300091E00E94D80440E05BE460E070E087E177
:1003400092E00E9492078FEF91E00E94B70440E094
:1003500060E08FEF91E00E94BE0461E671E08FEFF4
:1003600091E00E94310C41E060E08FEF91E00E944B
:10037000BE046AE671E08FEF91E00E94310C42E02A
:1003800060E08FEF91E00E94BE046BE771E08FEFB9
:1003900091E00E94310C68EB7BE080E090E00E94ED
:1003A00099088FEF91E00E94B70441E063E08FEF7E
:1003B00091E00E94BE0460E770E08FEF91E00E9440
:1003C000000C42E063E08FEF91E00E94BE0468E61B
:1003D00070E08FEF91E00E94000C16E064E975E098
:1003E00080E090E00E9499086EE28FEF91E00E9419
:1003F000330C115099F764E975E080E090E00E94B9
:10040000990866E071E087E192E00E94310C64E6B1
:1004100070E080E090E00E94990862E871E087E176
:1004200092E00E94310C64E670E080E090E00E946F
:1004300099088FEF91E00E94B7046FEDCE01079607
:100440000E941B0E65E971E0CE0101960E948B0DA2
:10045000BE01695F7F4FCE0101960E949E0E6DE93D
:1004600071E00E94B10EBC018FEF91E00E94230C5D
:10047000CE0101960E941D0DCE0107960E941D0D12
:1004800001E010E04AE0B801CE0101960E94330E6F
:10049000AE014F5F5F4FB80180E090E00E94C30063
:1004A000CE0101960E941D0D0F5F1F4F04301105F4
:1004B00049F70E942C012C960FB6F894DEBF0FBEB0
:1004C000CDBFDF91CF911F910F910895813091059C
:1004D00019F4439A439808958230910519F4449A87
:1004E00044980895039711F4459A459808950F93F9
:1004F0001F930E946A080091FB011091FC0120915A
:10050000FD013091FE01601B710B820B930B683E65
:10051000734081059105F0F08FE00E949F0961E032
:10052000892B09F060E08FE00E9469098091FB014E
:100530009091FC01A091FD01B091FE0188519C4F6A
:10054000AF4FBF4F8093FB019093FC01A093FD013F
:10055000B093FE011F910F91089561E080E10C942A
:10056000690960E080E10C946909CF92EF920F93E2
:1005700020E048E069E087E192E00E94620787E0BE
:10058000C82E96E0E92E05E024E043E062E08FEF1C
:1005900091E00E9476056FED71E084EF91E00E949A
:1005A0008B0D6FED71E08EEE91E00F91EF90CF909B
:1005B0000C948B0D0C94B700CF93DF93CDB7DEB7BF
:1005C00062970FB6F894DEBF0FBECDBF83E892E00E
:1005D0000E94C809181619060CF00CC183E892E0B5
:1005E0000E94E1098093FA016AE070E080E090E007
:1005F0000E9499088091FA018A3219F56FED71E035
:1006000084EF91E00E94030E8091FA018332A9F0F9
:1006100083E892E00E94E1098093FA016AE070E0C9
:1006200080E090E00E9499086091FA01633261F3E2
:1006300084EF91E00E948B0EE7CF84EF91E00E945F
:10064000420F2091F8013091F90143E050E064EF4E
:1006500071E0CE0101960E94FD0EBE016F5F7F4FDB
:100660008EEE91E00E94F70DCE0101960E941D0DC5
:100670008EEE91E00E94420F69EA71E08EEE91E009
:100680000E94CB0E8111B6C060E070E084EF91E073
:100690000E94FB0E843509F075C02091F80130915D
:1006A000F90143E050E064EF71E0CE010D960E9445
:1006B000FD0EBE01635F7F4FCE0107960E94EE0DD7
:1006C00066EA71E0CE0107960E94B10EBC01CE0130
:1006D00001960E94EE0D61E070E084EF91E00E94CF
:1006E000FB0E682F772767FD709560537109AE0187
:1006F0004F5F5F4F82E090E00E94C300CE01019601
:100700000E941D0DCE0107960E941D0DCE010D9673
:100710000E941D0D2091F8013091F90143E050E055
:1007200064EF71E0CE0101960E94FD0ECE010196AC
:100730000E94A10F20E030E040E252E40E946310EA
:100740001816E4F40E94AD0261E070E084EF91E0DD
:100750000E94FB0E992787FD9095C0970E94660224
:1007600061E070E084EF91E00E94FB0E992787FD25
:100770009095C0970E94E1000E947702CE010196F9
:100780000E941D0D60E070E084EF91E00E94FB0E7E
:10079000873481F52091F8013091F90143E050E070
:1007A00064EF71E0CE0101960E94FD0E61E070E001
:1007B00084EF91E00E94FB0E682F772767FD70950C
:1007C00060537109AE014F5F5F4F8AE090E00E9475
:1007D000C300CE0101960E941D0D6DEA71E08EEE00
:1007E00091E00E94CB0E882319F00E94AD0202C056
:1007F0000E94B10280E10E949F09892BD1F061E043
:1008000070E084EF91E00E94FB0E992787FD9095A0
:10081000C0970E94660261E070E084EF91E00E9460
:10082000FB0E992787FD9095C0970E94E1000E94DA
:10083000770262960FB6F894DEBF0FBECDBFDF9190
:10084000CF910895CF93DF93EC0160E08E810E94F9
:10085000690981E090E00E94C10861E08E810E94F8
:10086000690981E090E00E94C10860E08E810E94E9
:10087000690984E690E0DF91CF910C94C108EF9272
:10088000FF920F931F93CF93DF938C01C0E0D0E0D2
:10089000E62EF12CB7010C2E02C0759567950A94CF
:1008A000E2F76170F801EC0FFD1F87810E94690972
:1008B0002196C430D10571F7C801DF91CF911F9106
:1008C0000F91FF90EF900C942204EF92FF920F9300
:1008D0001F93CF93DF938C01C0E0D0E0E62EF12C84
:1008E000B7010C2E02C0759567950A94E2F7617006
:1008F000F801EC0FFD1F87810E9469092196C8301D
:10090000D10571F7C801DF91CF911F910F91FF9031
:10091000EF900C9422041F93CF93DF93EC01162FDA
:10092000642F8C810E9469098D818F3F19F060E0EE
:100930000E9469098F85612F84FF06C0CE01DF9177
:10094000CF911F910C94650470E084E075956795D4
:100950008A95E1F7CE010E943F04612FCE01DF911D
:10096000CF911F910C943F0440E00C948B0461E004
:100970000E94B40480ED97E00C94C108443008F064
:1009800043E0FC012389421710F04FEF420FFC01B6
:10099000E40FF11D2489260F2068622F0C94B40403
:1009A000FC016089262F2460208B6C600C94B404B9
:1009B0000F931F93CF93DF93EC01423018F08F8594
:1009C00088608F874B8B1C8A80E48D8B6E8B70E0E8
:1009D000605C7F4F6F8B222329F0413019F48F85A3
:1009E00084608F8761E08C810E9430098D818F3F08
:1009F00019F061E00E94300961E08E810E943009A7
:100A000000E010E08F8584FF03C088E090E002C022
:100A100084E090E00817190754F4FE01E00FF11F7D
:100A200061E087810E9430090F5F1F4FEBCF80E5A7
:100A300093EC0E94C10860E08C810E94690960E02B
:100A40008E810E9469098D818F3F19F060E00E94BC
:100A500069096F8564FD1DC063E0CE010E943F04FB
:100A600084E991E10E94C10863E0CE010E943F0445
:100A700084E991E10E94C10863E0CE010E943F0435
:100A800086E990E00E94C10862E0CE010E943F0426
:100A900016C06062CE010E94B40484E991E10E9414
:100AA000C1086F856062CE010E94B40486E990E0BF
:100AB0000E94C1086F856062CE010E94B4046F85F8
:100AC0006062CE010E94B40484E0888BCE010E9453
:100AD000D004CE010E94B70482E0898B66E0CE018B
:100AE000DF91CF911F910F910C94B404CF92EF92AC
:100AF0000F93FC011382128289EB91E09183808332
:100B000064838FEF8583468327830087E186C286CF
:100B10001386148615861686178620E041E060E16C
:100B2000CF010F91EF90CF900C94D80441E00E9438
:100B30008B0481E090E00895209178023091790251
:100B400028173907B9F49091360280913702981727
:100B500089F0E0913602F0E0E85CFD4F8081209161
:100B6000360230E02F5F3F4F2F733327209336023A
:100B700090E008958FEF9FEF08951F93CF93DF9339
:100B8000DC015C968D919C915D97009749F481E022
:100B900090E013969C938E93129780E090E03BC078
:100BA0005196ED91FC91529750962C915097322F7F
:100BB00030951FB75E964C915E9741FB772770F991
:100BC00041FD6095F8944081772311F0422B01C0DC
:100BD00043234083EC012197F1F748E0508160FF07
:100BE00002C0522B01C053235083EC012197F1F72F
:100BF0006695415099F78081772311F0832301C0D6
:100C0000822B80831FBF5C968D919C915D9701978D
:100C1000F1F781E090E0DF91CF911F91089520914D
:100C20007802309179022817390781F490913602C1
:100C300080913702981751F0E0913602F0E0E85CBD
:100C4000FD4F8081992787FD909508958FEF9FEF45
:100C5000089520917802309179022817390771F4AC
:100C6000809137022091360290E0805C9F4F821B7A
:100C7000910960E470E00E94CA10089580E090E05D
:100C8000089520917802309179022817390739F4B4
:100C90008FB7F89410923702109236028FBF0895E2
:100CA000E0917802F0917902E817F90769F4A389D5
:100CB000B4899C918589809589238C9310927902BF
:100CC0001092780281E0089580E00895CF93DF9339
:100CD000EC018A8D9B8D892BF1F0809178029091A7
:100CE00079028C179D07B9F0009711F00E94500609
:100CF0008E8D8E7F8E8F1092370210923602D09397
:100D00007902C0937802EB89FC8980819D89892BC7
:100D1000808381E001C080E0DF91CF9108951F9230
:100D20000F920FB60F9211242F933F934F935F931F
:100D30006F937F938F939F93AF93BF93EF93FF93A3
:100D4000E0917802F0917902309709F451C0868DD4
:100D5000A685B785958581FF04C08C91892329F4E8
:100D600047C08C91892309F043C0A389B4899C9121
:100D70008589809589238C93868997890197F1F7D6
:100D8000208D318DA685B785758558E040E0C90175
:100D90000197F1F7842F90E095958795482F6C91F6
:100DA000672309F04068515091F7868D81FD409589
:100DB0008091370290E001968F7399272091360237
:100DC000281749F0A0913702B0E0A85CBD4F4C93C2
:100DD0008093370203C0868D8160868F828D938DCC
:100DE0000197F1F7A389B4898C919589892B8C930C
:100DF000FF91EF91BF91AF919F918F917F916F91F3
:100E00005F914F913F912F910F900FBE0F901F90C8
:100E1000189521EC31E0FC01318320830C945006BD
:100E20001F93CF93DF93EC01162F6E8D6695617043
:100E300081E06827812F0E94690961E0812F0E946B
:100E40003009812F90E0FC01EE56FF4FE491E88BD2
:100E5000FC01EA55FF4FE491F0E0EE0FFF1FEC5369
:100E6000FF4F859194919A8B898BDF91CF911F9140
:100E700008951F93CF93DF93EC01162F60E0812F2D
:100E80000E9430098E8D81FD04C061E0812F0E9497
:100E900069091C87812F90E0FC01EE56FF4FE49119
:100EA000ED87FC01EA55FF4FE491F0E0EE0FFF1FE4
:100EB000E654FF4F859194919F878E87DF91CF9164
:100EC0001F910895FF920F931F93CF93DF93EC012F
:100ED000F62E522F1B821A8208EE13E020E030E03B
:100EE0000C831D832E833F8381EC91E0998388835B
:100EF0001F8A1E8A198E188E1B8E1A8E1D8E1C8EAE
:100F00008E8D8E7F50FB81F98E8F642FCE010E94D3
:100F100010076F2DCE01DF91CF911F910F91FF90A0
:100F20000C943907CF93DF93EC019A01AB011B8E30
:100F30001A8E198E188E1F8A1E8A60E079E08DE362
:100F400090E00E940011C9012430310520F0B90160
:100F50006350710902C061E070E07D8F6C8FEC8599
:100F6000E63108F068C0B90176956795643171057E
:100F700018F06351710902C061E070E07F8B6E8BE5
:100F8000069718F0C901059702C081E090E0998F9B
:100F9000888FC901880F991F820F931F9695879597
:100FA000969587958D30910510F00C9702C081E0E1
:100FB00090E09B8F8A8F20916800E83050F091E09C
:100FC000EE3008F490E081E001C0880F9A95EAF7CE
:100FD00001C084E0822B809368002C85283038F093
:100FE0002E3040F0263148F48CE690E008C08DE6C3
:100FF00090E005C08BE690E002C080E090E09C8B22
:101000008B8B283030F481E001C0880F2A95EAF7F5
:101010000DC0822F90E02E3010F4089701C00E977B
:1010200091E001C0990F8A95EAF7892F8D8B8C8DFD
:101030009D8D0197F1F7CE01DF91CF910C9466065B
:101040001F920F920FB60F9211242F933F938F93FD
:101050009F93AF93BF9380917B0290917C02A0916C
:101060007D02B0917E0230917A0223E0230F2D376A
:1010700020F40196A11DB11D05C026E8230F02969C
:10108000A11DB11D20937A0280937B0290937C0274
:10109000A0937D02B0937E0280917F0290918002A6
:1010A000A0918102B09182020196A11DB11D809391
:1010B0007F0290938002A0938102B0938202BF913D
:1010C000AF919F918F913F912F910F900FBE0F90F5
:1010D0001F9018952FB7F89460917B0270917C0255
:1010E00080917D0290917E022FBF08953FB7F894C2
:1010F00080917F0290918002A0918102B091820242
:1011000026B5A89B05C02F3F19F00196A11DB11D62
:101110003FBF6627782F892F9A2F620F711D811D7F
:10112000911D42E0660F771F881F991F4A95D1F7DE
:101130000895CF92DF92EF92FF92CF93DF936B01EE
:101140007C010E947608EB01C114D104E104F10492
:1011500089F00E94AC0F0E9476086C1B7D0B683EE4
:10116000734090F381E0C81AD108E108F108C85132
:10117000DC4FEACFDF91CF91FF90EF90DF90CF90DF
:1011800008958230910538F0880F991F880F991FB4
:1011900005970197F1F70895789484B5826084BD2E
:1011A00084B5816084BD85B5826085BD85B581606B
:1011B00085BDEEE6F0E0808181608083E1E8F0E0CB
:1011C0001082808182608083808181608083E0E8FA
:1011D000F0E0808181608083E1EBF0E080818460D9
:1011E0008083E0EBF0E0808181608083EAE7F0E0DB
:1011F000808184608083808182608083808181603F
:1012000080838081806880831092C100089583303C
:1012100081F028F4813099F08230A1F00895873070
:10122000A9F08830B9F08430D1F4809180008F7DAE
:1012300003C0809180008F7780938000089584B5EB
:101240008F7702C084B58F7D84BD08958091B000F2
:101250008F7703C08091B0008F7D8093B000089598
:10126000CF93DF9390E0FC01EE56FF4F2491FC01F9
:10127000EA55FF4F8491882349F190E0880F991F28
:10128000FC01E253FF4FA591B4918C539F4FFC0199
:10129000C591D4919FB7611108C0F8948C912095A5
:1012A00082238C93888182230AC0623051F4F8949F
:1012B0008C91322F309583238C938881822B888365
:1012C00004C0F8948C91822B8C939FBFDF91CF91B7
:1012D00008950F931F93CF93DF931F92CDB7DEB77F
:1012E000282F30E0F901E258FF4F8491F901EE56C2
:1012F000FF4F1491F901EA55FF4F04910023C9F003
:10130000882321F069830E9407096981E02FF0E0BA
:10131000EE0FFF1FEC53FF4FA591B4919FB7F894C8
:101320008C91611103C01095812301C0812B8C9396
:101330009FBF0F90DF91CF911F910F910895CF9391
:10134000DF93282F30E0F901E258FF4F8491F90133
:10135000EE56FF4FD491F901EA55FF4FC491CC23CB
:1013600091F081110E940709EC2FF0E0EE0FFF1FB2
:10137000E654FF4FA591B4912C912D2381E090E08C
:1013800021F480E002C080E090E0DF91CF910895E9
:10139000FC01818D228D90E0805C9F4F821B910922
:1013A0008F7399270895FC01918D828D981731F0E4
:1013B000828DE80FF11D858D90E008958FEF9FEFEE
:1013C0000895FC01918D828D981761F0828DDF0167
:1013D000A80FB11D5D968C91928D9F5F9F73928F28
:1013E00090E008958FEF9FEF089585E69BE0892BAD
:1013F00049F080E090E0892B29F00E94650B811173
:101400000C9400000895FC01848DDF01A80FB11D2C
:10141000A35ABF4F2C91848D90E001968F7399272A
:10142000848FA689B7892C93A089B1898C91806417
:101430008C93938D848D981306C00288F389E02DD8
:1014400080818F7D80830895CF93DF93EC01888D19
:101450008823C9F0EA89FB89808185FD05C0A889B8
:10146000B9898C9186FD0FC00FB607FCF5CF80813E
:1014700085FFF2CFA889B9898C9185FFEDCFCE0188
:101480000E94030AE7CFDF91CF910895CF92DF92B8
:10149000FF920F931F93CF93DF931F92CDB7DEB7C9
:1014A0006C0181E0D60158968C9358975B969C917D
:1014B0005B975C968C915C97981307C05096ED9162
:1014C000FC915197808185FD2EC0F601038D10E0BF
:1014D0000F5F1F4F0F731127F02EF601848DF81246
:1014E00011C00FB607FCF9CFD6015096ED91FC91D3
:1014F0005197808185FFF1CFC60169830E94030A5D
:101500006981EBCF838DE80FF11DE35AFF4F6083B4
:10151000D6015B960C935B975296ED91FC91539795
:10152000808180620CC0D6015696ED91FC91579750
:1015300060835096ED91FC91519780818064808307
:1015400081E090E00F90DF91CF911F910F91FF907C
:10155000DF90CF900895BF92CF92DF92EF92FF92EB
:10156000CF93DF93EC016A017B01B22EE889F98900
:1015700082E08083411581EE580761057105A1F075
:1015800060E079E08DE390E0A70196010E94DE1013
:1015900021503109410951095695479537952795AD
:1015A000211580E1380798F0E889F989108260E810
:1015B00074E88EE190E0A70196010E94DE102150B0
:1015C0003109410951095695479537952795EC857D
:1015D000FD853083EE85FF852083188EEC89FD899B
:1015E000B082EA89FB89808180618083EA89FB89F6
:1015F000808188608083EA89FB898081806880831C
:10160000EA89FB8980818F7D8083DF91CF91FF9074
:10161000EF90DF90CF90BF9008951F920F920FB67A
:101620000F9211242F938F939F93EF93FF93E09149
:101630009302F09194028081E0919902F0919A02D4
:1016400082FD12C0908180919C028F5F8F732091E8
:101650009D02821751F0E0919C02F0E0ED57FD4FA2
:10166000958F80939C0201C08081FF91EF919F91A3
:101670008F912F910F900FBE0F901F9018951F9272
:101680000F920FB60F9211242F933F934F935F93B6
:101690006F937F938F939F93AF93BF93EF93FF933A
:1016A00083E892E00E94030AFF91EF91BF91AF910E
:1016B0009F918F917F916F915F914F913F912F916A
:1016C0000F900FBE0F901F90189583E892E00E9434
:1016D000C80921E0892B09F420E0822F0895109297
:1016E00086021092850288EE93E0A0E0B0E080933D
:1016F000870290938802A0938902B0938A0281EDB9
:1017000091E0909384028093830285EC90E0909323
:10171000900280938F0284EC90E0909392028093E9
:10172000910280EC90E0909394028093930281EC7C
:1017300090E0909396028093950282EC90E09093D3
:1017400098028093970286EC90E090939A0280939F
:10175000990210929C0210929D0210929E02109289
:101760009F02089508950E94CC080E94B20B0E9427
:101770006501C5EFD9E00E94DC022097E1F30E94E9
:10178000F509F9CFCF92DF92EF92FF920F931F935B
:10179000CF93DF937C016A01EB0100E010E00C15B0
:1017A0001D0571F06991D701ED91FC910190F081D7
:1017B000E02DC7010995892B19F00F5F1F4FEFCF5F
:1017C000C801DF91CF911F910F91FF90EF90DF90B3
:1017D000CF9008956115710581F0DB010D90002017
:1017E000E9F7AD0141505109461B570BDC01ED9162
:1017F000FC910280F381E02D099480E090E008954F
:10180000EF92FF920F931F93CF93DF938C017B0195
:10181000C0E0D0E0F701EC0FFD1F6491662359F0A2
:10182000F801A081B181ED91FC91C8010995892B46
:1018300011F02196EFCFCE01DF91CF911F910F9143
:10184000FF90EF900895DC01ED91FC91DB0114967F
:101850004D915C9115976D917C910280F381E02D03
:1018600009940C94EA0BDC01ED91FC910190F0815C
:10187000E02D09946DED71E00C94EA0B0F931F932A
:10188000CF93DF93EC010E94EA0B8C01CE010E9402
:101890003A0C800F911FDF91CF911F910F91089506
:1018A0000F931F93CF93DF93EC010E94330C8C01B5
:1018B000CE010E943A0C800F911FDF91CF911F91B2
:1018C0000F9108958F929F92AF92BF92CF92DF9225
:1018D000EF92FF920F931F93CF93DF93CDB7DEB7B5
:1018E000A1970FB6F894DEBF0FBECDBF7C01C42E0A
:1018F000E52FCB01D22E19A221E02D1510F02AE000
:10190000D22E8E010F5D1F4F8D2C912CA12CB12C4E
:101910006C2D7E2FA50194010E94DE108C2DD29E8D
:1019200080191124015011098A3014F4805D01C01E
:10193000895CF8018083211531054105510521F0AD
:10194000C22EE32FCA01E4CFB801C7010E94EA0BFF
:10195000A1960FB6F894DEBF0FBECDBFDF91CF9139
:101960001F910F91FF90EF90DF90CF90BF90AF90BD
:101970009F908F900895CF92DF92EF92FF920F93F6
:101980001F93CF93DF93EC016A017B012115310591
:1019900079F4E881F9810190F081E02D642FDF91E5
:1019A000CF911F910F91FF90EF90DF90CF9009940E
:1019B0002A303105E9F477FF1AC06DE20E94330C3A
:1019C0008C0144275527BA014C195D096E097F091E
:1019D0002AE0CE010E94620C800F911FDF91CF910F
:1019E0001F910F91FF90EF90DF90CF9008952AE024
:1019F000B701A601CE01DF91CF911F910F91FF900A
:101A0000EF90DF90CF900C94620C0F931F93CF93C5
:101A1000DF93EC019A01AB01662757FD6095762FA5
:101A20000E94BB0C8C01CE010E943A0C800F911FCA
:101A3000DF91CF911F910F910895FC0180819181D9
:101A40000C94D111CF93DF93EC0188819981009799
:101A500011F00E94D111198218821D821C821B82F2
:101A60001A82DF91CF9108950F931F93CF93DF9345
:101A7000EC018B016F5F7F4F888199810E9460121A
:101A8000009731F0998388831B830A8381E001C02A
:101A900080E0DF91CF911F910F910895CF93DF9355
:101AA000EC0188819981892B29F08A819B81861795
:101AB000970760F4CE010E94340D882341F08C8199
:101AC0009D81892B19F4E881F981108281E0DF91F1
:101AD000CF910895EF92FF920F931F93CF93DF93CF
:101AE000EC017B018A01BA010E944E0D811104C0F4
:101AF000CE010E94220D07C01D830C83B70188818F
:101B000099810E944813CE01DF91CF911F910F91CF
:101B1000FF90EF900895FC011182108213821282CF
:101B2000158214826115710559F0FB0101900020A6
:101B3000E9F7AF0141505109461B570B0C946A0D50
:101B400008950F931F93CF93DF938C01EB01FC015A
:101B500080819181009799F0428153812C813D8150
:101B60004217530750F0688179810E9448138C8195
:101B70009D81F8019583848313C00E94D1118881CF
:101B80009981F801918380838A819B8193838283E9
:101B90008C819D8195838483198218821B821A828D
:101BA0001D821C82DF91CF911F910F910895CF93D9
:101BB000DF93EC01FB018617970761F0608171816B
:101BC0006115710529F0448155810E946A0D02C09A
:101BD0000E94220DCE01DF91CF910895FC01118268
:101BE000108213821282158214820C94D70DCF9327
:101BF000DF93EC018617970711F00E94A10DCE012B
:101C0000DF91CF910895CF93DF93EC0161157105BA
:101C100061F0FB0101900020E9F7AF01415051094B
:101C2000461B570B0E946A0D02C00E94220DCE0176
:101C3000DF91CF910895CF93DF9300D0CDB7DEB77A
:101C4000FC01118210821382128215821482698330
:101C50001A82BE016F5F7F4F0E94030E0F900F909C
:101C6000DF91CF9108950F931F93CF93DF93CDB75B
:101C7000DEB761970FB6F894DEBF0FBECDBF8C0103
:101C8000CB01F80111821082138212821582148214
:101C900050E0BE016F5F7F4F0E944F13BE016F5F28
:101CA0007F4FC8010E94030E61960FB6F894DEBF05
:101CB0000FBECDBFDF91CF911F910F910895EF928D
:101CC000FF920F931F93CF93DF93EC017B010C8165
:101CD0001D816115710511F480E016C04115510593
:101CE00091F0040F151FB8010E944E0D8823A1F337
:101CF000288139818C819D81B701820F931F0E94B9
:101D000048131D830C8381E0DF91CF911F910F91C8
:101D1000FF90EF900895CF93DF9300D0CDB7DEB75B
:101D200069831A8241E050E0BE016F5F7F4F0E94DD
:101D30005F0E0F900F90DF91CF910895CF93DF93B7
:101D4000EC01FB0144815581608171810E945F0E2D
:101D5000811103C0CE010E94220DCE01DF91CF91EF
:101D60000895CF93DF93EC016115710569F0FB01D4
:101D700001900020E9F7AF0141505109461B570B74
:101D80000E945F0E811103C0CE010E94220DCE0180
:101D9000DF91CF910895FC0124813581232B31F40B
:101DA00021E061157105A1F0FB0108C0FC018081F3
:101DB00091816115710531F421E0FC018081882356
:101DC00039F005C00E943F1321E0892B09F020E083
:101DD000822F0895FC01248135816217730748F42E
:101DE00080819181009729F0FC01E60FF71F808127
:101DF000089580E008950C94EA0EBF92CF92DF928E
:101E0000EF92FF920F931F93CF93DF936C017B01AF
:101E1000EA0189012417350720F48D2FE901042FE9
:101E2000182F6FED71E0C6010E948B0DD70114963B
:101E30008D919C911597C817D907C8F48017910701
:101E400008F48C01D701ED91FC911197E00FF11F7F
:101E5000B08010826D917C916C0F7D1FC6010E9435
:101E6000030ED701ED91FC91E00FF11FB082C60186
:101E7000DF91CF911F910F91FF90EF90DF90CF9066
:101E8000BF900895AF92BF92CF92DF92EF92FF92F0
:101E90000F931F93CF93DF937C01DC01CD90DC90F7
:101EA0001197C114D10409F441C01496CD91DC916D
:101EB00015972097D9F156018501BFEFAB1ABB0AE0
:101EC000F8018081992787FD90950E942E13892B18
:101ED00099F72197CC0DDD1D8881992787FD909575
:101EE0000E942E13892B91F4AE014F5F5F4F401B70
:101EF000510BD70115965C934E931497C016D106DB
:101F000050F4B801C6010E94361305C0C017D107AE
:101F100058F32197E1CFD701ED91FC9111971496D9
:101F20008D919C911597E80FF91F1082DF91CF9149
:101F30001F910F91FF90EF90DF90CF90BF90AF90E7
:101F40000895FC0180819181009711F00C942A136F
:101F500060E070E0CB010895089540D008F481E07E
:101F60000895E89409C097FB3EF49095809570958C
:101F700061957F4F8F4F9F4F9923A9F0F92F96E9D5
:101F8000BB279395F695879577956795B795F1114A
:101F9000F8CFFAF4BB0F11F460FF1BC06F5F7F4FE7
:101FA0008F4F9F4F16C0882311F096E911C07723F9
:101FB00021F09EE8872F762F05C0662371F096E802
:101FC000862F70E060E02AF09A95660F771F881FD1
:101FD000DAF7880F9695879597F90895990F000875
:101FE000550FAA0BE0E8FEEF16161706E807F907EB
:101FF000C0F012161306E407F50798F0621B730B86
:10200000840B950B39F40A2661F0232B242B252B06
:1020100021F408950A2609F4A140A6958FEF811DA9
:10202000811D089597F99F6780E870E060E008954A
:102030009FEF80EC089500240A94161617061806E0
:102040000906089500240A941216130614060506BC
:102050000895092E0394000C11F4882352F0BB0F4D
:1020600040F4BF2B11F460FF04C06F5F7F4F8F4FB0
:102070009F4F089557FD9058440F551F59F05F3FEB
:1020800071F04795880F97FB991F61F09F3F79F09A
:1020900087950895121613061406551FF2CF46951C
:1020A000F1DF08C0161617061806991FF1CF86959E
:1020B0007105610508940895E894BB276627772782
:1020C000CB0197F908958ADF08F48FEF08950BD0BC
:1020D000C0CFB1DF28F0B6DF18F0952309F0A2CF0A
:1020E000A7CF1124EACFC6DFA0F3959FD1F3950FB8
:1020F00050E0551F629FF001729FBB27F00DB11D8C
:10210000639FAA27F00DB11DAA1F649F6627B00D1B
:10211000A11D661F829F2227B00DA11D621F739F04
:10212000B00DA11D621F839FA00D611D221F749F12
:102130003327A00D611D231F849F600D211D822F59
:10214000762F6A2F11249F5750408AF0E1F08823A0
:102150004AF0EE0FFF1FBB1F661F771F881F9150AD
:102160005040A9F79E3F510570F05CCFA6CF5F3F6E
:10217000ECF3983EDCF3869577956795B795F795E0
:10218000E7959F5FC1F7FE2B880F911D9695879568
:1021900097F9089597FB072E16F4009407D077FD62
:1021A00009D00E941F1107FC05D03EF4909581953F
:1021B0009F4F0895709561957F4F0895A1E21A2E63
:1021C000AA1BBB1BFD010DC0AA1FBB1FEE1FFF1FDB
:1021D000A217B307E407F50720F0A21BB30BE40B2B
:1021E000F50B661F771F881F991F1A9469F7609572
:1021F0007095809590959B01AC01BD01CF0108952C
:10220000052E97FB1EF400940E94171157FD07D06E
:102210000E94DE1007FC03D04EF40C941711509569
:102220004095309521953F4F4F4F5F4F08959095C2
:102230008095709561957F4F8F4F9F4F0895AA1B92
:10224000BB1B51E107C0AA1FBB1FA617B70710F0A1
:10225000A61BB70B881F991F5A95A9F780959095D3
:10226000BC01CD010895EE0FFF1F0590F491E02D04
:102270000994CF93DF938230910510F482E090E0CF
:10228000E0912203F091230320E030E0A0E0B0E0F1
:10229000309739F14081518148175907B8F04817F4
:1022A000590771F482819381109729F013969C93BA
:1022B0008E9312972CC0909323038093220327C000
:1022C0002115310531F04217530718F0A901DB0140
:1022D00001C0EF019A01BD01DF010280F381E02D11
:1022E000D7CF21153105F9F0281B390B24303105E2
:1022F00080F48A819B816115710521F0FB01938334
:10230000828304C09093230380932203FE013296BC
:1023100044C0FE01E20FF31F8193919322503109D3
:10232000398328833AC02091200330912103232B45
:1023300041F4209102013091030130932103209355
:10234000200320910001309101012115310541F454
:102350002DB73EB74091040150910501241B350B68
:10236000E0912003F0912103E217F307A0F42E1B64
:102370003F0B2817390778F0AC014E5F5F4F2417E9
:10238000350748F04E0F5F1F509321034093200301
:102390008193919302C0E0E0F0E0CF01DF91CF9113
:1023A0000895CF93DF93009709F487C0FC0132971B
:1023B00013821282C0912203D0912303209781F4CB
:1023C00020813181280F391F8091200390912103B2
:1023D0008217930779F5F0932103E09320036DC0F2
:1023E000DE0120E030E0AE17BF0750F412964D91A9
:1023F0005C9113979D014115510509F1DA01F3CF65
:10240000B383A28340815181840F951F8A179B0754
:1024100071F48D919C911197840F951F0296918371
:10242000808312968D919C911397938382832115BB
:10243000310529F4F0932303E09322033EC0D90130
:102440001396FC93EE9312974D915D91A40FB51FD7
:10245000EA17FB0779F480819181840F951F02961A
:10246000D90111969C938E938281938113969C93AC
:102470008E931297E0E0F0E08A819B81009719F03B
:10248000FE01EC01F9CFCE01029628813981820F3D
:10249000931F20912003309121032817390769F4F5
:1024A000309729F4109223031092220302C0138262
:1024B0001282D0932103C0932003DF91CF9108951E
:1024C000A0E0B0E0E6E6F2E10C941115EC01CB01DE
:1024D000209719F40E943911B8C0FE01E60FF71FCA
:1024E0009E0122503109E217F30708F4ACC0D9016C
:1024F0000D911C91119706171707B8F005301105BB
:1025000008F49FC0A801445051094617570708F422
:1025100098C002501109061B170B019311936D937C
:102520007C93CF010E94D1118CC05B01A01AB10A2B
:102530004E01800E911EA0912203B0912303612CC5
:10254000712C60E070E0109709F449C0A815B90536
:10255000C9F5ED90FC901197670142E0C40ED11CC3
:10256000CA14DB0478F147018A189B08640142E031
:10257000C40ED11C1296BC9012971396AC91B5E084
:10258000CB16D10440F0B282A38391828082D9011C
:102590008D939C9309C00E5F1F4F0E0D1F1DF901F7
:1025A00011830083EB2DFA2F6115710531F0DB01EA
:1025B0001396FC93EE93129744C0F0932303E09399
:1025C00022033FC06D917C9111976616770608F43F
:1025D0003B01BD0112960D90BC91A02DB4CF60912E
:1025E00020037091210368157905E9F468167906CE
:1025F000D0F440910001509101014115510541F481
:102600004DB75EB76091040170910501461B570BF1
:10261000E417F507C0F4F0932103E0932003F901D8
:10262000918380830EC00E9439117C01009759F07C
:10263000A801BE010E943613CE010E94D111C7012C
:1026400004C0CE0102C080E090E0CDB7DEB7EEE07E
:102650000C942D15662777270C9474139111A7C13C
:10266000803219F089508550D0F70895FB01DC01C4
:1026700002C001900D9241505040D8F70895FB01DF
:10268000DC018D91019080190110D9F3990B089507
:10269000FB01DC0101900D920020E1F70895453225
:1026A000510520F4423010F00C945A13FB011082B3
:1026B000CB010895BB27FB015527AA27880F991F37
:1026C000AA1FA41710F0A41B83955051B9F7A05D61
:1026D000AA3308F0A95DA193009779F7B111B193DE
:1026E0001192CB010C94F214A0E0B0E0EAE7F3E120
:1026F0000C9413158B016115710521F0DB018C938E
:1027000011969C93EC015E01BFEFAB1ABB0A7501F9
:10271000C8808C2D90E00E942E13892B11F0E501CA
:10272000F2CFEDE2CE1208C07E01F2E0EF0EF11C16
:10273000C980DD24D39409C02BE2C21205C07E01FA
:1027400042E0E40EF11CC980D12CE701219743E05F
:1027500050E060EE70E0CE010E94DA14892BC1F4E3
:10276000239645E050E06BED70E0CE010E94DA1454
:10277000892B09F425960115110519F0D801CD937F
:10278000DC93D11006C160E070E080E89FE70AC1E9
:1027900043E050E068ED70E0CE010E94DA14892B2E
:1027A00059F40115110509F4F9C0B2E0EB0EF11C62
:1027B000F801F182E082F2C0F70160E070E0CB0145
:1027C000C0E0D0E07F01A0EDAA2EAC0C29E02A15D4
:1027D00030F14D2D4260B42E2D2D2870D2FE04C054
:1027E000211125C0219623C021112197A5E0B0E039
:1027F0009B01AC010E940215660F771F881F991F6D
:102800006A0D711D811D911D6839A9E97A078A0732
:10281000A9E19A0760F0BD2DB660BB2E08C02EEF6F
:10282000A2120AC0D3FC50C04D2D4860B42E319680
:10283000D701CC90DB2CC6CF2C2D2F7D253409F071
:1028400043C0A081AD3241F4BD2DB061DB2E7F01CC
:1028500022E0E20EF11C0CC07F01AB3231F04FEFF1
:10286000E41AF40A21E030E006C0A2E0EA0EF11C0E
:10287000A18122E030E0A053AA3018F0E21AF30A56
:1028800023C0F70120E030E02038BCE03B075CF4D7
:10289000A901440F551F440F551F240F351F220F48
:1028A000331F2A0F311DAF014F5F5F4F7A01A081A7
:1028B000A053AA3010F4FA01E7CFD4FE03C031953B
:1028C00021953109C20FD31FD1FE09C00115110591
:1028D00031F0E1E0EE1AF108D801ED92FC920E948D
:1028E000B10F2D2D2370233019F04B015C0106C070
:1028F0004B015C01B7FAB094B7F8B09420E030E037
:10290000A901C501B4010E94AD0F882309F43EC09E
:10291000D7FF06C0D195C195D10907EF10E002C0DD
:102920000FE011E06801B8E1CB1AD10890E2E92E7E
:10293000F12CCE15DF0574F0F80125913591459104
:102940005491C501B4010E9467104B015C01CE197E
:10295000DF09EFCF04501109F594E7940C151D051C
:1029600041F78A2D880F8B2D881F8F3F49F020E07B
:1029700030E0A901C501B4010E94AD0F811106C06C
:1029800082E290E09093250380932403C501B40173
:1029900009C060E070E080E89FEF04C060E070E094
:1029A00080EC9FE7CDB7DEB7ECE00C942F159927AC
:1029B00088270895FB01DC014150504088F08D913B
:1029C00081341CF08B350CF4805E659161341CF011
:1029D0006B350CF4605E861B611171F3990B0895E1
:1029E000881BFCCFDC01FC01672F71917723E1F795
:1029F000329704C07C916D9370836291AE17BF07CC
:102A0000C8F308950E944415A59F900DB49F900DA2
:102A1000A49F800D911D112408952F923F924F92F3
:102A20005F926F927F928F929F92AF92BF92CF925E
:102A3000DF92EF92FF920F931F93CF93DF93CDB767
:102A4000DEB7CA1BDB0B0FB6F894DEBF0FBECDBFDF
:102A500009942A88398848885F846E847D848C84B0
:102A60009B84AA84B984C884DF80EE80FD800C81B9
:102A70001B81AA81B981CE0FD11D0FB6F894DEBF9C
:102A80000FBECDBFED010895A29FB001B39FC0015D
:102A9000A39F700D811D1124911DB29F700D811D8A
:102AA0001124911D089511E0C8E1D1E004C0FE0198
:102AB0000E9435112296CA31D107C9F7F894FFCF89
:102AC00000002603800041542B434D47463D310D05
:102AD000004154202B20434D4753203D20222B32D0
:102AE0003333323636383534303437220046697263
:102AF00065206465746574656374656420696E201F
:102B0000726F6F6D200073797374656D20737461DB
:102B1000727465642073756363657366756C6C7934
:102B200000574952454C45535300534D4152542090
:102B30004649524520414C41524D0053595354454A
:102B40004D0041542B434E4D493D322C322C302CFC
:102B5000302C300D002054454D502E2800432920A4
:102B60002047415320202020004E414E00466972EC
:102B70006521212100000000009605C20B00000025
:102B800000BD05C20B29069C050F0641060000008A
:102B900000460AC20BC809E109D309240A0D0A003C
:0E2BA0006E616E00696E66006F7666002E0034
:00000001FF
