:100000000C9459000C9481000C9481000C945602BD
:100010000C9456020C9456020C9481000C942D0200
:100020000C9481000C9481000C9481000C9481004C
:100030000C9481000C9481000C9481000C9481003C
:100040000C94D0020C9481000C94F0040C942205C2
:100050000C9481000C9481000C9481000C9481001C
:100060000C9481000C94810001020408102040804F
:1000700001020408102001020408102004040404F2
:100080000404040402020202020203030303030342
:1000900000000000230026002900000000002500C9
:1000A00028002B0000000000240027002A0018016F
:1000B000520511241FBECFEFD8E0DEBFCDBF11E047
:1000C000A0E0B1E0E8E4FCE002C005900D92A833A6
:1000D000B107D9F722E0A8E3B1E001C01D92A4372F
:1000E000B207E1F710E0C2EBD0E004C02297FE01B6
:1000F0000E941E06CE3AD107C9F70E9496050C94BD
:1001000022060C94000026E040E855E260E070E032
:1001100087ED91E00C948E04CF93DF9362E370E05F
:1001200080E090E00E943D038EE691E00E94FE0197
:10013000C9E3D0E0BE010E94E60570938701609399
:10014000860162E370E080E090E00E943D038CE570
:1001500091E00E94FE01BE010E94E60570938501B8
:100160006093840162E370E080E090E00E943D03D0
:100170008AE491E00E94FE01BE010E94E6057093B0
:1001800083016093820162E370E080E090E00E946E
:100190003D0388E391E00E94FE01BE010E94E60556
:1001A000709381016093800168EE73E080E090E0DD
:1001B0000E943D038091860190918701069718F473
:1001C00060E071E002C065E071E087ED91E00E94BF
:1001D000E3058091840190918501069718F46AE007
:1001E00071E002C06FE071E087ED91E00E94E305ED
:1001F0008091820190918301069718F464E171E087
:1002000002C069E171E087ED91E00E94E305809111
:10021000800190918101069718F46EE171E002C0AF
:1002200063E271E087ED91E0DF91CF910C94E305FB
:1002300028EC30E043E062E08EE691E00E94380175
:1002400028EC30E045E064E08CE591E00E94380164
:1002500028EC30E047E066E08AE491E00E94380153
:1002600028EC30E049E068E088E391E00C94380144
:10027000CF93DF93DC0170E0FB01E859FF4FE4917D
:100280001496EC931497842F90E0FC01E859FF4FEB
:10029000E4911596EC93159764587F4FFB01C49138
:1002A000D0E0CC0FDD1FC656DF4FFE0145915491C3
:1002B00017965C934E931697FC01E458FF4F849178
:1002C00090E0880F991F80579F4FFC0145915491F2
:1002D0001B965C934E931A97FB016491E62FF0E016
:1002E000EE0FFF1FEC55FF4F8591949119969C934B
:1002F0008E931897C901253FF1E03F0714F084EF72
:1003000091E049E3489F9001499F300D1124245EFC
:100310003F4F1D963C932E931C97DF91CF910895EC
:100320000F931F93CF93DF93EC01E885F9858081CC
:100330009C81892B8083EE81FF8190818C818095C7
:100340008923808384E090E00E946503EE81FF8131
:1003500080819C81892B80838AE090E00E946503E4
:10036000EE81FF8190818C81809589238083E8854F
:10037000F98590818C818095892380830E941A035E
:10038000605B794B8F4F9F4F6E877F87888B998BF0
:10039000EA85FB8580819D81892359F00E941A039B
:1003A0000E851F85288939890617170728073907F9
:1003B00078F7EA85FB8580819D81892369F40E9415
:1003C0001A030E851F8528893989061717072807FC
:1003D000390778F780E00DC00E941A032C853D850F
:1003E000620F731F811D911D6E877F87888B998B8C
:1003F00081E0DF91CF911F910F9108950F931F938B
:10040000CF93DF93EC010E949001882389F0EA8565
:10041000FB8580819D81892371F00E941A030E85DE
:100420001F8528893989061717072807390778F79C
:1004300020E030E00CC00E941A032C853D85255039
:1004400031094E855F85241B350B260F371FC901E7
:10045000DF91CF911F910F9108951F920F920FB6C8
:100460000F9211242F933F934F935F936F937F933A
:100470008F939F93AF93BF93EF93FF93E091880186
:10048000F0918901309709F00995FF91EF91BF91A3
:10049000AF919F918F917F916F915F914F913F911C
:1004A0002F910F900FBE0F901F9018951F920F92D3
:1004B0000FB60F9211242F933F934F935F936F9337
:1004C0007F938F939F93AF93BF93EF93FF93E091AD
:1004D000CC01F091CD01309709F451C0868DA685ED
:1004E000B785958581FF04C08C91892329F447C085
:1004F0008C91892309F043C0A389B4899C91858993
:10050000809589238C93868997890197F1F7208DAF
:10051000318DA685B785758558E040E0C901019702
:10052000F1F7842F90E095958795482F6C9167237C
:1005300009F04068515091F7868D81FD409580917A
:100540008B0190E001968F73992720918A012817DB
:1005500049F0A0918B01B0E0A457BE4F4C9380931B
:100560008B0103C0868D8160868F828D938D01976C
:10057000F1F7A389B4898C919589892B8C93FF918C
:10058000EF91BF91AF919F918F917F916F915F910B
:100590004F913F912F910F900FBE0F901F90189584
:1005A0001F920F920FB60F9211242F933F938F93A8
:1005B0009F93AF93BF938091CF019091D001A09171
:1005C000D101B091D2013091CE0123E0230F2D371C
:1005D00020F40196A11DB11D05C026E8230F029647
:1005E000A11DB11D2093CE018093CF019093D00126
:1005F000A093D101B093D2018091D3019091D40105
:10060000A091D501B091D6010196A11DB11D809395
:10061000D3019093D401A093D501B093D601BF919B
:10062000AF919F918F913F912F910F900FBE0F909F
:100630001F9018953FB7F8948091D3019091D40101
:10064000A091D501B091D60126B5A89B05C02F3F3A
:1006500019F00196A11DB11D3FBF6627782F892F84
:100660009A2F620F711D811D911D42E0660F771F49
:10067000881F991F4A95D1F70895CF92DF92EF9284
:10068000FF92CF93DF936B017C010E941A03EB0171
:10069000C114D104E104F10489F00E94E5050E942F
:1006A0001A036C1B7D0B683E734090F381E0C81AFF
:1006B000D108E108F108C851DC4FEACFDF91CF91B2
:1006C000FF90EF90DF90CF9008958230910538F041
:1006D000880F991F880F991F05970197F1F70895C3
:1006E000789484B5826084BD84B5816084BD85B50D
:1006F000826085BD85B5816085BDEEE6F0E08081D4
:1007000081608083E1E8F0E01082808182608083F4
:10071000808181608083E0E8F0E080818160808377
:10072000E1EBF0E0808184608083E0EBF0E08081A9
:1007300081608083EAE7F0E080818460808380814B
:1007400082608083808181608083808180688083F3
:100750001092C1000895FC01818D228D90E0805C93
:100760009F4F821B91098F7399270895FC01918DEA
:10077000828D981731F0828DE80FF11D858D90E004
:1007800008958FEF9FEF0895FC01918D828D98174A
:1007900061F0828DDF01A80FB11D5D968C91928D65
:1007A0009F5F9F73928F90E008958FEF9FEF089562
:1007B00088E495E0892B49F080E090E0892B29F0CE
:1007C0000E94480581110C9400000895FC01848D5D
:1007D000DF01A80FB11DA35ABF4F2C91848D90E06B
:1007E00001968F739927848FA689B7892C93A08946
:1007F000B1898C9180648C93938D848D981306C0FD
:100800000288F389E02D80818F7D80830895CF93C6
:10081000DF93EC01888D8823C9F0EA89FB89808108
:1008200085FD05C0A889B9898C9186FD0FC00FB6DA
:1008300007FCF5CF808185FFF2CFA889B9898C911B
:1008400085FFEDCFCE010E94E603E7CFDF91CF9188
:100850000895CF92DF92FF920F931F93CF93DF9370
:100860001F92CDB7DEB76C0181E0D60158968C930C
:1008700058975B969C915B975C968C915C979813CC
:1008800007C05096ED91FC915197808185FD2EC057
:10089000F601038D10E00F5F1F4F0F731127F02E2D
:1008A000F601848DF81211C00FB607FCF9CFD601FE
:1008B0005096ED91FC915197808185FFF1CFC60153
:1008C00069830E94E6036981EBCF838DE80FF11DF8
:1008D000E35AFF4F6083D6015B960C935B97529669
:1008E000ED91FC915397808180620CC0D6015696A1
:1008F000ED91FC91579760835096ED91FC91519743
:1009000080818064808381E090E00F90DF91CF91BF
:100910001F910F91FF90DF90CF900895BF92CF92DB
:10092000DF92EF92FF92CF93DF93EC016A017B019C
:10093000B22EE889F98982E08083411581EE58075B
:1009400061057105A1F060E079E08DE390E0A70119
:1009500096010E94FA052150310941095109569525
:10096000479537952795211580E1380798F0E88954
:10097000F989108260E874E88EE190E0A7019601A1
:100980000E94FA05215031094109510956954795B0
:1009900037952795EC85FD853083EE85FF8520838F
:1009A000188EEC89FD89B082EA89FB89808180619B
:1009B0008083EA89FB89808188608083EA89FB895A
:1009C000808180688083EA89FB8980818F7D808334
:1009D000DF91CF91FF90EF90DF90CF90BF9008957F
:1009E0001F920F920FB60F9211242F938F939F9304
:1009F000EF93FF93E091E701F091E8018081E091AE
:100A0000ED01F091EE0182FD12C090818091F00124
:100A10008F5F8F732091F101821751F0E091F00107
:100A2000F0E0E952FE4F958F8093F00101C0808184
:100A3000FF91EF919F918F912F910F900FBE0F908B
:100A40001F9018951F920F920FB60F9211242F939B
:100A50003F934F935F936F937F938F939F93AF9346
:100A6000BF93EF93FF9387ED91E00E94E603FF9120
:100A7000EF91BF91AF919F918F917F916F915F9116
:100A80004F913F912F910F900FBE0F901F9018958F
:100A900087ED91E00E94AB0321E0892B09F420E06F
:100AA000822F08951092DA011092D90188EE93E016
:100AB000A0E0B0E08093DB019093DC01A093DD0126
:100AC000B093DE018CE291E09093D8018093D7013E
:100AD00085EC90E09093E4018093E30184EC90E056
:100AE0009093E6018093E50180EC90E09093E8011B
:100AF0008093E70181EC90E09093EA018093E90113
:100B000082EC90E09093EC018093EB0186EC90E016
:100B10009093EE018093ED011092F0011092F1019B
:100B20001092F2011092F301089508950E9470034B
:100B30000E9495050E948300C8EDD3E00E948C00BE
:100B40002097E1F30E94D803F9CFCF92DF92EF9282
:100B5000FF920F931F93CF93DF937C016A01EB0108
:100B600000E010E00C151D0571F06991D701ED91C1
:100B7000FC910190F081E02DC7010995892B19F0B6
:100B80000F5F1F4FEFCFC801DF91CF911F910F91E2
:100B9000FF90EF90DF90CF9008956115710581F07F
:100BA000DB010D900020E9F7AD0141505109461BD2
:100BB000570BDC01ED91FC910280F381E02D09944B
:100BC00080E090E008950C94CD050895AA1BBB1B0E
:100BD00051E107C0AA1FBB1FA617B70710F0A61B3D
:100BE000B70B881F991F5A95A9F780959095BC015E
:100BF000CD010895A1E21A2EAA1BBB1BFD010DC059
:100C0000AA1FBB1FEE1FFF1FA217B307E407F507BC
:100C100020F0A21BB30BE40BF50B661F771F881F98
:100C2000991F1A9469F760957095809590959B012E
:100C3000AC01BD01CF010895EE0FFF1F0590F491A7
:080C4000E02D0994F894FFCFA8
:100C48002A323023002A323123002A333023002A63
:100C5800333123002A343023002A343123002A3543
:100C68003023002A35312300000000002904A5059F
:080C7800AB03C403B60307043B
:00000001FF
