:100000000C9438020C9460020C9460020C94451B12
:100010000C94451B0C94451B0C9460020C946002DC
:100020000C9460020C9460020C9460020C946002C8
:100030000C9460020C9427030C9460020C946002F0
:100040000C9452260C9460020C943F290C94712954
:100050000C9460020C9460020C9460020C94600298
:100060000C94AB230C946002D110D012D612301332
:10007000E6143B157515B915B211C111D011DF1178
:10008000EE11FD110C124212541261127312801201
:1000900091129E127375636365737366756C6C79E8
:1000A000006E6F74696669636174696F6E7300498D
:1000B0006E74727573696F6E004E756D6265722035
:1000C0006C69737420697300737563636573736619
:1000D000756C6C79207365740066756C6C210053C7
:1000E000797374656D206D656D6D6F727900435223
:1000F000454449542E2E2E004C4F4144494E470052
:10010000207365636F6E647300746F200073756392
:100110006365737366756C6C792073657400416CEC
:1001200061726D206C617463682074696D6500454F
:100130006E74657220636F6E74616374206E6F2ECF
:100140003A00456E74657220636F64653A005354DB
:10015000415254494E472053454E534F525300533A
:10016000687574646F776E2074696D6500506F7781
:100170006572206F6E2074696D65004641494C457B
:1001800044210042414C414E434520524551554582
:1001900053540042414C414E43452E2E2E004348BD
:1001A00045434B494E470041542B434D47443D4145
:1001B0004C4C0D0A004E4F54494649434154494F57
:1001C0004E2E2E2E0053454E44494E4700656D700D
:1001D00074792100616374697661746564004175A6
:1001E000746F6D61746963206D6F6465005379731A
:1001F00074656D2064697361626C652074696D65F6
:100200003A0053797374656D20656E61626C652088
:1002100074696D653A006E6F7720656D7074792131
:10022000007375636365737366756C6C79206164C4
:10023000646564004E756D626572006578697374FB
:100240007321004E756D62657220616C7265616428
:100250007900342E2032307365636F6E647300331F
:100260002E2031307365636F6E647300322E202050
:10027000357365636F6E647300312E2020307365B3
:10028000636F6E64730064697361626C65640065BA
:100290006E61626C656400322E20494E5452552EB8
:1002A000204E54464354204F464600312E20494E9E
:1002B0005452552E204E54464354204F4E00332E58
:1002C0002044454C455445204E554D424552003240
:1002D0002E204C495354204E554D42455253003127
:1002E0002E20414444204E554D4245520057726FD6
:1002F0006E672050617373776F726421006D617453
:1003000063680050617373776F72647320646F2049
:100310006E6F74007375636365737366756C6C7967
:10032000206368616E6765640050617373776F72F4
:100330006400436F6E6669726D204E657720506170
:100340007373776F726400456E746572204E6577C3
:100350002050617373776F72643A00456E746572F2
:10036000204F6C642050617373776F72643A006140
:100370006374697661746564004D616E75616C20AB
:100380006D6F646500322E204155544F4D415449E4
:1003900043204D4F444500312E204D414E55414C98
:1003A000204D4F44450057726F6E67205061737344
:1003B000776F72642100456E7465722050617373AB
:1003C000776F72643A001F1C1F1E1F1E1F1F1E1F07
:1003D0001E1F0000000800020100000304070000C7
:1003E000000000000000010204081020408001020B
:1003F000040810200102040810200404040404046A
:1004000004040202020202020303030303030000C6
:10041000000023002600290000000000250028001D
:100420002B0000000000240027002A004E414E4906
:100430004E495459494E46CDCCCC3D0AD7233C17A2
:10044000B7D13877CC2B329595E6241FB14F0A00EF
:100450000020410000C84200401C4620BCBE4CCADF
:100460001B0E5AAEC59D7400250EC122A129920E05
:1004700011241FBECFEFD8E0DEBFCDBF12E0A0E059
:10048000B1E0ECE5FFE602C005900D92A43FB10794
:10049000D9F725E0A4EFB2E001C01D92A43DB20758
:1004A000E1F714E0CEE6D4E004C02297FE010E94FA
:1004B0000C33C836D107C9F70E9466300C94A137B7
:1004C0000C940000FC01808191810C94C6350F933F
:1004D0001F93CF93DF9300D01F92CDB7DEB78C016F
:1004E0009A838983CE0101966B830E9462026B819D
:1004F000681751F0C8010F900F900F90DF91CF91C6
:100500001F910F910C94CE350F900F900F90DF91AB
:10051000CF911F910F9108950F931F93CF93DF9366
:10052000CDB7DEB72C970FB6F894DEBF0FBECDBFA8
:100530008C014AE06A30E8F4CE0107960E943A2E18
:1005400060E3CE0101960E94222EBE01695F7F4FBB
:10055000CE0101960E94FE2EBC01C8010E94F52D1D
:10056000CE0101960E94242DCE0107960E94242DD3
:1005700002C00E943A2EC8012C960FB6F894DEBF36
:100580000FBECDBFDF91CF911F910F9108950F93B3
:100590001F93CF93DF93CDB7DEB72C970FB6F894A8
:1005A000DEBF0FBECDBF8C016D3010F06C5008C0A7
:1005B000611106C04AE06CE070E00E94672E23C023
:1005C0004AE06A30E8F4CE0107960E943A2E60E3D2
:1005D000CE0101960E94222EBE01695F7F4FCE019F
:1005E00001960E94FE2EBC01C8010E94F52DCE018D
:1005F00001960E94242DCE0107960E94242D03C04F
:10060000C8010E943A2EC8012C960FB6F894DEBF9E
:100610000FBECDBFDF91CF911F910F910895CF9362
:10062000DF93EC016C3018F063E171E002C066E129
:1006300071E0CE010E94922DCE01DF91CF910895FD
:10064000109285001092840010925E0308951F920C
:100650000F920FB60F9211242F933F934F935F93F6
:100660006F937F938F939F93AF93BF93EF93FF937A
:1006700080915E038F5F80935E0386E793E00E9424
:1006800000208093500380915003843421F08091A6
:100690005E038A3F11F40E942003FF91EF91BF9106
:1006A000AF919F918F917F916F915F914F913F910A
:1006B0002F910F900FBE0F901F901895FF920F93E0
:1006C0001F93CF93DF93EC018B0165EE72E00E94E4
:1006D000922DF12C2F2D30E0F8018481958128177F
:1006E000390730F460E2CE010E94EB2EF394F2CF92
:1006F000CE01DF91CF911F910F91FF9008950F933D
:100700001F93CF93DF93CDB7DEB72C970FB6F89436
:10071000DEBF0FBECDBF8C018091590380FF0AC0A0
:100720008CEE93E00E947425B8018CEE93E00E9459
:10073000452A1FC08CEE93E00E947425B801CE01BB
:1007400007960E94F52DBE01695F7F4FCE0101968D
:100750000E945E03BE016F5F7F4F8CEE93E00E94AC
:10076000452ACE0101960E94242DCE0107960E94B3
:10077000242D809159038F5F8093590362E370E0C9
:1007800080E090E00E94CB262C960FB6F894DEBF56
:100790000FBECDBFDF91CF911F910F910895EF92C2
:1007A000FF920F931F93CF93DF93CDB7DEB7689778
:1007B0000FB6F894DEBF0FBECDBF8C01CB0164E64F
:1007C00070E00E94B532F62EE82ECE0101960E940E
:1007D0000F036E2DCE0107960E948C026F2DCE0165
:1007E00043960E94C702BE016D5E7F4FCE010D96FB
:1007F0000E94F52D6AE3CE010D960E942B2FBE01BB
:10080000695F7F4F0E94FE2E60E20E942B2FBE0187
:100810006F5F7F4F0E94FE2EBC01C8010E94F52D24
:10082000CE010D960E94242DCE0143960E94242DC8
:10083000CE0107960E94242DCE0101960E94242D00
:10084000C80168960FB6F894DEBF0FBECDBFDF912A
:10085000CF911F910F91FF90EF9008950F931F93E9
:10086000CF93DF9300D0CDB7DEB700E010E01A835E
:100870000983CE0101960E9462028F3F39F4045F22
:100880001F4F0033110599F781E001C080E00F9000
:100890000F90DF91CF911F910F9108957F928F92CA
:1008A0009F92AF92BF92CF92DF92EF92FF920F93FF
:1008B0001F93CF93DF9300D0CDB7DEB70DE113E0E8
:1008C00069E171E0C8010E940A2E0A5F1F4F83E0B0
:1008D00005331807A9F700E010E0912C8CE0882E72
:1008E00096E0792E1A830983CE0101960E94620256
:1008F0008F3F19F494EF990E27C0892D682D0E941F
:100900009532789E60011124C601835E9C4F6C0174
:10091000E12CF12C5701A00EB11EBA82A982CE01A2
:1009200001960E9462028F3F41F0CE0101960E9423
:100930006202682FC6010E94EB2E9FEFE91AF90AA6
:100940008CE0E816F10431F79CE0990E045F1F4F2C
:100950000033110539F60F900F90DF91CF911F9161
:100960000F91FF90EF90DF90CF90BF90AF909F904E
:100970008F907F9008951F93CF93DF930E944E0432
:10098000CDE1D3E010E069E171E0CE010E947C2F5F
:10099000882311F011500CC0412F437064E08CEE9D
:1009A00093E00E947425BE018CEE93E00E94452ADC
:1009B0001F5F269683E0C533D80729F7DF91CF91D3
:1009C0001F910895CF93DF93CDB7DEB727970FB66A
:1009D000F894DEBF0FBECDBF8BEF91E00E94C6350D
:1009E000682F8AEF91E06F830E94C6356F810E9465
:1009F0001F2D4AE0BC01CE0101960E94932EBE013C
:100A00006F5F7F4F88E493E00E94FE2DCE01019638
:100A10000E94242D40914C0350914D034F5F5F4F36
:100A200020E030E064E473E088E493E00E94AE2FBD
:100A300064E473E08FE593E00E94DC1C27960FB618
:100A4000F894DEBF0FBECDBFDF91CF9108951F9305
:100A5000CF93DF93182F292FCB01EA01622F0E9439
:100A6000CE35612FCE01DF91CF911F910C94CE3501
:100A7000CF93DF931F92CDB7DEB726E040E855E273
:100A800060E070E081E395E00E94DD2840E05BE4F7
:100A900060E070E085E094E00E94481C20E044E0C3
:100AA00064E18CEE93E00E948E258BEF91E00E9432
:100AB000C635682F8AEF91E069830E94C635698147
:100AC0000E941F2D019641F44BEF51E06AEF71E057
:100AD00087E594E00E9427050E94E204F8941092B2
:100AE0008000109281001092850010928400809105
:100AF000810084608093810080916F008160809389
:100B00006F00789410925E031092090310920A030A
:100B100010920B0310920C0381E080930D0310924E
:100B20000E036BE171E08FE093E00E940A2E40E03B
:100B300050E0BA0185E094E00E944C2C88E694E0F5
:100B40000E9431228BEE93E00E94992010920703BD
:100B5000109208038CEE93E00E946D2587EF91E0E0
:100B60000E94C6358F3F29F460E087EF91E00E9434
:100B7000CE3589EF91E00E94C635813041F064E4C2
:100B800081E395E00F90DF91CF910C94552A0F905F
:100B9000DF91CF910895AF92BF92CF92DF92EF9203
:100BA000FF920F931F93CF93DF9300D0CDB7DEB7A3
:100BB00000E010E026E0B22EA02E69E171E08AEF9D
:100BC00092E00E940A2EE12CF12C6701C00ED11E8A
:100BD000DA82C982CE0101960E9462028F3F49F0FB
:100BE000CE0101960E946202682F8AEF92E00E9475
:100BF000EB2E8FEFE81AF80A8CE0E816F10429F7DB
:100C000080915B03B89EC00111246AEF72E0835E9D
:100C10009C4F0E94692F882311F08A2D05C0045F24
:100C20001F4F0033110541F60F900F90DF91CF91C8
:100C30001F910F91FF90EF90DF90CF90BF90AF90FA
:100C400008950F931F93CF93DF9300D0CDB7DEB7F6
:100C500000E010E01A830983CE0101960E9462022F
:100C60008F3F39F0045F1F4F0033110599F781E082
:100C700001C080E00F900F90DF91CF911F910F91F5
:100C800008950F931F93CF93DF938C010E944E041E
:100C9000CDE1D3E0B801CE010E94692F811107C0D8
:100CA000269683E0C533D807A9F780E001C081E02C
:100CB000DF91CF911F910F910895CF92DF92EF9224
:100CC000FF926B017C016BE271E085E094E00E9491
:100CD000532A4AE050E06091090385E094E00E94C5
:100CE0002A2B6CE285E094E00E94552A4AE050E00D
:100CF00060910A0385E094E00E942A2B6CE285E073
:100D000094E00E94552A4AE050E060910B0385E090
:100D100094E00E942A2B6CE285E094E00E94552A20
:100D20004AE050E060910C0385E094E00E942A2B99
:100D300067E371E085E094E00E94532A4AE050E0C6
:100D400060910D0385E094E00E942A2B6EE371E030
:100D500085E094E00E94532A4AE050E060910E033F
:100D600085E094E00E942A2B64E471E085E094E041
:100D70000E94532A22E030E0B701A60185E094E00A
:100D80000E941C2C6AE471E085E094E00E94532AE2
:100D90006FE073E085E094E00E94452A61E571E030
:100DA00085E094E00E94532A89EF91E00E94C635C5
:100DB00091E08F3F08F490E0980F692F70E04AE0CF
:100DC00050E085E094E00E94152B68E571E085E035
:100DD00094E00E94532A85E094E0FF90EF90DF902A
:100DE000CF900C945C2A67EA71E085E094E00E9461
:100DF000222A64E670E080E090E00C94CB260F930A
:100E00001F93CF93DF9300D000D000D0CDB7DEB7D3
:100E10008C016BE571E0CE0101960E94922DB80124
:100E2000CE0101960E94FE2E6AE671E00E94112F0B
:100E3000BC0185E094E00E94602ACE0101960E94E8
:100E4000242D64E670E080E090E00E94CB26269698
:100E50000FB6F894DEBF0FBECDBFDF91CF911F91CB
:100E60000F910895CF93DF9300D000D000D0CDB77D
:100E7000DEB7CE0101960E940F2186E0FE01319679
:100E8000A5EEB3E001900D928A95E1F7E5EEF3E06F
:100E90002381848190E034E6239F800D911D1124ED
:100EA00026960FB6F894DEBF0FBECDBFDF91CF916F
:100EB00008950F931F93CF93DF938C010E944E04EC
:100EC000CDE1D3E0B801CE010E94692F811107C0A6
:100ED000269683E0C533D807A9F780E001C081E0FA
:100EE000DF91CF911F910F910895CF938CEE93E0F6
:100EF0000E946D2541E062E08CEE93E00E94742533
:100F00006EE471E08CEE93E00E94222A42E062E0FF
:100F10008CEE93E00E947425C0E16FE170E080E008
:100F200090E00E94CB266AE28CEE93E00E94552A64
:100F3000C15099F76FE170E080E090E00E94CB260D
:100F40008CEE93E0CF910C946D251F93CF93DF939C
:100F50000E944E04CDE1D3E010E069E171E0CE01E2
:100F60000E947C2F882319F08FEF810F05C01F5F2F
:100F70002696143091F783E0DF91CF911F91089569
:100F800041E064E08CEE93E00E94742562E471E03D
:100F90008CEE93E00C94222A41E061E08CEE93E029
:100FA0000E9474256FE271E08CEE93E00C94222A8B
:100FB0000E9420038CEE93E00C946D2580915003E9
:100FC000843421F40E94D80781E0089580E00895D8
:100FD000CF93DF9300D000D000D0CDB7DEB7BC01F7
:100FE000CE0101960E94F52DCE0101960E94FF06CA
:100FF000CE0101960E94242D8CEE93E00E946D2577
:1010000041E065E08CEE93E00E94742568EF70E0AB
:101010008CEE93E00E94222A42E065E08CEE93E0A1
:101020000E9474256EEE70E08CEE93E00E94222AFE
:1010300064E670E080E090E00E94CB2626960FB632
:10104000F894DEBF0FBECDBFDF91CF9108958091A0
:101050000603882361F06DE671E085E193E00E946C
:101060000A2E60E771E08FE093E00E940A2E81E093
:10107000809307031092080308958091060381115D
:101080000CC064E871E085E193E00E940A2E67E8F5
:1010900071E08FE093E00E940A2E81E080930803C4
:1010A0001092070308950F931F93CF93DF93CDB74B
:1010B000DEB72C970FB6F894DEBF0FBECDBF8C0104
:1010C000BC01CE0107960E94CF0322E030E040E051
:1010D00050E0BE01695F7F4FCE0101960E94D82F7C
:1010E000CE0101960E944F3060930A01CE01019615
:1010F0000E94242DCE0107960E94242DB801CE0116
:1011000007960E94CF0325E030E043E050E0BE01A7
:10111000695F7F4FCE0101960E94D82FCE010196C4
:101120000E944F3060935803CE0101960E94242DF7
:10113000CE0107960E94242DB801CE0107960E9489
:10114000CF032B853C8546E050E0BE01695F7F4FB1
:10115000CE0101960E94D82FBE016F5F7F4F81E5BF
:1011600093E00E94FE2DCE0101960E94242DCE0117
:1011700007960E94242D1092360310923503109288
:101180005C032C960FB6F894DEBF0FBECDBFDF9187
:10119000CF911F910F91089564E670E080E090E098
:1011A0000E94CB268CEE93E00C946D25CF93C82F34
:1011B0008CEE93E00E946D2540E061E08CEE93E0C0
:1011C0000E9474256EE171E08CEE93E00E94222A69
:1011D00041E061E08CEE93E00E9474256DE071E0E7
:1011E0008CEE93E00E94222A42E061E08CEE93E0D4
:1011F0000E94742569E071E08CEE93E00E94222A3F
:101200004AE050E06C2F8CEE93E00E942A2B60E0C5
:1012100071E08CEE93E00E94222ACF910C94CC08CE
:10122000CF93DF931F92CDB7DEB78FEF91E00E948F
:10123000C635682F8EEF91E069830E94C6356981BB
:101240000F90DF91CF910C941F2DCF93DF931F92BE
:10125000CDB7DEB78DEF91E00E94C635682F8CEFD9
:1012600091E069830E94C63569810F90DF91CF912B
:101270000C941F2D63E171E081E593E00E947C2FC7
:10128000882321F080910A018C3079F466E171E0C5
:1012900081E593E00E947C2F882359F080910A0118
:1012A0008C3039F410920A0104C0845F80930A01E3
:1012B000EDCF0895019719F466E171E002C063E192
:1012C00071E081E593E00C940A2E8CEE93E00E948D
:1012D0006D2541E062E08CEE93E00E9474256FED95
:1012E00070E08CEE93E00E94222A42E067E08CEEF0
:1012F00093E00E94742569ED70E08CEE93E00E940B
:10130000222A0C94CC0842E061E08CEE93E00E942B
:10131000742568EC70E08CEE93E00E94222A0E9413
:10132000CC0881E08093350308950F931F93CF93EA
:10133000DF9300D000D000D0CDB7DEB742E065E04B
:101340008CEE93E00E94742560910A01CE01019613
:101350000E948C02BE016F5F7F4F8CEE93E00E9473
:10136000452ACE0101960E94242D6AE38CEE93E07B
:101370000E94552A60915803CE0101960E948C026A
:10138000BE016F5F7F4F8CEE93E00E94452ACE0135
:1013900001960E94242D60E28CEE93E00E94552A73
:1013A00061E573E08CEE93E00E94452A80910A018A
:1013B0008D3018F08CE080930A0180910A01811130
:1013C00003C081E080930A0180915C03823089F13F
:1013D000A0F48823F9F0813009F050C080910A010F
:1013E0006AE00E949532692F70E04AE0CE010196D2
:1013F0000E94672E42E066E039C0833049F18430B4
:10140000E9F561E573E0CE0101960E94F52D42E019
:101410006BE02CC080910A016AE00E949532682F2F
:1014200070E04AE0CE0101960E94672E42E065E03E
:101430001DC0809158036AE00E949532682F70E0C9
:101440004AE0CE0101960E94672E42E068E00EC09D
:10145000809158036AE00E949532692F70E04AE05B
:10146000CE0101960E94672E42E069E0CE0101960E
:101470000E947F03CE0101960E94242D86E793E00F
:101480000E9400208093500380915003992787FD8C
:101490009095C0970A9708F063C00E94200360915E
:1014A0005003CE0101960E94222ECE0101960E9489
:1014B0004F30162FCE0101960E94242D80915C039F
:1014C000823081F188F48823D9F0813009F0B7C0E7
:1014D00080910A016AE00E9495329AE0899F100D7E
:1014E000112410930A01ABC0833071F1843009F0EC
:1014F000A6C0812F992787FD90950E945A099FC009
:1015000012300CF09CC080910A016AE00E94953272
:10151000292F30E08AE0189F200D311D11242093DF
:101520000A018DC016300CF08AC0809158036AE021
:101530000E949532292F30E08AE0189F200D311D3E
:101540001124209358037BC0809158036AE00E94C5
:1015500095329AE0899F100D1124109358036FC0A3
:1015600080915003823451F40E94200380915C03E7
:10157000811102C084E010C081500EC080915003E0
:10158000833469F40E94200380915C03843019F451
:1015900010925C0354C08F5F80935C0350C08091B5
:1015A0005003843409F44FC080915003813409F012
:1015B00046C00E943A0980910A010091580310E048
:1015C00094E6899F000D111D112480911B0388232F
:1015D000C9F08130A1F5612F8CEF91E00E94670284
:1015E000602F8DEF91E00E9467028CEE93E00E94E5
:1015F0006D2541E062E08CEE93E00E9474256FE57A
:1016000071E016C0612F8EEF91E00E946702602F9B
:101610008FEF91E00E9467028CEE93E00E946D25AF
:1016200041E062E08CEE93E00E9474256DE671E08B
:101630008CEE93E00E94222A0E94830907C00E9438
:10164000DE07882319F081E08093360326960FB6D3
:10165000F894DEBF0FBECDBFDF91CF911F910F91E8
:1016600008950E941009019641F44FEF51E06EEF8A
:1016700071E088E998E00E9427050E9410090E9405
:10168000530810921B0386E793E00E94002080938A
:10169000500341E060E08CEE93E00E94742562E02C
:1016A00072E08CEE93E00E94222A0E9495098091BC
:1016B0003603811152C080913503882321F30E94A3
:1016C0002509019641F44DEF51E06CEF71E084EF94
:1016D00091E00E9427050E9425090E94530881E09D
:1016E00080931B0386E793E00E94002080935003C1
:1016F00041E060E08CEE93E00E9474256DEE71E0B5
:101700008CEE93E00E94222A0E9495098091360374
:10171000811123C080913503882321F341E062E0E9
:101720008CEE93E00E9474256EED71E08CEE93E0F8
:101730000E94222A42E064E08CEE93E00E9474252D
:1017400064ED71E08CEE93E00E94222A61E089EF63
:1017500091E00E9467020C94CC08089541E062E099
:101760008CEE93E00E94742569EB70E08CEE93E0C0
:101770000C94222A0E94AE0B42E066E08CEE93E0CD
:101780000E9474256DEC71E08CEE93E00E94222A99
:101790000C94CC080E942003609150038AEF92E0E1
:1017A0000C94EB2E0E94D8076091FE027091FF020C
:1017B000615071098AEF92E00C944B300E94D80777
:1017C00065EE72E08AEF92E00C940A2EDF92EF92BF
:1017D000FF920F931F93CF93DF93CDB7DEB72C9774
:1017E0000FB6F894DEBF0FBECDBF182F86E793E08B
:1017F0000E94002080935003123309F49AC01333DF
:1018000009F4C1C0113309F0C4C10E942106882324
:1018100019F00E946509BDC10E94DE0B0E94CC0731
:101820000E94DE078111B5C180915E03843028F0EB
:101830008CEE93E00E946D25ACC186E793E00E9498
:1018400000208093500380915003992787FD909545
:10185000C0970A9738F48091FE029091FF020C978E
:1018600008F42DC180915003833421F40E94D20BDF
:101870000E94CC0780915003813409F04DC08091C3
:10188000FE029091FF02892B09F446C00E942003BA
:101890000E9421068111BDCF6BE2CE0107960E9406
:1018A000222E6AEF72E0CE0107960E94FE2EBC0146
:1018B000CE0101960E94F52DCE0101960E944106AF
:1018C000182FCE0101960E94242DCE0107960E946A
:1018D000242D112309F4F6C08CEE93E00E946D25AF
:1018E00041E062E08CEE93E00E94742563E472E0D4
:1018F0008CEE93E00E94222A42E065E08CEE93E0B9
:101900000E9474256BE372E08CEE93E00E94222A21
:101910000E94CC080E94CC0742E063E08CEE93E08A
:101920000E9474256AEF72E08CEE93E00E94452AD3
:1019300077CF0E94D8070E942E0481110EC00E940A
:10194000BB0480915E03843008F072CF0E94DE07F2
:10195000882351F00E94D8071CC18CEE93E00E94AE
:101960006D250E94BA0B15C186E793E00E94002006
:10197000809350030E94DE0781110BC180915E03AA
:101980008430C8F255CF0E94D80710925B030E94A2
:101990002E048111E2CF36E0D32E0E94BB041091B9
:1019A0005B03D19EB0011124635E7C4FCE01019692
:1019B0000E94F52D412F437064E0CE0101960E94F4
:1019C0007F03CE0101960E94242D86E793E00E94BA
:1019D00000208093500380915003813409F041C06E
:1019E0000E94D8070E94CB0500E010E0E82EF12C01
:1019F0006FEFC8018E0D9F1D0E94CE350F5F1F4FE8
:101A00000C301105A9F70E942E04882389F00E944A
:101A1000AE0B42E064E08CEE93E00E94742566E138
:101A200072E08CEE93E00E94222A0E94CC08B1C0A2
:101A30000E94BB0486E793E00E940020809350033D
:101A40000E94DE07882329F010925B031092500356
:101A500008C080915E03843058F38CEE93E00E94BE
:101A60006D2580915003823461F40E94200380919F
:101A70005B03811103C00E94A50701C081508093C0
:101A80005B0380915003833481F40E942003109102
:101A90005B030E94A507181303C010925B0305C0E7
:101AA00080915B038F5F80935B030E94DE0781114F
:101AB00070C080915E03843008F46FCFB9CE0E946D
:101AC000CA0BD0CE00E010E01A830983CE01019644
:101AD0000E9462028F3F09F055C0D12CED2CF12CF1
:101AE0008091FE029091FF02E816F90668F4B701B2
:101AF0008AEF92E00E94AC2F682FC8018E0D9F1DC7
:101B00000E94CE35D394EACF8CEE93E00E946D25EF
:101B100041E066E08CEE93E00E94742564E372E09D
:101B20008CEE93E00E94222A42E061E08CEE93E08A
:101B30000E94742561E272E08CEE93E00E94222AFA
:101B40000E94CC0886E793E00E9400208093500317
:101B50000E94BB040E94DE07882359F065EE72E004
:101B60008AEF92E00E940A2E0E94CC071092500346
:101B7000D3CE80915E03843028F38CEE93E00E94F4
:101B80006D25CACE045F1F4F0033110509F09CCFAD
:101B9000C3CE2C960FB6F894DEBF0FBECDBFDF913B
:101BA000CF911F910F91FF90EF90DF900895CF9309
:101BB000DF93C82FD62F682F87EF91E00E9467022E
:101BC0006D2F81E395E00E94552A8C2FDF91CF91F4
:101BD0000C94D608CF93C82F682F88EF91E00E940D
:101BE00067026C2F81E395E00E94552A8CEE93E00A
:101BF0000E946D2540E063E08CEE93E00E94742526
:101C00006FEA70E08CEE93E00E94222A41E063E0EC
:101C10008CEE93E00E94742561EA70E08CEE93E014
:101C20000E94222A42E063E08CEE93E00E94742539
:101C300064E970E08CEE93E00E94222A43E063E0C6
:101C40008CEE93E0CF910C947425CF92EF920F938A
:101C5000CF93DF9320E048E067E085E094E00E94C6
:101C6000181C46E0C42E59E0E52E0AE02BE04CE0BB
:101C70006DE08CEE93E00E942C2640E050E0BA012B
:101C800085EE93E00E94272064E0E62E04E02BE03E
:101C900031E04FE051E061E972E086E793E00E94B5
:101CA0001F1D6AE971E08FE593E00E94D61C66E192
:101CB00071E081E593E00E94922D65EE72E088E488
:101CC00093E00E94922DCDE1D3E065EE72E0CE016B
:101CD0000E94922D269683E0C533D807B1F765EEB2
:101CE00072E085E193E00E94922D65EE72E08FE054
:101CF00093E00E94922D65EE72E080E093E00E94F6
:101D0000922D65EE72E08AEF92E00E94922D65EED0
:101D100072E084EF92E0DF91CF910F91EF90CF903E
:101D20000C94922D84EF92E00E94242D8AEF92E091
:101D30000E94242D80E093E00E94242D8FE093E008
:101D40000E94242D85E193E00E94242D8FE293E0F0
:101D50000E94242D89E293E00E94242D83E293E0E7
:101D60000E94242D8DE193E00E94242D88E493E0CD
:101D70000E94242D81E593E00E94242D85E094E0CB
:101D80000C94BF1BCF9385E094E00E94DF1A1816D5
:101D900019060CF0E5C085E094E00E94521A809389
:101DA00004046AE070E080E090E00E94CB2680911D
:101DB00004048B3209F0D4C085E094E00E94521AEA
:101DC000809304046AE070E080E090E00E94CB26FB
:101DD00080910404833409F0C3C085E094E00E943C
:101DE000521A809304046AE070E080E090E00E9460
:101DF000CB26809104048D3409F0B2C085E094E0D4
:101E00000E94521A809304046AE070E080E090E03F
:101E10000E94CB2680910404843509F0A1C085E09E
:101E200094E00E94521A809304046AE070E080E01B
:101E300090E00E94CB26809104048A3309F090C080
:101E400085E094E00E94521A809304046AE070E0F6
:101E500080E090E00E94CB2680910404803209F05B
:101E60007FC085E094E00E94521A809304046AE0E7
:101E700070E080E090E00E94CB26809104048232E2
:101E800009F06EC085E094E00E94521A8093040429
:101E90006AE070E080E090E00E94CB26809104042C
:101EA0008B3209F05DC085E094E00E94521A809365
:101EB00004046AE070E080E090E00E94CB2669E1D3
:101EC00071E08FE093E00E940A2E60910404623278
:101ED00089F08FE093E00E94EB2E85E094E00E9471
:101EE000521A809304046AE070E080E090E00E945F
:101EF000CB26EBCF809104048A3269F085E094E030
:101F00000E94521A809304046AE070E080E090E03E
:101F10000E94CB26EFCF65EE72E085E193E00E9450
:101F20000A2EC0E0809104048332B9F085E094E089
:101F30000E94521A80930404CF5F833239F0CE316D
:101F400028F4682F85E193E00E94EB2E6AE070E0B0
:101F500080E090E00E94CB26E5CFCF910C94F30671
:101F6000CF9108950F931F93CF93DF9300D000D0AC
:101F700000D0CDB7DEB78C016FE971E0CE010196DC
:101F80000E94922DCE0101960E94FF06CE0101967D
:101F90000E94242D8CEE93E00E946D2541E065E0C7
:101FA0008CEE93E00E9474256EE971E08CEE93E074
:101FB0000E94222A42E065E08CEE93E00E947425A4
:101FC00063E971E08CEE93E00E94222A65EA71E0F9
:101FD00085E094E00E94142D8823F1F065EE72E014
:101FE00080E093E00E940A2E809104048C32B1F1CB
:101FF0006AE070E080E090E00E94CB2685E094E00B
:102000000E94521A809304048C3271F3682F80E08E
:1020100093E00E94EB2EE8CF8CEE93E00E946D25BA
:1020200041E062E08CEE93E00E94742563E871E089
:102030008CEE93E00E94222A42E066E08CEE93E070
:102040000E9474256BE771E08CEE93E00E94222AD7
:1020500064E670E080E090E00E94CB2660E073E0F0
:10206000C8010E94F52DC80126960FB6F894DEBF70
:102070000FBECDBFDF91CF911F910F910895CF92E9
:10208000DF92EF92FF920F931F93CF93DF9300D0D5
:1020900000D000D0CDB7DEB7CE0101960E94B20FBE
:1020A000CE0101960E945A306B017C01CE0101964F
:1020B0000E94242D0E944E048CEE93E00E946D2518
:1020C00041E063E08CEE93E00E94742565EC71E0E2
:1020D0008CEE93E00E94222A42E063E08CEE93E0D3
:1020E0000E94742565EB71E08CEE93E00E94222A39
:1020F0000DE113E069E171E0C8010E947C2F8111BC
:1021000010C0B801CE0101960E94F52DAE014F5FBF
:102110005F4FC701B6010E945D06CE0101960E9485
:10212000242D0A5F1F4F83E00533180719F78CEE43
:1021300093E00E946D2526960FB6F894DEBF0FBE81
:10214000CDBFDF91CF911F910F91FF90EF90DF9066
:10215000CF900895CF92DF92EF92FF920F931F934B
:10216000CF93DF93CDB7DEB768970FB6F894DEBF95
:102170000FBECDBF182F86E793E00E94002080930A
:102180005003812F992787FD9095A92FB92FFC0126
:10219000F197E830F10508F05EC5EC5CFF4F0C9458
:1021A0000A330E94D8076091E803CE0101960E948D
:1021B000C702CE0101960E944F3060930A01CE0102
:1021C00001960E94242D6091E903CE0101960E94A0
:1021D0008C02CE0101960E944F3060935803CE01CD
:1021E00001960E94242D6091EA03CE0101960E947F
:1021F0008C02CE0101960E944F3060935703CE01AE
:1022000001960E94242D6091E803CE0101960E9460
:102210000F03BE016F5F7F4F81E593E00E94FE2DAB
:10222000CE0101960E94242D10925D0376E0C72E08
:10223000ECE0FE2EEE24E3941AE00E94DE0781110A
:102240000AC580915E03843008F0F9C486E793E004
:102250000E9400208093500380915003823461F4E7
:102260000E94200380915D03811103C0C0925D0331
:1022700003C0815080935D0380915003833461F4E7
:102280000E94200380915D03863019F410925D0353
:1022900003C08F5F80935D0380910A018D3010F041
:1022A000F0920A0180910A01811102C0E0920A01B4
:1022B00041E064E08CEE93E00E94742560910A0195
:1022C000CE0101960E948C02BE016F5F7F4F8CEEA3
:1022D00093E00E94452ACE0101960E94242D6AE3D4
:1022E0008CEE93E00E94552A60915803CE0101962E
:1022F0000E948C02BE016F5F7F4F8CEE93E00E94C4
:10230000452ACE0101960E94242D6AE38CEE93E0CB
:102310000E94552A60915703CE0101960E948C02BB
:10232000BE016F5F7F4F8CEE93E00E94452ACE0185
:1023300001960E94242D60E28CEE93E00E94552AC3
:1023400061E573E08CEE93E00E94452A80915D0385
:1023500090E08730910508F06FC0FC01E45CFF4F0E
:102360000C940A3380910A01612F0E949532682FE4
:1023700070E04AE0CE0101960E94672E41E064E0E1
:1023800053C080910A01612F0E949532692F70E03D
:102390004AE0CE0101960E94672E41E065E044C00C
:1023A00080915803612F0E949532682F70E04AE0B7
:1023B000CE0101960E94672E41E067E035C0809112
:1023C0005803612F0E949532692F70E04AE0CE01D8
:1023D00001960E94672E41E068E026C08091570375
:1023E000612F0E949532682F70E04AE0CE0101967D
:1023F0000E94672E41E06AE017C080915703612F69
:102400000E949532692F70E04AE0CE0101960E9449
:10241000672E41E06BE008C061E573E0CE010196F4
:102420000E94F52D41E06DE0CE0101960E947F03F0
:10243000CE0101960E94242D80915003992787FD9B
:102440009095C0970A9708F07FC00E942003609182
:102450005003CE0101960E94222ECE0101960E94C9
:102460004F30062FCE0101960E94242D40915D032E
:1024700050E04730510508F067C0FA01ED5BFF4FAF
:102480000C940A3302300CF05FC080910A01612F76
:102490000E949532292F30E08AE0089F200D311DDF
:1024A000112420930A0150C080910A01612F0E94DB
:1024B0009532D02E9AE0899FD00C1124D0920A0137
:1024C00043C006300CF040C080915803612F0E9439
:1024D0009532292F30E08AE0089F200D311D11240C
:1024E0002093580331C080915803612F0E94953288
:1024F000D02E9AE0899FD00C1124D092580324C08A
:10250000063014F580915703612F0E949532292FD0
:1025100030E08AE0089F200D311D112420935703DD
:1025200013C080915703612F0E949532D02E9AE0FC
:10253000899FD00C1124D092570306C0802F992771
:1025400087FD90950E945A0980915003813409F0CB
:1025500074CE0E943A096091E50370E06053784FB1
:10256000C0905703E090580300910A012091E703BF
:102570004091E603CE0101960E948520CE0101968E
:102580000E949F20CE0101960E940F2186E0FE014D
:102590003196A5EEB3E001900D928A95E1F75BC309
:1025A00061E481E395E00E94552A55C30E94D80753
:1025B00041E062E08CEE93E00E94742567E973E0ED
:1025C0008CEE93E00E94222A42E061E08CEE93E0E0
:1025D0000E94742565E873E08CEE93E00E94222A45
:1025E0000E94DE07811137C380915E03843008F0BA
:1025F00026C386E793E00E940020809350038091D9
:102600005003813349F0823399F68CEE93E00E94B7
:102610006D250E94310BCCCF8CEE93E00E946D258E
:1026200041E063E08CEE93E00E94742569E773E07B
:102630008CEE93E00E94222A42E064E08CEE93E06C
:102640000E9474256FE673E08CEE93E00E94222ACC
:1026500060E089EF91E00E9467020E94CC08A8CF59
:102660000E94D8078FE593E00E94F21C80913B0303
:10267000882319F010923B03EEC241E060E08CEE3B
:1026800093E00E9474256BE573E08CEE93E00E946A
:10269000222A10E086E793E00E94002080935003F6
:1026A0000E94DE07811108C080915E03843040F0F3
:1026B0008CEE93E00E946D2581E080933A0321C067
:1026C00080915003992787FD9095C0970A97A8F4A9
:1026D0000E942003609150038FE593E00E94E01C6C
:1026E00042E067E0610F8CEE93E00E94742563E2A4
:1026F0008CEE93E00E94552A01C011501F5F1430E8
:1027000048F280913A03882319F010923A03A3C249
:102710008FE593E00E94F61C882309F444C18CEEF7
:1027200093E00E946D258FE593E00E94F21C41E04A
:1027300060E08CEE93E00E94742567E473E08CEE19
:1027400093E00E94222A10E086E793E00E94002096
:10275000809350030E94DE07811108C080915E03C0
:10276000843040F08CEE93E00E946D2581E08093F0
:10277000380322C080915003992787FD9095C09718
:102780000A97B0F40E94200380915003E12FF0E0FB
:10279000E05CFC4F808342E067E0610F8CEE93E0E9
:1027A0000E94742563E28CEE93E00E94552A01C0DA
:1027B00011501F5F143040F28091380381114DC0D9
:1027C0008CEE93E00E946D2541E060E08CEE93E09A
:1027D0000E94742562E373E08CEE93E00E94222A4B
:1027E00010E086E793E00E940020809350030E944F
:1027F000DE07811108C080915E03843040F08CEECA
:1028000093E00E946D2581E08093380322C080917F
:102810005003992787FD9095C0970A97B0F40E94BE
:10282000200380915003E12FF0E0E45CFC4F8083B3
:1028300042E067E0610F8CEE93E00E94742563E252
:102840008CEE93E00E94552A01C011501F5F143096
:1028500040F280913803882319F01092380306CF94
:102860006CE373E0CE0107960E94922D24E030E0E5
:1028700040E050E0BE01695F7F4FCE0101960E94AB
:10288000D82F60E473E0CE0143960E94922D24E09D
:1028900030E040E050E0BE016D5E7F4FCE010D960E
:1028A0000E94D82FBE016F5F7F4FCE010D960E9410
:1028B000692F182FCE010D960E94242DCE0143962C
:1028C0000E94242DCE0101960E94242DCE01079650
:1028D0000E94242D8CEE93E0112309F447C00E943E
:1028E0006D2541E065E08CEE93E00E94742569E27D
:1028F00073E08CEE93E00E94222A42E060E08CEECE
:1029000093E00E94742564E173E08CEE93E00E94F2
:10291000222A6CE373E0CE0107960E94922D24E0F8
:1029200030E040E050E0BE01695F7F4FCE0101968C
:102930000E94D82FCE0101960E944F30DC01CB01BE
:102940004BEF51E06AEF71E00E942705CE0101963E
:102950000E94242DCE0107960E94242D0E94E2049D
:102960000E94CC0881E080933B0380CE0E946D25BD
:1029700041E061E08CEE93E00E94742563E073E037
:102980008CEE93E00E94222A42E066E08CEE93E017
:102990000E9474256DEF72E08CEE93E00E94222A73
:1029A0000E94CC08C0CE8CEE93E00E946D2541E0E1
:1029B00063E08CEE93E00E9474256DEE72E08CEE85
:1029C00093E00E94222A0E94CC084CCE0E94DE0B8B
:1029D0000E94C0070E94DE0781113DC180915E0305
:1029E000843008F02CC186E793E00E940020809399
:1029F000500380915003992787FD9095C0970A97BF
:102A000040F0809150038A3221F08091500383324C
:102A100039F48091FE029091FF02449708F40CC1B2
:102A200080915003833421F40E94D20B0E94C0078E
:102A300080915003813409F007C18091FE0290918A
:102A4000FF02892B09F400C16AEF72E0CE01019602
:102A50000E94F52DCE0101960E94E807CE01019655
:102A60000E94242D69EA71E08FE093E00E940A2E13
:102A70000E943F10E4C00E94D80740E062E08CEE64
:102A800093E00E9474256FED72E08CEE93E00E945B
:102A9000222A41E062E08CEE93E00E9474256FEC04
:102AA00072E08CEE93E00E94222A42E062E08CEE1B
:102AB00093E00E9474256EEB72E08CEE93E00E942E
:102AC000222A86E793E00E940020809350030E9410
:102AD000DE078111C0C080915E03843008F0AFC072
:102AE000809150030E94E60BC8CF0E94D80740E0B7
:102AF00060E08CEE93E00E9474256BEA72E08CEE4D
:102B000093E00E94222A41E060E08CEE93E00E9474
:102B1000742567E972E08CEE93E00E94222A0E94FD
:102B2000DE07811198C080915E03843008F087C071
:102B300080915003813331F489E40E94EA0D6FE8FB
:102B400072E009C080915003823361F489E60E94EB
:102B5000EA0D66E872E08CEE93E00E94222A0E9461
:102B6000CC0879C086E793E00E9400208093500350
:102B7000D6CF0E94D80740E063E08CEE93E00E943D
:102B8000742569E772E08CEE93E00E94222A41E00E
:102B900063E08CEE93E00E9474256CE672E08CEEAC
:102BA00093E00E94222A42E063E08CEE93E00E94D0
:102BB00074256FE572E08CEE93E00E94222A43E0D8
:102BC00063E08CEE93E00E94742562E572E08CEE87
:102BD00093E00E94222A0E94DE0781113CC080916E
:102BE0005E03843060F580915003813321F460915D
:102BF000500380E017C080915003823321F460912C
:102C0000500385E00FC080915003833321F460911D
:102C100050038AE007C080915003843331F46091FF
:102C2000500384E10E94D70D16C086E793E00E940E
:102C3000002080935003CFCF0E94CA0BF1CE8CEEC0
:102C400093E00E946D2507C06AEF72E08CEE93E07E
:102C50000E94452ABFCE68960FB6F894DEBF0FBE1D
:102C6000CDBFDF91CF911F910F91FF90EF90DF903B
:102C7000CF900895AF92BF92CF92DF92EF92FF92E2
:102C80000F931F93CF93DF93CDB7DEB7E6970FB6C1
:102C9000F894DEBF0FBECDBF40E060E08CEE93E065
:102CA0000E94742562E48CEE93E00E94552A60E055
:102CB00073E08CEE93E00E94452A43E060E08CEEE6
:102CC00093E00E9474256CE48CEE93E00E94552AF8
:102CD00087EF91E09A8389838E010F5F1F4FC801B0
:102CE0000E9462024AE050E0682F8CEE93E00E945E
:102CF0002A2B89EF91E00E94C63540E063E18130E4
:102D000009F07FC08CEE93E00E94742561E48CEEA4
:102D100093E00E94552A0E9410097C010E94250917
:102D20008E159F05B8F50E9432077C010E9410099C
:102D3000E816F90628F40E94320797FF07C00EC074
:102D40000E94320788339940B4F70EC00E943207C0
:102D50007C010E942509E816F90630F080910703EE
:102D6000811102C00E9427080E9432077C010E9444
:102D70002509E816F90628F48091080381114AC054
:102D8000E9C20E9432077C010E941009E816F90688
:102D900098F740C00E9432077C010E942509E8167E
:102DA000F90628F40E94320797FF07C00EC00E9460
:102DB000320788339940B4F70EC00E9432077C0175
:102DC0000E941009E816F90630F08091080381117D
:102DD00002C00E943D080E9432077C010E94100937
:102DE000E816F90628F480910703811113C0B5C2D3
:102DF0000E9432077C010E942509E816F90698F71F
:102E000009C08CEE93E00E9474256DE48CEE93E093
:102E10000E94552A88EF91E00E94C63543E063E1A5
:102E2000893631F48CEE93E00E94742560E205C08F
:102E30008CEE93E00E9474256EE48CEE93E00E9489
:102E4000552A81E395E00E94FA27181619060CF01E
:102E500086C081E395E00E94132880931C03893586
:102E600009F467C058F4803509F473C08835D1F18E
:102E70008A3409F074C00E94750771C0803709F464
:102E80006CC018F48A35B9F06AC0883709F442C0BA
:102E9000893709F064C010920C0310920B03109252
:102EA0000A031092090381E080930D0310920E0330
:102EB00065EF71E028C088EF91E00E94C635893641
:102EC00009F44DC081E08093090380930A03809345
:102ED0000B0380930C0380930D0380930E0365EB2B
:102EE00071E011C00E94750710920C0310920B0341
:102EF00010920A031092090381E080930D0310924F
:102F00000E0360EC71E08FE093E00E940A2E0E94B5
:102F10003F1025C010920C0310920B0310920A036D
:102F20001092090310920D0310920E0365ED71E0EB
:102F3000EACF81E080930C0380930B0380930A0314
:102F40008093090380930D0310920E036BEE71E0E2
:102F5000DACF81E08093060302C010920603C80115
:102F60000E940F2186E0F801A5EEB3E001900D92DA
:102F70008A95E1F742E065E08CEE93E00E947425CB
:102F80006091E803C8010E94C702B8018CEE93E08B
:102F90000E94452AC8010E94242D6AE38CEE93E02A
:102FA0000E94552A6091E903C8010E948C02B80171
:102FB0008CEE93E00E94452AC8010E94242D6AE30A
:102FC0008CEE93E00E94552A6091EA03C8010E94AA
:102FD0008C02B8018CEE93E00E94452AC8010E9441
:102FE000242D60E28CEE93E00E94552A6091E80364
:102FF000C8010E940F03B8018CEE93E00E94452A9D
:10300000C8010E94242D86E793E00E94002080934F
:10301000500380915003813409F062C10E94D807A7
:103020008FE593E00E94F21C1092370384E1A82EF2
:10303000B12C80913703811153C141E062E08CEEE5
:1030400093E00E94742566EB73E08CEE93E00E949F
:10305000222AF12C86E793E00E94002080935003FF
:103060000E94DE07811108C080915E03843040F029
:103070008CEE93E00E946D2581E08093390322C09D
:1030800080915003992787FD9095C0970A97A8F4DF
:103090000E942003609150038FE593E00E94E01CA2
:1030A00042E067E06F0D8CEE93E00E94742563E2CE
:1030B0008CEE93E00E94552A01C0FA94F394F3E059
:1030C000FF1540F680913903882319F010923903D7
:1030D00007C18FE593E00E94F61C882309F4D3C052
:1030E00081E0809337038FE593E00E94F21C1092F9
:1030F0005A038CEE93E00E946D2586E793E00E94D0
:1031000000208093500360E072E0C8010E94922D7D
:103110006CE072E0CE0107960E94922D6BE172E0A6
:10312000CE010D960E94922D6CE272E0CE01439684
:103130000E94922D6FE372E0CE0149960E94922D7B
:1031400060E572E0CE014F960E94922D61E672E03A
:10315000CE0185960E94922D64E772E0CE018B9697
:103160000E94922DF0905A03F11033C080914F03CA
:10317000811107C08CEE93E00E946D2581E0809361
:103180004F0310924E037801D12CF7018481958171
:10319000B501681B790B769567954D2D8CEE93E004
:1031A0000E947425B7018CEE93E00E94452AD394C7
:1031B000F6E0EF0EF11C24E0D212E7CF86E793E0B1
:1031C0000E9400208093500380915003823471F557
:1031D000C7C081E0F812F2CF80914E03811106C082
:1031E0008CEE93E00E946D25F0924E0310924F03F7
:1031F000FE0179967F01D12CF70184819581B5017B
:10320000681B790B769567954D2D8CEE93E00E94A7
:103210007425B7018CEE93E00E94452AD394F6E022
:10322000EF0EF11C24E0D212E7CFC8CF80915003FB
:10323000833409F495C00E94DE07811111C080918A
:103240005E03843028F08CEE93E00E946D2508C068
:10325000809150030E94AA10CC24C394D12C02C0A8
:10326000C12CD12CCE01C1967C0196E0E91AF1085F
:10327000C7010E94242DE016F106B9F7CA94CD28A3
:1032800009F43BCF23C00E94DE07811129C0809141
:103290005E03843028F08CEE93E00E946D2520C000
:1032A0008CEE93E00E946D2541E063E08CEE93E0AC
:1032B0000E94742566EA73E08CEE93E00E94222A55
:1032C0000E94CC088FE593E00E94F21C0E94DE076A
:1032D000811106C080915E03843008F4AACEDBCF52
:1032E000809150038A3229F466E481E395E00E94DC
:1032F000552A80915003833229F467E481E395E0F5
:103300000E94552A0E94C20E65EE72E085E193E0AC
:103310000E947C2F8111B5C06FE073E0C8010E944C
:10332000F52DC8010E945907811123C060E771E0A3
:103330008FE093E00E947C2F81111BC067E871E051
:103340008FE093E00E947C2F91E0811101C090E01A
:10335000F92E11C00E943D085DCD0E9427085ACD6C
:103360000E94200380915A0391E0892780935A0399
:1033700062CFFF24F394C8010E94242DFF2009F49A
:1033800080C069E872E085E193E00E947C2F882389
:1033900079F062E481E395E00E94552A81E0809310
:1033A0000C0380930B0380930A038093090316C0D8
:1033B0006CE872E085E193E00E947C2F882389F01D
:1033C00063E481E395E00E94552A10920C03109269
:1033D0000B0310920A031092090381E080930D03FE
:1033E00021C064E871E085E193E00E947C2F88238E
:1033F00011F064E4E6CF6DE671E085E193E00E94B0
:103400007C2F882391F065E481E395E00E94552AA2
:1034100010920C0310920B0310920A0310920903EE
:1034200010920D0310920E0324C06FE872E085E144
:1034300093E00E947C2F81111CC06AE2CE01C196EC
:103440000E94222E65E173E0CE01C1960E94FE2EFD
:1034500063E20E942B2FBC01C8010E94F52DC80118
:103460000E94E807C8010E94242DCE01C1960E9447
:10347000242D0E943F1065EE72E085E193E00E94EA
:103480000A2EE6960FB6F894DEBF0FBECDBFDF91D1
:10349000CF911F910F91FF90EF90DF90CF90BF9051
:1034A000AF9008952091660430916704281739077A
:1034B000B9F49091240480912504981789F0E09143
:1034C0002404F0E0EA5DFB4F80812091240430E089
:1034D0002F5F3F4F2F7333272093240490E00895EC
:1034E0008FEF9FEF08951F93CF93DF93DC015C96DE
:1034F0008D919C915D97009749F481E090E013963F
:103500009C938E93129780E090E03BC05196ED9192
:10351000FC91529750962C915097322F30951FB7AF
:103520005E964C915E9741FB772770F941FD60955F
:10353000F8944081772311F0422B01C0432340834C
:10354000EC012197F1F748E0508160FF02C0522B57
:1035500001C053235083EC012197F1F76695415048
:1035600099F78081772311F0832301C0822B808318
:103570001FBF5C968D919C915D970197F1F781E05B
:1035800090E0DF91CF911F910895209166043091D2
:1035900067042817390781F4909124048091250449
:1035A000981751F0E0912404F0E0EA5DFB4F808130
:1035B000992787FD909508958FEF9FEF08952091AB
:1035C0006604309167042817390771F48091250447
:1035D0002091240490E0805C9F4F821B910960E45D
:1035E00070E00E94B532089580E090E00895209147
:1035F0006604309167042817390739F48FB7F894B7
:1036000010922504109224048FBF0895E09166045F
:10361000F0916704E817F90769F4A389B4899C91CC
:103620008589809589238C93109267041092660493
:1036300081E0089580E00895CF93DF93EC018A8DB7
:103640009B8D892BF1F080916604909167048C1713
:103650009D07B9F0009711F00E94061B8E8D8E7F9A
:103660008E8F1092250410922404D0936704C09387
:103670006604EB89FC8980819D89892B808381E0A8
:1036800001C080E0DF91CF9108951F920F920FB695
:103690000F9211242F933F934F935F936F937F93D8
:1036A0008F939F93AF93BF93EF93FF93E091660443
:1036B000F0916704309709F451C0868DA685B785CF
:1036C000958581FF04C08C91892329F447C08C9192
:1036D000892309F043C0A389B4899C918589809589
:1036E00089238C93868997890197F1F7208D318DF5
:1036F000A685B785758558E040E0C9010197F1F7C7
:10370000842F90E095958795482F6C91672309F059
:103710004068515091F7868D81FD40958091250438
:1037200090E001968F73992720912404281749F07F
:10373000A0912504B0E0AA5DBB4F4C938093250473
:1037400003C0868D8160868F828D938D0197F1F7FE
:10375000A389B4898C919589892B8C93FF91EF91E2
:10376000BF91AF919F918F917F916F915F914F9199
:103770003F912F910F900FBE0F901F90189525EA43
:1037800032E0FC01318320830C94061B1F93CF93FE
:10379000DF93EC01162F6E8D6695617081E06827CE
:1037A000812F0E949B2761E0812F0E946227812F39
:1037B00090E0FC01EA51FC4FE491E88BFC01E650FB
:1037C000FC4FE491F0E0EE0FFF1FE85EFB4F8591A8
:1037D00094919A8B898BDF91CF911F9108951F93BC
:1037E000CF93DF93EC01162F60E0812F0E946227B8
:1037F0008E8D81FD04C061E0812F0E949B271C8774
:10380000812F90E0FC01EA51FC4FE491ED87FC012F
:10381000E650FC4FE491F0E0EE0FFF1FE25FFB4F3C
:10382000859194919F878E87DF91CF911F91089505
:10383000FF920F931F93CF93DF93EC01F62E522F3D
:103840001B821A8208EE13E020E030E00C831D8317
:103850002E833F8385EA92E0998388831F8A1E8A9C
:10386000198E188E1B8E1A8E1D8E1C8E8E8D8E7F3D
:1038700050FB81F98E8F642FCE010E94C61B6F2DE5
:10388000CE01DF91CF911F910F91FF900C94EF1B10
:10389000CF93DF93EC019A01AB011B8E1A8E198E28
:1038A000188E1F8A1E8A60E079E08DE390E00E9406
:1038B000EB32C9012430310520F0B90163507109A0
:1038C00002C061E070E07D8F6C8FEC85E63108F01E
:1038D00068C0B901769567956431710518F0635138
:1038E000710902C061E070E07F8B6E8B069718F063
:1038F000C901059702C081E090E0998F888FC901C6
:10390000880F991F820F931F969587959695879597
:103910008D30910510F00C9702C081E090E09B8FF4
:103920008A8F20916800E83050F091E0EE3008F482
:1039300090E081E001C0880F9A95EAF701C084E029
:10394000822B809368002C85283038F02E3040F090
:10395000263148F48CE690E008C08DE690E005C082
:103960008BE690E002C080E090E09C8B8B8B28304F
:1039700030F481E001C0880F2A95EAF70DC0822F4C
:1039800090E02E3010F4089701C00E9791E001C02E
:10399000990F8A95EAF7892F8D8B8C8D9D8D0197D4
:1039A000F1F7CE01DF91CF910C941C1BFC017183C8
:1039B0006083168A12820895FC01718360830895E2
:1039C000FC012689233161F031E0320F368BE20FA2
:1039D000F11D6283FC01E30FF11D128281E0089565
:1039E00080E00895FC01168A12820895DC01ED91B1
:1039F000FC911197519112964C9120E030E05111B9
:103A000004C081E0442379F00DC054130BC05191E0
:103A1000DC01A20FB31F13964C912F5F3F4F233150
:103A2000310569F780E00895862F642F0C94622792
:103A3000862F642F0C949B27862F0C94D1274F92AE
:103A40005F926F927F928F929F92AF92BF92CF922E
:103A5000DF92EF920F93CF93DF93EC014B013A018A
:103A6000590102960E94212085EB92E09983888378
:103A70006E018CE1C80ED11C26018CE3480E511C4E
:103A8000C6010E94212086E0C80ED11CC414D504B2
:103A9000B9F7FE01EE59FF4F718260823296B18212
:103AA000A082329600833196E0823797918280829D
:103AB00038968AE090E091838083329684EF91E09B
:103AC00091838083339611821082719710821182C4
:103AD00012821382C459DF4F1882DF91CF910F9168
:103AE000EF90DF90CF90BF90AF909F908F907F909E
:103AF0006F905F904F9008952F923F924F925F92F8
:103B00006F927F928F929F92AF92BF92CF92DF92ED
:103B1000EF92FF920F931F93CF93DF93CDB7DEB752
:103B200028970FB6F894DEBF0FBECDBF98878F835E
:103B3000F12C4C0186E6880E911C0F8118850E59D8
:103B40001F4FD4018C91F816A0F4AF81B8858D91E8
:103B50009C91F801A081B181AF0DB11DFC012081C4
:103B6000318142E06C918F819885F9010995F39438
:103B7000E8CF512CEF81F885E959FF4FFA83E983AB
:103B80000F8118850C591F4FC12CD12C7601C3947D
:103B90008F8198858E599F4F9C838B83A981BA8191
:103BA0008C91581608F088C0A52CB12CAF81B8852F
:103BB0008D919C91F801A081B181AA0DBB1DFC01E2
:103BC0002081318141E06C918F819885F9010995BF
:103BD000AF81B8858D919C91F801A081B181AA0D2A
:103BE000BB1DFC012281338140E06C918F8198855F
:103BF000F9010995D701C601052C04C0880F991F4A
:103C0000AA1FBB1F0A94D2F79C011C012094309478
:103C1000412CD4018C91EF81F88540815181481667
:103C200048F5642C712CEB81FC81A081B181A60D3B
:103C3000B71DFA01448155816C918F8198852D8340
:103C40003E83FA010995660C771C2D813E81EF8138
:103C5000F885E60DF71D892B29F480859185822B47
:103C6000932B04C080859185822193219187808741
:103C70004394CFCFF801A081B181AA0DBB1DFA01F9
:103C80002281338141E06C918F819885F9010995FA
:103C9000AF81B8858D919C91F801A081B181AA0D69
:103CA000BB1DFC012081318140E06C918F819885A2
:103CB000F9010995539472CF28960FB6F894DEBF98
:103CC0000FBECDBFDF91CF911F910F91FF90EF906D
:103CD000DF90CF90BF90AF909F908F907F906F902C
:103CE0005F904F903F902F900895FC0180E090E00E
:103CF000258D368D2617370739F0019636968A308E
:103D00009105B1F78FEF9FEF0895DC0126E0629FE8
:103D1000A00DB11D112490965C934E935F9721E006
:103D200091962C939197FC01E459FF4F2081319695
:103D30000190F081E02D222331F0309749F061119C
:103D400007C0DC0102C0309719F05C968C91099491
:103D50000895CF92DF92FF920F931F93CF93DF933B
:103D60001F92CDB7DEB76C01F62EFC0186E0689F8E
:103D7000E00DF11D112411A2878D90A181309105D4
:103D8000F1F01CF4892B51F046C08230910599F175
:103D9000039709F040C040E050E031C04423D9F11E
:103DA00041E050E0C6010E94851E0E949C26F6015B
:103DB000E85AFF4F60837183828393832CC04983C9
:103DC0000E949C26F601E85AFF4F00811181228152
:103DD0003381601B710B820B930B729600811181F2
:103DE00020E030E04981061717072807390718F443
:103DF00042E050E004C041110EC043E050E06F2D9E
:103E0000C6010F90DF91CF911F910F91FF90DF902E
:103E1000CF900C94851E0F90DF91CF911F910F9141
:103E2000FF90DF90CF9008952F923F924F925F9234
:103E30006F927F928F929F92AF92BF92CF92DF92BA
:103E4000EF92FF920F931F93CF93DF931F92CDB703
:103E5000DEB71C01FC014AE08FEF9FEF278D30A1F8
:103E6000232B21F4148E968F858F11A24150369604
:103E70004111F4CF712C610126E6C20ED11C510113
:103E800087E6A80EB11C4101A0E68A0E911C46E00F
:103E9000442ED6018C91781608F055C0612C810112
:103EA000070D111D070D111D085F1F4FF501E08063
:103EB0006E1408F046C0F80140815181062C02C002
:103EC000569547950A94E2F741707E9C7001112443
:103ED000E60CF11CD401ED91FC91EE0DFF1D50801C
:103EE000B701C10149830E94751E498197FD02C037
:103EF000682F1BC0019619F5442309F180E090E07A
:103F000060E070E0F101E80FF91F248D211111C06C
:103F1000469EF001479EF00D1124E20DF31D548ED4
:103F2000F68EE58E10A2178E41E0C1010E94A91EF7
:103F300006C06F5F7F4F06966A30710519F763946C
:103F4000B5CF7394A6CF20E030E080E0F101E20F1E
:103F5000F31F91A1911181E02A5F3F4F2C3331056E
:103F6000A9F70F90DF91CF911F910F91FF90EF90E4
:103F7000DF90CF90BF90AF909F908F907F906F9089
:103F80005F904F903F902F900895CF92DF92EF92E5
:103F9000FF920F931F93CF93DF938C010E949C2677
:103FA000E801C45ADF4FC880D980EA80FB806C19D1
:103FB0007D098E099F09F801E859FF4FC080D18023
:103FC000E12CF12CC616D706E806F90670F4C801F4
:103FD0000E947C1DC8010E94141F182F0E949C265D
:103FE000688379838A839B8301C010E0812FDF91EE
:103FF000CF911F910F91FF90EF90DF90CF90089598
:104000000F931F93CF93DF93EC018C0104591F4F43
:1040100081E0F8018083CE010E94C51F882349F00A
:1040200089A1882331F08F8D98A1019711F48C8D8F
:1040300003C0F801108280E0DF91CF911F910F91B2
:104040000895FC0110821482138215820895CF9284
:10405000DF92EF92FF92CF93DF93EC0140585344ED
:104060006D467843ECE3CE2ED12CE12CF12CCB0124
:10407000BA01A70196010E94C9326D83CA01B90134
:10408000A70196010E94C9326C83CA01B90128E1D7
:1040900030E040E050E00E94C9326B83188243E96F
:1040A0005EEFE8818E2F8370A1E009F0A0E08A2FF7
:1040B00090E0BC0163597E4F2617370740F0BA01E4
:1040C000681B790B260F371FEF5FE883EACF81E08B
:1040D00089838981E82FF0E0EB53FC4FE491AA2318
:1040E00019F0823009F4EF5FF0E02E173F0720F05F
:1040F0002E1B3F0B8F5FECCF2F5F2A83DF91CF9179
:10410000FF90EF90DF90CF900895CF92EF920F93B2
:10411000FC01603D87E0780710F0605D77406083C8
:10412000418322830383E482C5820F91EF90CF9075
:10413000089588E694E00E94312281E008951F935B
:10414000CF93DF93EC0168E670E088E694E00E948C
:10415000452260E088E694E00E94F2212D811AE079
:10416000822F612F0E949532682F660F680F660FAD
:10417000620F88E694E00E94F2212C81822F612F49
:104180000E949532682F660F680F660F620F88E6EF
:1041900094E00E94F2212B81822F612F0E949532A0
:1041A000682F660F680F660F620F88E694E00E9422
:1041B000F22160E088E694E00E94F2212A81822FB9
:1041C000612F0E949532682F660F680F660F620F8D
:1041D00088E694E00E94F2212981822F612F0E94BB
:1041E0009532682F660F680F660F620F88E694E0BD
:1041F0000E94F2212881822F612F0E949532682F20
:10420000660F680F660F620F88E694E00E94F22145
:1042100088E694E0DF91CF911F910C94BE22CF925B
:10422000DF92EF92FF920F931F93CF93DF93EC01F6
:1042300068E670E088E694E00E94452260E088E647
:1042400094E00E94F22188E694E00E94BE2247E0BA
:1042500050E068E670E088E694E00E94BB2288E6C1
:1042600094E00E94A2218F77982F92959F701AEF69
:10427000082F919F000D112488E694E00E94A2214E
:104280009C013327A4E035952795AA95E1F7F82EF0
:10429000129FF00C112488E694E00E94A2219C0158
:1042A0003327B4E035952795BA95E1F7E82E129FAC
:1042B000E00C112488E694E00E94A22188E694E0B4
:1042C0000E94A2219C01332794E0359527959A9569
:1042D000E1F7D82E129FD00C112488E694E00E94BA
:1042E000A2219C01332744E0359527954A95E1F7B3
:1042F000C82E129FC00C112488E694E00E94A221CF
:104300009C01332754E0359527955A95E1F7129F84
:10431000800D11248883C982DA82EB82FC820D83AE
:10432000CE01DF91CF911F910F91FF90EF90DF9021
:10433000CF9008958091980490E020919904821B79
:10434000910908952091990480919804281750F4B8
:10435000E22FF0E0E656FB4F808190E02F5F209344
:10436000990408958FEF9FEF0895E091990480914B
:104370009804E81730F4F0E0E656FB4F808190E0B7
:1043800008958FEF9FEF08950895CF92DF92EF92F7
:10439000FF920F931F93CF93DF937C01CB018A0190
:1043A00020917404222389F0EB016B01C40ED51E09
:1043B000CC15DD0569F06991D701ED91FC91019073
:1043C000F081E02DC7010995F3CF642F0E9482236D
:1043D000C801DF91CF911F910F91FF90EF90DF9077
:1043E000CF900895CF93DF931F92CDB7DEB7698347
:1043F000209174042223D1F020917504203240F0E2
:1044000021E030E0FC013383228380E090E015C09E
:1044100080917604E82FF0E0E958FB4F9981908372
:104420008F5F809376048093750405C061E0CE01B0
:1044300001960E94822381E090E00F90DF91CF915E
:104440000895FC011382128248EE53E060E070E0B0
:1044500044835583668377838FEB92E091838083D7
:104460000895109299041092980410927604109274
:1044700075040C94C52281E08093740460939704C2
:10448000109276041092750408950C943B220F93B9
:10449000062F21E04091750467E774E0809197044E
:1044A0000E942B23109276041092750410927404CB
:1044B0000F9108958F929F92AF92BF92CF92DF9209
:1044C000EF92FF920F931F93CF93DF93EC01F62EA1
:1044D000D42E48015901EE2019F10E943B221E2DD5
:1044E000143008F013E01150B8F0E881F98128E0A9
:1044F000129FB0011124A501940104C0569547955F
:10450000379527956A95D2F7CA01B9010190F081D4
:10451000E02DCE010995E7CF60E0CE010E94472251
:104520004D2D413208F040E22C2D6AE974E08F2DC8
:104530000E94E3221092990480939804DF91CF9116
:104540001F910F91FF90EF90DF90CF90BF90AF90B1
:104550009F908F900895CF92EF920F931F93C22E4A
:10456000E12C00E010E098010E945A221F910F9167
:10457000EF90CF90089521E00C94AB2261E00C9471
:10458000472288E694E00C9421221092270581E0CE
:10459000809325051092240561E082E10E949B270B
:1045A00061E083E10E949B27E9EBF0E080818E7F50
:1045B000808380818D7F808388E48093B80085E448
:1045C0008093BC000895413208F043C090912705C4
:1045D0009111FCCF91E090932705209325052FEFB3
:1045E0002093BA041092FF04240F2093FE049093AA
:1045F000260590912605880F892B809326058091AA
:104600002405813061F41092240580912605809361
:10461000BB008091BC0083FDF8CF85EC01C085EE26
:104620008093BC00809127058130E1F38091FF04E5
:10463000841710F44091FF0420E035E0FB01D9011C
:104640008A2F821B841718F48D918193F9CF842FC0
:10465000089580E008950F93413208F04AC0909188
:1046600027059111FCCF92E0909327050093250533
:104670009FEF9093BA041092FF044093FE04FB0155
:1046800060E075E0DB019A2F961B941718F4919166
:104690009D93F9CF1092260590912605880F892BBE
:1046A0008093260580912405813061F410922405C1
:1046B000809126058093BB008091BC0083FDF8CFDC
:1046C00085EC01C085EE8093BC00222321F080910F
:1046D00027058230E1F38091BA048F3F61F0809129
:1046E000BA04803251F08091BA04803341F483E0FF
:1046F00007C081E005C080E003C082E001C084E023
:104700000F910895613298F420912705243089F49F
:104710006093DC04FC018EED94E0DC012A2F281B61
:10472000261718F421912D93F9CF80E0089581E0A8
:10473000089582E0089585ED8093BC008091BC00CF
:1047400084FDFCCF10922705089585EC8093BC0072
:104750001092270508951F920F920FB60F92112401
:104760002F933F934F935F936F937F938F939F9379
:10477000AF93BF93EF93FF938091B900887F80360A
:1047800009F49EC078F5883209F45DC090F4803158
:1047900009F456C038F4882309F4F5C0883009F4C8
:1047A0004FC0F5C0883109F44EC0803209F45FC0B3
:1047B000EEC0803409F46AC058F4803309F457C05D
:1047C000883309F0E4C08093BA040E94A523DFC0B7
:1047D000803509F44FC0883509F45DC0883409F08C
:1047E000D6C0D3C0883909F4C4C0A8F4883709F406
:1047F00067C038F4883609F463C0803709F460C0B4
:10480000C6C0883809F4B5C0803909F45FC0803863
:1048100009F0BDC05BC0803B09F483C038F4803A26
:1048200009F466C0883A09F47CC0B1C0803C09F440
:10483000A4C0883C09F4A1C0883B09F487C0A7C084
:104840008091260510C09091FF048091FE04981776
:1048500070F5E091FF0481E08E0F8093FF04F0E09B
:10486000E050FB4F80818093BB0085EC83C0809338
:10487000BA048BC0E091FF0481E08E0F8093FF04A7
:104880008091BB00F0E0E050FB4F80839091FF04EB
:104890008091FE046BC0E091FF0481E08E0F809355
:1048A000FF048091BB00F0E0E050FB4F80838091DB
:1048B000250581116AC081E08093240584EA5EC0E9
:1048C00083E0809327051092BB04CFCF8091BB0477
:1048D000803208F04EC0E091BB0481E08E0F8093DF
:1048E000BB048091BB00F0E0E454FB4F8083BDCF5C
:1048F0000E94A5238091BB04803230F4E091BB0478
:10490000F0E0E454FB4F10826091BB0470E0E09152
:104910002005F09121058CEB94E009951092BB04E1
:1049200036C084E0809327051092DD041092DC04E9
:10493000E0912205F091230509958091DC04811115
:1049400005C081E08093DC041092DE04E091DD0478
:1049500081E08E0F8093DD04F0E0E252FB4F808116
:104960008093BB009091DD048091DC04981708F4DB
:104970007CCF85E88093BC000AC085EC8093BC00A6
:104980001092270504C01092BA040E949B23FF9145
:10499000EF91BF91AF919F918F917F916F915F91B7
:1049A0004F913F912F910F900FBE0F901F90189530
:1049B000CF93DF93EC0160E08E810E949B2781E022
:1049C00090E00E94F32661E08E810E949B2781E0A7
:1049D00090E00E94F32660E08E810E949B2784E68F
:1049E00090E0DF91CF910C94F326EF92FF920F931A
:1049F0001F93CF93DF938C01C0E0D0E0E62EF12C23
:104A0000B7010C2E02C0759567950A94E2F76170A4
:104A1000F801EC0FFD1F87810E949B272196C4306F
:104A2000D10571F7C801DF91CF911F910F91FF90D0
:104A3000EF900C94D824EF92FF920F931F93CF9393
:104A4000DF938C01C0E0D0E0E62EF12CB7010C2EF4
:104A500002C0759567950A94E2F76170F801EC0F52
:104A6000FD1F87810E949B272196C830D10571F7D1
:104A7000C801DF91CF911F910F91FF90EF900C949F
:104A8000D8241F93CF93DF93EC01162F642F8C81D2
:104A90000E949B278D818F3F19F060E00E949B2729
:104AA0008F85612F84FF06C0CE01DF91CF911F91CA
:104AB0000C941B2570E084E0759567958A95E1F765
:104AC000CE010E94F524612FCE01DF91CF911F917D
:104AD0000C94F52440E00C94412561E00E946A2585
:104AE00080ED97E00C94F326443008F043E0FC019D
:104AF0002389421710F04FEF420FFC01E40FF11D24
:104B00002489260F2068622F0C946A25FC01608995
:104B1000262F2460208B6C600C946A250F931F93C2
:104B2000CF93DF93EC01423018F08F8588608F8738
:104B30004B8B1C8A80E48D8B6E8B70E0605C7F4FAA
:104B40006F8B222329F0413019F48F8584608F8781
:104B500061E08C810E9462278D818F3F19F061E0B6
:104B60000E94622761E08E810E94622700E010E0CF
:104B70008F8584FF03C088E090E002C084E090E06D
:104B80000817190754F4FE01E00FF11F61E0878157
:104B90000E9462270F5F1F4FEBCF80E593EC0E94CE
:104BA000F32660E08C810E949B2760E08E810E944A
:104BB0009B278D818F3F19F060E00E949B276F85B6
:104BC00064FD1DC063E0CE010E94F52484E991E1FB
:104BD0000E94F32663E0CE010E94F52484E991E16E
:104BE0000E94F32663E0CE010E94F52486E990E05E
:104BF0000E94F32662E0CE010E94F52416C0606296
:104C0000CE010E946A2584E991E10E94F3266F8516
:104C10006062CE010E946A2586E990E00E94F32638
:104C20006F856062CE010E946A256F856062CE0149
:104C30000E946A2584E0888BCE010E948625CE01E1
:104C40000E946D2582E0898B66E0CE01DF91CF91D5
:104C50001F910F910C946A25CF92EF920F93FC0154
:104C6000138212828FEC92E09183808364838FEFB2
:104C70008583468327830087E186C2861386148650
:104C800015861686178620E041E060E1CF010F917E
:104C9000EF90CF900C948E2541E00E94412581E059
:104CA00090E008951F920F920FB60F9211242F9348
:104CB0003F938F939F93AF93BF93809129059091DA
:104CC0002A05A0912B05B0912C053091280523E0F1
:104CD000230F2D3720F40196A11DB11D05C026E834
:104CE000230F0296A11DB11D20932805809329054D
:104CF00090932A05A0932B05B0932C0580912D0548
:104D000090912E05A0912F05B09130050196A11D1F
:104D1000B11D80932D0590932E05A0932F05B09380
:104D20003005BF91AF919F918F913F912F910F903F
:104D30000FBE0F901F9018952FB7F894609129051A
:104D400070912A0580912B0590912C052FBF089515
:104D50003FB7F89480912D0590912E05A0912F05D5
:104D6000B091300526B5A89B05C02F3F19F00196DC
:104D7000A11DB11D3FBF6627782F892F9A2F620F83
:104D8000711D811D911D42E0660F771F881F991FBD
:104D90004A95D1F70895CF92DF92EF92FF92CF9389
:104DA000DF936B017C010E94A826EB01C114D104A2
:104DB000E104F10489F00E9475300E94A8266C1B62
:104DC0007D0B683E734090F381E0C81AD108E1087A
:104DD000F108C851DC4FEACFDF91CF91FF90EF90FF
:104DE000DF90CF9008958230910538F0880F991F99
:104DF000880F991F05970197F1F70895789484B566
:104E0000826084BD84B5816084BD85B5826085BDC6
:104E100085B5816085BDEEE6F0E0808181608083AC
:104E2000E1E8F0E01082808182608083808181608F
:104E30008083E0E8F0E0808181608083E1EBF0E056
:104E4000808184608083E0EBF0E0808181608083FA
:104E5000EAE7F0E0808184608083808182608083E3
:104E60008081816080838081806880831092C1000E
:104E70000895833081F028F4813099F08230A1F0D8
:104E800008958730A9F08830B9F08430D1F480914A
:104E900080008F7D03C0809180008F778093800099
:104EA000089584B58F7702C084B58F7D84BD089541
:104EB0008091B0008F7703C08091B0008F7D809388
:104EC000B0000895CF93DF9390E0FC01EA51FC4FCE
:104ED0002491FC01E650FC4F8491882349F190E035
:104EE000880F991FFC01EE5DFB4FA591B491885E80
:104EF0009B4FFC01C591D4919FB7611108C0F894F4
:104F00008C91209582238C93888182230AC0623001
:104F100051F4F8948C91322F309583238C938881AF
:104F2000822B888304C0F8948C91822B8C939FBF32
:104F3000DF91CF9108950F931F93CF93DF931F922B
:104F4000CDB7DEB7282F30E0F901EE52FC4F849147
:104F5000F901EA51FC4F1491F901E650FC4F04911C
:104F60000023C9F0882321F069830E9439276981D1
:104F7000E02FF0E0EE0FFF1FE85EFB4FA591B4912C
:104F80009FB7F8948C91611103C01095812301C0E3
:104F9000812B8C939FBF0F90DF91CF911F910F9129
:104FA0000895CF93DF93282F30E0F901EE52FC4FA4
:104FB0008491F901EA51FC4FD491F901E650FC4F7C
:104FC000C491CC2391F081110E943927EC2FF0E09D
:104FD000EE0FFF1FE25FFB4FA591B4912C912D23A3
:104FE00081E090E021F480E002C080E090E0DF9179
:104FF000CF910895FC01818D228D90E0805C9F4FC0
:10500000821B91098F7399270895FC01918D828DE0
:10501000981731F0828DE80FF11D858D90E008958D
:105020008FEF9FEF0895FC01918D828D981761F0AD
:10503000828DDF01A80FB11D5D968C91928D9F5FCF
:105040009F73928F90E008958FEF9FEF089587E907
:1050500099E2892B49F080E090E0892B29F00E94A9
:10506000972981110C9400000895FC01848DDF01C3
:10507000A80FB11DA35ABF4F2C91848D90E00196CB
:105080008F739927848FA689B7892C93A089B189BA
:105090008C9180648C93938D848D981306C00288C4
:1050A000F389E02D80818F7D80830895CF93DF93F6
:1050B000EC01888D8823C9F0EA89FB89808185FD10
:1050C00005C0A889B9898C9186FD0FC00FB607FC71
:1050D000F5CF808185FFF2CFA889B9898C9185FFB2
:1050E000EDCFCE010E943528E7CFDF91CF91089513
:1050F000CF92DF92FF920F931F93CF93DF931F9274
:10510000CDB7DEB76C0181E0D60158968C935897E5
:105110005B969C915B975C968C915C97981307C00B
:105120005096ED91FC915197808185FD2EC0F6013E
:10513000038D10E00F5F1F4F0F731127F02EF60144
:10514000848DF81211C00FB607FCF9CFD601509626
:10515000ED91FC915197808185FFF1CFC601698364
:105160000E9435286981EBCF838DE80FF11DE35A4A
:10517000FF4F6083D6015B960C935B975296ED913F
:10518000FC915397808180620CC0D6015696ED91B8
:10519000FC91579760835096ED91FC9151978081D7
:1051A0008064808381E090E00F90DF91CF911F9128
:1051B0000F91FF90DF90CF900895BF92CF92DF9232
:1051C000EF92FF92CF93DF93EC016A017B01B22E45
:1051D000E889F98982E08083411581EE58076105ED
:1051E0007105A1F060E079E08DE390E0A701960100
:1051F0000E94C932215031094109510956954795FC
:1052000037952795211580E1380798F0E889F989C5
:10521000108260E874E88EE190E0A70196010E9498
:10522000C9322150310941095109569547953795A1
:105230002795EC85FD853083EE85FF852083188ECC
:10524000EC89FD89B082EA89FB8980818061808355
:10525000EA89FB89808188608083EA89FB89808173
:1052600080688083EA89FB8980818F7D8083DF91DC
:10527000CF91FF90EF90DF90CF90BF9008951F9255
:105280000F920FB60F9211242F938F939F93EF934A
:10529000FF93E0914105F09142058081E09147053F
:1052A000F091480582FD12C0908180914A058F5F80
:1052B0008F7320914B05821751F0E0914A05F0E081
:1052C000EF5CFA4F958F80934A0501C08081FF9172
:1052D000EF919F918F912F910F900FBE0F901F9084
:1052E00018951F920F920FB60F9211242F933F9390
:1052F0004F935F936F937F938F939F93AF93BF93DE
:10530000EF93FF9381E395E00E943528FF91EF91A1
:10531000BF91AF919F918F917F916F915F914F91CD
:105320003F912F910F900FBE0F901F90189581E322
:1053300095E00E94FA2721E0892B09F420E0822FD2
:105340000895109234051092330588EE93E0A0E0A2
:10535000B0E08093350590933605A0933705B09360
:10536000380587ED92E0909332058093310585EC06
:1053700090E090933E0580933D0584EC90E09093FF
:10538000400580933F0580EC90E090934205809328
:10539000410581EC90E0909344058093430582ECB5
:1053A00090E0909346058093450586EC90E09093BD
:1053B00048058093470510924A0510924B051092BC
:1053C0004C0510924D050895CF92DF92EF92FF9217
:1053D0000F931F93CF93DF937C016A01EB0100E0F1
:1053E00010E00C151D0571F06991D701ED91FC914C
:1053F0000190F081E02DC7010995892B19F00F5F0D
:105400001F4FEFCFC801DF91CF911F910F91FF90F8
:10541000EF90DF90CF9008956115710581F0DB0169
:105420000D900020E9F7AD0141505109461B570B83
:10543000DC01ED91FC910280F381E02D099480E084
:1054400090E00895EF92FF920F931F93CF93DF9315
:105450008C017B01C0E0D0E0F701EC0FFD1F6491EF
:10546000662359F0F801A081B181ED91FC91C8014A
:105470000995892B11F02196EFCFCE01DF91CF91C5
:105480001F910F91FF90EF900895DC01ED91FC9139
:10549000DB0114964D915C9115976D917C91028082
:1054A000F381E02D09940C940C2ADC01ED91FC9120
:1054B0000190F081E02D099463EE72E00C940C2AC7
:1054C0000F931F93CF93DF93EC010E94452A8C0129
:1054D000CE010E945C2A800F911FDF91CF911F9116
:1054E0000F9108958F929F92AF92BF92CF92DF92C9
:1054F000EF92FF920F931F93CF93DF93CDB7DEB759
:10550000A1970FB6F894DEBF0FBECDBF7C01C42EAD
:10551000E52FCB01D22E19A221E02D1510F02AE0A3
:10552000D22E8E010F5D1F4F8D2C912CA12CB12CF2
:105530006C2D7E2FA50194010E94C9328C2DD29E24
:1055400080191124015011098A3014F4805D01C0C2
:10555000895CF8018083211531054105510521F051
:10556000C22EE32FCA01E4CFB801C7010E940C2A62
:10557000A1960FB6F894DEBF0FBECDBFDF91CF91DD
:105580001F910F91FF90EF90DF90CF90BF90AF9061
:105590009F908F900895CF92DF92EF92FF920F939A
:1055A0001F93CF93DF93EC016A017B012115310535
:1055B00079F4E881F9810190F081E02D642FDF9189
:1055C000CF911F910F91FF90EF90DF90CF900994B2
:1055D0002A303105E9F477FF1AC06DE20E94552A9E
:1055E0008C0144275527BA014C195D096E097F09C2
:1055F0002AE0CE010E94722A800F911FDF91CF9185
:105600001F910F91FF90EF90DF90CF9008952AE0C7
:10561000B701A601CE01DF91CF911F910F91FF90AD
:10562000EF90DF90CF900C94722A9A01AB0166271D
:1056300057FD6095762F0C94CB2A2115310541F446
:10564000DC01ED91FC910190F081E02D642F099433
:105650000C94722A9A01462F50E060E070E00C949E
:105660001D2B4F925F926F927F928F929F92AF927B
:10567000BF92CF92DF92EF92FF920F931F93CF933F
:10568000DF93EC016A017B01B22E9A01AB01C701E5
:10569000B6010E949132882319F066EE72E027C0AD
:1056A00026013701E89477F82FEF3FEF4FE75FE7E8
:1056B000C301B2010E94913281110DC02FEF3FEF63
:1056C0004FE75FE7C301B2010E94DB3018161CF4FC
:1056D0006AEE72E00CC02FEF3FEF4FE75FE4C701C7
:1056E000B6010E942A321816ACF46EEE72E0CE01BA
:1056F000DF91CF911F910F91FF90EF90DF90CF90AE
:10570000BF90AF909F908F907F906F905F904F90E1
:105710000C940C2A2FEF3FEF4FE75FECC701B60167
:105720000E94DB3087FDE1CF20E030E0A901C70116
:10573000B6010E94DB3087FF0AC06DE2CE010E94F5
:10574000552A8C01F7FAF094F7F8F09402C000E0C3
:1057500010E0A12C60E070E080E09FE3AB1441F02A
:1057600020E030E040E251E40E94DF30A394F6CF25
:105770009B01AC01C701B6010E9477306B017C012F
:105780000E944C312B013C010E9478319B01AC01FD
:10579000C701B6010E9476306B017C012AE0B3019B
:1057A000A201CE010E94722A080F191FBB2039F0F6
:1057B00062EF72E0CE010E940C2A080F191F7B2CA9
:1057C000772041F120E030E040E251E4C701B6012A
:1057D0000E942E326B017C010E9447314B01AA24AA
:1057E00097FCA094BA2C2AE030E0B501A401CE01C8
:1057F0000E94CB2A080F191FC501B4010E947A31FB
:105800009B01AC01C701B6010E9476306B017C019F
:105810007A94D6CFC801DF91CF911F910F91FF905D
:10582000EF90DF90CF90BF90AF909F908F907F9040
:105830006F905F904F9008950C94312B0F931F93AE
:10584000CF93DF93EC010E949C26688779878A8733
:105850009B87E881F9810680F781E02DCE010995CB
:1058600097FF15C00E949C26088519852A853B85CF
:10587000601B710B820B930B0C811D812E813F816C
:10588000601771078207930720F38FEF9FEFDF9177
:10589000CF911F910F910895FC0144835583668336
:1058A000778308954F925F926F927F928F929F922B
:1058B000AF92BF92CF92DF92EF92FF920F931F931E
:1058C000CF93DF934C01EB0186E0849F8001859F9D
:1058D000100D1124060F171FFB01E017F10708F543
:1058E00082819381892B21F13696F7CF40815181B6
:1058F00064817581DA01A60FB71F2C91332727FD2C
:1059000030958217930711F56F5F7F4F758364831E
:10591000228133816217730759F03696E017F10739
:1059200028F3C4010E941E2C97FD46C0FE01F6CF4D
:10593000EC1BFD0BF595E7952BEA3AEAE29FC001D7
:10594000E39F900DF29F900D112438C061157105F1
:1059500021F3A480B580950121503109358324833A
:10596000DA01A20FB31FAC91BB27A7FDB0958A1730
:105970009B07F9F421153105C9F06A017B01E21A90
:10598000F30AE40EF51E412C512CD6016D906D01E9
:10599000D7017D907D01671006C0BFEF4B1A5B0AEF
:1059A0004216530690F34216530699F6B582A48226
:1059B000B4CF232B71F6B1CF8FEF9FEFDF91CF9153
:1059C0001F910F91FF90EF90DF90CF90BF90AF901D
:1059D0009F908F907F906F905F904F900895CF939E
:1059E000DF9300D000D000D0CDB7DEB7FE013196F6
:1059F00026E0DF011D922A95E9F77A8369835C83AB
:105A00004B8341E050E0BF010E94522C21E0892BE2
:105A100009F020E0822F26960FB6F894DEBF0FBE65
:105A2000CDBFDF91CF910895FB0101900020E9F7F0
:105A3000AF0141505109461B570B0C94EF2C70E0FD
:105A40009B01382BC9010895FC01808191810C9440
:105A5000C233CF93DF93EC0188819981009711F0D5
:105A60000E94C233198218821D821C821B821A82F4
:105A7000DF91CF9108950F931F93CF93DF93EC01A4
:105A80008B016F5F7F4F888199810E94513400970D
:105A900031F0998388831B830A8381E001C080E011
:105AA000DF91CF911F910F910895CF93DF93EC0178
:105AB00088819981892B29F08A819B818617970794
:105AC00060F4CE010E943B2D882341F08C819D81A2
:105AD000892B19F4E881F981108281E0DF91CF915F
