:100000000C94E0000C9408010C9408010C94080175
:100010000C9408010C9408010C9408010C9408013C
:100020000C9408010C9408010C9408010C9408012C
:100030000C9408010C9408010C9408010C9408011C
:100040000C944F040C9408010C943C070C946E071C
:100050000C9408010C9408010C9408010C940801FC
:100060000C9408010C940801000000080002010033
:100070000003040700000000000000000102040863
:100080001020408001020408102001020408102002
:10009000040404040404040402020202020203032E
:1000A00003030303000000002300260029000000D2
:1000B0000000250028002B0000000000240027007D
:1000C0002A0000407A10F35A00A0724E180900105E
:1000D000A5D4E80000E87648170000E40B540200BD
:1000E00000CA9A3B000000E1F505000080969800E8
:1000F000000040420F000000A08601000000102711
:1001000000000000E80300000000640000000000A0
:100110000A00000000000100000000002C76D888D2
:10012000DC674F0823DFC1DFAE59E1B1B796E5E3E5
:10013000E453C63AE651997696E8E6C28426EB89FE
:100140008C9B62ED407C6FFCEFBC9C9F40F2BAA59B
:100150006FA5F490055A2AF75C936B6CF9676DC133
:100160001BFCE0E40D47FEF520E6B500D0ED902E37
:100170000300943577050080841E080000204E0A95
:10018000000000C80C333333330F986E12831141D3
:10019000EF8D2114893BE65516CFFEE6DB18D1849E
:1001A0004B381BF77C1D901DA4BBE42420328472C5
:1001B0005E228100C9F124ECA1E53D2775029E076E
:1001C00011241FBECFEFD8E0DEBFCDBF11E0A0E00D
:1001D000B1E0ECECFFE102C005900D92AA34B1074A
:1001E000D9F722E0AAE4B1E001C01D92A831B2071C
:1001F000E1F711E0C0ECD1E004C02297FE010E94BB
:10020000310BCC3BD107C9F70E94E2070C94E40FF5
:100210000C94000080916C01811103C066E071E0D4
:1002200002C065E171E087E791E00C945308CF9339
:10023000DF93CDB7DEB72C970FB6F894DEBF0FBEB5
:10024000CDBF26E040E855E260E070E087E791E04E
:100250000E94DA068AE491E00E949D0260E083E158
:100260000E945F0568EB7BE080E090E00E94C8049C
:1002700083E10E94CE0580936C0140E060E08AE457
:1002800091E00E94EF036093640170936501809395
:100290006601909367016093680170936901809390
:1002A0006A0190936B010E940A0140916401509190
:1002B0006501609166017091670122E0CE010796A9
:1002C0000E94010964E271E0CE0101960E94D30808
:1002D000BE01695F7F4FCE0101960E945D0963E117
:1002E00071E00E947009BC0187E791E00E9441081B
:1002F000CE0101960E946508CE0107960E9465080E
:100300002C960FB6F894DEBF0FBECDBFDF91CF9114
:100310000895CF92DF92EF92FF921F93CF93DF93D6
:10032000CDB7DEB72C970FB6F894DEBF0FBECDBFAA
:1003300040E060E08AE491E00E94EF03609368018E
:100340007093690180936A0190936B0183E10E942D
:10035000CE0580936D012091680130916901409133
:100360006A0150916B016091640170916501809107
:100370006601909167010E948B096B017C0120E06E
:1003800030E0A9010E94A60A181624F0F7FAF094AA
:10039000F7F8F094C0926001D0926101E09262019E
:1003A000F092630168EE73E080E090E00E94C80480
:1003B00040E060E08AE491E00E94EF036093640112
:1003C00070936501809366019093670183E10E94B9
:1003D000CE05182F80936C0120916801309169013E
:1003E00040916A0150916B016091640170916501C7
:1003F00080916601909167010E948B096B017C01DD
:1004000020E030E0A9010E94A60A181624F0F7FAAD
:10041000F094F7F8F094C0925C01D0925D01E09204
:100420005E01F0925F0180916D0118130E940A0134
:10043000209160013091610140916201509163010E
:1004400060915C0170915D0180915E0190915F010E
:100450000E948B096B017C0120E030E0A9010E9421
:10046000A60A18164CF020E030E0A901C701B60139
:100470000E94F00987FF2BC04091640150916501F3
:10048000609166017091670122E0CE0107960E949B
:10049000010964E271E0CE0101960E94D308BE0119
:1004A000695F7F4FCE0101960E945D0963E171E0B3
:1004B0000E947009BC0187E791E00E944108CE01CB
:1004C00001960E946508CE0107960E9465082C9649
:1004D0000FB6F894DEBF0FBECDBFDF91CF911F9155
:1004E000FF90EF90DF90CF90089526E046E168E01E
:1004F0008AE491E00C947C02DC0115966C931597CC
:1005000016964C93169770E0FB01E458FF4FE49168
:100510001796EC931797FB01E057FF4F64911896DD
:100520006C93189740E85EE360E070E01D964D9391
:100530005D936D937C9350970895CF93DF93EC0177
:1005400062E08D810E945F0540E358EF6FEF7FEF1F
:1005500049875A876B877C87DF91CF910895AF9247
:10056000BF92CF92DF92EF92FF920F931F93CF93A0
:10057000DF93EC01AF80662311F0BA2C01C0B12CDF
:10058000A885B0E0AA0FBB1FAC55BF4F40E050E0BC
:10059000BA01FD0185919491FC0180818A218B1122
:1005A00012C08A019B010F5F1F4F2F4F3F4FCD8419
:1005B000DE84EF84F8884C155D056E057F0538F400
:1005C000B901A801E6CF342F252FCB0104C030E0BC
:1005D00020E080E090E0632F722FDF91CF911F9198
:1005E0000F91FF90EF90DF90CF90BF90AF90089564
:1005F000CF92DF92EF92FF920F931F93CF93DF93EF
:10060000CDB7DEB7C054D1400FB6F894DEBF0FBEF1
:10061000CDBF8C01F62E0E949904F11016C0F8018E
:10062000C184D284E384F4849B01AC012C193D097C
:100630004E095F0969017A0130EDC31637E0D30630
:10064000E104F10410F48189BAC0F801618772876E
:10065000838794871482138212821182108261E050
:1006600085810E9498056AEF70E080E090E00E942A
:10067000C80461E0F80185810E945F0560E0F8012F
:1006800085810E94980564E170E080E090E00E941E
:10069000C804F89461E0F80185810E94980588E219
:1006A00090E00E94F00462E0F80185810E945F05FD
:1006B0008AE090E00E94F00460E0C8010E94AF026E
:1006C000672B682B692B41F061E0C8010E94AF02E3
:1006D000672B682B692B21F4F801118A78946EC07E
:1006E0006E01FFEBCF1AFEEFDF0A9E012F5F3F4F37
:1006F000790160E0C8010E94AF02F7016083718355
:100700008283938361E0C8010E94AF02F701648392
:10071000758386839783F8E0EF0EF11CEC14FD04DB
:1007200041F778949E012F5F3F4F790120E030E040
:10073000F701408151816281738184819581A68115
:10074000B7814115510561057105B1F10097A1050A
:10075000B10591F1F901F595E795F595E795F595D1
:10076000E795E00FF11FD080DD0C481759076A07A5
:100770007B0710F0D08203C08D2D816080832F5FB6
:100780003F4FF8E0EF0EF11C2832310589F6F801F1
:10079000248130E04081818190E0840F911D42816D
:1007A000840F911D4381840F911D992728173907C4
:1007B00019F481E0818B03C0F801118A80E0C05CEC
:1007C000DE4F0FB6F894DEBF0FBECDBFDF91CF91E5
:1007D0001F910F91FF90EF90DF90CF900895CF92EF
:1007E000DF92EF92FF920F931F93CF93DF93EC0171
:1007F000162F642F0E94F802882309F443C08E81CB
:100800008B3031F008F43EC08551823040F03AC060
:100810006A8170E080E090E00E94F40924C00A81BF
:10082000602F6F7770E080E090E00E94F60920E092
:1008300030E040E853E40E94AA0A6B017C016B811E
:1008400070E080E090E00E94F6099B01AC01C701D6
:10085000B6010E948C092DEC3CEC4CEC5DE30E944F
:10086000AA0A07FD9058112389F026E636E646EEDF
:100870005FE30E94AA0A20E030E040E052E40E94D8
:100880008C0904C060E070E080EC9FE7DF91CF91BD
:100890001F910F91FF90EF90DF90CF9008951F92DE
:1008A0000F920FB60F9211242F933F938F939F9324
:1008B000AF93BF9380916F0190917001A0917101EE
:1008C000B091720130916E0123E0230F2D3720F497
:1008D0000196A11DB11D05C026E8230F0296A11D9A
:1008E000B11D20936E0180936F0190937001A093CE
:1008F0007101B09372018091730190917401A09184
:100900007501B09176010196A11DB11D809373010F
:1009100090937401A0937501B0937601BF91AF914C
:100920009F918F913F912F910F900FBE0F901F902D
:1009300018952FB7F89460916F01709170018091B4
:100940007101909172012FBF08953FB7F894809183
:10095000730190917401A0917501B091760126B553
:10096000A89B05C02F3F19F00196A11DB11D3FBFE7
:100970006627782F892F9A2F620F711D811D911D77
:1009800042E0660F771F881F991F4A95D1F7089597
:10099000CF92DF92EF92FF92CF93DF936B017C01B6
:1009A0000E94A504EB01C114D104E104F10489F013
:1009B0000E948A090E94A5046C1B7D0B683E73404F
:1009C00090F381E0C81AD108E108F108C851DC4F62
:1009D000EACFDF91CF91FF90EF90DF90CF90089515
:1009E0008230910538F0880F991F880F991F05975D
:1009F0000197F1F70895789484B5826084BD84B539
:100A0000816084BD85B5826085BD85B5816085BD09
:100A1000EEE6F0E0808181608083E1E8F0E0108222
:100A2000808182608083808181608083E0E8F0E063
:100A3000808181608083E1EBF0E08081846080834D
:100A4000E0EBF0E0808181608083EAE7F0E0808184
:100A500084608083808182608083808181608083E4
:100A60008081806880831092C1000895833081F076
:100A700028F4813099F08230A1F008958730A9F0F0
:100A80008830B9F08430D1F4809180008F7D03C02C
:100A9000809180008F7780938000089584B58F7750
:100AA00002C084B58F7D84BD08958091B0008F779A
:100AB00003C08091B0008F7D8093B0000895CF93E4
:100AC000DF9390E0FC01E458FF4F2491FC01E057D4
:100AD000FF4F8491882349F190E0880F991FFC0112
:100AE000E854FF4FA591B49182559F4FFC01C591E9
:100AF000D4919FB7611108C0F8948C9120958223FE
:100B00008C93888182230AC0623051F4F8948C91CE
:100B1000322F309583238C938881822B888304C065
:100B2000F8948C91822B8C939FBFDF91CF91089585
:100B30000F931F93CF93DF931F92CDB7DEB7282F6C
:100B400030E0F901E859FF4F8491F901E458FF4F73
:100B50001491F901E057FF4F04910023C9F0882355
:100B600021F069830E9436056981E02FF0E0EE0FE5
:100B7000FF1FE255FF4FA591B4919FB7F8948C9158
:100B8000611103C01095812301C0812B8C939FBFFD
:100B90000F90DF91CF911F910F910895CF93DF9325
:100BA000282F30E0F901E859FF4F8491F901E4580A
:100BB000FF4FD491F901E057FF4FC491CC2391F03E
:100BC00081110E943605EC2FF0E0EE0FFF1FEC556F
:100BD000FF4FA591B4912C912D2381E090E021F459
:100BE00080E002C080E090E0DF91CF910895FC01A9
:100BF000818D228D90E0805C9F4F821B91098F73C5
:100C000099270895FC01918D828D981731F0828D7E
:100C1000E80FF11D858D90E008958FEF9FEF089507
:100C2000FC01918D828D981761F0828DDF01A80FF4
:100C3000B11D5D968C91928D9F5F9F73928F90E016
:100C400008958FEF9FEF089584E997E0892B49F08D
:100C500080E090E0892B29F00E94940781110C9488
:100C600000000895FC01848DDF01A80FB11DA35A77
:100C7000BF4F2C91848D90E001968F739927848FBC
:100C8000A689B7892C93A089B1898C9180648C93B3
:100C9000938D848D981306C00288F389E02D80819E
:100CA0008F7D80830895CF93DF93EC01888D882317
:100CB000C9F0EA89FB89808185FD05C0A889B989C9
:100CC0008C9186FD0FC00FB607FCF5CF808185FFA4
:100CD000F2CFA889B9898C9185FFEDCFCE010E9412
:100CE0003206E7CFDF91CF910895CF92DF92FF9246
:100CF0000F931F93CF93DF931F92CDB7DEB76C0195
:100D000081E0D60158968C9358975B969C915B979F
:100D10005C968C915C97981307C05096ED91FC916E
:100D20005197808185FD2EC0F601038D10E00F5F85
:100D30001F4F0F731127F02EF601848DF81211C08A
:100D40000FB607FCF9CFD6015096ED91FC91519763
:100D5000808185FFF1CFC60169830E9432066981D7
:100D6000EBCF838DE80FF11DE35AFF4F6083D6016F
:100D70005B960C935B975296ED91FC915397808113
:100D800080620CC0D6015696ED91FC915797608316
:100D90005096ED91FC91519780818064808381E031
:100DA00090E00F90DF91CF911F910F91FF90DF9016
:100DB000CF900895BF92CF92DF92EF92FF92CF93A0
:100DC000DF93EC016A017B01B22EE889F98982E0A8
:100DD0008083411581EE580761057105A1F060E03F
:100DE00079E08DE390E0A70196010E940D0B215060
:100DF0003109410951095695479537952795211590
:100E000080E1380798F0E889F989108260E874E891
:100E10008EE190E0A70196010E940D0B215031094F
:100E2000410951095695479537952795EC85FD85DC
:100E30003083EE85FF852083188EEC89FD89B08292
:100E4000EA89FB89808180618083EA89FB898081CE
:100E500088608083EA89FB89808180688083EA8951
:100E6000FB8980818F7D8083DF91CF91FF90EF9010
:100E7000DF90CF90BF9008951F920F920FB60F9200
:100E800011242F938F939F93EF93FF93E09187010A
:100E9000F09188018081E0918D01F0918E0182FDB9
:100EA00012C09081809190018F5F8F73209191018A
:100EB000821751F0E0919001F0E0E958FE4F958FD4
:100EC0008093900101C08081FF91EF919F918F915C
:100ED0002F910F900FBE0F901F9018951F920F9299
:100EE0000FB60F9211242F933F934F935F936F93FD
:100EF0007F938F939F93AF93BF93EF93FF9387E776
:100F000091E00E943206FF91EF91BF91AF919F91C6
:100F10008F917F916F915F914F913F912F910F90A2
:100F20000FBE0F901F90189587E791E00E94F7057C
:100F300021E0892B09F420E0822F089510927A0194
:100F40001092790188EE93E0A0E0B0E080937B01FD
:100F500090937C01A0937D01B0937E018DE291E09E
:100F6000909378018093770185EC90E090938401D1
:100F70008093830184EC90E09093860180938501B7
:100F800080EC90E0909388018093870181EC90E061
:100F900090938A018093890182EC90E090938C0178
:100FA00080938B0186EC90E090938E0180938D016D
:100FB000109290011092910110929201109293015F
:100FC000089508950E94FB040E94E1070E94170102
:100FD000C4E2D6E00E9489012097E1F30E94240632
:100FE000F9CFCF92DF92EF92FF920F931F93CF939F
:100FF000DF937C016A01EB0100E010E00C151D0598
:1010000071F06991D701ED91FC910190F081E02D93
:10101000C7010995892B19F00F5F1F4FEFCFC8014A
:10102000DF91CF911F910F91FF90EF90DF90CF90C4
:1010300008956115710581F0DB010D900020E9F73D
:10104000AD0141505109461B570BDC01ED91FC915C
:101050000280F381E02D099480E090E00895DC01A6
:10106000ED91FC91DB0114964D915C9115976D917A
:101070007C910280F381E02D099469E371E00C9486
:1010800019080F931F93CF93DF93EC010E942F0851
:101090008C01CE010E943D08800F911FDF91CF91FE
:1010A0001F910F9108950F931F93CF93DF93EC013E
:1010B0000E9419088C01CE010E943D08800F911FEB
:1010C000DF91CF911F910F910895FC018081918153
:1010D0000C94EE0BCF93DF93EC01888199810097FC
:1010E00011F00E94EE0B198218821D821C821B8255
:1010F0001A82DF91CF9108950F931F93CF93DF93BF
:10110000EC018B016F5F7F4F888199810E947D0C7C
:10111000009731F0998388831B830A8381E001C0A3
:1011200080E0DF91CF911F910F910895CF93DF93CE
:10113000EC0188819981892B29F08A819B8186170E
:10114000970760F4CE010E947C08882341F08C81CF
:101150009D81892B19F4E881F981108281E0DF916A
:10116000CF910895EF92FF920F931F93CF93DF9348
:10117000EC017B018A01BA010E949608811104C02A
:10118000CE010E946A0807C01D830C83B7018881C5
:1011900099810E94500DCE01DF91CF911F910F9147
:1011A000FF90EF900895FC01118210821382128249
:1011B000158214826115710559F0FB010190002020
:1011C000E9F7AF0141505109461B570B0C94B20887
:1011D0000895CF93DF93EC016115710561F0FB0178
:1011E00001900020E9F7AF0141505109461B570B10
:1011F0000E94B20802C00E946A08CE01DF91CF911E
:101200000895EF92FF920F931F93CF93DF93CDB783
:10121000DEB7A1970FB6F894DEBF0FBECDBF7C013D
:10122000CB01BA01F701118210821382128215825A
:10123000148242E0420F8E010F5F1F4F0E94350B58
:10124000BC01C7010E94E908A1960FB6F894DEBF61
:101250000FBECDBFDF91CF911F910F91FF90EF9007
:101260000895EF92FF920F931F93CF93DF93EC01BA
:101270007B010C811D816115710511F480E016C0A0
:101280004115510591F0040F151FB8010E949608F1
:101290008823A1F3288139818C819D81B701820F38
:1012A000931F0E94500D1D830C8381E0DF91CF912D
:1012B0001F910F91FF90EF900895CF93DF93EC0172
:1012C000FB0144815581608171810E943109811146
:1012D00003C0CE010E946A08CE01DF91CF9108952C
:1012E000CF93DF93EC016115710569F0FB0101906B
:1012F0000020E9F7AF0141505109461B570B0E94EE
:101300003109811103C0CE010E946A08CE01DF912C
:10131000CF91089508955058BB27AA270ED0DCC05E
:10132000CDD030F0D2D020F031F49F3F11F41EF434
:10133000C2C00EF4E095E7FBB8C0E92FDED080F321
:10134000BA17620773078407950718F071F49EF5C2
:10135000F6C00EF4E0950B2EBA2FA02D0B01B901AB
:1013600090010C01CA01A0011124FF27591B99F01B
:10137000593F50F4503E68F11A16F040A22F232F27
:10138000342F4427585FF3CF469537952795A79577
:10139000F0405395C9F77EF41F16BA0B620B730B1E
:1013A000840BBAF09150A1F0FF0FBB1F661F771F8F
:1013B000881FC2F70EC0BA0F621F731F841F48F444
:1013C000879577956795B795F7959E3F08F0B3CFCA
:1013D0009395880F08F09927EE0F979587950895B4
:1013E00040D008F481E00895E89409C097FB3EF4EA
:1013F00090958095709561957F4F8F4F9F4F992362
:10140000A9F0F92F96E9BB279395F69587957795DF
:101410006795B795F111F8CFFAF4BB0F11F460FF9F
:101420001BC06F5F7F4F8F4F9F4F16C0882311F0F7
:1014300096E911C0772321F09EE8872F762F05C00B
:10144000662371F096E8862F70E060E02AF09A95A6
:10145000660F771F881FDAF7880F9695879597F99B
:101460000895990F0008550FAA0BE0E8FEEF161635
:101470001706E807F907C0F012161306E407F50788
:1014800098F0621B730B840B950B39F40A2661F0FC
:10149000232B242B252B21F408950A2609F4A1409F
:1014A000A6958FEF811D811D089597F99F6780E8AC
:1014B00070E060E008959FEF80EC089500240A94A6
:1014C0001616170618060906089500240A9412161F
:1014D0001306140605060895092E0394000C11F452
:1014E000882352F0BB0F40F4BF2B11F460FF04C0FF
:1014F0006F5F7F4F8F4F9F4F089557FD9058440F58
:10150000551F59F05F3F71F04795880F97FB991F62
:1015100061F09F3F79F0879508951216130614061F
:10152000551FF2CF4695F1DF08C0161617061806AC
:10153000991FF1CF86957105610508940895E89487
:10154000BB2766277727CB0197F908958ADF08F430
:101550008FEF08950BD0C0CFB1DF28F0B6DF18F0C1
:10156000952309F0A2CFA7CF1124EACFC6DFA0F3BD
:10157000959FD1F3950F50E0551F629FF001729F28
:10158000BB27F00DB11D639FAA27F00DB11DAA1F47
:10159000649F6627B00DA11D661F829F2227B00D94
:1015A000A11D621F739FB00DA11D621F839FA00D1F
:1015B000611D221F749F3327A00D611D231F849F6F
:1015C000600D211D822F762F6A2F11249F575040C6
:1015D0008AF0E1F088234AF0EE0FFF1FBB1F661F61
:1015E000771F881F91505040A9F79E3F510570F01A
:1015F0005CCFA6CF5F3FECF3983EDCF38695779502
:101600006795B795F795E7959F5FC1F7FE2B880F14
:10161000911D9695879597F90895A1E21A2EAA1B18
:10162000BB1BFD010DC0AA1FBB1FEE1FFF1FA21792
:10163000B307E407F50720F0A21BB30BE40BF50B8F
:10164000661F771F881F991F1A9469F76095709518
:10165000809590959B01AC01BD01CF010895EE0FDF
:10166000FF1F0590F491E02D0994EF920F931F93C3
:10167000CF93DF93E80147FF02C034E101C034E0BB
:10168000E42FFF27E7FDF095F7FF03C0F195E19503
:10169000F109E32E022F2E2FAE010E94570DCE012D
:1016A000DF91CF911F910F91EF900895CF93DF932A
:1016B0008230910510F482E090E0E0911602F09102
:1016C000170220E030E0A0E0B0E0309739F140812F
:1016D000518148175907B8F04817590771F48281AA
:1016E0009381109729F013969C938E9312972CC098
:1016F000909317028093160227C02115310531F00F
:101700004217530718F0A901DB0101C0EF019A014C
:10171000BD01DF010280F381E02DD7CF2115310516
:10172000F9F0281B390B2430310580F48A819B8124
:101730006115710521F0FB019383828304C09093AE
:10174000170280931602FE01329644C0FE01E20F9A
:10175000F31F8193919322503109398328833AC032
:101760002091140230911502232B41F420910201A3
:10177000309103013093150220931402209100014F
:10178000309101012115310541F42DB73EB740914B
:10179000040150910501241B350BE0911402F091D6
:1017A0001502E217F307A0F42E1B3F0B2817390789
:1017B00078F0AC014E5F5F4F2417350748F04E0FAD
:1017C0005F1F50931502409314028193919302C0BE
:1017D000E0E0F0E0CF01DF91CF910895CF93DF9368
:1017E000009709F487C0FC01329713821282C091DE
:1017F0001602D0911702209781F420813181280FA1
:10180000391F80911402909115028217930779F580
:10181000F0931502E09314026DC0DE0120E030E089
:10182000AE17BF0750F412964D915C9113979D012E
:101830004115510509F1DA01F3CFB383A283408149
:101840005181840F951F8A179B0771F48D919C918C
:101850001197840F951F02969183808312968D9124
:101860009C911397938382832115310529F4F0937A
:101870001702E09316023EC0D9011396FC93EE9333
:1018800012974D915D91A40FB51FEA17FB0779F4EC
:1018900080819181840F951F0296D90111969C93A6
:1018A0008E938281938113969C938E931297E0E09E
:1018B000F0E08A819B81009719F0FE01EC01F9CFDD
:1018C000CE01029628813981820F931F2091140244
:1018D000309115022817390769F4309729F41092CE
:1018E00017021092160202C013821282D0931502C0
:1018F000C0931402DF91CF910895A0E0B0E0E3E837
:10190000FCE00C94B10FEC01CB01209719F40E947C
:10191000560BB8C0FE01E60FF71F9E012250310999
:10192000E217F30708F4ACC0D9010D911C9111978F
:1019300006171707B8F00530110508F49FC0A80175
:10194000445051094617570708F498C0025011092E
:10195000061B170B019311936D937C93CF010E948B
:10196000EE0B8CC05B01A01AB10A4E01800E911ED5
:10197000A0911602B0911702612C712C60E070E00A
:10198000109709F449C0A815B905C9F5ED90FC9068
:101990001197670142E0C40ED11CCA14DB0478F130
:1019A00047018A189B08640142E0C40ED11C1296BC
:1019B000BC9012971396AC91B5E0CB16D10440F0D1
:1019C000B282A38391828082D9018D939C9309C0B6
:1019D0000E5F1F4F0E0D1F1DF90111830083EB2DAC
:1019E000FA2F6115710531F0DB011396FC93EE932C
:1019F000129744C0F0931702E09316023FC06D9116
:101A00007C9111976616770608F43B01BD0112968A
:101A10000D90BC91A02DB4CF60911402709115026D
:101A200068157905E9F468167906D0F4409100014B
:101A3000509101014115510541F44DB75EB76091D8
:101A4000040170910501461B570BE417F507C0F41C
:101A5000F0931502E0931402F901918380830EC084
:101A60000E94560B7C01009759F0A801BE010E940C
:101A7000470DCE010E94EE0BC70104C0CE0102C08B
:101A800080E090E0CDB7DEB7EEE00C94CD0FFB0127
:101A9000DC0102C001900D9241505040D8F70895EA
:101AA000FB01DC0101900D920020E1F708956F9297
:101AB0007F929F92AF92BF92CF92DF92EF92FF926E
:101AC0000F931F93CF93DF93CDB7DEB729970FB650
:101AD000F894DEBF0FBECDBF6A01B22E102F0C33BB
:101AE00020F4FF24F394F00E02C04CE3F42E0F2DEB
:101AF00027E0AE014F5F5F4F0E94D50E7981272FFF
:101B00002970213031F0E1FC06C0E0FC06C060E045
:101B100005C06DE203C06BE201C060E2AE2DA071B2
:101B200073FF36C0662311F084E001C083E08B159B
:101B300010F4B81A01C0B12CA1110BC0F6018B2D05
:101B400090E2882319F091938150FBCFCB0CD11CEC
:101B5000B12C662331F0F601608396012F5F3F4F71
:101B60006901C6010396E2FE05C02EE4F60120835A
:101B700031E404C02EE6F601208331E6318322836E
:101B8000FC012B2D30E22223F1F131932150FBCFC8
:101B900072FF40C0662311F084E001C083E08B1522
:101BA00010F4B81A01C0B12CA1110BC0F6018B2D95
:101BB00090E2882319F091938150FBCFCB0CD11C7C
:101BC000B12C662331F0F601608396012F5F3F4F01
:101BD0006901C6010396E2FE07C029E4F6012083ED
:101BE0002EE4218326E406C029E6F60120832EE6B2
:101BF000218326E62283FC012B2D30E2222319F0DB
:101C000031932150FBCFFC01EB0DF11D10828EEFC3
:101C10009FEFB7C0B1E0611101C0B0E04B2F50E0C1
:101C20001816190624F49C012F5F3F4F02C021E0D3
:101C300030E0240F351F112329F0412F50E04F5F72
:101C40005F4F02C040E050E0420F531F2B2D30E0A9
:101C50004217530714F4B41A01C0B12C2E2D287169
:101C600059F4F6012B2D30E2222319F03193215043
:101C7000FBCFCB0CD11CB12CBB2331F0F601608320
:101C800096012F5F3F4F6901A1110BC0F6012B2D6B
:101C900030E3222319F031932150FBCFCB0CD11C20
:101CA000B12CF80E0A81372F3071A32E74FF03C0B8
:101CB000013309F4FA941F142CF42F2D293018F055
:101CC00028E001C021E0682F392F97FF02C060E0B3
:101CD00030E0462F532F612C712C3EE2932EBC0135
:101CE000621B71099B01DC01A41BB50BE1E0F0E074
:101CF000EC0FFD1FAE0FBF1FE12EF12CF194E1940C
:101D0000F1084F3FFFEF5F0731F4F6019082B60113
:101D10006F5F7F4F6B01841795074CF024173507D1
:101D200034F4BD01660D771DFB01118101C010E384
:101D300041505109FFEF6F1A7F0AB6016F5F7F4F65
:101D40004E155F0524F0F60110836B01DACF4817BA
:101D5000590739F4063320F4053319F4A11001C0F2
:101D600011E3F6011083FB018B2D90E2882319F01B
:101D700091938150FBCFFB01EB0DF11D108280E0B0
:101D800090E029960FB6F894DEBF0FBECDBFDF916D
:101D9000CF911F910F91FF90EF90DF90CF90BF9068
:101DA000AF909F907F906F900895283008F027E0C3
:101DB0003327DA01990F311D87FD91600096610587
:101DC000710539F432602E5F3D9330E32A95E1F7D7
:101DD00008959F3F30F080387105610509F03C5F40
:101DE0003C5F3D93913008F08068911DDF93CF9365
:101DF0001F930F93FF92EF92192F987F9695E92FDB
:101E000096959695E90FFF27E45EFE4F99273327B5
:101E1000EE24FF24A701E70105900894079428F415
:101E2000360FE71EF81E491F511D660F771F881FCA
:101E3000991F0694A1F70590079428F4E70EF81E61
:101E4000491F561FC11D770F881F991F661F0694D3
:101E5000A1F70590079428F4F80E491F561FC71FD5
:101E6000D11D880F991F661F771F0694A1F7059053
:101E7000079420F4490F561FC71FD81F990F661FDC
:101E8000771F881F0694A9F784911095177041F069
:101E9000D695C79557954795F794E7941A95C1F746
:101EA000E2ECF0E06894159015913591659195916B
:101EB00005907FE27395E118F10A430B560BC90BAD
:101EC000D009C0F7E10CF11E431F561FC91FD01DDA
:101ED0007EF4703311F48A95E6CFE894015030F027
:101EE000080F0AF40027021708F4202F2395022F69
:101EF0007A3328F079E37D932A95E9F710C07D9332
:101F00002A9589F6069497956795379517951794AE
:101F1000E118F10A430B560BC90BD00998F0239531
:101F20007E9173957A3308F070E37C932013B8F7B1
:101F30007E9170617D9330F0839571E37D9370E3C2
:101F40002A95E1F71124EF90FF900F911F91CF9107
:101F5000DF91992787FD909508952F923F924F9298
:101F60005F926F927F928F929F92AF92BF92CF9229
:101F7000DF92EF92FF920F931F93CF93DF93CDB732
:101F8000DEB7CA1BDB0B0FB6F894DEBF0FBECDBFAA
:101F900009942A88398848885F846E847D848C847B
:101FA0009B84AA84B984C884DF80EE80FD800C8184
:101FB0001B81AA81B981CE0FD11D0FB6F894DEBF67
:0C1FC0000FBECDBFED010895F894FFCFD7
:101FCC000000180280002A47313A466972652121C7
:101FDC0021202023002A47313A4E6F204669726532
:101FEC00202023002A54313A00000000007506F12D
:101FFC0007F7051006020653060D0A006E616E0007
:0A200C00696E66006F7666002E0014
:00000001FF
