:100000000C946A000C9492000C9492000C94920050
:100010000C9492000C9492000C9492000C949A1DF3
:100020000C9492000C9492000C9492000C94920008
:100030000C9492000C947E050C9492000C94920007
:100040000C94EE290C9492000C9492000C94920063
:100050000C9492000C9492000C9492000C949200D8
:100060000C9440160C9492001F1C1F1E1F1E1F1F75
:100070001E1F1E1F000000080002010000030407ED
:100080000000000000000000010204081020408071
:1000900001020408102001020408102004040404D2
:1000A0000404040402020202020203030303030322
:1000B00000000000230026002900000000002500A9
:1000C00028002B0000000000240027002A00EF1366
:1000D0005615271411241FBECFEFD8E0DEBFCDBFC9
:1000E00011E0A0E0B1E0E6EAFAE602C005900D9268
:1000F000AA33B107D9F723E0AAE3B1E001C01D920A
:10010000A736B207E1F710E0C2EDD0E004C02297B5
:10011000FE010E94C131CE3CD107C9F70E94132FC6
:100120000C9446350C9400000F931F93CF93DF93EC
:100130001F92CDB7DEB78C0169830E94E9346981D3
:10014000681741F0C8010F90DF91CF911F910F9177
:100150000C94F1340F90DF91CF911F910F9108957E
:10016000CF92EF920F93CF93DF9300D000D000D0C7
:10017000CDB7DEB761E081E00E947A2B61E081E0DB
:100180000E94B32B61E080E10E947A2B60E084E161
:100190000E947A2B61E085E00E947A2B61E084E185
:1001A0000E947A2B87EC91E00E94C6148EE591E0C4
:1001B0000E94ED2841E151E066E070E08FE591E0BA
:1001C0000E9432198FE591E00E946D1768EC70E093
:1001D0008FE591E00E940A1986EC91E00E94591E79
:1001E000CE0101960E94632986E0FE013196A8E5C2
:1001F000B1E001900D928A95E1F76091580170E0AD
:100200006053784FC0905D01E0905C0100915B010C
:1002100020915A0140915901CE0101960E94D9289E
:10022000CE0101960E94F32881E090E00E94E9341B
:10023000853628F064E681E090E00E94940081E039
:1002400090E00E94E93490E090930C0180930B01C0
:1002500083E090E00E94E934843028F060E083E09D
:1002600090E00E949400F894109280001092810017
:1002700010928500109284008091810083608093A9
:10028000810080916F00816080936F00789410925C
:1002900049011092480126960FB6F894DEBF0FBEB2
:1002A000CDBFDF91CF910F91EF90CF900895CF9276
:1002B000DF92EF92FF920F931F93CF93DF9300D0C3
:1002C00000D000D0CDB7DEB7CE0101960E946329E1
:1002D00086E0FE013196A8E5B1E001900D928A9585
:1002E000E1F70E94382A609354017093550180937E
:1002F00056019093570100915001109151012091A6
:100300005201309153016B017C01C01AD10AE20AFB
:10031000F30A97018601043611052105310588F09D
:100320006093500170935101809352019093530157
:1003300080914201909143010A96909343018093EA
:10034000420180915D0180933C0190913D0198179D
:1003500031F1109243011092420180933D0180914E
:100360004401909145010196909345018093440189
:10037000CC97A9F410924501109244018091460156
:100380009091470101968436910519F420E080E0B0
:1003900002C0282F892F209346018093470126967B
:1003A0000FB6F894DEBF0FBECDBFDF91CF911F9186
:1003B0000F91FF90EF90DF90CF900895CF93DF9350
:1003C00000D000D000D0CDB7DEB7CE0101960E949C
:1003D000632986E0FE013196A8E5B1E001900D9217
:1003E0008A95E1F780915D0180933C0190913D01F8
:1003F000981709F444C080933D0180914201909187
:1004000043010097C9F00197909343018093420103
:100410002091460130914701232B89F52091440119
:1004200030914501232B59F5892B49F510923B0159
:1004300081E080933A0123C08BE390E090934301E5
:1004400080934201209144013091450121153105ED
:1004500039F02150310930934501209344010FC0F8
:10046000909345018093440180914601909147010A
:10047000009729F0019790934701809346012696B3
:100480000FB6F894DEBF0FBECDBFDF91CF910895B8
:100490000F931F93CF93DF9300D000D000D0CDB740
:1004A000DEB78C018091480180FF0AC060910F0186
:1004B000709110016150710940E2C8010E94702ED4
:1004C000B801CE0101960E94F42CBE016F5F7F4FF0
:1004D0008FE591E00E94581CCE0101960E94592C94
:1004E00026960FB6F894DEBF0FBECDBFDF91CF9139
:1004F0001F910F9108951092850010928400109220
:1005000049011092480108958091BA019091BB0170
:10051000A091BC01B091BD018D3B22E492072FEF69
:10052000A207B10509F446C0E8F4873E28E1920726
:100530002FEFA207B105D1F138F48F3E9041AF4FB4
:10054000B105E1F584E03EC08F3C20E392072FEF38
:10055000A207B105B1F1873C9843AF4FB10571F5E2
:1005600085E030C0853A2AE592072FEFA207B10552
:10057000F9F070F4853B2AE492072FEFA207B1054A
:10058000D9F08D3A9245AF4FB105C1F489E01AC058
:10059000873928E692072FEFA207B10581F0853849
:1005A0009A47AF4FB10551F483E00CC082E00AC016
:1005B00086E008C087E006C088E004C0089580E0B7
:1005C00001C081E090E008950F931F93CF93DF93D4
:1005D000CDB7DEB72C970FB6F894DEBF0FBECDBFF8
:1005E0008C014AE06A30E8F4CE0107960E942D2D76
:1005F00060E3CE0101960E94152DBE01695F7F4F19
:10060000CE0101960E940B2EBC01C8010E94F42C61
:10061000CE0101960E94592CCE0107960E94592CBA
:1006200002C00E942D2DC8012C960FB6F894DEBF93
:100630000FBECDBFDF91CF911F910F9108950F9302
:100640001F93CF93DF93CDB7DEB7A4970FB6F8947F
:10065000DEBF0FBECDBFCE0101960E94632986E0AA
:10066000FE013196A8E5B1E001900D928A95E1F77F
:1006700008E511E0F801608170E06053784F4AE0CE
:10068000CE010D960E94862D29893A8942E050E0DC
:10069000BE01635F7F4FCE0107960E94902EF80146
:1006A0006181CE0149960E94E402F8016281CE0187
:1006B0004F960E94E402BE01615E7F4FCE014396D9
:1006C0000E94F42CBE01675E7F4FCE0143960E94CC
:1006D0000B2EBE01695F7F4F0E940B2EBC01CE0125
:1006E00001960E94F42CBE016F5F7F4F8FE591E071
:1006F0000E94581CCE0101960E94592CCE014396AF
:100700000E94592CCE014F960E94592CCE01499639
:100710000E94592CCE0107960E94592CCE010D96AD
:100720000E94592CA4960FB6F894DEBF0FBECDBF21
:10073000DF91CF911F910F910895CF93DF93CDB7A4
:10074000DEB76E970FB6F894DEBF0FBECDBF6091D7
:100750004201CE0107960E94E40260914401CE015D
:1007600043960E94E40260914601CE0149960E94A0
:10077000E402BE01675E7F4FCE010D960E94F42C0D
:10078000BE016D5E7F4FCE010D960E940B2EBE0105
:10079000695F7F4F0E940B2EBC01CE0101960E9423
:1007A000F42CBE016F5F7F4F8FE591E00E94581CD3
:1007B000CE0101960E94592CCE010D960E94592C13
:1007C000CE0149960E94592CCE0143960E94592C85
:1007D000CE0107960E94592C6E960FB6F894DEBF94
:1007E0000FBECDBFDF91CF9108950F931F93CF938D
:1007F000DF931F92CDB7DEB78C0180E090E0698374
:100800000E94E9346981813069F06D3010F06C50DC
:1008100009C0611107C04AE06CE070E0C8010E94A5
:100820005A2D03C0C8010E94E402C8010F90DF9155
:10083000CF911F910F9108950F931F93CF93DF9343
:10084000CDB7DEB76E970FB6F894DEBF0FBECDBF43
:1008500008E511E0F8016581CE0107960E94E402E7
:10086000F8016481CE0143960E94E402F80163819D
:10087000CE0149960E94F503BE01675E7F4FCE010F
:100880000D960E94F42CBE016D5E7F4FCE010D9639
:100890000E940B2EBE01695F7F4F0E940B2EBC0190
:1008A000CE0101960E94F42CBE016F5F7F4F8FE551
:1008B00091E00E94581CCE0101960E94592CCE0155
:1008C0000D960E94592CCE0149960E94592CCE01BA
:1008D00043960E94592CCE0107960E94592C6E9681
:1008E0000FB6F894DEBF0FBECDBFDF91CF911F9141
:1008F0000F910895CF93C82F80E090E00E94E934D3
:10090000813031F0CD3010F0CC5002C0CC2319F042
:100910008C2F90E002C08CE090E0CF91089582305F
:10092000910591F490934101809340016370772782
:10093000672B19F489E090E002C088E090E0909382
:100940003F0180933E0108958D7F8930910511F01C
:10095000049759F483E090E0909341018093400123
:1009600010923F0110923E01089583E090E0909331
:1009700041018093400181E090E090933F0180939A
:100980003E01089580E090E00E94E934813069F0F2
:1009900081E090E0909341018093400182E090E0FB
:1009A00090933F0180933E01089582E090E0909300
:1009B00041018093400183E090E090933F01809358
:1009C0003E0108958091BA019091BB01A091BC01B4
:1009D000B091BD018D3D9242AF4FB10589F40E94A7
:1009E0007B0280910F01909110018130910511F0EF
:1009F000019702C086E090E09093100180930F0170
:100A00008091BA019091BB01A091BC01B091BD0150
:100A10008D3F9240AF4FB10589F40E947B028091D7
:100A20000F01909110018630910511F0019602C0DE
:100A300081E090E09093100180930F01089561E0B0
:100A400081E00E94B32B62E370E080E090E00E94BE
:100A5000672A60E081E00C94B32B823051F128F4D6
:100A60008823D9F1813079F10895843071F0B8F09C
:100A7000853009F042C080915D016AE00E944A31F0
:100A8000905D492F65E070E034C080915D016AE0BF
:100A90000E944A31805D482F64E070E02AC0809156
:100AA0005C016AE00E944A31905D492F63E070E08A
:100AB00020C080915C016AE00E944A31805D482F2D
:100AC00062E070E016C080915B016AE00E944A31EA
:100AD000905D492F61E070E00CC080915B010E9445
:100AE0007A046AE070E00E946A3140E3460F60E0F9
:100AF00070E08AE491E00C94702E08951F920F929A
:100B00000FB60F9211242F933F934F935F936F93E0
:100B10007F938F939F93AF93BF93EF93FF93CF9365
:100B2000DF93CDB7DEB76897DEBFCDBF80914801B8
:100B300090914901019690934901809348018091D9
:100B40005C018E3029F480915D018B3309F43FC143
:100B500080915C018D3129F480915D018B3309F422
:100B600074C180915C018C3229F480915D018B33DA
:100B700009F478C180915C018F3009F057C08091F1
:100B80005D01873008F052C060910D0170910E0137
:100B900040E28AE491E00E94702E80910D019091D4
:100BA0000E01019690930E0180930D010697F1F5C9
:100BB00060915D01CE0101960E94E40260915C01AA
:100BC000CE010D960E94E40260915B01CE01439636
:100BD0000E94F503BE016D5E7F4FCE0107960E9415
:100BE000F42CBE01635F7F4FCE0107960E940B2E4F
:100BF000BE016F5F7F4F0E940B2EBC018AE491E023
:100C00000E94DD2CCE0107960E94592CCE014396FE
:100C10000E94592CCE010D960E94592CCE010196AE
:100C20000E94592C10920E0110920D0180915C01CE
:100C30008E3111F580915D018730F0F480910D01C6
:100C400090910E01019761F46EE171E08AE491E008
:100C50000E94FD2C87E090E090930E0180930D019F
:100C600080910D0190910E01019790930E01809358
:100C70000D0181500E942D0580915C018D3209F09B
:100C80004FC080915D01873008F04AC060914E01ED
:100C900070914F01615071098AE491E00E94032F25
:100CA00080914E0190914F01892BD1F560915D01AA
:100CB000CE0101960E94E40260915C01CE010D9686
:100CC0000E94E40260915B01CE0143960E94F5030D
:100CD000BE016D5E7F4FCE0107960E94F42CBE01CF
:100CE000635F7F4FCE0107960E940B2EBE016F5FA0
:100CF0007F4F0E940B2EBC018AE491E00E94DD2C04
:100D0000CE0107960E94592CCE0143960E94592C81
:100D1000CE010D960E94592CCE0101960E94592CAD
:100D200080915C01811148C080915D01873008F09D
:100D300043C06EE171E08AE491E00E941E2E882398
:100D400009F4CAC060915D01CE0101960E94E402DF
:100D500060915C01CE010D960E94E40260915B01FE
:100D6000CE0143960E94F503BE016D5E7F4FCE011A
:100D700007960E94F42CBE01635F7F4FCE01079659
:100D80000E940B2EBE016F5F7F4F0E940B2EBC0195
:100D90008AE491E00E94DD2CCE0107960E94592C36
:100DA000CE0143960E94592CCE010D960E94592CDB
:100DB000CE0101960E94592C8091480190914901E1
:100DC0008A3F910509F08FC00E947B028CC06BE3C3
:100DD000CE0101960E94E40260915C01CE010D9665
:100DE0000E94E40260915B01CE0143960E94F503EC
:100DF000BE016D5E7F4FCE0107960E94F42CBE01AE
:100E0000635F7F4FCE0107960E940B2EBE016F5F7E
:100E10007F4F0E940B2EBC018AE491E00E94DD2CE2
:100E2000CE0107960E94592CCE0143960E94592C60
:100E3000CE010D960E94592CCE0101960E94592C8C
:100E400010920E0110920D0183CE6EE171E08AE4E2
:100E500091E00E94FD2C87E090E090930E0180933A
:100E60000D017FCE6BE3CE0101960E94E4026091FA
:100E70005C01CE010D960E94E40260915B01CE01FF
:100E800043960E94F503BE016D5E7F4FCE0107962B
:100E90000E94F42CBE01635F7F4FCE0107960E9433
:100EA0000B2EBE016F5F7F4F0E940B2EBC018AE4A8
:100EB00091E00E94DD2CCE0107960E94592CCE01B4
:100EC00043960E94592CCE010D960E94592CCE01BA
:100ED00001960E94592C4ECE6EE171E08AE491E0B9
:100EE0000E94FD2C69CF68960FB6F894DEBF0FBE46
:100EF000CDBFDF91CF91FF91EF91BF91AF919F91C6
:100F00008F917F916F915F914F913F912F910F90B2
:100F10000FBE0F901F9018951F93CF93DF93CDB7FF
:100F2000DEB72C970FB6F894DEBF0FBECDBF182FDB
:100F300082E090E00E94E934813009F44EC0409193
:100F4000BA015091BB016091BC017091BD01473560
:100F5000584A6F4F7105D1F460910B0170910C01EB
:100F60006436710519F0665F7F4F02C060E070E083
:100F700070930C0160930B018FE591E00E945C1966
:100F800060910B0181E090E00E9494004091BA01D1
:100F90005091BB016091BC017091BD014F31504E29
:100FA0006F4F7105D1F460910B0170910C016115C7
:100FB000710519F06A50710902C064E670E070931F
:100FC0000C0160930B018FE591E00E945C19609128
:100FD0000B0181E090E00E9494004091BA01509191
:100FE000BB016091BC017091BD014D35524A6F4FFC
:100FF0007105F1F4112379F010924301109242012E
:10100000109245011092440110924701109246013E
:1010100010923B010DC080E090E00E94E9348130E5
:1010200011F061E001C060E080E090E00E94940077
:101030008091BA019091BB01A091BC01B091BD011A
:1010400087369849AF4FB10591F482E390E09093D1
:101050000C0180930B0162E370E08FE591E00E9448
:101060005C1960910B0181E090E00E9494008091F6
:10107000BA019091BB01A091BC01B091BD018F3428
:10108000904BAF4FB10591F484E690E090930C0142
:1010900080930B0164E670E08FE591E00E945C199B
:1010A00060910B0181E090E00E9494008091BA0170
:1010B0009091BB01A091BC01B091BD018D399246C8
:1010C000AF4FB10579F08091BA019091BB01A09129
:1010D000BC01B091BD018D31924EAF4FB10509F009
:1010E0005FC051C060E084E10E94B32B60E080E10A
:1010F0000E94B32B60E085E00E94B32B8FE591E066
:101100000E94791766EB71E086EC91E00E94261F41
:10111000892BC1F386EC91E00E94701E65E271E0BC
:10112000CE0101960E94C72C4091BA015091BB019B
:101130006091BC017091BD012AE0CE0107960E942A
:10114000B22DBE016F5F7F4FCE0107960E94612EC8
:10115000182FCE0107960E94592CCE0101960E94AD
:10116000592C11110E941F058091BA019091BB0169
:10117000A091BC01B091BD018D399246AF4FB10530
:1011800009F0C0CFA0CF82E090E00E94E934813026
:1011900011F061E001C060E082E090E00E94940004
:1011A0008091BA019091BB01A091BC01B091BD01A9
:1011B0008D33924CAF4FB105D9F483E090E00E949B
:1011C000E934823011F460E00FC083E090E00E94C7
:1011D000E93461E0680F83E090E00E94F13483E03D
:1011E00090E00E94E934682F83E090E00E94940030
:1011F0002C960FB6F894DEBF0FBECDBFDF91CF9116
:101200001F910895AF92BF92CF92DF92EF92FF921B
:101210000F931F93CF93DF9300D000D000D0CDB7B2
:10122000DEB7882309F448C0CE0101960E946329E5
:1012300086E0FE013196A8E5B1E001900D928A9515
:10124000E1F780915D0180FD31C082E090E00E9475
:10125000E934813019F160910B0170910C018827FC
:1012600077FD8095982F1F921F921F922AE22F934D
:10127000A12CB12C6501A39414E6E12EF12C00E021
:1012800010E020E030E0A9010E94122C85E00E94CD
:10129000F22A0F900F900F900F9042C084E10E94AD
:1012A000D52A6FEF73E0681B790B02C060E070E035
:1012B00085E00E94F22A34C082E090E00E94E93486
:1012C000813019F160910B0170910C01882777FD35
:1012D0008095982F1F921F921F922AE22F93A12C84
:1012E000B12C6501A39414E6E12EF12C00E010E08E
:1012F00020E030E0A9010E94122C85E00E94F22A31
:101300000F900F900F900F901AC084E10E94D52A81
:101310006FEF73E0681B790B85E00E94F22A0FC023
:1013200080E090E00E94E934813049F080915B01D7
:101330008C3008F456C080915D0180FF52C060E09F
:1013400080E10E94B32B82E090E00E94E93481307A
:1013500011F061E001C060E084E10E94B32B82E003
:1013600090E00E94E934813049F060910B01709166
:101370000C018FE591E00E945C1935C084E10E9468
:10138000D52A6FEF73E0681B790B882777FD80956E
:10139000982F1F921F921F9224E62F93A12CB12CFD
:1013A0006501EE24EA9413E0F12E00E010E020E065
:1013B00030E0A9010E94122CCB016AE070E00E948B
:1013C0006A312AE0269FC001279F900D1124BC019D
:1013D0008FE591E00E945C190F900F900F900F9095
:1013E00002C061E0ADCF26960FB6F894DEBF0FBE07
:1013F000CDBFDF91CF911F910F91FF90EF90DF90C4
:10140000CF90BF90AF900895AF92BF92CF92DF92EE
:10141000EF92FF920F931F93CF93DF93CDB7DEB779
:101420006E970FB6F894DEBF0FBECDBF0E947B0251
:10143000CE0101960E94632986E0FE013196A8E55F
:10144000B1E001900D928A95E1F716E0FAE0AF2E37
:10145000B12C60915B01CE0101960E94F503CE0193
:1014600001960E94072F7093470160934601CE01B9
:1014700001960E94592C80915C0190E09093450167
:101480008093440180915D0190E0909343018093AB
:10149000420166EB71E086EC91E00E94261F892BE9
:1014A00009F4A8C186EC91E00E94701E65E271E02B
:1014B000CE0101960E94C72C4091BA015091BB0108
:1014C0006091BC017091BD012AE0CE0107960E9497
:1014D000B22DBE016F5F7F4FCE0107960E94612E35
:1014E000082FCE0107960E94592CCE0101960E942A
:1014F000592C01110E941F050E94E20480E00E9405
:101500008C078091BA019091BB01A091BC01B09170
:10151000BD018F3620E992072FEFA207B10549F4EC
:101520001092BA011092BB011092BC011092BD0141
:10153000BBC18D3322EC92072FEFA207B10509F44E
:10154000B3C1873928E692072FEFA207B105F1F161
:101550008F3C20E392072FEFA207B105B9F1873E38
:1015600028E192072FEFA207B10581F185382AE71C
:1015700092072FEFA207B10549F18F3E20E19207B4
:101580002FEFA207B10511F1873C28E392072FEF57
:10159000A207B105D9F0853A2AE592072FEFA207F5
:1015A000B105A1F08D3B22E492072FEFA207B10510
:1015B00069F0853B2AE492072FEFA207B10531F0CD
:1015C0008D3A9245AF4FB10509F014C10E947B02DC
:1015D0000E9484027C01082F80910F0190911001DC
:1015E0008330910509F4B0C03CF481309105E1F0FD
:1015F000029709F469C0DAC08530910509F4C5C0C5
:101600000CF4B4C0069709F0D1C0809142016AE0A1
:101610000E944A319AE0899FE00C1124F12CF0924B
:101620004301E0924201C2C00E94C2048091400185
:101630009091410197013327821793070CF4B6C0AC
:1016400028173907C9F4E0914601909147018E2F80
:10165000B5010E946A3140913E0150913F01481707
:1016600059070CF4A3C08E2F6AE00E944A318AE029
:10167000E89E900D112417C0E1101CC080E090E09E
:101680000E94E9348130B1F04091460190914701C8
:10169000842FB5010E946A31892B09F487C0842FF9
:1016A0006AE00E944A31892F90E09093470180932D
:1016B00046017CC0809146016AE00E944A312AE0DE
:1016C000E29E900D1124EFCF0E94C204C09046010B
:1016D000D0904701C601B5010E946A318091400156
:1016E000909141016817790759F420913E0130919A
:1016F0003F01C7019927281739070CF457C016C0B6
:10170000C6010996439790F480E090E00E94E93486
:10171000813061F0EE2009F449C08C2D6AE00E940E
:101720004A312AE0829FE00C112408C08C2D6AE027
:101730000E944A319AE0899FE00C1124F12CF0922A
:101740004701E092460132C0063080F580914401A5
:101750006AE00E944A312AE0E29E900D1124892F0E
:1017600090E0909345018093440120C08091440112
:101770006AE00E944A319AE0899FE00C1124F12C22
:10178000F0924501E092440111C0063078F4809156
:1017900042016AE00E944A312AE0E29E900D112443
:1017A000892F90E09093430180934201609158010A
:1017B00070E06053784FC0904201E0904401009186
:1017C000460120915A0140915901CE0101960E9493
:1017D000D928CE0101960E94F328CE0101960E94DD
:1017E0006329FE013196A8E5B1E0812F01900D92A9
:1017F0008A95E1F781E00E94020980914801909169
:101800004901CA970CF050C0CE0101960E9463298D
:10181000FE013196A8E5B1E0812F01900D928A95E5
:10182000E1F760915D01CE0107960E94E4026091AC
:101830005C01CE0143960E94E40260915B01CE01FF
:1018400049960E94F503BE01675E7F4FCE010D965B
:101850000E94F42CBE016D5E7F4FCE010D960E945A
:101860000B2EBE01695F7F4F0E940B2EBC01CE0183
:1018700001960E94F42CCE0101960E944802CE01EE
:1018800001960E94592CCE010D960E94592CCE0132
:1018900049960E94592CCE0143960E94592CCE01A4
:1018A00007960E94592CD5CD6E960FB6F894DEBFE0
:1018B0000FBECDBFDF91CF911F910F91FF90EF90A1
:1018C000DF90CF90BF90AF9008950F931F93CF9369
:1018D000DF93CDB7DEB76E970FB6F894DEBF0FBEBD
:1018E000CDBF0E947B0216E066EB71E086EC91E0D2
:1018F0000E94261F892B09F40BC186EC91E00E94FF
:10190000701E65E271E0CE0101960E94C72C4091E5
:10191000BA015091BB016091BC017091BD012AE0F8
:10192000CE0107960E94B22DBE016F5F7F4FCE01A0
:1019300007960E94612E082FCE0107960E94592C0F
:10194000CE0101960E94592C01110E941F050E9490
:10195000E20481E00E948C078091BA019091BB0162
:10196000A091BC01B091BD018F3620E992072FEF05
:10197000A207B10521F481E080933B0123C187399F
:1019800028E692072FEFA207B105F1F18F3C20E383
:1019900092072FEFA207B105B9F1873E28E1920720
:1019A0002FEFA207B10581F185382AE792072FEFC3
:1019B000A207B10549F18F3E20E192072FEFA20760
:1019C000B10511F1873C28E392072FEFA207B1057B
:1019D000D9F0853A2AE592072FEFA207B105A1F0C9
:1019E0008D3B22E492072FEFA207B10569F0853BFA
:1019F0002AE492072FEFA207B10531F08D3A924504
:101A0000AF4FB10509F073C00E947B020E948402AF
:101A1000082F20910F013091100123303105C9F1B9
:101A2000A4F42130310529F12230310509F05FC0DD
:101A30000E94C204809146016AE00E944A319AE005
:101A4000899F000D1124802F1EC02530310509F417
:101A50003DC064F12630310509F049C08091420152
:101A60006AE00E944A319AE0899F000D1124802F7C
:101A700039C0809146016AE00E944A318AE0089F9D
:101A8000900D1124892F90E0909347018093460197
:101A90002EC0863060F5809144016AE00E944A3190
:101AA0002AE0029F900D1124892F0AC080914401E1
:101AB0006AE00E944A319AE0899F000D1124802F2C
:101AC00090E0909345018093440111C0863078F4F2
:101AD000809142016AE00E944A312AE0029F900D03
:101AE0001124892F90E090934301809342018091CB
:101AF000BA019091BB01A091BC01B091BD018D33A1
:101B0000924CAF4FB10521F481E080930A015AC095
:101B100080E00E9402098091480190914901CA9792
:101B20000CF050C0CE0101960E946329FE0131964F
:101B3000A8E5B1E0812F01900D928A95E1F76091BF
:101B40004201CE0107960E94E40260914401CE0159
:101B500043960E94E40260914601CE0149960E949C
:101B6000E402BE01675E7F4FCE010D960E94F42C09
:101B7000BE016D5E7F4FCE010D960E940B2EBE0101
:101B8000695F7F4F0E940B2EBC01CE0101960E941F
:101B9000F42CCE0101960E944802CE0101960E94CB
:101BA000592CCE010D960E94592CCE0149960E94C7
:101BB000592CCE0143960E94592CCE0107960E94C3
:101BC000592C92CE6E960FB6F894DEBF0FBECDBFE5
:101BD000DF91CF911F910F9108952F923F924F92D5
:101BE0005F926F927F928F929F92AF92BF92CF92AD
:101BF000EF92FF920F931F93CF93DF93CDB7DEB792
:101C0000A4970FB6F894DEBF0FBECDBF0E947B0233
:101C1000CE0101960E94632986E0FE013196A8E577
:101C2000B1E001900D928A95E1F716E0ADE12A2E20
:101C3000312CBEE14B2E512C88248394912C82E0D0
:101C4000682E712C9AE0A92EB12C80915A0190E057
:101C500090934701809346018091590190E09093C1
:101C60004501809344018091580190E08053984F42
:101C700064E670E00E9456319093430180934201E4
:101C800066EB71E086EC91E00E94261F892B09F437
:101C90001EC286EC91E00E94701E65E271E0CE01EA
:101CA00001960E94C72C4091BA015091BB016091EE
:101CB000BC017091BD012AE0CE0107960E94B22DB1
:101CC000BE016F5F7F4FCE0107960E94612E082FE5
:101CD000CE0107960E94592CCE0101960E94592CE4
:101CE00001110E941F050E94E20480E00E948C07FF
:101CF0008091BA019091BB01A091BC01B091BD014E
:101D00008F3620E992072FEFA207B10509F44CC2E4
:101D10008D3322EC92072FEFA207B10509F444C2DC
:101D2000873928E692072FEFA207B105F1F18F3C22
:101D300020E392072FEFA207B105B9F1873E28E112
:101D400092072FEFA207B10581F185382AE79207A4
:101D50002FEFA207B10549F18F3E20E192072FEF47
:101D6000A207B10511F1873C28E392072FEFA207E4
:101D7000B105D9F0853A2AE592072FEFA207B10500
:101D8000A1F08D3B22E492072FEFA207B10569F085
:101D9000853B2AE492072FEFA207B10531F08D3A77
:101DA0009245AF4FB10509F092C10E947B020E949B
:101DB00084027C0180910F01909110018330910584
:101DC00009F4B0C02091440130914501843091055F
:101DD0005CF4609142017091430181309105E1F022
:101DE000029709F464C024C18530910509F411C13A
:101DF0000CF4DEC0069709F01BC1809142016AE035
:101E00000E944A319AE0899FE00C1124F12CF09253
:101E10004301E09242010CC1C9010E948F048091EC
:101E200040019091410197013327821793070CF4E9
:101E3000FFC028173907C9F4E09146019091470186
:101E40008E2FB5010E946A3140913E0150913F01B1
:101E5000481759070CF4ECC08E2F6AE00E944A31F3
:101E60008AE0E89E900D112411C0E11016C0409147
:101E7000460190914701842FB5010E946A31892B58
:101E800009F4D6C0842F6AE00E944A31892F90E07D
:101E90009093470180934601CBC0809146016AE050
:101EA0000E944A312AE0E29E900D1124EFCFC90131
:101EB0000E948F042091460130914701C901B5016C
:101EC0000E946A3180914001909141016817790721
:101ED00059F440913E0150913F01C701992748179D
:101EE00059070CF4A5C010C0C9010996439760F4C6
:101EF000EE2009F49DC0822F6AE00E944A312AE058
:101F0000829FE00C112408C0822F6AE00E944A31AF
:101F10009AE0899FE00C1124F12CF0924701E092A5
:101F2000460186C0909241018092400170923F012B
:101F300060923E01C7019927823091050CF078C06C
:101F40000197A1F44091440190914501842FB5017E
:101F50000E946A3103970CF06BC0842F6AE00E94E4
:101F60004A312AE0E29E900D112411C0E11016C002
:101F70004091440190914501842FB5010E946A313E
:101F8000892B09F455C0842F6AE00E944A31892FB9
:101F900090E090934501809344014AC080914401B0
:101FA0006AE00E944A318AE0E89E900D1124EFCF4A
:101FB000909241018092400170923F0160923E01F7
:101FC000C901B5010E946A316130710529F4C70168
:101FD000992703976CF50FC0C9010996439758F4E8
:101FE000EE2031F1822F6AE00E944A312AE0829F7E
:101FF000E00C112408C0822F6AE00E944A319AE066
:10200000899FE00C1124F12CF0924501E0924401EB
:102010000FC0809142016AE00E944A312AE0E29EAC
:10202000900D1124892F90E09093430180934201F9
:102030004091440150914501CA018D7F893091053D
:1020400011F0049751F480914601909147014F9708
:1020500021F45092470140924601809146019091AF
:10206000470160914201709143014D979CF04230CD
:10207000510581F4CB0183709927892B29F4309283
:1020800047012092460106C08CE190E09093470101
:1020900080934601C0905D01E0905C0100915B017E
:1020A00020914601CE0101960E94D928CE010196C9
:1020B0000E94F328CE0101960E946329FE01319609
:1020C000A8E5B1E0812F01900D928A95E1F780E0BB
:1020D0000E9402098091480190914901CA970CF031
:1020E00063C0CE0101960E946329FE013196A8E5E6
:1020F000B1E0812F01900D928A95E1F7609158012E
:1021000070E06053784F4AE0CE010D960E94862D14
:1021100029893A8942E050E0BE01635F7F4FCE01DA
:1021200007960E94902E60915901CE0149960E9417
:10213000E40260915A01CE014F960E94E402BE0172
:10214000615E7F4FCE0143960E94F42CBE01675E14
:102150007F4FCE0143960E940B2EBE01695F7F4FD9
:102160000E940B2EBC01CE0101960E94F42CCE01E0
:1021700001960E944802CE0101960E94592CCE0180
:1021800043960E94592CCE014F960E94592CCE01A5
:1021900049960E94592CCE0107960E94592CCE01D7
:1021A0000D960E94592C51CDA4960FB6F894DEBF1F
:1021B0000FBECDBFDF91CF911F910F91FF90EF9098
:1021C000CF90BF90AF909F908F907F906F905F90D7
:1021D0004F903F902F90089580915D0180933C0136
:1021E00090913D01891761F080933D0181E00E944B
:1021F000E92B61E0892B09F060E081E00C94B32BBE
:1022000008958F929F92AF92BF92CF92EF92FF92DA
:102210000F931F93CF93DF93CDB7DEB72C970FB6F5
:10222000F894DEBF0FBECDBF83E090E00E94E9349A
:10223000823009F47CC0833009F40EC1813009F08A
:10224000E7C10E947B0201E010E076E0A72EB12CEE
:1022500080E00E9402090E941F0366EB71E086EC99
:1022600091E00E94261F892B99F386EC91E00E9451
:10227000701E65E271E0CE0101960E94C72C40916C
:10228000BA015091BB016091BC017091BD012AE07F
:10229000CE0107960E94B22DBE016F5F7F4FCE0127
:1022A00007960E94612EF82ECE0107960E94592CA7
:1022B000CE0101960E94592CF1100E941F0581E069
:1022C0000E948C078091BA019091BB01A091BC0142
:1022D000B091BD018D3D9242AF4FB10531F41093E5
:1022E000100100930F010E94ED0D8091BA019091B1
:1022F000BB01A091BC01B091BD018D3F9240AF4F99
:10230000B10531F4B0921001A0920F010E94ED0DC1
:102310008091BA019091BB01A091BC01B091BD0127
:102320008D33924CAF4FB10509F092CF46C2109257
:102330004301109242011092450110924401109203
:10234000470110924601CE0101960E94632986E062
:10235000FE013196A8E5B1E001900D928A95E1F772
:1023600080915D0180933C0180933D0110923B017F
:1023700010920A0110923A0180E00E9402090E9424
:102380009D0380913B0181110E94570180913A0188
:10239000882369F080915D0180FD07C06EE171E0E6
:1023A0008FE591E00E94FD1B02C00E949D0366EB39
:1023B00071E086EC91E00E94261F892BE9F286EC01
:1023C00091E00E94701E65E271E0CE0101960E94CC
:1023D000C72C4091BA015091BB016091BC01709132
:1023E000BD012AE0CE0107960E94B22DBE016F5FAB
:1023F0007F4FCE0107960E94612E182FCE010796BF
:102400000E94592CCE0101960E94592C112321F0D3
:102410000E941F0510923A0181E00E948C07809172
:10242000BA019091BB01A091BC01B091BD018F3662
:1024300020E992072FEFA207B10539F480913B0103
:1024400091E0892780933B0197CF8D33924CAF4F1A
:10245000B10509F091CFB1C1109243011092420130
:1024600010924501109244011092470110924601CA
:1024700010923B0110923A0181E090E0909310019C
:1024800080930F010E94650C56E0F52E01E010E0EC
:1024900066E0A62EB12CCE0101960E946329FE01B2
:1024A0003196A8E5B1E08F2D01900D928A95E1F764
:1024B00080910A01811181C181E00E94020980910D
:1024C0003A01882359F080915D0180FD07C06EE1DB
:1024D00071E08FE591E00E94FD1B02C00E949D0308
:1024E00080913B0181110E94DE0180913A018111AE
:1024F0000E94EC1066EB71E086EC91E00E94261FD2
:10250000892B49F286EC91E00E94701E65E271E031
:10251000CE0101960E94C72C4091BA015091BB0197
:102520006091BC017091BD012AE0CE0107960E9426
:10253000B22DBE016F5F7F4FCE0107960E94612EC4
:10254000982ECE0107960E94592CCE0101960E942A
:10255000592C992021F00E941F0510923A0181E028
:102560000E948C078091BA019091BB01A091BC019F
:10257000B091BD018F3620E992072FEFA207B10578
:1025800039F480913B0191E0892780933B010BC096
:102590008D35924AAF4FB10531F41093100100937D
:1025A0000F010E94650C8091BA019091BB01A0912E
:1025B000BC01B091BD018D3D9242AF4FB10531F4E8
:1025C0001093100100930F010E94650C8091BA01D5
:1025D0009091BB01A091BC01B091BD018D3F924093
:1025E000AF4FB10531F4B0921001A0920F010E94DB
:1025F000650C8091BA019091BB01A091BC01B09192
:10260000BD018D33924CAF4FB10509F044CFD5C019
:102610000E947B021FE0AA24A394B12C36E0832EF3
:10262000912C46E0F42E81E00E94020980915C0129
:10263000612F0E944A3191111FC080915D01873046
:10264000D8F46AE471E0CE0101960E94F42CBE0138
:102650006F5F7F4F8FE591E00E94581CCE0101967D
:102660000E94592C80915C01811109C080915D010B
:10267000833028F461E004C00E941C04F3CF60E0C2
:1026800081E00E94B32B66EB71E086EC91E00E9442
:10269000261F892B41F286EC91E00E94701E65E2B4
:1026A00071E0CE0101960E94C72C4091BA01509171
:1026B000BB016091BC017091BD012AE0CE0107967B
:1026C0000E94B22DBE016F5F7F4FCE0107960E9420
:1026D000612E082FCE0107960E94592CCE0101963B
:1026E0000E94592C01110E941F0580E00E948C0756
:1026F0008091BA019091BB01A091BC01B091BD0144
:102700008D3D9242AF4FB10531F4B0921001A092CD
:102710000F010E94040A8091BA019091BB01A0911F
:10272000BC01B091BD018D3F9240AF4FB10531F476
:102730009092100180920F010E94040A8091BA01C8
:102740009091BB01A091BC01B091BD018D3322ECF1
:1027500092072FEFA207B10581F18F369049AF4F55
:10276000B10509F060CF00915B01609158010C3018
:1027700010F00C5001C0045F70E06053784FC090BF
:102780005D01E0905C0120915A0140915901CE0118
:1027900001960E94D928CE0101960E94F328CE010D
:1027A00001960E946329FE013196A8E5B1E08F2DC4
:1027B00001900D928A95E1F736CF2C960FB6F894DA
:1027C000DEBF0FBECDBFDF91CF911F910F91FF9064
:1027D000EF90CF90BF90AF909F908F900895AF9261
:1027E000BF92CF92DF92EF92FF920F931F9362E01E
:1027F00070E086EC91E00E94541EE9E0AE2EB12C10
:10280000F8E0CF2ED12CA7E0EA2EF12C06E010E064
:102810002BE030E044E050E063E070E08FE591E0D1
:102820000E94CA1740E050E0BA0188E591E00E949A
:102830007B2864E271E08AE491E01F910F91FF90A0
:10284000EF90DF90CF90BF90AF900C94C72C8AE4AC
:1028500091E00E94592C80EB91E00C94592C8091CE
:10286000F70190E02091F801821B910908952091D1
:10287000F8018091F701281750F4E22FF0E0E750BB
:10288000FE4F808190E02F5F2093F80108958FEF35
:102890009FEF0895E091F8018091F701E81730F477
:1028A000F0E0E750FE4F808190E008958FEF9FEFBA
:1028B00008950895CF92DF92EF92FF920F931F93A6
:1028C000CF93DF937C01CB018A012091D301222396
:1028D00089F0EB016B01C40ED51ECC15DD0569F046
:1028E0006991D701ED91FC910190F081E02DC70134
:1028F0000995F3CF642F0E941716C801DF91CF917D
:102900001F910F91FF90EF90DF90CF900895CF939C
:10291000DF931F92CDB7DEB769832091D3012223C5
:10292000D1F02091D401203240F021E030E0FC01D0
:102930003383228380E090E015C08091D501E82F99
:10294000F0E0EA52FE4F998190838F5F8093D5012A
:102950008093D40105C061E0CE0101960E94171654
:1029600081E090E00F90DF91CF910895FC011382F8
:10297000128248EE53E060E070E044835583668342
:1029800077838DE291E09183808308951092F8011E
:102990001092F7011092D5011092D4010C945A159F
:1029A00081E08093D3016093F6011092D5011092DB
:1029B000D40108950C94D0140F93062F21E0409178
:1029C000D40166ED71E08091F6010E94C01510926D
:1029D000D5011092D4011092D3010F9108958F92D6
:1029E0009F92AF92BF92CF92DF92EF92FF920F939E
:1029F0001F93CF93DF93EC01F62ED42E480159019B
:102A0000EE2019F10E94D0141E2D143008F013E0AE
:102A10001150B8F0E881F98128E0129FB00111242B
:102A2000A501940104C056954795379527956A9559
:102A3000D2F7CA01B9010190F081E02DCE010995CC
:102A4000E7CF60E0CE010E94DC144D2D413208F04A
:102A500040E22C2D69EF71E08F2D0E9478151092C5
:102A6000F8018093F701DF91CF911F910F91FF90B3
:102A7000EF90DF90CF90BF90AF909F908F90089590
:102A8000CF92EF920F931F93C22EE12C00E010E043
:102A900098010E94EF141F910F91EF90CF9008952D
:102AA00021E00C94401561E00C94DC1487EC91E07B
:102AB0000C94B6141092860281E0809384021092E6
:102AC000830261E082E10E94B32B61E083E10E9416
:102AD000B32BE9EBF0E080818E7F808380818D7F56
:102AE000808388E48093B80085E48093BC000895D7
:102AF000413208F043C0909186029111FCCF91E0E1
:102B000090938602209384022FEF20931902109253
:102B10005E02240F20935D029093850290918502BE
:102B2000880F892B8093850280918302813061F424
:102B300010928302809185028093BB008091BC003B
:102B400083FDF8CF85EC01C085EE8093BC008091B9
:102B500086028130E1F380915E02841710F4409187
:102B60005E022FE532E0FB01D9018A2F821B841718
:102B700018F48D918193F9CF842F089580E0089502
:102B80000F93413208F04AC0909186029111FCCF18
:102B900092E090938602009384029FEF9093190233
:102BA00010925E0240935D02FB016FE572E0DB0173
:102BB0009A2F961B941718F491919D93F9CF109228
:102BC000850290918502880F892B809385028091E0
:102BD0008302813061F41092830280918502809398
:102BE000BB008091BC0083FDF8CF85EC01C085EE71
:102BF0008093BC00222321F0809186028230E1F391
:102C0000809119028F3F61F080911902803251F05A
:102C100080911902803341F483E007C081E005C050
:102C200080E003C082E001C084E00F91089561322A
:102C300098F420918602243089F460933B02FC01D1
:102C40008DE392E0DC012A2F281B261718F421912E
:102C50002D93F9CF80E0089581E0089582E00895F2
:102C600085ED8093BC008091BC0084FDFCCF109268
:102C70008602089585EC8093BC0010928602089528
:102C80001F920F920FB60F9211242F933F934F93E1
:102C90005F936F937F938F939F93AF93BF93EF93C4
:102CA000FF938091B900887F803609F49EC078F543
:102CB000883209F45DC090F4803109F456C038F4CC
:102CC000882309F4F5C0883009F44FC0F5C0883175
:102CD00009F44EC0803209F45FC0EEC0803409F4BC
:102CE0006AC058F4803309F457C0883309F0E4C04F
:102CF000809319020E943A16DFC0803509F44FC054
:102D0000883509F45DC0883409F0D6C0D3C088394D
:102D100009F4C4C0A8F4883709F467C038F48836C9
:102D200009F463C0803709F460C0C6C0883809F46C
:102D3000B5C0803909F45FC0803809F0BDC05BC000
:102D4000803B09F483C038F4803A09F466C0883ABD
:102D500009F47CC0B1C0803C09F4A4C0883C09F4EB
:102D6000A1C0883B09F487C0A7C08091850210C02C
:102D700090915E0280915D02981770F5E0915E027D
:102D800081E08E0F80935E02F0E0E15AFD4F80817A
:102D90008093BB0085EC83C0809319028BC0E091C7
:102DA0005E0281E08E0F80935E028091BB00F0E0B6
:102DB000E15AFD4F808390915E0280915D026BC06D
:102DC000E0915E0281E08E0F80935E028091BB00F5
:102DD000F0E0E15AFD4F80838091840281116AC046
:102DE00081E08093830284EA5EC083E08093860260
:102DF00010921A02CFCF80911A02803208F04EC092
:102E0000E0911A0281E08E0F80931A028091BB003C
:102E1000F0E0E55EFD4F8083BDCF0E943A168091C1
:102E20001A02803230F4E0911A02F0E0E55EFD4FC4
:102E3000108260911A0270E0E0917F02F0918002AE
:102E40008BE192E0099510921A0236C084E08093DB
:102E5000860210923C0210923B02E0918102F091B6
:102E60008202099580913B02811105C081E0809327
:102E70003B0210923D02E0913C0281E08E0F809374
:102E80003C02F0E0E35CFD4F80818093BB009091B9
:102E90003C0280913B02981708F47CCF85E8809330
:102EA000BC000AC085EC8093BC001092860204C06E
:102EB000109219020E943016FF91EF91BF91AF91CD
:102EC0009F918F917F916F915F914F913F912F9142
:102ED0000F900FBE0F901F901895FC0117A616A615
:102EE00081E090E091AB80AB93AB82AB15AA14AAC2
:102EF00008950F931F93CF93DF93EC0100E010E050
:102F00008E8D9F8D0817190774F4C801880F991FBB
:102F1000EC8DFD8DE80FF91F68A980810E94B32B0D
:102F20000F5F1F4FEDCF6CA988810E94B32B6CA956
:102F30008A810E94B32B6CA98C810E94B32B6CA94F
:102F40008E810E94B32B6CA988850E94B32B6CA93B
:102F50008A850E94B32B6CA98C850E94B32B8E8529
:102F60009F858F3F2FEF920719F06CA90E94B32B1A
:102F70008A8D9B8D8F3F2FEF920739F068A9DF91E3
:102F8000CF911F910F910C94B32BDF91CF911F9193
:102F90000F9108952F923F924F925F926F927F927E
:102FA0008F929F92AF92BF92CF92DF92EF92FF9259
:102FB0000F931F93CF93DF93EC01962E872E3A0148
:102FC000190164E271E08F5A9F4F0E94C72C44247C
:102FD0004394512C5FA64EA619AA18AA1BAA1AAA96
:102FE0005DAA4CAA988289827B826A823D822C8269
:102FF0001F830E83F986E886DB86CA86BD86AC868B
:103000000FEF1FEF1F870E8761E0892D0E947A2B3B
:1030100061E08A810E947A2B61E08C810E947A2B88
:1030200061E08E810E947A2B61E088850E947A2B74
:1030300061E08A850E947A2B61E08C850E947A2B60
:103040001F8E1E8E8CA99DA9998B888B9B8B8A8B3A
:103050001D8B0C8B1F8B0E8B198F088F1B8F0A8F6C
:1030600018A219A21AA21BA21CA21DA21EA21FA274
:1030700018A619A61AA61BA684E690E09DA78CA701
:103080001FAA1EAA59AE48AE1BAF0AAF1CAE1DAE9A
:103090001EAE1FAEFE01E05CFF4F10821182128255
:1030A0001382349610821182128213823496108217
:1030B000118212821382349611821082329611820A
:1030C0001082329680E28083CE01DF91CF911F91F2
:1030D0000F91FF90EF90DF90CF90BF90AF909F90B7
:1030E0008F907F906F905F904F903F902F900C94B7
:1030F00079172F923F924F925F926F927F928F92A9
:103100009F92AF92BF92CF92DF92EF92FF920F9376
:103110001F93CF93DF93EC01C8A0D9A0EAA0FBA036
:10312000ACA5BDA5A70196010E94DF3124E630E0E1
:1031300040E050E00E94A0312CA33DA34EA35FA32A
:10314000C21AD30AE40AF50AC8A6D9A6EAA6FBA6BB
:103150008AAD9BAD019609F44AC0F8948CA09DA05D
:10316000AEA0BFA08E01005C1F4F60E1462E512C27
:10317000612C712CC501B401A30192010E94A03100
:103180002150310941095109F801208331834283DB
:103190005383C8A4D9A4EAA4FBA41E01F4E42F0E0F
:1031A000311CC701B601A30192010E94A031215038
:1031B000310941095109F10120833183428353834D
:1031C00089288A288B2829F4F8011082118212821A
:1031D0001382CD28CE28CF2829F4F1011082118244
:1031E000128213821CAE1DAE1EAE1FAE7894DF910C
:1031F000CF911F910F91FF90EF90DF90CF90BF90F4
:10320000AF909F908F907F906F905F904F903F9086
:103210002F900895CF93DF93EC019B01442737FD56
:103220004095542F60E472E48FE090E00E94A0315A
:10323000CA01B9012E8D3F8D4A8D5B8D4F3F5F4F87
:1032400011F02F5F3F4F442737FD4095542F0E94C8
:10325000A03128A339A34AA35BA3CE01DF91CF916C
:103260000C9479180F931F93CF93DF93EC015D8F2C
:103270004C8F7F8F6E8F00E010E08E8D9F8D081732
:10328000190774F4C801880F991FEC8DFD8DE80FA4
:10329000F91F61E080810E947A2B0F5F1F4FEDCFF5
:1032A000CE010E94791764E670E0CE01DF91CF91E4
:1032B0001F910F910C940A19FC0175A764A70C9437
:1032C00079180F931F93CF93DF93EC018B010E942A
:1032D0007917000F111FEC8DFD8DE00FF11F6EA50A
:1032E0008081DF91CF911F910F910C94B32BFC0142
:1032F00062A986850C94B32BFC0164A986850C9485
:10330000B32BFC0164A985A9608B818B828D938D81
:10331000019619F484890C94B32B08950F931F938D
:10332000CF93DF93EC018B016CA988810E94B32BB2
:103330006CA98A810E94B32B6CA98C810E94B32B4B
:103340006CA98E810E94B32B6CA988850E94B32B37
:103350006CA98A850E94B32B6CA98C850E94B32B23
:103360000130110539F46AA98A810E94B32B6AA938
:103370008C8115C002301105A9F46AA988810E94C8
:10338000B32B6AA98A810E94B32B6AA98C850E94FB
:10339000B32B6AA988850E94B32B6AA98E810E94EB
:1033A000B32B44C003301105A9F46AA988810E9497
:1033B000B32B6AA98A810E94B32B6AA98C850E94CB
:1033C000B32B6AA98C810E94B32B6AA98E810E94BB
:1033D000B32B42C00430110589F46AA98A850E9482
:1033E000B32B6AA98C850E94B32B6AA98A810E949B
:1033F000B32B6AA98C810E94B32B5AC005301105EA
:10340000A9F46AA988810E94B32B6AA98A850E94BF
:10341000B32B6AA98C850E94B32B6AA98C810E9468
:10342000B32B6AA98E810E94B32B5CC006301105B4
:1034300099F46AA988810E94B32B6AA98A850E949F
:10344000B32B6AA988850E94B32B6AA98E810E943A
:10345000B32B6AA98C8127C00730110559F46AA9DA
:1034600088810E94B32B6AA98A810E94B32B6AA922
:103470008C8150C008301105D9F46AA988810E9456
:10348000B32B6AA98A810E94B32B6AA98C810E94FE
:10349000B32B6AA98E810E94B32B6AA988850E94EA
:1034A000B32B6AA98A850E94B32B6AA98C8532C086
:1034B00009301105B9F46AA98C850E94B32B6AA959
:1034C0008A850E94B32B6AA988810E94B32B6AA9BE
:1034D0008A810E94B32B6AA98C810E94B32B6AA9AE
:1034E0008E8118C0012BE1F46AA988810E94B32B58
:1034F0006AA98A810E94B32B6AA98C810E94B32B8E
:103500006AA98E810E94B32B6AA988850E94B32B79
:103510006AA98A85DF91CF911F910F910C94B32BEB
:10352000DF91CF911F910F9108951F93CF93DF9358
:10353000EC01162F6CA988810E94B32B6CA98A819B
:103540000E94B32B6CA98C810E94B32B6CA98E8135
:103550000E94B32B6CA988850E94B32B6CA98A8525
:103560000E94B32B6CA98C850E94B32B1D3271F085
:10357000183F81F46AA988810E94B32B6AA98A81C5
:103580000E94B32B6AA98A850E94B32B6AA98C85F5
:103590000E94B32B80ED810F8A3048F4612F77278A
:1035A00067FD709560537109CE010E948E198FE9F5
:1035B000810F8A3108F41052113429F46AA98881E4
:1035C0000E94B32B3CC0123419F46AA98C8116C036
:1035D000133419F46AA9888198C0143459F46AA97B
:1035E0008A810E94B32B6AA98C810E94B32B6AA99D
:1035F0008E8140C0153429F46AA988810E94B32BBA
:103600006DC0163419F46AA988816AC0173419F498
:103610006AA9888176C0183491F0193409F47BC006
:103620001A3459F46AA98A810E94B32B6AA98C8141
:103630000E94B32B6AA98E8114C01B3439F46AA985
:103640008A810E94B32B6AA98C814AC01C3409F478
:103650005EC01D3459F46AA988810E94B32B6AA9FF
:103660008C810E94B32B6AA988855BC01E3429F423
:103670006AA98C810E94B32B1FC01F3429F46AA948
:1036800088810E94B32B3BC0103539F46AA9888128
:103690000E94B32B6AA98A8123C0113559F46AA903
:1036A00088810E94B32B6AA98A810E94B32B6AA9E0
:1036B0008C811AC0123519F46AA9888519C013358E
:1036C00059F46AA988810E94B32B6AA98C810E944F
:1036D000B32B6AA98E8108C0143579F46AA98E814A
:1036E0000E94B32B6AA988850E94B32B6AA98A8598
:1036F0000E94B32B6AA98C8514C01535A9F46AA958
:103700008A810E94B32B6AA98C810E94B32B6AA97B
:103710008E810E94B32B6AA988850E94B32B6AA967
:103720008A850E94B32B51C0163559F46AA98C8141
:103730000E94B32B6AA98E810E94B32B6AA9888547
:103740003FC0173559F46AA98A810E94B32B6AA930
:103750008E810E94B32B6AA98A8532C0183559F42C
:103760006AA98A810E94B32B6AA98C810E94B32B1B
:103770006AA988850CC0193579F46AA98A810E94E2
:10378000B32B6AA98C810E94B32B6AA98E810E94F7
:10379000B32B6AA98A8510C01A35B9F46AA9888141
:1037A0000E94B32B6AA98A810E94B32B6AA98E81D9
:1037B0000E94B32B6AA988850E94B32B6AA98C85C5
:1037C000DF91CF911F910C94B32BDF91CF911F917B
:1037D0000895CB01009781F0611520E4720714F47D
:1037E0000C948F2A68EE73E00E946A31882777FD77
:1037F0008095982F0C94672A0895AF92BF92CF922C
:10380000DF92EF92FF920F931F93CF93DF93EC0120
:103810005B018AAD9BAD0196B9F5CE010E9481197D
:10382000C12CD12C00E010E07501E00EF11EF70173
:103830008081882391F1B601CE010E946119F701C0
:103840006081CE010E94951AF70181818E3229F4A0
:10385000CE010E9477190F5F1F4F6CA17DA1CE0191
:103860000E94E91B60E2CE010E94951ACE010E94DF
:103870007C1968A579A5CE010E94E91B0F5F1F4F37
:10388000FFEFCF1ADF0AD0CFFE01E05BFF4F83E7E7
:103890008083C25BDF4F79836883DF91CF911F9173
:1038A0000F91FF90EF90DF90CF90BF90AF90089571
:1038B000AF92BF92CF92DF92EF92FF920F931F933E
:1038C000CF93DF93EC017B018AAD9BAD019609F0AC
:1038D00042C0CE010E948119C12CD12C00E010E021
:1038E000F701848195810817190708F048C0B601CF
:1038F000CE010E946119B801C7010E947E2EFC0111
:103900006081CE010E94951A5801FFEFAF1ABF0ADD
:10391000B501C7010E947E2EFC0180818E3221F408
:10392000CE010E94771985016CA17DA1CE010E9474
:10393000E91B60E2CE010E94951ACE010E947C191B
:1039400068A579A5CE010E94E91B0F5F1F4FFFEF0D
:10395000CF1ADF0AC5CFFE01E05BFF4F8FE6808301
:10396000CE018F5A9F4FDF91CF911F910F91FF9002
:10397000EF90DF90CF90BF90AF900C94DD2CDF9153
:10398000CF911F910F91FF90EF90DF90CF90BF905C
:10399000AF900895CF92DF92EF92FF92CF93DF9393
:1039A000EC01882777FD8095982F0E9427306B01C6
:1039B0007C0120E030E040E45FE30E94D73020E06B
:1039C00030E048E452E40E948C2F0E94F42FC61786
:1039D000D707D4F020E030E040EA5FE3C701B6014A
:1039E0000E94D73020E030E048E452E40E948C2F5F
:1039F00020E030E040E85FE30E94242F0E94F42F93
:103A000021E06C177D070CF420E0822F90E0DF911D
:103A1000CF91FF90EF90DF90CF900895CF92DF92FB
:103A2000EF92FF92CF93DF93EC016C597F4F882781
:103A300077FD8095982F0E9427306B017C0120E054
:103A400030E040E45FE30E94D73020E030E048E41B
:103A500052E40E948C2F0E94F42FC617D707D4F08F
:103A600020E030E040EA5FE3C701B6010E94D730B2
:103A700020E030E048E452E40E948C2F20E030E067
:103A800040E85FE30E94242F0E94F42F21E06C178E
:103A90007D070CF420E0822F90E0DF91CF91FF9022
:103AA000EF90DF90CF900895CF92DF92EF92FF9248
:103AB000CF93DF93EC0164567109882777FD8095D9
:103AC000982F0E9427306B017C0120E030E040E419
:103AD0005FE30E94D73020E030E048E452E40E94E7
:103AE0008C2F0E94F42FC617D707D4F020E030E0C7
:103AF00040EA5FE3C701B6010E94D73020E030E022
:103B000048E452E40E948C2F20E030E040E85FE37C
:103B10000E94242F0E94F42F21E06C177D070CF4E3
:103B200020E0822F90E0DF91CF91FF90EF90DF9027
:103B3000CF9008951F920F920FB60F9211242F93DA
:103B40003F934F935F936F937F938F939F93AF9325
:103B5000BF93EF93FF93809188020E94E92B2091FD
:103B60008C0230918D022F5F3F4F30938D02209356
:103B70008C0290918B02953618F096E09093870214
:103B8000909187029430C9F128F4923069F0933013
:103B9000D1F05EC0953009F451C0963009F058C09C
:103BA00091E09093580351C0811152C020918C0232
:103BB00030918D022436310508F442C0109258032A
:103BC00010928B021CC0813009F042C0E0918B0240
:103BD00091E09E0F90938B02F0E020918C02309147
:103BE0008D02EE0FFF1FE957FD4F3087278310929C
:103BF0008D0210928C0294E029C0811117C0E091CF
:103C00008B0291E09E0F90938B02F0E020918C024A
:103C100030918D02EE0FFF1FE957FD4F308727834C
:103C200010928D0210928C0293E010C020918C02B1
:103C300030918D022536310558F007C0811108C03A
:103C400010928D0210928C0203C095E0909387022F
:103C500090918A029923B9F081110AC0809189025A
:103C6000882321F08091890261E009C02D9A0BC060
:103C700080918902882331F08091890260E00E945E
:103C8000B32B01C02D98FF91EF91BF91AF919F9100
:103C90008F917F916F915F914F913F912F910F90F5
:103CA0000FBE0F901F9018956093880210928A02A1
:103CB0000895F89482E08093B0008093B10094E678
:103CC0009093B3001092B200809370007894809328
:103CD000870210928B028091880260E00C947A2B0C
:103CE00082E08093870210928B0208958F929F92B8
:103CF000AF92BF92CF92DF92EF92FF927B01BA0117
:103D000080E090E00E9425304B015C01B70180E02B
:103D100090E00E9425306B017C012DEC3CEC4CE4E2
:103D20005FE30E94D7309B01AC01C501B4010E9442
:103D3000882F87FD17C02DEC3CEC4CE45FE3C501F8
:103D4000B4010E94D7309B01AC01C701B6010E94AB
:103D5000882F992787FD90958827990F881F992785
:103D6000019602C080E090E0FF90EF90DF90CF904E
:103D7000BF90AF909F908F9008958F929F92AF9237
:103D8000BF92CF92DF92EF92FF920F931F93CF9348
:103D9000DF936C01EB01EC84FD8486E0E816F1040E
:103DA0000CF444C0EE0CFF1C06E010E045EC842E41
:103DB0004DE9942E4CE1A42E41E8B42E8A859B85D2
:103DC000FC01E00FF11F40815181F8013497E80FA9
:103DD000F91F60817181C6010E94761EFC01A50158
:103DE000940163E971E080E091E00E943A314F0173
:103DF000AA2497FCA094BA2C86269726A826B92632
:103E00000E5F1F4F0E151F05C9F68C829D82AE8274
:103E1000BF8280E290E0998788878FEF9FEF998338
:103E2000888361E070E080E090E003C060E070E0D3
:103E3000CB01DF91CF911F910F91FF90EF90DF9019
:103E4000CF90BF90AF909F908F9008950F931F9346
:103E5000CF93DF938C01EB018EE892E09B878A87FA
:103E600080918B0290E09D878C878091580390E031
:103E70009F878E8780918702853009F05EC0C801D8
:103E80000E948522882319F081E090E058C0BE018D
:103E9000C8010E943E278111F7CFBE01C8010E94D0
:103EA0009A268111F1CFBE01C8010E94F62181112D
:103EB000EBCFBE01C8010E945C248111E5CFBE0199
:103EC000C8010E9403258111DFCFBE01C8010E94F5
:103ED00024238111D9CFBE01C8010E94692181111B
:103EE000D3CFBE01C8010E94B0208111CDCFBE0149
:103EF000C8010E94FB258111C7CFBE01C8010E94E5
:103F0000D9278111C1CFBE01C8010E94A41F811110
:103F1000BBCFBE01C8010E9435208111B5CFBE01C3
:103F2000C8010E94BD1E672B682B692B09F0ACCF1E
:103F300082E08093870210928B0280E090E0DF9114
:103F4000CF911F910F910895AF92BF92CF92DF92C0
:103F5000EF92FF920F931F93CF93DF93EB0180912A
:103F60008B02883510F480E075C0EA85FB8582817C
:103F7000938160E672E20E940E1D892BA1F3EA850F
:103F8000FB858481958164E971E10E94541D892B30
:103F900051F3BEE1CB2ED12C1DE1E12EF12C00E03E
:103FA00010E080918B0290E00497E816F906C4F5C2
:103FB000EA85FB85C701880F991FE80FF91F8081EB
:103FC000918164EF71E00E940E1D892B61F2560110
:103FD000AA0CBB1CEA85FB85EA0DFB1D8081918143
:103FE00068E572E00E94541D892B21F0000F111F1B
:103FF00001600EC0EA85FB85EA0DFB1D8081918181
:1040000064EA76E00E94541D892B49F0000F111FCD
:1040100082E0E80EF11C82E0C80ED11CC2CF76010E
:1040200081E0E81AF108F594E794F986E8868AE2D7
:10403000E816F1040CF497CFC801AA2797FDA095C4
:10404000BA2F8C839D83AE83BF8389E090E09983F0
:10405000888381E0DF91CF911F910F91FF90EF90C6
:10406000DF90CF90BF90AF900895AF92BF92CF9264
:10407000DF92EF92FF920F931F93CF93DF93EB01A9
:1040800080918B02803211F080E05FC0EA85FB8571
:10409000828193816CE271E00E940E1D892BA1F355
:1040A000EA85FB85848195816EEE72E00E94541D45
:1040B000892B51F306E010E0C12CD12C7601EA8562
:1040C000FB85E00FF11F808191816CE271E00E941D
:1040D0000E1D892BC9F2580182E0A80EB11CEA8599
:1040E000FB85EA0DFB1D8081918168E077E00E94ED
:1040F000541D892B39F0CC0CDD1CEE1CFF1C689480
:10410000C0F811C0EA85FB85EA0DFB1D8081918115
:104110006EEE72E00E94541D892B09F4B5CFCC0CD1
:10412000DD1CEE1CFF1C0C5F1F4F0E33110539F612
:104130008EE090E099878887CC82DD82EE82FF82D4
:104140008FE090E09983888381E0DF91CF911F9188
:104150000F91FF90EF90DF90CF90BF90AF900895B8
:10416000AF92BF92CF92DF92EF92FF920F931F9385
:10417000CF93DF93EB0180918B02823261F5EA8568
:10418000FB858281938168E572E00E940E1D892B78
:1041900011F180918B0290E081509048880F991F17
:1041A000EA85FB85E80FF91F8081918168E572E05F
:1041B0000E940E1D892B79F0198618868FEF9FEFCC
:1041C000DC018C839D83AE83BF8386E090E099837E
:1041D000888381E073C0EA85FB858281938160E4F6
:1041E0007FE10E940E1D892B21F080918B0281328C
:1041F00010F480E063C0EA85FB858481958160EAE4
:104200007FE00E94541D892BA1F358E0A52EB12C0C
:1042100003E010E0C12CD12C7601EA85FB85C801B2
:10422000880F991FE80FF91F8081918168E572E07E
:104230000E940E1D892BE9F2EA85FB85EA0DFB1D24
:104240008081918160E476E00E94541D892B39F0D1
:10425000CC0CDD1CEE1CFF1C6894C0F811C0EA8574
:10426000FB85EA0DFB1D8081918166E272E00E9470
:10427000541D892B09F4BDCFCC0CDD1CEE1CFF1C9A
:104280000E5F1F4F84E0A80EB11C0332110529F602
:10429000EA85FB85EA5BFF4F8081918168E572E0EA
:1042A0000E940E1D892B09F4A4CF80E190E099872C
:1042B0008887CC82DD82EE82FF8287CFDF91CF912B
:1042C0001F910F91FF90EF90DF90CF90BF90AF9034
:1042D0000895AF92BF92CF92DF92EF92FF920F9329
:1042E0001F93CF93DF93EB0180918B02893310F4FE
:1042F00080E071C0EA85FB858281938160E47FE183
:104300000E940E1D892BA1F3EA85FB85848195818E
:1043100060EA7FE00E94541D892B51F338E0A32E00
:10432000B12C03E010E0C12CD12C7601EA85FB858D
:10433000C801880F991FE80FF91F8081918168E5F6
:1043400072E00E940E1D892B99F2EA85FB85EA0D29
:10435000FB1D8081918160E476E00E94541D892BD1
:1043600039F0CC0CDD1CEE1CFF1C6894C0F811C0A9
:10437000EA85FB85EA0DFB1D8081918166E272E092
:104380000E94541D892B09F4B3CFCC0CDD1CEE1C0C
:10439000FF1C0E5F1F4F84E0A80EB11C0B331105EC
:1043A00029F6EA85FB85EA58FF4F8081918168E50F
:1043B00072E00E940E1D892B09F49ACF8CE190E0E7
:1043C00099878887CC82DD82EE82FF828AE090E046
:1043D0009983888381E0DF91CF911F910F91FF90A6
:1043E000EF90DF90CF90BF90AF9008956F927F9243
:1043F0008F929F92AF92BF92CF92DF92EF92FF92F5
:104400000F931F93CF93DF93EB0180918B02823246
:1044100008F461C0EA85FB85828193816EE571E0D5
:104420000E940E1D892B09F456C063E0A62EB12C04
:1044300002E010E0C12CD12C7601350180918B0275
:1044400090E0A816B906E4F54801880C991CEA85A5
:10445000FB85E80DF91D808191816EE977E00E946E
:104460000E1D892B39F0CC0CDD1CEE1CFF1C689452
:10447000C0F810C0EA85FB85E80DF91D80819181A7
:104480006EEE72E00E940E1D892B29F1CC0CDD1C12
:10449000EE1CFF1CC501880F991FEA85FB85E80FFC
:1044A000F91F808191816EE571E00E94541D22E028
:1044B000A20EB11C892B19F00E5F1F4FBECF8301D6
:1044C00001501109159507951987088700311105C5
:1044D00024F41986188680E009C0CC82DD82EE8241
:1044E000FF828CE090E09983888381E0DF91CF9117
:1044F0001F910F91FF90EF90DF90CF90BF90AF9002
:104500009F908F907F906F900895AF92BF92CF92BF
:10451000DF92EF92FF920F931F93CF93DF93EB0104
:10452000EA85FB858281938168E273E20E940E1D19
:10453000892B11F480E07DC080918B02843019F5C5
:10454000EA85FB85848195816AEC78E00E94541DA0
:10455000892BC9F0EA85FB858681978160E372E04B
:104560000E940E1D892B79F0198618868FEF9FEF18
:10457000DC018C839D83AE83BF8383E090E09983CD
:10458000888381E056C080918B02843498F2EA855A
:10459000FB858481958164E971E10E94541D892B1A
:1045A00049F206E010E0C12CD12C7601EA85FB85AA
:1045B000E00FF11F8081918160E372E00E940E1D87
:1045C000892B09F4B7CF580182E0A80EB11CEA8507
:1045D000FB85EA0DFB1D808191816AE976E00E94EE
:1045E000541D892B39F0CC0CDD1CEE1CFF1C68948B
:1045F000C0F811C0EA85FB85EA0DFB1D8081918121
:1046000060E372E00E94541D892B09F493CFCC0C17
:10461000DD1CEE1CFF1C0C5F1F4F0638110531F628
:1046200080E290E099878887CC82DD82EE82FF82EB
:10463000A4CFDF91CF911F910F91FF90EF90DF906A
:10464000CF90BF90AF9008958F929F92AF92BF92FC
:10465000CF92DF92EF92FF920F931F93CF93DF934E
:1046600000D000D0CDB7DEB74B01DB011A96ED913B
:10467000FC911B97828193816EEA7DE00E940E1D62
:10468000892B11F480E093C0D4011A96ED91FC912E
:104690001B978481958166ED76E00E940E1D892B23
:1046A00089F3E6E0EE2EF12C20E030E040E050E02F
:1046B000A12CB12CC12CD12CD4011A96ED91FC91D6
:1046C0001B97EE0DFF1D8081918166EF71E02983BC
:1046D0003A834B835C830E940E1D892B99F28701DC
:1046E0000E5F1F4FD4011A96ED91FC911B97E00FBE
:1046F000F11F808191816CED74E00E94541D29812D
:104700003A814B815C81892B39F0B501C60101E00A
:104710000E94E73121601DC0D4011A96ED91FC91F1
:104720001B97E00FF11F8081918160E971E029837F
:104730003A834B835C830E94541D29813A814B81CB
:104740005C81892B09F49ECFB501C60101E00E946E
:10475000E7315B016C01B4E0EB0EF11CE6ECEE1608
:10476000F10409F0A9CFD40114962C93149715964F
:104770003C93159716964C93169717965C9317973C
:10478000B501C60100E20E94023212962C931297E4
:1047900013963C93139785E090E011969C938E932B
:1047A00080E390E019969C938E93189781E00F9088
:1047B0000F900F900F90DF91CF911F910F91FF906D
:1047C000EF90DF90CF90BF90AF909F908F90089523
:1047D0008F929F92AF92BF92CF92DF92EF92FF9211
:1047E0000F931F93CF93DF937A016901DA01CD9183
:1047F000DC91FB0184859585C817D9070CF04AC068
:10480000CE01880F991F0284F385E02DE80FF91F70
:10481000A080B180C170DD27F1E0CF27209719F487
:1048200084E690E002C08CE99FEF4801880E991E53
:10483000B401C5010E94CA1C892B99F4800E911EF7
:10484000B401C5010E94CA1C892B71F4B401600F28
:10485000711FC5010E94CA1C892BF9F023E030E0CA
:1048600005C021E030E002C022E030E0D6018D91A9
:104870009C91119701968217930744F0F6011182DB
:104880001082D7018D919C91119701968D939C93E5
:10489000CE0105C081E090E002C08FEF9FEFDF9175
:1048A000CF911F910F91FF90EF90DF90CF90BF902D
:1048B000AF909F908F9008954F925F926F927F92EA
:1048C0008F929F92AF92BF92CF92DF92EF92FF9220
:1048D0000F931F93CF93DF9300D000D0CDB7DEB7F7
:1048E0006C017B011C821B8281E090E09A838983AA
:1048F00080918B028D3010F480E070C009E713E0E6
:104900009E012D5F3F4FAE014F5F5F4FC6010E947A
:10491000E823892B89F79E012D5F3F4FAE014F5F42
:104920005F4FB701C6010E94E823019729F79E0156
:104930002D5F3F4FAE014F5F5F4FB701C6010E9431
:10494000E823892BC9F6412C512C3201A12CB12C22
:1049500080918B0290E029813A81281739079CF5D4
:1049600009E713E09E012D5F3F4FAE014F5F5F4FA0
:10497000B701C6010E94E8234C019E012D5F3F4F05
:10498000AE014F5F5F4FB701C6010E94E82321E0EF
:104990008216910451F4892B09F0AECF440C551CBA
:1049A000661C771C689440F80AC0892809F0A4CFD7
:1049B000019709F0A1CF440C551C661C771C8FEFA2
:1049C000A81AB80AC5CFF701B186A08644825582DD
:1049D0006682778281E090E0918380830F900F90D0
:1049E0000F900F90DF91CF911F910F91FF90EF905B
:1049F000DF90CF90BF90AF909F908F907F906F90FF
:104A00005F904F9008952F923F924F925F926F92D6
:104A10007F928F929F92AF92BF92CF92DF92EF924E
:104A2000FF920F931F93CF93DF9300D000D0CDB7A9
:104A3000DEB76C017B011C821B82DB011C968D9111
:104A40009C911D971816190614F080E0BDC0DB017B
:104A50001A96ED91FC911B9782E090E09A838983EE
:104A6000828193816AE67AE00E940E1D892B69F3A8
:104A7000D7011A96ED91FC911B9789819A819C012F
:104A80002F5F3F4F3A832983880F991FE80FF91F43
:104A90008081918169E773E00E94541D892BA9F2FE
:104AA0000CEB11E09E012D5F3F4FAE014F5F5F4F5A
:104AB000B701C6010E94E823892B39F69E012D5FBC
:104AC0003F4FAE014F5F5F4FB701C6010E94E82321
:104AD000019709F0BACF212C312C2101A12CB12C46
:104AE00029813A81F70184859585281739070CF0CB
:104AF00060C00CEB11E09E012D5F3F4FAE014F5F98
:104B00005F4FB701C6010E94E8233C01B3E0AB163A
:104B1000B10491F00CEB11E09E012D5F3F4FAE010F
:104B20004F5F5F4FB701C6010E94E8234C01E3E0ED
:104B3000AE16B10409F510C00CEB11E09E012D5F1B
:104B40003F4FAE014F5F5F4FB701C6010E94E823A0
:104B500068167906F9F279CF0CEB11E09E012D5F12
:104B60003F4FAE014F5F5F4FB701C6010E94E82380
:104B70008816990609F069CF6114710459F48A9472
:104B8000892809F062CF220C331C441C551C689400
:104B900020F80BC06A94672809F057CF892809F0DC
:104BA00054CF220C331C441C551CAFEFAA1ABA0A6E
:104BB00097CFB186A086248235824682578282E0D2
:104BC00090E09183808381E00F900F900F900F9081
:104BD000DF91CF911F910F91FF90EF90DF90CF90D9
:104BE000BF90AF909F908F907F906F905F904F900D
:104BF0003F902F900895AF92BF92CF92DF92EF92A5
:104C0000FF920F931F93CF93DF93EB01EA85FB8510
:104C10008281938168E873E10E940E1D892B11F453
:104C200080E07DC080918B02843019F5EA85FB8598
:104C3000848195816AEC78E00E94541D892BC9F02B
:104C4000EA85FB858681978160E372E00E940E1DF4
:104C5000892B79F0198618868FEF9FEFDC018C8302
:104C60009D83AE83BF8387E090E09983888381E052
:104C700056C080918B02843498F2EA85FB8584814A
:104C8000958168E873E10E94541D892B49F206E082
:104C900010E0C12CD12C7601EA85FB85E00FF11FD5
:104CA0008081918160E372E00E940E1D892B09F4DE
:104CB000B7CF580182E0A80EB11CEA85FB85EA0D4A
:104CC000FB1D8081918160E476E00E94541D892B58
:104CD00039F0CC0CDD1CEE1CFF1C6894C0F811C030
:104CE000EA85FB85EA0DFB1D8081918160E372E01E
:104CF0000E94541D892B09F493CFCC0CDD1CEE1CB3
:104D0000FF1C0C5F1F4F0638110531F680E290E062
:104D100099878887CC82DD82EE82FF82A4CFDF91E3
:104D2000CF911F910F91FF90EF90DF90CF90BF90A8
:104D3000AF9008958F929F92AF92BF92CF92DF92E1
:104D4000EF92FF920F931F93CF93DF93EB0180912C
:104D50008B028A3108F47AC0EA85FB8580819181D3
:104D60008032934050F4198618868FEF9FEFDC0154
:104D70008C839D83AE83BF836FC0828193816CEAF5
:104D80007DE00E940E1D892B09F460C0EA85FB8539
:104D9000848195816CEA7DE00E940E1D892B09F4C7
:104DA00055C054E0A52EB12C03E010E0C12CD12C4D
:104DB000760180918B0290E0A816B906E4F5EA85A9
:104DC000FB85C801880F991FE80FF91F8081918129
:104DD00066EB73E00E94541D892B61F14501880C3C
:104DE000991CEA85FB85E80DF91D8081918160E6BB
:104DF00079E00E940E1D892B39F0CC0CDD1CEE1CD5
:104E0000FF1C6894C0F810C0EA85FB85E80DF91D09
:104E1000808191816CEB72E00E940E1D892BB1F0B4
:104E2000CC0CDD1CEE1CFF1C0E5F1F4F82E0A80E99
:104E3000B11CBFCF85010150110915950795198740
:104E400008870C30110524F41986188680E009C003
:104E5000CC82DD82EE82FF828BE090E099838883B2
:104E600081E0DF91CF911F910F91FF90EF90DF9044
:104E7000CF90BF90AF909F908F9008958F929F9208
:104E8000AF92BF92CF92DF92EF92FF920F931F9358
:104E9000CF93DF93EB0180918B028A3108F471C0CC
:104EA000EA85FB8580819181843F914060F4198679
:104EB00018868FEF9FEFDC018C839D83AE83BF83C9
:104EC0008BE090E066C08281938160E679E00E9489
:104ED0000E1D892B09F455C073E0A72EB12C02E0FA
:104EE00010E0C12CD12C760180918B0290E0A816A5
:104EF000B906E4F5EA85FB85C801880F991FE80F1C
:104F0000F91F8081918168E572E00E94541D892B10
:104F100061F14501880C991CEA85FB85E80DF91DB6
:104F20008081918160EB74E00E940E1D892B39F025
:104F3000CC0CDD1CEE1CFF1C6894C0F810C0EA8588
:104F4000FB85E80DF91D8081918168E572E00E9482
:104F50000E1D892BB1F0CC0CDD1CEE1CFF1C0E5F6E
:104F60001F4F82E0A80EB11CBFCF8501015011096F
:104F700015950795198708870C30110524F41986B3
:104F8000188680E009C0CC82DD82EE82FF8284E058
:104F900090E09983888381E0DF91CF911F910F91F9
:104FA000FF90EF90DF90CF90BF90AF909F908F9049
:104FB0000895AF92BF92CF92DF92EF92FF920F933C
:104FC0001F93CF93DF93EB0180918B02863410F413
:104FD00080E086C0EA85FB85828193816EEE72E077
:104FE0000E940E1D892BA1F3EA85FB8584819581A2
:104FF0006EEE72E00E94541D892B51F3EA85FB8509
:105000008681978162E27BE00E940E1D892B01F36D
:10501000EA85FB858085918562E27BE00E94541DD4
:10502000892BB1F25CE0A52EB12C05E010E0C12C7B
:10503000D12C7601EA85FB85C801880F991FE80FFE
:10504000F91F808191816EEE72E00E940E1D892B06
:1050500009F4BECFEA85FB85EA0DFB1D80819181B5
:1050600066E678E00E94541D892B39F0CC0CDD1CDB
:10507000EE1CFF1C6894C0F811C0EA85FB85EA0DA0
:10508000FB1D808191816EEE72E00E94541D892B80
:1050900009F49ECFCC0CDD1CEE1CFF1C0E5F1F4FD5
:1050A00084E0A80EB11C0534110521F6EA85FB85C4
:1050B000E657FF4F808191816EEE72E00E940E1DD7
:1050C000892B09F485CF80E290E099878887CC828C
:1050D000DD82EE82FF8288E090E09983888381E020
:1050E000DF91CF911F910F91FF90EF90DF90CF90C4
:1050F000BF90AF900895CF92DF92EF92FF92CF933F
:10510000DF93EC01405853446D467843ECE3CE2ED8
:10511000D12CE12CF12CCB01BA01A70196010E9400
:105120007E316D83CA01B901A70196010E947E31CB
:105130006C83CA01B90128E130E040E050E00E94F0
:105140007E316B83188243E95EEFE8818E2F837096
:10515000A1E009F0A0E08A2F90E0BC0163597E4FE6
:105160002617370740F0BA01681B790B260F371F47
:10517000EF5FE883EACF81E089838981E82FF0E05F
:10518000E959FF4FE491AA2319F0823009F4EF5F47
:10519000F0E02E173F0720F02E1B3F0B8F5FECCF68
:1051A0002F5F2A83DF91CF91FF90EF90DF90CF9018
:1051B0000895CF92EF920F93FC01603D87E078074E
:1051C00010F0605D77406083418322830383E48233
:1051D000C5820F91EF90CF90089587EC91E00E94E7
:1051E000C61481E008951F93CF93DF93EC0168E626
:1051F00070E087EC91E00E94DA1460E087EC91E0C7
:105200000E9487142D811AE0822F612F0E944A315B
:10521000682F660F680F660F620F87EC91E00E949F
:1052200087142C81822F612F0E944A31682F660FCC
:10523000680F660F620F87EC91E00E9487142B8144
:10524000822F612F0E944A31682F660F680F660F08
:10525000620F87EC91E00E94871460E087EC91E098
:105260000E9487142A81822F612F0E944A31682F61
:10527000660F680F660F620F87EC91E00E9487143B
:105280002981822F612F0E944A31682F660F680F93
:10529000660F620F87EC91E00E9487142881822FAD
:1052A000612F0E944A31682F660F680F660F620FE8
:1052B00087EC91E00E94871487EC91E0DF91CF9119
:1052C0001F910C945315CF92DF92EF92FF920F93A0
:1052D0001F93CF93DF93EC0168E670E087EC91E0D9
:1052E0000E94DA1460E087EC91E00E94871487EC5A
:1052F00091E00E94531547E050E068E670E087ECCB
:1053000091E00E94501587EC91E00E9437148F774E
:10531000982F92959F701AEF082F919F000D1124DE
:1053200087EC91E00E9437149C013327A4E0359567
:105330002795AA95E1F7F82E129FF00C112487EC1F
:1053400091E00E9437149C013327B4E035952795EE
:10535000BA95E1F7E82E129FE00C112487EC91E05A
:105360000E94371487EC91E00E9437149C01332788
:1053700094E0359527959A95E1F7D82E129FD00C99
:10538000112487EC91E00E9437149C01332744E0FC
:10539000359527954A95E1F7C82E129FC00C112428
:1053A00087EC91E00E9437149C01332754E0359537
:1053B00027955A95E1F7129F800D11248883C982A1
:1053C000DA82EB82FC820D83CE01DF91CF911F91B7
:1053D0000F91FF90EF90DF90CF9008951F920F9262
:1053E0000FB60F9211242F933F938F939F93AF93F8
:1053F000BF9380915A0390915B03A0915C03B0919D
:105400005D033091590323E0230F2D3720F40196DB
:10541000A11DB11D05C026E8230F0296A11DB11DD7
:105420002093590380935A0390935B03A0935C03EA
:10543000B0935D0380915E0390915F03A091600340
:10544000B09161030196A11DB11D80935E039093FD
:105450005F03A0936003B0936103BF91AF919F91ED
:105460008F913F912F910F900FBE0F901F90189525
:105470002FB7F89460915A0370915B0380915C039D
:1054800090915D032FBF08953FB7F89480915E031C
:1054900090915F03A0916003B091610326B5A89B32
:1054A00005C02F3F19F00196A11DB11D3FBF662712
:1054B000782F892F9A2F620F711D811D911D42E057
:1054C000660F771F881F991F4A95D1F70895CF92CD
:1054D000DF92EF92FF92CF93DF936B017C010E94EA
:1054E000442AEB01C114D104E104F10489F00E94C3
:1054F000222F0E94442A6C1B7D0B683E734090F360
:1055000081E0C81AD108E108F108C851DC4FEACFA0
:10551000DF91CF91FF90EF90DF90CF900895823090
:10552000910538F0880F991F880F991F05970197EB
:10553000F1F70895789484B5826084BD84B5816064
:1055400084BD85B5826085BD85B5816085BDEEE68B
:10555000F0E0808181608083E1E8F0E0108280816A
:1055600082608083808181608083E0E8F0E08081D8
:1055700081608083E1EBF0E0808184608083E0EBF8
:10558000F0E0808181608083EAE7F0E080818460E0
:10559000808380818260808380818160808380813C
:1055A000806880831092C10008958E3008F08E507C
:1055B000877020911D0190E4299F90011124822B76
:1055C00080937C0080917A00806480937A0080913F
:1055D0007A0086FDFCCF809178002091790090E0E0
:1055E000922B08951F93CF93DF93182FEB0161E067
:1055F0000E947A2B209711F460E004C0CF3FD105C0
:1056000039F461E0812FDF91CF911F910C94B32B7E
:10561000E12FF0E0EC58FF4FE491E330F9F048F46B
:10562000E130B9F0E230A1F584B5806284BDC8BD37
:1056300034C0E730E9F0E83019F1E43049F5809101
:105640008000806280938000D0938B00C0938A009A
:1056500024C084B5806884BDC7BD1FC08091800010
:10566000806880938000D0938900C093880015C023
:105670008091B00080688093B000C093B3000DC0EB
:105680008091B00080628093B000C093B40005C0E8
:10569000C038D1050CF0B5CFAFCFDF91CF911F91BE
:1056A0000895833081F028F4813099F08230A1F0A0
:1056B00008958730A9F08830B9F08430D1F4809112
:1056C00080008F7D03C0809180008F778093800061
:1056D000089584B58F7702C084B58F7D84BD089509
:1056E0008091B0008F7703C08091B0008F7D809350
:1056F000B0000895CF93DF9390E0FC01E857FF4F8F
:105700002491FC01E456FF4F8491882349F190E0F5
:10571000880F991FFC01EC53FF4FA591B49186545B
:105720009F4FFC01C591D4919FB7611108C0F894B7
:105730008C91209582238C93888182230AC06230C9
:1057400051F4F8948C91322F309583238C93888177
:10575000822B888304C0F8948C91822B8C939FBFFA
:10576000DF91CF9108950F931F93CF93DF931F92F3
:10577000CDB7DEB7282F30E0F901EC58FF4F849108
:10578000F901E857FF4F1491F901E456FF4F0491D6
:105790000023C9F0882321F069830E94512B69817D
:1057A000E02FF0E0EE0FFF1FE654FF4FA591B491FC
:1057B0009FB7F8948C91611103C01095812301C0AB
:1057C000812B8C939FBF0F90DF91CF911F910F91F1
:1057D0000895CF93DF93282F30E0F901EC58FF4F65
:1057E0008491F901E857FF4FD491F901E456FF4F36
:1057F000C491CC2391F081110E94512BEC2FF0E049
:10580000EE0FFF1FE055FF4FA591B4912C912D2372
:1058100081E090E021F480E002C080E090E0DF9140
:10582000CF9108954F925F926F927F92AF92BF9205
:10583000CF92DF92EF92FF920F931F93CF93DF935C
:10584000CDB7DEB729013A01621B730B840B950BB0
:1058500029893A894B895C892A193B094C095D09D8
:10586000298B3A8B4B8B5C8B9B01AC0169897A89C4
:105870008B899C890E943A31E418F50806091709BA
:10588000A80197010E94A0312A0D3B1D4C1D5D1DF2
:10589000CA01B901DF91CF911F910F91FF90EF9055
:1058A000DF90CF90BF90AF907F906F905F904F90C0
:1058B0000895FC01808191810C94B632CF93DF93DF
:1058C000EC0188819981009711F00E94B63219820B
:1058D00018821D821C821B821A82DF91CF9108954B
:1058E0000F931F93CF93DF93EC018B016F5F7F4F7B
:1058F000888199810E944533009731F0998388838C
:105900001B830A8381E001C080E0DF91CF911F916A
:105910000F910895CF93DF93EC0188819981892BB2
:1059200029F08A819B818617970760F4CE010E9437
:10593000702C882341F08C819D81892B19F4E8819A
:10594000F981108281E0DF91CF910895EF92FF926B
:105950000F931F93CF93DF93EC017B018A01BA0170
:105960000E948A2C811104C0CE010E945E2C07C0C7
:105970001D830C83B701888199810E944834CE0130
:10598000DF91CF911F910F91FF90EF900895FC014F
:1059900011821082138212821582148261157105A0
:1059A00059F0FB0101900020E9F7AF014150510986
:1059B000461B570B0C94A62C0895CF93DF93EC0154
:1059C000FB018617970761F0608171816115710590
:1059D00029F0448155810E94A62C02C00E945E2CB1
:1059E000CE01DF91CF910895FC01118210821382C4
:1059F0001282158214820C94DD2CCF93DF93EC017C
:105A00006115710561F0FB0101900020E9F7AF011C
:105A100041505109461B570B0E94A62C02C00E9400
:105A20005E2CCE01DF91CF910895CF93DF9300D00C
:105A3000CDB7DEB7FC01118210821382128215826B
:105A4000148269831A82BE016F5F7F4F0E94FD2C12
:105A50000F900F90DF91CF9108950F931F93CF93E5
:105A6000DF93CDB7DEB729970FB6F894DEBF0FBE30
:105A7000CDBF8C01862FF801118210821382128211
:105A80001582148250E0BE016F5F7F4F90E00E944C
:105A9000C434BE016F5F7F4FC8010E94FD2C299660
:105AA0000FB6F894DEBF0FBECDBFDF91CF911F912F
:105AB0000F9108950F931F93CF93DF93CDB7DEB768
:105AC00062970FB6F894DEBF0FBECDBF8C01CB013D
:105AD000F80111821082138212821582148250E022
