:100000000C948D000C94B5000C94B5000C94A106D2
:100010000C94A1060C94A1060C94B5000C94B500A8
:100020000C94B5000C94B5000C94B5000C94B5007C
:100030000C94B5000C94B5000C94B5000C94B5006C
:100040000C9432080C94B5000C941F0B0C94510BBB
:100050000C94B5000C94B5000C94B5000C94B5004C
:100060000C94B5000C94B5004E4554574F524B00BC
:100070004C4F4747494E47204F4E20544F000000F9
:100080000008000201000003040700000000000057
:100090000000010204081020408001020408102022
:1000A00001020408102004040404040404040202ED
:1000B0000202020203030303030300000000230003
:1000C0002600290000000000250028002B00000069
:1000D0000000240027002A004E414E494E49545941
:1000E000494E46CDCCCC3D0AD7233C17B7D1387703
:1000F000CC2B329595E6241FB14F0A000020410019
:1001000000C84200401C4620BCBE4CCA1B0E5AAE62
:10011000C59D7400B602810BDB0211241FBECFEF18
:10012000D8E0DEBFCDBF12E0A0E0B1E0EEE6F9E23C
:1001300002C005900D92A834B107D9F723E0A8E4D6
:10014000B2E001C01D92A038B207E1F711E0C8E1AA
:10015000D1E004C02297FE010E948C10C431D10767
:10016000C9F70E94F40E0C94AA140C94000088E4C1
:1001700092E00E94640C8EE492E00E94640C81E79D
:1001800092E00C941B07CF93DF93EA01462F682F70
:1001900089E592E00E94D004BE0189E592E0DF91FA
:1001A000CF910C94250C60E08AE00E947B0968EEF8
:1001B00073E080E090E00E94AB0861E08AE00C947C
:1001C0007B09CF93DF93EC0166E071E081E792E079
:1001D0000E94330C64E670E080E090E00E94AB087F
:1001E00061E171E081E792E00E94400C64E670E01A
:1001F00080E090E00E94AB08C230D10541F0C330EE
:10020000D10541F0219761F46DE271E005C068E429
:1002100071E002C062E671E081E792E00E94330C77
:1002200064E670E080E090E00E94AB086AE181E75C
:1002300092E00E94520C64E670E080E090E00E9440
:10024000AB0881E792E00E943C0C68E873E180E033
:1002500090E0DF91CF910C94AB0866E071E081E70C
:1002600092E00E94330C64E670E080E090E00E942F
:10027000AB0861E171E081E792E00E94400C64E626
:1002800070E080E090E00E94AB0869E871E081E7EF
:1002900092E00E94400C64E670E080E090E00E94F2
:1002A000AB086AE181E792E00E94520C64E670E0DC
:1002B00080E090E00E94AB0881E792E00E943C0C55
:1002C00068E873E180E090E00C94AB080F931F9313
:1002D000CF93DF93CDB7DEB72C970FB6F894DEBF80
:1002E0000FBECDBF61E080E10E94420961E08AE07B
:1002F0000E94420961E081E10E94420961E082E1DD
:100300000E94420961E083E10E94420961E08FE0BE
:100310000E9442090E94D30026E040E855E260E0D6
:1003200070E08DED92E00E94BD0A20E044E064E1BF
:1003300089E592E00E94EA0440E05BE460E070E05E
:1003400081E792E00E94A40789E592E00E94C90437
:1003500040E060E089E592E00E94D00464EA71E048
:1003600089E592E00E94330C41E060E089E592E08B
:100370000E94D0046DEA71E089E592E00E94330C9E
:1003800042E060E089E592E00E94D0046EEB71E00B
:1003900089E592E00E94330C68EB7BE080E090E01E
:1003A0000E94AB0889E592E00E94C90441E063E045
:1003B00089E592E00E94D00460E770E089E592E070
:1003C0000E94020C42E063E089E592E00E94D004C2
:1003D00068E670E089E592E00E94020C16E064E9AC
:1003E00075E080E090E00E94AB086EE289E592E063
:1003F0000E94350C115099F764E975E080E090E0B7
:100400000E94AB0866E071E081E792E00E94330C45
:1004100064E670E080E090E00E94AB0865EC71E07B
:1004200081E792E00E94330C64E670E080E090E0A7
:100430000E94AB0889E592E00E94C9046FEDCE01ED
:1004400007960E94620D68ED71E0CE0101960E9450
:10045000D20CBE01695F7F4FCE0101960E94E50D6F
:1004600060EE71E00E94F80DBC0189E592E00E9407
:10047000250CCE0101960E94640CCE0107960E94C5
:10048000640C01E010E04AE0B801CE0101960E9440
:100490007A0DAE014F5F5F4FB80180E090E00E949F
:1004A000C300CE0101960E94640C0F5F1F4F043001
:1004B000110549F70E942D012C960FB6F894DEBF66
:1004C0000FBECDBFDF91CF911F910F910895813065
:1004D000910519F4439A439808958230910519F4CF
:1004E000449A44980895039711F4459A45980895BD
:1004F0000F931F930E947C080091550210915602A1
:100500002091570230915802601B710B820B930BA4
:10051000683E734081059105F0F08FE00E94B109BB
:1005200061E0892B09F060E08FE00E947B098091F7
:10053000550290915602A0915702B09158028851ED
:100540009C4FAF4FBF4F8093550290935602A0939C
:100550005702B09358021F910F91089561E080E116
:100560000C947B0960E080E10C947B09CF92EF92C0
:100570000F9320E048E069E081E792E00E94740771
:1005800087E0C82E96E0E92E05E024E043E062E033
:1005900089E592E00E94880568E372E08EE492E0CB
:1005A0000E94D20C68E372E088E492E00F91EF9031
:1005B000CF900C94D20C0C94B700CF93DF93CDB7AF
:1005C000DEB762970FB6F894DEBF0FBECDBF8DEDDC
:1005D00092E00E94DA09181619060CF019C18DED87
:1005E00092E00E94F309809354026AE070E080E098
:1005F00090E00E94AB08809154028A3219F568E3BA
:1006000072E08EE492E00E944A0D8091540283329F
:10061000A9F08DED92E00E94F309809354026AE004
:1006200070E080E090E00E94AB0860915402633279
:1006300061F38EE492E00E94D20DE7CF8EE492E067
:100640000E94890E209152023091530243E050E003
:100650006EE472E0CE0101960E94440EBE016F5F0F
:100660007F4F88E492E00E943E0DCE0101960E94E9
:10067000640C88E492E00E94890E6CEE71E088E4DC
:1006800092E00E94120E8111C3C060E070E08EE41F
:1006900092E00E94420E843509F075C0209152020A
:1006A0003091530243E050E06EE472E0CE010D96CB
:1006B0000E94440EBE01635F7F4FCE0107960E94E9
:1006C000350D67EF71E0CE0107960E94F80DBC0171
:1006D000CE0101960E94350D61E070E08EE492E05B
:1006E0000E94420E682F772767FD7095605371094D
:1006F000AE014F5F5F4F82E090E00E94C300CE01E9
:1007000001960E94640CCE0107960E94640CCE01F3
:100710000D960E94640C209152023091530243E0E6
:1007200050E06EE472E0CE0101960E94440ECE01CC
:1007300001960E94E80E20E030E040E252E40E9480
:10074000BA0F1816E4F40E94AE0261E070E08EE485
:1007500092E00E94420E992787FD9095C0970E94D3
:10076000670261E070E08EE492E00E94420E9927F9
:1007700087FD9095C0970E94E1000E947802CE010B
:1007800001960E94640C60E070E08EE492E00E94AA
:10079000420E8734E9F5209152023091530243E032
:1007A00050E06EE472E0CE0101960E94440E61E0DA
:1007B00070E08EE492E00E94420E682F772767FD7A
:1007C000709560537109AE014F5F5F4F8AE090E012
:1007D0000E94C300CE0101960E94640C60EF71E09C
:1007E00088E492E00E94120E811110C06AEF71E05D
:1007F00088E492E00E94120E811108C064E072E069
:1008000088E492E00E94120E882311F10E94AE0249
:1008100080E10E94B109892BF1F061E070E08EE483
:1008200092E00E94420E992787FD9095C0970E9402
:10083000670261E070E08EE492E00E94420E992728
:1008400087FD9095C0970E94E1000E94780203C046
:100850000E94B202DDCF62960FB6F894DEBF0FBEE3
:10086000CDBFDF91CF910895CF93DF93EC0160E08E
:100870008E810E947B0981E090E00E94D30861E0B4
:100880008E810E947B0981E090E00E94D30860E0A5
:100890008E810E947B0984E690E0DF91CF910C94D9
:1008A000D308EF92FF920F931F93CF93DF938C01A6
:1008B000C0E0D0E0E62EF12CB7010C2E02C07595F9
:1008C00067950A94E2F76170F801EC0FFD1F8781CC
:1008D0000E947B092196C430D10571F7C801DF91D0
:1008E000CF911F910F91FF90EF900C943404EF92F1
:1008F000FF920F931F93CF93DF938C01C0E0D0E062
:10090000E62EF12CB7010C2E02C0759567950A945E
:10091000E2F76170F801EC0FFD1F87810E947B09EF
:100920002196C830D10571F7C801DF91CF911F9191
:100930000F91FF90EF900C9434041F93CF93DF93AB
:10094000EC01162F642F8C810E947B098D818F3FD3
:1009500019F060E00E947B098F85612F84FF06C03B
:10096000CE01DF91CF911F910C94770470E084E069
:10097000759567958A95E1F7CE010E945104612F24
:10098000CE01DF91CF911F910C94510440E00C9463
:100990009D0461E00E94C60480ED97E00C94D308AA
:1009A000443008F043E0FC012389421710F04FEF78
:1009B000420FFC01E40FF11D2489260F2068622FED
:1009C0000C94C604FC016089262F2460208B6C6087
:1009D0000C94C6040F931F93CF93DF93EC01423026
:1009E00018F08F8588608F874B8B1C8A80E48D8BF5
:1009F0006E8B70E0605C7F4F6F8B222329F041305B
:100A000019F48F8584608F8761E08C810E94420990
:100A10008D818F3F19F061E00E94420961E08E8173
:100A20000E94420900E010E08F8584FF03C088E047
:100A300090E002C084E090E00817190754F4FE012A
:100A4000E00FF11F61E087810E9442090F5F1F4F95
:100A5000EBCF80E593EC0E94D30860E08C810E948C
:100A60007B0960E08E810E947B098D818F3F19F0A8
:100A700060E00E947B096F8564FD1DC063E0CE01CC
:100A80000E94510484E991E10E94D30863E0CE0101
:100A90000E94510484E991E10E94D30863E0CE01F1
:100AA0000E94510486E990E00E94D30862E0CE01E2
:100AB0000E94510416C06062CE010E94C60484E9FF
:100AC00091E10E94D3086F856062CE010E94C60446
:100AD00086E990E00E94D3086F856062CE010E9493
:100AE000C6046F856062CE010E94C60484E0888BD4
:100AF000CE010E94E204CE010E94C90482E0898BEB
:100B000066E0CE01DF91CF911F910F910C94C60446
:100B1000CF92EF920F93FC011382128282E192E056
:100B20009183808364838FEF858346832783008747
:100B3000E186C2861386148615861686178620E0FF
:100B400041E060E1CF010F91EF90CF900C94EA0467
:100B500041E00E949D0481E090E008952091D2023E
:100B60003091D30228173907B9F4909190028091FF
:100B70009102981789F0E0919002F0E0EE56FD4F57
:100B800080812091900230E02F5F3F4F2F733327F9
:100B90002093900290E008958FEF9FEF08951F93A8
:100BA000CF93DF93DC015C968D919C915D970097CC
:100BB00049F481E090E013969C938E93129780E025
:100BC00090E03BC05196ED91FC91529750962C913C
:100BD0005097322F30951FB75E964C915E9741FB30
:100BE000772770F941FD6095F8944081772311F0E3
:100BF000422B01C043234083EC012197F1F748E0E9
:100C0000508160FF02C0522B01C053235083EC017E
:100C10002197F1F76695415099F78081772311F07C
:100C2000832301C0822B80831FBF5C968D919C9192
:100C30005D970197F1F781E090E0DF91CF911F91EF
:100C400008952091D2023091D3022817390781F4F8
:100C50009091900280919102981751F0E09190024A
:100C6000F0E0EE56FD4F8081992787FD909508951D
:100C70008FEF9FEF08952091D2023091D302281771
:100C8000390771F4809191022091900290E0805C8C
:100C90009F4F821B910960E470E00E94211008952B
:100CA00080E090E008952091D2023091D30228177D
:100CB000390739F48FB7F89410929102109290028C
:100CC0008FBF0895E091D202F091D302E817F9079F
:100CD00069F4A389B4899C918589809589238C9333
:100CE0001092D3021092D20281E0089580E008951C
:100CF000CF93DF93EC018A8D9B8D892BF1F080914E
:100D0000D2029091D3028C179D07B9F0009711F091
:100D10000E9462068E8D8E7F8E8F109291021092AD
:100D20009002D093D302C093D202EB89FC898081D8
:100D30009D89892B808381E001C080E0DF91CF9184
:100D400008951F920F920FB60F9211242F933F9385
:100D50004F935F936F937F938F939F93AF93BF93C3
:100D6000EF93FF93E091D202F091D302309709F410
:100D700051C0868DA685B785958581FF04C08C916D
:100D8000892329F447C08C91892309F043C0A389A2
:100D9000B4899C918589809589238C9386899789CC
:100DA0000197F1F7208D318DA685B785758558E0BF
:100DB00040E0C9010197F1F7842F90E09595879560
:100DC000482F6C91672309F04068515091F7868D48
:100DD00081FD40958091910290E001968F73992753
:100DE00020919002281749F0A0919102B0E0AE56F0
:100DF000BD4F4C938093910203C0868D8160868F96
:100E0000828D938D0197F1F7A389B4898C9195898F
:100E1000892B8C93FF91EF91BF91AF919F918F910F
:100E20007F916F915F914F913F912F910F900FBEE6
:100E30000F901F9018952AE132E0FC013183208346
:100E40000C9462061F93CF93DF93EC01162F6E8DE7
:100E50006695617081E06827812F0E947B0961E0BF
:100E6000812F0E944209812F90E0FC01EE56FF4F36
:100E7000E491E88BFC01EA55FF4FE491F0E0EE0FBE
:100E8000FF1FEC53FF4F859194919A8B898BDF91D3
:100E9000CF911F9108951F93CF93DF93EC01162FED
:100EA00060E0812F0E9442098E8D81FD04C061E0C7
:100EB000812F0E947B091C87812F90E0FC01EE5658
:100EC000FF4FE491ED87FC01EA55FF4FE491F0E01C
:100ED000EE0FFF1FE654FF4F859194919F878E87F9
:100EE000DF91CF911F910895FF920F931F93CF939E
:100EF000DF93EC01F62E522F1B821A8208EE13E0CC
:100F000020E030E00C831D832E833F838AE192E052
:100F1000998388831F8A1E8A198E188E1B8E1A8EBB
:100F20001D8E1C8E8E8D8E7F50FB81F98E8F642FCF
:100F3000CE010E9422076F2DCE01DF91CF911F912C
:100F40000F91FF900C944B07CF93DF93EC019A0124
:100F5000AB011B8E1A8E198E188E1F8A1E8A60E0B6
:100F600079E08DE390E00E945710C90124303105EB
:100F700020F0B9016350710902C061E070E07D8F1B
:100F80006C8FEC85E63108F068C0B90176956795FD
:100F90006431710518F06351710902C061E070E0BD
:100FA0007F8B6E8B069718F0C901059702C081E010
:100FB00090E0998F888FC901880F991F820F931F26
:100FC00096958795969587958D30910510F00C979D
:100FD00002C081E090E09B8F8A8F20916800E8300A
:100FE00050F091E0EE3008F490E081E001C0880F0D
:100FF0009A95EAF701C084E0822B809368002C85E3
:10100000283038F02E3040F0263148F48CE690E05D
:1010100008C08DE690E005C08BE690E002C080E05D
:1010200090E09C8B8B8B283030F481E001C0880FDE
:101030002A95EAF70DC0822F90E02E3010F4089721
:1010400001C00E9791E001C0990F8A95EAF7892FA8
:101050008D8B8C8D9D8D0197F1F7CE01DF91CF9116
:101060000C9478061F920F920FB60F9211242F93B3
:101070003F938F939F93AF93BF938091D5029091AD
:10108000D602A091D702B091D8023091D40223E0C9
:10109000230F2D3720F40196A11DB11D05C026E8B0
:1010A000230F0296A11DB11D2093D4028093D50277
:1010B0009093D602A093D702B093D8028091D90220
:1010C0009091DA02A091DB02B091DC020196A11DA1
:1010D000B11D8093D9029093DA02A093DB02B09302
:1010E000DC02BF91AF919F918F913F912F910F9013
:1010F0000FBE0F901F9018952FB7F8946091D502EE
:101100007091D6028091D7029091D8022FBF089596
:101110003FB7F8948091D9029091DA02A091DB0256
:10112000B091DC0226B5A89B05C02F3F19F00196AF
:10113000A11DB11D3FBF6627782F892F9A2F620FFF
:10114000711D811D911D42E0660F771F881F991F39
:101150004A95D1F70895CF92DF92EF92FF92CF9305
:10116000DF936B017C010E948808EB01C114D1045C
:10117000E104F10489F00E94030F0E9488086C1BAF
:101180007D0B683E734090F381E0C81AD108E108F6
:10119000F108C851DC4FEACFDF91CF91FF90EF907B
:1011A000DF90CF9008958230910538F0880F991F15
:1011B000880F991F05970197F1F70895789484B5E2
:1011C000826084BD84B5816084BD85B5826085BD43
:1011D00085B5816085BDEEE6F0E080818160808329
:1011E000E1E8F0E01082808182608083808181600C
:1011F0008083E0E8F0E0808181608083E1EBF0E0D3
:10120000808184608083E0EBF0E080818160808376
:10121000EAE7F0E08081846080838081826080835F
:101220008081816080838081806880831092C1008A
:101230000895833081F028F4813099F08230A1F054
:1012400008958730A9F08830B9F08430D1F48091C6
:1012500080008F7D03C0809180008F778093800015
:10126000089584B58F7702C084B58F7D84BD0895BD
:101270008091B0008F7703C08091B0008F7D809304
:10128000B0000895CF93DF9390E0FC01EE56FF4F3E
:101290002491FC01EA55FF4F8491882349F190E0A5
:1012A000880F991FFC01E253FF4FA591B4918C5315
:1012B0009F4FFC01C591D4919FB7611108C0F8946C
:1012C0008C91209582238C93888182230AC062307E
:1012D00051F4F8948C91322F309583238C9388812C
:1012E000822B888304C0F8948C91822B8C939FBFAF
:1012F000DF91CF9108950F931F93CF93DF931F92A8
:10130000CDB7DEB7282F30E0F901E258FF4F8491C6
:10131000F901EE56FF4F1491F901EA55FF4F049180
:101320000023C9F0882321F069830E94190969818B
:10133000E02FF0E0EE0FFF1FEC53FF4FA591B491AB
:101340009FB7F8948C91611103C01095812301C05F
:10135000812B8C939FBF0F90DF91CF911F910F91A5
:101360000895CF93DF93282F30E0F901E258FF4F23
:101370008491F901EE56FF4FD491F901EA55FF4FE0
:10138000C491CC2391F081110E941909EC2FF0E057
:10139000EE0FFF1FE654FF4FA591B4912C912D2322
:1013A00081E090E021F480E002C080E090E0DF91F5
:1013B000CF910895FC01818D228D90E0805C9F4F3C
:1013C000821B91098F7399270895FC01918D828D5D
:1013D000981731F0828DE80FF11D858D90E008950A
:1013E0008FEF9FEF0895FC01918D828D981761F02A
:1013F000828DDF01A80FB11D5D968C91928D9F5F4C
:101400009F73928F90E008958FEF9FEF089587E785
:101410009BE0892B49F080E090E0892B29F00E9425
:10142000770B81110C9400000895FC01848DDF017D
:10143000A80FB11DA35ABF4F2C91848D90E0019647
:101440008F739927848FA689B7892C93A089B18936
:101450008C9180648C93938D848D981306C0028840
:10146000F389E02D80818F7D80830895CF93DF9372
:10147000EC01888D8823C9F0EA89FB89808185FD8C
:1014800005C0A889B9898C9186FD0FC00FB607FCED
:10149000F5CF808185FFF2CFA889B9898C9185FF2E
:1014A000EDCFCE010E94150AE7CFDF91CF910895CD
:1014B000CF92DF92FF920F931F93CF93DF931F92F0
:1014C000CDB7DEB76C0181E0D60158968C93589762
:1014D0005B969C915B975C968C915C97981307C088
:1014E0005096ED91FC915197808185FD2EC0F601BB
:1014F000038D10E00F5F1F4F0F731127F02EF601C1
:10150000848DF81211C00FB607FCF9CFD6015096A2
:10151000ED91FC915197808185FFF1CFC6016983E0
:101520000E94150A6981EBCF838DE80FF11DE35A04
:10153000FF4F6083D6015B960C935B975296ED91BB
:10154000FC915397808180620CC0D6015696ED9134
:10155000FC91579760835096ED91FC915197808153
:101560008064808381E090E00F90DF91CF911F91A4
:101570000F91FF90DF90CF900895BF92CF92DF92AE
:10158000EF92FF92CF93DF93EC016A017B01B22EC1
:10159000E889F98982E08083411581EE5807610569
:1015A0007105A1F060E079E08DE390E0A70196017C
:1015B0000E9435102150310941095109569547952E
:1015C00037952795211580E1380798F0E889F98942
:1015D000108260E874E88EE190E0A70196010E9415
:1015E00035102150310941095109569547953795D4
:1015F0002795EC85FD853083EE85FF852083188E49
:10160000EC89FD89B082EA89FB89808180618083D1
:10161000EA89FB89808188608083EA89FB898081EF
:1016200080688083EA89FB8980818F7D8083DF9158
:10163000CF91FF90EF90DF90CF90BF9008951F92D1
:101640000F920FB60F9211242F938F939F93EF93C6
:10165000FF93E091ED02F091EE028081E091F302C0
:10166000F091F40282FD12C090818091F6028F5FAA
:101670008F732091F702821751F0E091F602F0E0AB
:10168000E352FD4F958F8093F60201C08081FF9158
:10169000EF919F918F912F910F900FBE0F901F9000
:1016A00018951F920F920FB60F9211242F933F930C
:1016B0004F935F936F937F938F939F93AF93BF935A
:1016C000EF93FF938DED92E00E94150AFF91EF9149
:1016D000BF91AF919F918F917F916F915F914F914A
:1016E0003F912F910F900FBE0F901F9018958DED89
:1016F00092E00E94DA0921E0892B09F420E0822F90
:1017000008951092E0021092DF0288EE93E0A0E0CC
:10171000B0E08093E1029093E202A093E302B093E1
:10172000E4028AE292E09093DE028093DD0285EC8F
:1017300090E09093EA028093E90284EC90E0909329
:10174000EC028093EB0280EC90E09093EE028093A9
:10175000ED0281EC90E09093F0028093EF0282EC36
:1017600090E09093F2028093F10286EC90E09093E7
:10177000F4028093F3021092F6021092F702109294
:10178000F8021092F9020895CF92DF92EF92FF9241
:101790000F931F93CF93DF937C016A01EB0100E06D
:1017A00010E00C151D0571F06991D701ED91FC91C8
:1017B0000190F081E02DC7010995892B19F00F5F89
:1017C0001F4FEFCFC801DF91CF911F910F91FF9075
:1017D000EF90DF90CF9008956115710581F0DB01E6
:1017E0000D900020E9F7AD0141505109461B570B00
:1017F000DC01ED91FC910280F381E02D099480E001
:1018000090E00895EF92FF920F931F93CF93DF9391
:101810008C017B01C0E0D0E0F701EC0FFD1F64916B
:10182000662359F0F801A081B181ED91FC91C801C6
:101830000995892B11F02196EFCFCE01DF91CF9141
:101840001F910F91FF90EF900895DC01ED91FC91B5
:10185000DB0114964D915C9115976D917C910280FE
:10186000F381E02D09940C94EC0BDC01ED91FC91DB
:101870000190F081E02D099466E372E00C94EC0B8A
:101880000F931F93CF93DF93EC010E94EC0B8C011D
:10189000CE010E943C0C800F911FDF91CF911F91D0
:1018A0000F9108950F931F93CF93DF93EC010E9444
:1018B000350C8C01CE010E943C0C800F911FDF91F2
:1018C000CF911F910F910895FC01808191810C941B
:1018D0002811CF93DF93EC0188819981009711F053
:1018E0000E942811198218821D821C821B821A8272
:1018F000DF91CF9108950F931F93CF93DF93EC0166
:101900008B016F5F7F4F888199810E94B71100978B
:1019100031F0998388831B830A8381E001C080E0D2
:10192000DF91CF911F910F910895CF93DF93EC0139
:1019300088819981892B29F08A819B818617970755
:1019400060F4CE010E947B0C882341F08C819D8144
:10195000892B19F4E881F981108281E0DF91CF9120
:101960000895EF92FF920F931F93CF93DF93EC01B3
:101970007B018A01BA010E94950C811104C0CE013D
:101980000E94690C07C01D830C83B701888199816F
:101990000E949F12CE01DF91CF911F910F91FF9076
:1019A000EF900895FC011182108213821282158239
:1019B00014826115710559F0FB0101900020E9F7CF
:1019C000AF0141505109461B570B0C94B10C0895BF
:1019D0000F931F93CF93DF938C01EB01FC01808168
:1019E0009181009799F0428153812C813D8142176A
:1019F000530750F0688179810E949F128C819D81EC
:101A0000F8019583848313C00E94281188819981ED
:101A1000F801918380838A819B81938382838C8167
:101A20009D8195838483198218821B821A821D826C
:101A30001C82DF91CF911F910F910895CF93DF9377
:101A4000EC01FB018617970761F0608171816115D8
:101A5000710529F0448155810E94B10C02C00E9499
:101A6000690CCE01DF91CF910895FC0111821082A3
:101A700013821282158214820C941E0DCF93DF9371
:101A8000EC018617970711F00E94E80CCE01DF9158
:101A9000CF910895CF93DF93EC016115710561F04B
:101AA000FB0101900020E9F7AF0141505109461BAD
:101AB000570B0E94B10C02C00E94690CCE01DF914D
:101AC000CF910895CF93DF9300D0CDB7DEB7FC015F
:101AD00011821082138212821582148269831A8203
:101AE000BE016F5F7F4F0E944A0D0F900F90DF91F4
:101AF000CF9108950F931F93CF93DF93CDB7DEB7A8
:101B000061970FB6F894DEBF0FBECDBF8C01CB013D
:101B1000F80111821082138212821582148250E021
:101B2000BE016F5F7F4F0E94A612BE016F5F7F4FA5
:101B3000C8010E944A0D61960FB6F894DEBF0FBE31
:101B4000CDBFDF91CF911F910F910895EF92FF923A
:101B50000F931F93CF93DF93EC017B010C811D81C9
:101B60006115710511F480E016C04115510591F021
:101B7000040F151FB8010E94950C8823A1F328813A
:101B800039818C819D81B701820F931F0E949F1222
:101B90001D830C8381E0DF91CF911F910F91FF9006
:101BA000EF900895CF93DF9300D0CDB7DEB7698370
:101BB0001A8241E050E0BE016F5F7F4F0E94A60D88
:101BC0000F900F90DF91CF910895CF93DF93EC01A9
:101BD000FB0144815581608171810E94A60D8111B4
:101BE00003C0CE010E94690CCE01DF91CF91089510
:101BF000CF93DF93EC016115710569F0FB01019052
:101C00000020E9F7AF0141505109461B570B0E94D4
:101C1000A60D811103C0CE010E94690CCE01DF9197
:101C2000CF910895FC0124813581232B31F421E0EB
:101C300061157105A1F0FB0108C0FC018081918153
:101C40006115710531F421E0FC018081882339F0B0
:101C500005C00E94961221E0892B09F020E0822F16
:101C60000895FC01248135816217730748F480814F
:101C70009181009729F0FC01E60FF71F80810895FC
:101C800080E008950C94310EBF92CF92DF92EF92D4
:101C9000FF920F931F93CF93DF936C017B01EA01B7
:101CA00089012417350720F48D2FE901042F182FFF
:101CB00068E372E0C6010E94D20CD70114968D91A0
:101CC0009C911597C817D907C8F48017910708F495
:101CD0008C01D701ED91FC911197E00FF11FB080BD
:101CE00010826D917C916C0F7D1FC6010E944A0D80
:101CF000D701ED91FC91E00FF11FB082C601DF9199
:101D0000CF911F910F91FF90EF90DF90CF90BF90F8
:101D10000895AF92BF92CF92DF92EF92FF920F930E
:101D20001F93CF93DF937C01DC01CD90DC90119762
:101D3000C114D10409F441C01496CD91DC911597DA
:101D40002097D9F156018501BFEFAB1ABB0AF80104
:101D50008081992787FD90950E948512892B99F79C
:101D60002197CC0DDD1D8881992787FD90950E94D4
:101D70008512892B91F4AE014F5F5F4F401B510BD1
:101D8000D70115965C934E931497C016D10650F464
:101D9000B801C6010E948D1205C0C017D10758F3C3
:101DA0002197E1CFD701ED91FC91119714968D9178
:101DB0009C911597E80FF91F1082DF91CF911F9129
:101DC0000F91FF90EF90DF90CF90BF90AF9008956C
:101DD000FC0180819181009711F00C94811260E0E8
:101DE00070E0CB01089508950E94DE080E94F30E72
:101DF0000E946601C7E0DAE00E94DD022097E1F36D
:101E00000E94070AF9CF089540D008F481E00895B0
:101E1000E89409C097FB3EF4909580957095619584
:101E20007F4F8F4F9F4F9923A9F0F92F96E9BB273A
:101E30009395F695879577956795B795F111F8CFB6
:101E4000FAF4BB0F11F460FF1BC06F5F7F4F8F4F21
:101E50009F4F16C0882311F096E911C0772321F017
:101E60009EE8872F762F05C0662371F096E8862FAF
:101E700070E060E02AF09A95660F771F881FDAF706
:101E8000880F9695879597F90895990F0008550F33
:101E9000AA0BE0E8FEEF16161706E807F907C0F0F0
:101EA00012161306E407F50798F0621B730B840BF8
:101EB000950B39F40A2661F0232B242B252B21F4D2
:101EC00008950A2609F4A140A6958FEF811D811D72
:101ED000089597F99F6780E870E060E008959FEFAC
:101EE00080EC089500240A941616170618060906B1
:101EF000089500240A941216130614060506089580
:101F0000092E0394000C11F4882352F0BB0F40F407
:101F1000BF2B11F460FF04C06F5F7F4F8F4F9F4F47
:101F2000089557FD9058440F551F59F05F3F71F0C9
:101F30004795880F97FB991F61F09F3F79F0879530
:101F40000895121613061406551FF2CF4695F1DFB9
:101F500008C0161617061806991FF1CF8695710549
:101F6000610508940895E894BB2766277727CB017D
:101F700097F908958ADF08F48FEF08950BD0C0CF4A
:101F8000B1DF28F0B6DF18F0952309F0A2CFA7CF74
:101F90001124EACFC6DFA0F3959FD1F3950F50E04F
:101FA000551F629FF001729FBB27F00DB11D639F0B
:101FB000AA27F00DB11DAA1F649F6627B00DA11DB1
:101FC000661F829F2227B00DA11D621F739FB00D57
:101FD000A11D621F839FA00D611D221F749F3327C7
:101FE000A00D611D231F849F600D211D822F762F60
:101FF0006A2F11249F5750408AF0E1F088234AF05D
:10200000EE0FFF1FBB1F661F771F881F91505040A8
:10201000A9F79E3F510570F05CCFA6CF5F3FECF370
:10202000983EDCF3869577956795B795F795E79594
:102030009F5FC1F7FE2B880F911D9695879597F9A5
:10204000089597FB072E16F4009407D077FD09D06A
:102050000E94761007FC05D03EF4909581959F4F25
:102060000895709561957F4F0895A1E21A2EAA1BDD
:10207000BB1BFD010DC0AA1FBB1FEE1FFF1FA21738
:10208000B307E407F50720F0A21BB30BE40BF50B35
:10209000661F771F881F991F1A9469F760957095BE
:1020A000809590959B01AC01BD01CF010895052E4F
:1020B00097FB1EF400940E946E1057FD07D00E94FB
:1020C000351007FC03D04EF40C946E1050954095DB
:1020D000309521953F4F4F4F5F4F089590958095D4
:1020E000709561957F4F8F4F9F4F0895AA1BBB1B23
:1020F00051E107C0AA1FBB1FA617B70710F0A61B08
:10210000B70B881F991F5A95A9F780959095BC0128
:10211000CD010895EE0FFF1F0590F491E02D099475
:10212000CF93DF938230910510F482E090E0E0914C
:102130007C03F0917D0320E030E0A0E0B0E0309738
:1021400039F14081518148175907B8F048175907AC
:1021500071F482819381109729F013969C938E934A
:1021600012972CC090937D0380937C0327C0211588
:10217000310531F04217530718F0A901DB0101C006
:10218000EF019A01BD01DF010280F381E02DD7CF7D
:1021900021153105F9F0281B390B2430310580F465
:1021A0008A819B816115710521F0FB0193838283F4
:1021B00004C090937D0380937C03FE01329644C05B
:1021C000FE01E20FF31F819391932250310939836D
:1021D00028833AC020917A0330917B03232B41F46A
:1021E000209102013091030130937B0320937A0305
:1021F00020910001309101012115310541F42DB7E5
:102200003EB74091040150910501241B350BE0912C
:102210007A03F0917B03E217F307A0F42E1B3F0B28
:102220002817390778F0AC014E5F5F4F2417350748
:1022300048F04E0F5F1F50937B0340937A038193C6
:10224000919302C0E0E0F0E0CF01DF91CF910895DB
:10225000CF93DF93009709F487C0FC013297138274
:102260001282C0917C03D0917D03209781F420815C
:102270003181280F391F80917A0390917B03821757
:10228000930779F5F0937B03E0937A036DC0DE0149
:1022900020E030E0AE17BF0750F412964D915C91EC
:1022A00013979D014115510509F1DA01F3CFB3836D
:1022B000A28340815181840F951F8A179B0771F477
:1022C0008D919C911197840F951F02969183808325
:1022D00012968D919C9113979383828321153105DA
:1022E00029F4F0937D03E0937C033EC0D90113965B
:1022F000FC93EE9312974D915D91A40FB51FEA17D1
:10230000FB0779F480819181840F951F0296D90192
:1023100011969C938E938281938113969C938E93B6
:102320001297E0E0F0E08A819B81009719F0FE01AE
:10233000EC01F9CFCE01029628813981820F931FDB
:1023400020917A0330917B032817390769F430977D
:1023500029F410927D0310927C0302C01382128232
:10236000D0937B03C0937A03DF91CF910895A0E0CF
:10237000B0E0EDEBF1E10C946814EC01CB01209797
:1023800019F40E949010B8C0FE01E60FF71F9E01DD
:1023900022503109E217F30708F4ACC0D9010D91BE
:1023A0001C91119706171707B8F00530110508F4AE
:1023B0009FC0A801445051094617570708F498C018
:1023C00002501109061B170B019311936D937C9317
:1023D000CF010E9428118CC05B01A01AB10A4E01E6
:1023E000800E911EA0917C03B0917D03612C712C15
:1023F00060E070E0109709F449C0A815B905C9F567
:10240000ED90FC901197670142E0C40ED11CCA14F4
:10241000DB0478F147018A189B08640142E0C40E8E
:10242000D11C1296BC9012971396AC91B5E0CB16C6
:10243000D10440F0B282A38391828082D9018D932E
:102440009C9309C00E5F1F4F0E0D1F1DF9011183D4
:102450000083EB2DFA2F6115710531F0DB01139626
:10246000FC93EE93129744C0F0937D03E0937C03BA
:102470003FC06D917C9111976616770608F43B0179
:10248000BD0112960D90BC91A02DB4CF60917A033E
:1024900070917B0368157905E9F468167906D0F424
:1024A00040910001509101014115510541F44DB792
:1024B0005EB76091040170910501461B570BE4174C
:1024C000F507C0F4F0937B03E0937A03F90191835D
:1024D00080830EC00E9490107C01009759F0A801E3
:1024E000BE010E948D12CE010E942811C70104C0B6
:1024F000CE0102C080E090E0CDB7DEB7EEE00C94F4
:102500008414662777270C94CB129111A7C18032CF
:1025100019F089508550D0F70895FB01DC0102C005
:1025200001900D9241505040D8F70895FB01DC0115
:102530008D91019080190110D9F3990B0895FB0139
:10254000DC0101900D920020E1F70895453251051C
:1025500020F4423010F00C94B112FB011082CB0138
:102560000895BB27FB015527AA27880F991FAA1F8B
:10257000A41710F0A41B83955051B9F7A05DAA339E
:1025800008F0A95DA193009779F7B111B193119269
:10259000CB010C944914A0E0B0E0E1EDF2E10C9421
:1025A0006A148B016115710521F0DB018C93119682
:1025B0009C93EC015E01BFEFAB1ABB0A7501C880AA
:1025C0008C2D90E00E948512892B11F0E501F2CF4D
:1025D000EDE2CE1208C07E01F2E0EF0EF11CC980E0
:1025E000DD24D39409C02BE2C21205C07E0142E073
:1025F000E40EF11CC980D12CE701219743E050E0A3
:1026000060EE70E0CE010E943114892BC1F4239654
:1026100045E050E06BED70E0CE010E943114892B53
:1026200009F425960115110519F0D801CD93DC9315
:10263000D11006C160E070E080E89FE70AC143E086
:1026400050E068ED70E0CE010E943114892B59F4FE
:102650000115110509F4F9C0B2E0EB0EF11CF80107
:10266000F182E082F2C0F70160E070E0CB01C0E0EF
:10267000D0E07F01A0EDAA2EAC0C29E02A1530F1A4
:102680004D2D4260B42E2D2D2870D2FE04C0211194
:1026900025C0219623C021112197A5E0B0E09B0120
:1026A000AC010E945914660F771F881F991F6A0D8D
:1026B000711D811D911D6839A9E97A078A07A9E171
:1026C0009A0760F0BD2DB660BB2E08C02EEFA21297
:1026D0000AC0D3FC50C04D2D4860B42E3196D701AE
:1026E000CC90DB2CC6CF2C2D2F7D253409F043C098
:1026F000A081AD3241F4BD2DB061DB2E7F0122E01F
:10270000E20EF11C0CC07F01AB3231F04FEFE41A46
:10271000F40A21E030E006C0A2E0EA0EF11CA1813B
:1027200022E030E0A053AA3018F0E21AF30A23C0E6
:10273000F70120E030E02038BCE03B075CF4A90161
:10274000440F551F440F551F240F351F220F331FF1
:102750002A0F311DAF014F5F5F4F7A01A081A05357
:10276000AA3010F4FA01E7CFD4FE03C031952195C9
:102770003109C20FD31FD1FE09C00115110531F077
:10278000E1E0EE1AF108D801ED92FC920E94080FE8
:102790002D2D2370233019F04B015C0106C04B0135
:1027A0005C01B7FAB094B7F8B09420E030E0A9012A
:1027B000C501B4010E94040F882309F43EC0D7FF6D
:1027C00006C0D195C195D10907EF10E002C00FE016
:1027D00011E06801B8E1CB1AD10890E2E92EF12CA2
:1027E000CE15DF0574F0F80125913591459154918E
:1027F000C501B4010E94BE0F4B015C01CE19DF0977
:10280000EFCF04501109F594E7940C151D0541F71D
:102810008A2D880F8B2D881F8F3F49F020E030E0F4
:10282000A901C501B4010E94040F811106C082E212
:1028300090E090937F0380937E03C501B40109C0AB
:1028400060E070E080E89FEF04C060E070E080EC42
:102850009FE7CDB7DEB7ECE00C9486149927882764
:102860000895FB01DC014150504088F08D91813486
:102870001CF08B350CF4805E659161341CF06B3577
:102880000CF4605E861B611171F3990B0895881B2F
:10289000FCCFDC01FC01672F71917723E1F73297C0
:1028A00004C07C916D9370836291AE17BF07C8F32B
:1028B00008950E949B14A59F900DB49F900DA49F16
:1028C000800D911D112408952F923F924F925F9297
:1028D0006F927F928F929F92AF92BF92CF92DF9230
:1028E000EF92FF920F931F93CF93DF93CDB7DEB795
:1028F000CA1BDB0B0FB6F894DEBF0FBECDBF099429
:102900002A88398848885F846E847D848C849B847F
:10291000AA84B984C884DF80EE80FD800C811B818D
:10292000AA81B981CE0FD11D0FB6F894DEBF0FBEBC
:10293000CDBFED010895A29FB001B39FC001A39F39
:10294000700D811D1124911DB29F700D811D1124E8
:10295000911D089511E0C8E1D1E004C0FE010E947C
:0E2960008C102296CA31D107C9F7F894FFCF28
:10296E0000008003800041542B434D47463D310DFE
:10297E00004154202B20434D4753203D20222B3223
:10298E0033333236363835343034372200466972B6
:10299E006520646574656374656420696E20726F6A
:1029AE006F6D2031212121004761732064657465AC
:1029BE006374656420696E20726F6F6D2032212101
:1029CE002100486967682074656D70657261747561
:1029DE00726520646574656374656420696E207227
:1029EE006F6F6D20332121210073797374656D2013
:1029FE007374617274656420737563636573667551
:102A0E006C6C7900574952454C45535300534D4118
:102A1E005254204649524520414C41524D00535983
:102A2E005354454D0041542B434E4D493D322C32AB
:102A3E002C302C302C300D002054454D502E2800BB
:102A4E004329202053544154555320004E414E00EB
:102A5E0046697265212121202000476173202020C4
:102A6E0021212100486967682074656D700000009F
:102A7E000000A805C40B00000000CF05C40B3B06E8
:102A8E00AE052106530600000000580AC40BDA09F1
:102A9E00F309E509360A0D0A006E616E00696E666D
:082AAE00006F7666002E0000A7
:00000001FF
