:100000000C9484000C94AC000C94AC000C94AC00E8
:100010000C94AC000C94AC000C94AC000C94AC00B0
:100020000C94AC000C94AC000C94AC000C94AC00A0
:100030000C94AC000C94AC000C94AC000C94AC0090
:100040000C94800C0C94AC000C94F30D0C94250EC5
:100050000C94AC000C94AC000C94AC000C94AC0070
:100060000C946F030C94AC00110B280B280B250B80
:10007000280B0F0B280B280B280B030B280B280B26
:10008000180B230B210B280B280B280B1F0B4D6182
:100090007220203820323031370031303A34303A53
:1000A0003233001F1C1F1E1F1E1F1F1E1F1E1F007E
:1000B0000000080002010000030407000000000027
:1000C0000000000102040810204080010204081012
:1000D000200102040810200404040404040404029F
:1000E00002020202020303030303030000000025CF
:1000F0000028002B0000000000240027002A000038
:100100002E018502550E5A0111241FBECFEFD8E0F3
:10011000DEBFCDBF11E0A0E0B1E0EEE9F6E202C043
:1001200005900D92A435B107D9F723E0A4E5B1E01D
:1001300001C01D92AE31B207E1F711E0C6E0D1E097
:1001400004C02297FE010E94DB10C030D107C9F71E
:100150000E94710F0C9442130C940000CF93DF9314
:1001600000D000D000D0CDB7DEB784EB91E00E9484
:10017000F5018CE591E00E94560B46E051E064E009
:1001800070E08DE591E00E94A6068DE591E00E9469
:100190009C048CE591E00E94CC0B811112C06EE0B2
:1001A00071E08DE792E00E94DA0E4AE950E06EE8D5
:1001B00070E0CE0101960E94D50ACE0101960E9400
:1001C0005C0B26960FB6F894DEBF0FBECDBFDF9155
:1001D000CF910895CF93DF9300D000D000D0CDB75A
:1001E000DEB7CE0101960E94F50B86E0FE01319646
:1001F000A6E5B1E001900D928A95E1F7E6E5F1E020
:1002000084812AE0622F0E946410582F492F858133
:100210000E94641028EE33E0529FB001539F700D8E
:10022000112424E6429F600D711D11242AE0829F53
:10023000600D711D1124690F711D7093550160933C
:1002400054018DE591E00E94620A26960FB6F8945B
:10025000DEBF0FBECDBFDF91CF910895AF92BF92A9
:10026000CF92DF92EF92FF920F931F9388E0A82E18
:10027000B12C97E0C92ED12C26E0E22EF12C05E01E
:1002800010E024E030E043E050E062E070E08DE513
:1002900091E00E94F90440E050E0BA0186E591E067
:1002A0001F910F91FF90EF90DF90CF90BF90AF9094
:1002B0000C94770A8EEA91E00C94EC0E8091E401A4
:1002C00090E02091E501821B910908952091E501BC
:1002D0008091E401281750F4E22FF0E0EA51FE4F3C
:1002E000808190E02F5F2093E50108958FEF9FEFCD
:1002F0000895E091E5018091E401E81730F4F0E021
:10030000EA51FE4F808190E008958FEF9FEF0895AE
:100310000895CF92DF92EF92FF920F931F93CF93A6
:10032000DF937C01CB018A012091C001222389F057
:10033000EB016B01C40ED51ECC15DD0569F069918A
:10034000D701ED91FC910190F081E02DC701099555
:10035000F3CF642F0E944603C801DF91CF911F9114
:100360000F91FF90EF90DF90CF900895CF93DF93A0
:100370001F92CDB7DEB769832091C0012223D1F04F
:100380002091C101203240F021E030E0FC013383B4
:10039000228380E090E015C08091C201E82FF0E058
:1003A000ED53FE4F998190838F5F8093C2018093BC
:1003B000C10105C061E0CE0101960E94460381E0C3
:1003C00090E00F90DF91CF910895FC01138212828B
:1003D00048EE53E060E070E04483558366837783A2
:1003E00086E291E09183808308951092E501109256
:1003F000E4011092C2011092C1010C94890281E0C3
:100400008093C0016093E3011092C2011092C10178
:1004100008950C94FF010F93062F21E04091C10134
:1004200063EC71E08091E3010E94EF021092C2013F
:100430001092C1011092C0010F9108958F929F9266
:10044000AF92BF92CF92DF92EF92FF920F931F93E2
:10045000CF93DF93EC01F62ED42E48015901EE2004
:1004600019F10E94FF011E2D143008F013E0115005
:10047000B8F0E881F98128E0129FB0011124A501AC
:10048000940104C056954795379527956A95D2F7FC
:10049000CA01B9010190F081E02DCE010995E7CFA5
:1004A00060E0CE010E940B024D2D413208F040E287
:1004B0002C2D66EE71E08F2D0E94A7021092E501AF
:1004C0008093E401DF91CF911F910F91FF90EF9006
:1004D000DF90CF90BF90AF909F908F900895CF9274
:1004E000EF920F931F93C22EE12C00E010E09801D1
:1004F0000E941E021F910F91EF90CF90089521E06E
:100500000C946F0261E00C940B0284EB91E00C946C
:10051000E5011092730281E08093710210927002E3
:1005200061E082E10E94BD0D61E083E10E94BD0DAA
:10053000E9EBF0E080818E7F808380818D7F8083F6
:1005400088E48093B80085E48093BC00089541322C
:1005500008F043C0909173029111FCCF91E0909309
:100560007302209371022FEF2093060210924B0228
:10057000240F20934A029093720290917202880F86
:10058000892B8093720280917002813061F4109205
:100590007002809172028093BB008091BC0083FD49
:1005A000F8CF85EC01C085EE8093BC00809173028A
:1005B0008130E1F380914B02841710F440914B029B
:1005C0002CE432E0FB01D9018A2F821B841718F436
:1005D0008D918193F9CF842F089580E008950F9332
:1005E000413208F04AC0909173029111FCCF92E021
:1005F00090937302009371029FEF90930602109202
:100600004B0240934A02FB016CE472E0DB019A2F3B
:10061000961B941718F491919D93F9CF1092720242
:1006200090917202880F892B8093720280917002E0
:10063000813061F410927002809172028093BB004D
:100640008091BC0083FDF8CF85EC01C085EE8093DE
:10065000BC00222321F0809173028230E1F380916B
:1006600006028F3F61F080910602803251F0809146
:100670000602803341F483E007C081E005C080E0DA
:1006800003C082E001C084E00F910895613298F4C4
:1006900020917302243089F460932802FC018AE2DD
:1006A00092E0DC012A2F281B261718F421912D93A4
:1006B000F9CF80E0089581E0089582E0089585ED06
:1006C0008093BC008091BC0084FDFCCF109273022B
:1006D000089585EC8093BC001092730208951F92D8
:1006E0000F920FB60F9211242F933F934F935F9366
:1006F0006F937F938F939F93AF93BF93EF93FF93EA
:100700008091B900887F803609F49EC078F58832E0
:1007100009F45DC090F4803109F456C038F48823A0
:1007200009F4F5C0883009F44FC0F5C0883109F4E8
:100730004EC0803209F45FC0EEC0803409F46AC054
:1007400058F4803309F457C0883309F0E4C080932B
:1007500006020E946903DFC0803509F44FC0883566
:1007600009F45DC0883409F0D6C0D3C0883909F4D3
:10077000C4C0A8F4883709F467C038F4883609F48F
:1007800063C0803709F460C0C6C0883809F4B5C0BA
:10079000803909F45FC0803809F0BDC05BC0803B80
:1007A00009F483C038F4803A09F466C0883A09F441
:1007B0007CC0B1C0803C09F4A4C0883C09F4A1C04D
:1007C000883B09F487C0A7C08091720210C0909145
:1007D0004B0280914A02981770F5E0914B0281E03C
:1007E0008E0F80934B02F0E0E45BFD4F808180939D
:1007F000BB0085EC83C0809306028BC0E0914B0266
:1008000081E08E0F80934B028091BB00F0E0E45BAF
:10081000FD4F808390914B0280914A026BC0E09122
:100820004B0281E08E0F80934B028091BB00F0E081
:10083000E45BFD4F80838091710281116AC081E089
:100840008093700284EA5EC083E08093730210920A
:100850000702CFCF80910702803208F04EC0E091AE
:10086000070281E08E0F809307028091BB00F0E0C9
:10087000E85FFD4F8083BDCF0E946903809107022E
:10088000803230F4E0910702F0E0E85FFD4F108223
:100890006091070270E0E0916C02F0916D0288E0D7
:1008A00092E009951092070236C084E080937302AB
:1008B0001092290210922802E0916E02F0916F02CC
:1008C000099580912802811105C081E0809328025A
:1008D00010922A02E091290281E08E0F8093290272
:1008E000F0E0E65DFD4F80818093BB00909129028E
:1008F00080912802981708F47CCF85E88093BC008B
:100900000AC085EC8093BC001092730204C0109260
:1009100006020E945F03FF91EF91BF91AF919F91FB
:100920008F917F916F915F914F913F912F910F9098
:100930000FBE0F901F901895FC0117A616A681E018
:1009400090E091AB80AB93AB82AB15AA14AA08954B
:100950000F931F93CF93DF93EC0100E010E08E8D97
:100960009F8D0817190774F4C801880F991FEC8D23
:10097000FD8DE80FF91F68A980810E94BD0D0F5FF2
:100980001F4FEDCF6CA988810E94BD0D6CA98A8193
:100990000E94BD0D6CA98C810E94BD0D6CA98E8139
:1009A0000E94BD0D6CA988850E94BD0D6CA98A8529
:1009B0000E94BD0D6CA98C850E94BD0D8E859F8502
:1009C0008F3F2FEF920719F06CA90E94BD0D8A8D01
:1009D0009B8D8F3F2FEF920739F068A9DF91CF9160
:1009E0001F910F910C94BD0DDF91CF911F910F912D
:1009F00008952F923F924F925F926F927F928F92C3
:100A00009F92AF92BF92CF92DF92EF92FF920F939D
:100A10001F93CF93DF93EC01962E872E3A01190195
:100A200064E371E08F5A9F4F0E945A0F442443940D
:100A3000512C5FA64EA619AA18AA1BAA1AAA5DAA2B
:100A40004CAA988289827B826A823D822C821F8393
:100A50000E83F986E886DB86CA86BD86AC860FEFF4
:100A60001FEF1F870E8761E0892D0E94840D61E0D2
:100A70008A810E94840D61E08C810E94840D61E076
:100A80008E810E94840D61E088850E94840D61E062
:100A90008A850E94840D61E08C850E94840D1F8EE2
:100AA0001E8E8CA99DA9998B888B9B8B8A8B1D8B05
:100AB0000C8B1F8B0E8B198F088F1B8F0A8F18A220
:100AC00019A21AA21BA21CA21DA21EA21FA218A636
:100AD00019A61AA61BA684E690E09DA78CA71FAABC
:100AE0001EAA59AE48AE1BAF0AAF1CAE1DAE1EAE5D
:100AF0001FAEFE01E05CFF4F108211821282138252
:100B000034961082118212821382349610821182DE
:100B100012821382349611821082329611821082D0
:100B2000329680E28083CE01DF91CF911F910F91A9
:100B3000FF90EF90DF90CF90BF90AF909F908F90FD
:100B40007F906F905F904F903F902F900C94A804EF
:100B50008F929F92AF92BF92CF92DF92EF92FF92CD
:100B6000CF93DF934A015B01FC01C68DD78DE1E095
:100B7000F0E0C12CD12C7601C394AAE0B0E0A7012B
:100B800096010E94EE10EC17FD0724F46B017C0126
:100B90003196F3CF61507109810991096815790582
:100BA0008A059B057CF061E070E080E090E06C19C4
:100BB0007D098E099F0986169706A806B90614F0C6
:100BC000C501B401DF91CF91FF90EF90DF90CF90FE
:100BD000BF90AF909F908F9008952F923F924F9229
:100BE0005F926F927F928F929F92AF92BF92CF92BD
:100BF000DF92EF92FF920F931F93CF93DF93EC015D
:100C0000C8A0D9A0EAA0FBA0ACA5BDA5A7019601EC
:100C10000E94F91024E630E040E050E00E94BA1053
:100C20002CA33DA34EA35FA3C21AD30AE40AF50A7C
:100C3000C8A6D9A6EAA6FBA68AAD9BAD019609F483
:100C40004AC0F8948CA09DA0AEA0BFA08E01005C0D
:100C50001F4F60E1462E512C612C712CC501B4014F
:100C6000A30192010E94BA10215031094109510992
:100C7000F8012083318342835383C8A4D9A4EAA412
:100C8000FBA41E01F4E42F0E311CC701B601A30121
:100C900092010E94BA102150310941095109F10114
:100CA000208331834283538389288A288B2829F41F
:100CB000F8011082118212821382CD28CE28CF280B
:100CC00029F4F10110821182128213821CAE1DAE32
:100CD0001EAE1FAE7894DF91CF911F910F91FF90C0
:100CE000EF90DF90CF90BF90AF909F908F907F90CC
:100CF0006F905F904F903F902F900895CF93DF9328
:100D0000EC019B01442737FD4095542F60E472E4C9
:100D10008FE090E00E94BA10CA01B9012E8D3F8D7C
:100D20004A8D5B8D4F3F5F4F11F02F5F3F4F442740
:100D300037FD4095542F0E94BA1028A339A34AA327
:100D40005BA3CE01DF91CF910C94ED050F931F9320
:100D5000CF93DF93EC015D8F4C8F7F8F6E8F00E020
:100D600010E08E8D9F8D0817190774F4C801880F45
:100D7000991FEC8DFD8DE80FF91F61E080810E94C5
:100D8000840D0F5F1F4FEDCFCE010E94A80464E6D3
:100D900070E0CE01DF91CF911F910F910C947E06F0
:100DA0000F931F93CF93DF93EC018B010E94A80454
:100DB000000F111FEC8DFD8DE00FF11F6EA58081DE
:100DC000DF91CF911F910F910C94BD0DFC0162A991
:100DD00086850C94BD0DFC0164A986850C94BD0D1F
:100DE0000F931F93CF93DF93EC018B016CA9888144
:100DF0000E94BD0D6CA98A810E94BD0D6CA98C81D9
:100E00000E94BD0D6CA98E810E94BD0D6CA98885C4
:100E10000E94BD0D6CA98A850E94BD0D6CA98C85B0
:100E20000E94BD0D0130110539F46AA98A810E9422
:100E3000BD0D6AA98C8115C002301105A9F46AA9FB
:100E400088810E94BD0D6AA98A810E94BD0D6AA990
:100E50008C850E94BD0D6AA988850E94BD0D6AA976
:100E60008E810E94BD0D44C003301105A9F46AA90A
:100E700088810E94BD0D6AA98A810E94BD0D6AA960
:100E80008C850E94BD0D6AA98C810E94BD0D6AA946
:100E90008E810E94BD0D42C00430110589F46AA9FB
:100EA0008A850E94BD0D6AA98C850E94BD0D6AA924
:100EB0008A810E94BD0D6AA98C810E94BD0D5AC015
:100EC00005301105A9F46AA988810E94BD0D6AA99F
:100ED0008A850E94BD0D6AA98C850E94BD0D6AA9F4
:100EE0008C810E94BD0D6AA98E810E94BD0D5CC0DF
:100EF0000630110599F46AA988810E94BD0D6AA97E
:100F00008A850E94BD0D6AA988850E94BD0D6AA9C7
:100F10008E810E94BD0D6AA98C8127C00730110502
:100F200059F46AA988810E94BD0D6AA98A810E942C
:100F3000BD0D6AA98C8150C008301105D9F46AA989
:100F400088810E94BD0D6AA98A810E94BD0D6AA98F
:100F50008C810E94BD0D6AA98E810E94BD0D6AA977
:100F600088850E94BD0D6AA98A850E94BD0D6AA967
:100F70008C8532C009301105B9F46AA98C850E94AC
:100F8000BD0D6AA98A850E94BD0D6AA988810E944B
:100F9000BD0D6AA98A810E94BD0D6AA98C810E943B
:100FA000BD0D6AA98E8118C0012BE1F46AA9888160
:100FB0000E94BD0D6AA98A810E94BD0D6AA98C811B
:100FC0000E94BD0D6AA98E810E94BD0D6AA9888507
:100FD0000E94BD0D6AA98A85DF91CF911F910F9163
:100FE0000C94BD0DDF91CF911F910F9108951F9328
:100FF000CF93DF93EC01162F6CA988810E94BD0D61
:101000006CA98A810E94BD0D6CA98C810E94BD0DC6
:101010006CA98E810E94BD0D6CA988850E94BD0DB2
:101020006CA98A850E94BD0D6CA98C850E94BD0D9E
:101030001D3271F0183F81F46AA988810E94BD0DAC
:101040006AA98A810E94BD0D6AA98A850E94BD0D88
:101050006AA98C850E94BD0D80ED810F8A3048F40D
:10106000612F772767FD709560537109CE010E944B
:10107000F0068FE9810F8A3108F41052113429F4F7
:101080006AA988810E94BD0D3CC0123419F46AA976
:101090008C8116C0133419F46AA9888198C014345D
:1010A00059F46AA98A810E94BD0D6AA98C810E94A7
:1010B000BD0D6AA98E8140C0153429F46AA98881C2
:1010C0000E94BD0D6DC0163419F46AA988816AC0EA
:1010D000173419F46AA9888176C0183491F019344C
:1010E00009F47BC01A3459F46AA98A810E94BD0DA3
:1010F0006AA98C810E94BD0D6AA98E8114C01B341F
:1011000039F46AA98A810E94BD0D6AA98C814AC0FE
:101110001C3409F45EC01D3459F46AA988810E9408
:10112000BD0D6AA98C810E94BD0D6AA988855BC02E
:101130001E3429F46AA98C810E94BD0D1FC01F3482
:1011400029F46AA988810E94BD0D3BC0103539F48D
:101150006AA988810E94BD0D6AA98A8123C01135C0
:1011600059F46AA988810E94BD0D6AA98A810E94EA
:10117000BD0D6AA98C811AC0123519F46AA9888537
:1011800019C0133559F46AA988810E94BD0D6AA956
:101190008C810E94BD0D6AA98E8108C0143579F436
:1011A0006AA98E810E94BD0D6AA988850E94BD0D25
:1011B0006AA98A850E94BD0D6AA98C8514C015355F
:1011C000A9F46AA98A810E94BD0D6AA98C810E9436
:1011D000BD0D6AA98E810E94BD0D6AA988850E94F5
:1011E000BD0D6AA98A850E94BD0D51C0163559F4FE
:1011F0006AA98C810E94BD0D6AA98E810E94BD0DD5
:101200006AA988853FC0173559F46AA98A810E9466
:10121000BD0D6AA98E810E94BD0D6AA98A8532C062
:10122000183559F46AA98A810E94BD0D6AA98C817A
:101230000E94BD0D6AA988850CC0193579F46AA988
:101240008A810E94BD0D6AA98C810E94BD0D6AA988
:101250008E810E94BD0D6AA98A8510C01A35B9F425
:101260006AA988810E94BD0D6AA98A810E94BD0D6C
:101270006AA98E810E94BD0D6AA988850E94BD0D54
:101280006AA98C85DF91CF911F910C94BD0DDF91E0
:10129000CF911F910895CB01009781F0611520E453
:1012A000720714F40C94150D68EE73E00E9484101C
:1012B000882777FD8095982F0C94ED0C08952F9238
:1012C0003F924F925F926F927F928F929F92AF92D6
:1012D000BF92CF92DF92EF92FF920F931F93CF9323
:1012E000DF93EC014A015B0119018AAD9BAD0E8DC4
:1012F0001F8D019609F098C0E1E0F0E0412C512CDF
:1013000032014394AAE0B0E0A30192010E94EE10E2
:10131000E017F10724F42B013C013196F3CF615023
:10132000710981099109681579058A059B0574F091
:10133000C12CD12C7601C394C418D508E608F7084F
:101340008C149D04AE04BF042CF002C04B015C0160
:101350007501640158012114310429F0A218B30861
:1013600081E0A81AB108F7FE0CC0F094E094D09484
:10137000C094C11CD11CE11CF11C88248394912CC5
:1013800002C0812C912C01501109BAE04B2E512C36
:10139000612C712C17FD64C0B801CE010E94D006EB
:1013A000C114D104E104F10449F40A151B0534F415
:1013B0008E8D9F8D01970817190781F4C701B6011B
:1013C000A30192010E94BA10CE010E94F006A0165D
:1013D000B10671F4CE010E94E6060AC0892811F018
:1013E0006DE201C060E2CE010E94F707812C912CD2
:1013F000C701B601A30192010E94BA1069017A01E6
:101400006CA17DA1CE010E944B0960E2CE010E9439
:10141000F707CE010E94EB0668A579A5CE010E94D0
:101420004B0901501109B6CF2114310421F00219E2
:10143000130901501109FE01E05BFF4F80E7808333
:10144000B501A401CE010E94A805FE01E85BFF4F93
:101450006083718382839383C45BDF4F1983088326
:10146000DF91CF911F910F91FF90EF90DF90CF9080
:10147000BF90AF909F908F907F906F905F904F90B4
:101480003F902F900895CF93DF93EC018AAD9BADF1
:10149000019639F420E030E0CE01DF91CF910C9439
:1014A0005F09FE01E05BFF4F89E68083CE010E9469
:1014B000A805C85BDF4F688379838A839B83DF91AC
:1014C000CF910895AB01662757FD6095762F0C9458
:1014D000430AFC01208120532A3008F020E0FC015F
:1014E00081818053FAE02F9F800D11240895CF92BF
:1014F000DF92EF92FF92CF93DF93EC014058534479
:101500006D467843ECE3CE2ED12CE12CF12CCB01AF
:10151000BA01A70196010E9498106D83CA01B90112
:10152000A70196010E9498106C83CA01B90128E1B5
:1015300030E040E050E00E9498106B83188243E94D
:101540005EEFE8818E2F8370A1E009F0A0E08A2F82
:1015500090E0BC0163597E4F2617370740F0BA016F
:10156000681B790B260F371FEF5FE883EACF81E016
:1015700089838981E82FF0E0EE55FF4FE491AA239B
:1015800019F0823009F4EF5FF0E02E173F0720F0EA
:101590002E1B3F0B8F5FECCF2F5F2A83DF91CF9104
:1015A000FF90EF90DF90CF900895CF92DF92EF926F
:1015B000FF920F931F93CF93DF93CDB7DEB72B9797
:1015C0000FB6F894DEBF0FBECDBF7C016A014BE0C1
:1015D00050E0CE0101960E94F212CE010A960E94BE
:1015E000690AF70180830981112707FD1095212FD2
:1015F000312FF801E154F109E331F10548F5EC5CD4
:10160000FF4F0C94D9108A81813639F08B818E3648
:1016100011F486E01BC087E019C081E017C082E0AA
:1016200015C08B81823711F484E010C088E00EC0B1
:101630008B81823711F483E009C085E007C089E01F
:1016400005C08AE003C08BE001C08CE0F701818314
:10165000CE0105960E94690AF701828348E050E0B6
:10166000B601CE0101960E94F212CE0101960E94AF
:10167000690AF7018383CE0104960E94690AF70183
:101680008483CE0107960E94690AF70185832B9611
:101690000FB6F894DEBF0FBECDBFDF91CF911F9183
:1016A0000F91FF90EF90DF90CF90089584EB91E041
:1016B0000E94F50181E008951F93CF93DF93EC0121
:1016C00068E670E084EB91E00E94090260E084EB40
:1016D00091E00E94B6012D811AE0822F612F0E94B5
:1016E0006410682F660F680F660F620F84EB91E03D
:1016F0000E94B6012C81822F612F0E946410682FF6
:10170000660F680F660F620F84EB91E00E94B601CE
:101710002B81822F612F0E946410682F660F680F43
:10172000660F620F84EB91E00E94B60160E084EBEB
:1017300091E00E94B6012A81822F612F0E946410DD
:10174000682F660F680F660F620F84EB91E00E94AE
:10175000B6012981822F612F0E946410682F660FC5
:10176000680F660F620F84EB91E00E94B60128813A
:10177000822F612F0E946410682F660F680F660F1A
:10178000620F84EB91E00E94B60184EB91E0DF915F
:10179000CF911F910C948202CF93DF9368E670E0A3
:1017A00084EB91E00E94090260E084EB91E00E94EA
:1017B000B60184EB91E00E94820241E050E068E6CD
:1017C00070E084EB91E00E947F0284EB91E00E9444
:1017D000660187FB882780F9C82F80E0D82F81E039
:1017E000C8278C2FDF91CF910895CF92DF92EF928F
:1017F000FF920F931F93CF93DF93EC0168E670E0A5
:1018000084EB91E00E94090260E084EB91E00E9489
:10181000B60184EB91E00E94820247E050E068E666
:1018200070E084EB91E00E947F0284EB91E00E94E3
:1018300066018F77982F92959F701AEF082F919FCE
:10184000000D112484EB91E00E9466019C01332776
:10185000A4E035952795AA95E1F7F82E129FF00C94
:10186000112484EB91E00E9466019C013327B4E0CF
:1018700035952795BA95E1F7E82E129FE00C1124D3
:1018800084EB91E00E94660184EB91E00E94660186
:101890009C01332794E0359527959A95E1F7D82E4A
:1018A000129FD00C112484EB91E00E9466019C01F0
:1018B000332744E0359527954A95E1F7C82E129FC6
:1018C000C00C112484EB91E00E9466019C01332737
:1018D00054E0359527955A95E1F7129F800D112414
:1018E0008883C982DA82EB82FC820D83CE01DF918C
:1018F000CF911F910F91FF90EF90DF90CF900895BF
:101900001F920F920FB60F9211242F933F938F9334
:101910009F93AF93BF938091750290917602A091AF
:101920007702B09178023091740223E0230F2D37B3
:1019300020F40196A11DB11D05C026E8230F0296D3
:10194000A11DB11D209374028093750290937602BD
:10195000A0937702B09378028091790290917A02F5
:10196000A0917B02B0917C020196A11DB11D8093D4
:10197000790290937A02A0937B02B0937C02BF918C
:10198000AF919F918F913F912F910F900FBE0F902C
:101990001F9018953FB7F8948091790290917A0240
:1019A000A0917B02B0917C0226B5A89B05C02F3F79
:1019B00019F00196A11DB11D3FBF6627782F892F11
:1019C0009A2F620F711D811D911D42E0660F771FD6
:1019D000881F991F4A95D1F70895CF92DF92EF9211
:1019E000FF92CF93DF936B017C010E94CA0CEB0145
:1019F000C114D104E104F10489F00E94800F0E9417
:101A0000CA0C6C1B7D0B683E734090F381E0C81AD2
:101A1000D108E108F108C851DC4FEACFDF91CF913E
:101A2000FF90EF90DF90CF9008958230910538F0CD
:101A3000880F991F880F991F05970197F1F708954F
:101A4000789484B5826084BD84B5816084BD85B599
:101A5000826085BD85B5816085BDEEE6F0E0808160
:101A600081608083E1E8F0E0108280818260808381
:101A7000808181608083E0E8F0E080818160808304
:101A8000E1EBF0E0808184608083E0EBF0E0808136
:101A900081608083EAE7F0E08081846080838081D8
:101AA0008260808380818160808380818068808380
:101AB0001092C1000895833081F028F4813099F0AC
:101AC0008230A1F008958730A9F08830B9F08430D1
:101AD000D1F4809180008F7D03C0809180008F774A
:101AE00080938000089584B58F7702C084B58F7D80
:101AF00084BD08958091B0008F7703C08091B000BD
:101B00008F7D8093B0000895CF93DF9390E0FC0128
:101B1000ED53FF4F2491FC01E952FF4F849188233C
:101B200049F190E0880F991FFC01EB50FF4FA59100
:101B3000B49185519F4FFC01C591D4919FB761111C
:101B400008C0F8948C91209582238C9388818223FD
:101B50000AC0623051F4F8948C91322F309583236F
:101B60008C938881822B888304C0F8948C91822B7B
:101B70008C939FBFDF91CF9108950F931F93CF93C5
:101B8000DF931F92CDB7DEB7282F30E0F901E15582
:101B9000FF4F8491F901ED53FF4F1491F901E95280
:101BA000FF4F04910023C9F0882321F069830E942C
:101BB0005B0D6981E02FF0E0EE0FFF1FE551FF4F55
:101BC000A591B4919FB7F8948C91611103C01095C1
:101BD000812301C0812B8C939FBF0F90DF91CF9108
:101BE0001F910F9108951F920F920FB60F9211241B
:101BF0002F938F939F93EF93FF93E0918D02F0913A
:101C00008E028081E0919302F091940282FD12C0D5
:101C10009081809196028F5F8F7320919702821737
:101C200051F0E0919602F0E0E358FD4F958F8093DC
:101C3000960201C08081FF91EF919F918F912F912A
:101C40000F900FBE0F901F9018951F920F920FB616
:101C50000F9211242F933F934F935F936F937F9332
:101C60008F939F93AF93BF93EF93FF938DE792E092
:101C70000E94BC0FFF91EF91BF91AF919F918F9107
:101C80007F916F915F914F913F912F910F900FBE78
:101C90000F901F9018958DE792E00E94810F21E030
:101CA000892B09F420E0822F08951092800210926F
:101CB0007F0288EE93E0A0E0B0E0809381029093F1
:101CC0008202A0938302B093840287E491E0909310
:101CD0007E0280937D0285EC90E090938A0280934F
:101CE000890284EC90E090938C0280938B0280ECCC
:101CF00090E090938E0280938D0281EC90E090931F
:101D0000900280938F0282EC90E0909392028093F5
:101D1000910286EC90E0909394028093930210924B
:101D200096021092970210929802109299020895CA
:101D3000CF92DF92EF92FF920F931F93CF93DF9397
:101D40007C016A01EB0100E010E00C151D0571F04B
:101D50006991D701ED91FC910190F081E02DC701CF
:101D60000995892B19F00F5F1F4FEFCFC801DF9145
:101D7000CF911F910F91FF90EF90DF90CF9008953A
:101D80006115710581F0DB010D900020E9F7AD01CF
:101D900041505109461B570BDC01ED91FC9102802B
:101DA000F381E02D099480E090E0089562E371E012
:101DB0000C94C00E0F931F93CF93DF93EC010E94FE
:101DC000C00E8C01CE010E94D60E800F911FDF91B4
:101DD000CF911F910F910895FC01808191810C9406
:101DE0009911CF93DF93EC0188819981009711F0CD
:101DF0000E949911198218821D821C821B821A82EC
:101E0000DF91CF9108950F931F93CF93DF93EC0150
:101E10008B016F5F7F4F888199810E942812009704
:101E200031F0998388831B830A8381E001C080E0BD
:101E3000DF91CF911F910F910895CF93DF93EC0124
:101E400088819981892B29F08A819B818617970740
:101E500060F4CE010E94030F882341F08C819D81A4
:101E6000892B19F4E881F981108281E0DF91CF910B
:101E70000895EF92FF920F931F93CF93DF93EC019E
:101E80007B018A01BA010E941D0F811104C0CE019D
:101E90000E94F10E07C01D830C83B70188819981D0
:101EA0000E940413CE01DF91CF911F910F91FF90FB
:101EB000EF900895FC011182108213821282158224
:101EC00014826115710559F0FB0101900020E9F7BA
:101ED000AF0141505109461B570B0C94390F08951F
:101EE00008950E94200D0E94700F0E94AE00CEEA5D
:101EF000DFE00E94EA002097E1F30E94AE0FF9CFE5
:101F00000895FC01818D228D90E0805C9F4F821BA3
:101F100091098F7399270895FC01918D828D9817EF
:101F200031F0828DE80FF11D858D90E008958FEFDF
:101F30009FEF0895FC01918D828D981761F0828D3D
:101F4000DF01A80FB11D5D968C91928D9F5F9F73ED
:101F5000928F90E008958FEF9FEF08958BE49EE0BD
:101F6000892B49F080E090E0892B29F00E944B0EEC
:101F700081110C9400000895FC01848DDF01A80FED
:101F8000B11DA35ABF4F2C91848D90E001968F73A1
:101F90009927848FA689B7892C93A089B1898C91C0
:101FA00080648C93938D848D981306C00288F38986
:101FB000E02D80818F7D80830895CF93DF93EC01A6
:101FC000888D8823C9F0EA89FB89808185FD05C059
:101FD000A889B9898C9186FD0FC00FB607FCF5CF93
:101FE000808185FFF2CFA889B9898C9185FFEDCFDB
:101FF000CE010E94BC0FE7CFDF91CF910895CF9221
:10200000DF92FF920F931F93CF93DF931F92CDB771
:10201000DEB76C0181E0D60158968C9358975B9699
:102020009C915B975C968C915C97981307C0509637
:10203000ED91FC915197808185FD2EC0F601038DB5
:1020400010E00F5F1F4F0F731127F02EF601848DE4
:10205000F81211C00FB607FCF9CFD6015096ED91DA
:10206000FC915197808185FFF1CFC60169830E9461
:10207000BC0F6981EBCF838DE80FF11DE35AFF4F51
:102080006083D6015B960C935B975296ED91FC9121
:102090005397808180620CC0D6015696ED91FC91D9
:1020A000579760835096ED91FC91519780818064A1
:1020B000808381E090E00F90DF91CF911F910F918D
:1020C000FF90DF90CF900895991B79E004C0991F8D
:1020D000961708F0961B881F7A95C9F78095089582
:1020E000AA1BBB1B51E107C0AA1FBB1FA617B7073E
:1020F00010F0A61BB70B881F991F5A95A9F780955A
:102100009095BC01CD01089597FB072E16F400941D
:1021100007D077FD09D00E94701007FC05D03EF46F
:10212000909581959F4F0895709561957F4F089583
:10213000A1E21A2EAA1BBB1BFD010DC0AA1FBB1FCB
:10214000EE1FFF1FA217B307E407F50720F0A21B3D
:10215000B30BE40BF50B661F771F881F991F1A94AA
:1021600069F760957095809590959B01AC01BD01D4
:10217000CF010895052E97FB1EF400940E94D11004
:1021800057FD07D00E94981007FC03D04EF40C9422
:10219000D11050954095309521953F4F4F4F5F4F4F
:1021A000089590958095709561957F4F8F4F9F4FC3
:1021B0000895EE0FFF1F0590F491E02D0994A29F62
:1021C000B001B39FC001A39F700D811D1124911D0B
:1021D000B29F700D811D1124911D08950E94DF1082
:1021E000A59F900DB49F900DA49F800D911D11246B
:1021F0000895B7FF0C94EE100E94EE10821B930B13
:102200000895CF93DF938230910510F482E090E03F
:10221000E0911C03F0911D0320E030E0A0E0B0E06D
:10222000309739F14081518148175907B8F0481764
:10223000590771F482819381109729F013969C932A
:102240008E9312972CC090931D0380931C0327C07C
:102250002115310531F04217530718F0A901DB01B0
:1022600001C0EF019A01BD01DF010280F381E02D81
:10227000D7CF21153105F9F0281B390B2430310552
:1022800080F48A819B816115710521F0FB019383A4
:10229000828304C090931D0380931C03FE01329639
:1022A00044C0FE01E20FF31F819391932250310944
:1022B000398328833AC020911A0330911B03232BC2
:1022C00041F4209102013091030130931B032093CC
:1022D0001A0320910001309101012115310541F4CB
:1022E0002DB73EB74091040150910501241B350BD9
:1022F000E0911A03F0911B03E217F307A0F42E1BE1
:102300003F0B2817390778F0AC014E5F5F4F241759
:10231000350748F04E0F5F1F50931B0340931A037D
:102320008193919302C0E0E0F0E0CF01DF91CF9183
:102330000895CF93DF93009709F487C0FC0132978B
:1023400013821282C0911C03D0911D03209781F447
:1023500020813181280F391F80911A0390911B032E
:102360008217930779F5F0931B03E0931A036DC06E
:10237000DE0120E030E0AE17BF0750F412964D9119
:102380005C9113979D014115510509F1DA01F3CFD5
:10239000B383A28340815181840F951F8A179B07C5
:1023A00071F48D919C911197840F951F02969183E2
:1023B000808312968D919C9113979383828321152C
:1023C000310529F4F0931D03E0931C033EC0D901AD
:1023D0001396FC93EE9312974D915D91A40FB51F48
:1023E000EA17FB0779F480819181840F951F02968B
:1023F000D90111969C938E938281938113969C931D
:102400008E931297E0E0F0E08A819B81009719F0AB
:10241000FE01EC01F9CFCE01029628813981820FAD
:10242000931F20911A0330911B032817390769F471
:10243000309729F410921D0310921C0302C01382DE
:102440001282D0931B03C0931A03DF91CF9108959A
:10245000A0E0B0E0EEE2F2E10C940F13EC01CB014E
:10246000209719F40E940111B8C0FE01E60FF71F72
:102470009E0122503109E217F30708F4ACC0D901DC
:102480000D911C91119706171707B8F0053011052B
:1024900008F49FC0A801445051094617570708F493
:1024A00098C002501109061B170B019311936D93ED
:1024B0007C93CF010E9499118CC05B01A01AB10AD4
:1024C0004E01800E911EA0911C03B0911D03612C42
:1024D000712C60E070E0109709F449C0A815B905A7
:1024E000C9F5ED90FC901197670142E0C40ED11C34
:1024F000CA14DB0478F147018A189B08640142E0A2
:10250000C40ED11C1296BC9012971396AC91B5E0F4
:10251000CB16D10440F0B282A38391828082D9018C
:102520008D939C9309C00E5F1F4F0E0D1F1DF90167
:1025300011830083EB2DFA2F6115710531F0DB015A
:102540001396FC93EE93129744C0F0931D03E0930F
:102550001C033FC06D917C9111976616770608F4B5
:102560003B01BD0112960D90BC91A02DB4CF60919E
:102570001A0370911B0368157905E9F4681679064A
:10258000D0F440910001509101014115510541F4F1
:102590004DB75EB76091040170910501461B570B62
:1025A000E417F507C0F4F0931B03E0931A03F90155
:1025B000918380830EC00E9401117C01009759F025
:1025C000A801BE010E94FB12CE010E949911C70111
:1025D00004C0CE0102C080E090E0CDB7DEB7EEE0EF
:1025E0000C942B13FB01DC0102C005900D924150AD
:1025F0005040D8F70895FB01DC0102C001900D9214
:1026000041505040D8F70895FB01DC0101900D9234
:102610000020E1F708952F923F924F925F926F92C0
:102620007F928F929F92AF92BF92CF92DF92EF9262
:10263000FF920F931F93CF93DF93CDB7DEB7CA1BE3
:10264000DB0B0FB6F894DEBF0FBECDBF09942A880E
:10265000398848885F846E847D848C849B84AA84B6
:10266000B984C884DF80EE80FD800C811B81AA8143
:10267000B981CE0FD11D0FB6F894DEBF0FBECDBF0E
:10268000ED01089511E0C6E0D1E004C0FE010E9412
:0E269000DB102296C830D107C9F7F894FFCFAF
:10269E0000001E0380000E000F00100011005254A7
:1026AE0043206973204E4F542072756E6E696E67AB
:1026BE00210000000000B60189015E01660179016A
:1026CE0088010D0A006E616E00696E66006F766697
:1026DE00002E0000000000FF0F980E810F9A0F8C45
:0426EE000FDD0F00ED
:107800000C94343C0C94513C0C94513C0C94513CE1
:107810000C94513C0C94513C0C94513C0C94513CB4
:107820000C94513C0C94513C0C94513C0C94513CA4
:107830000C94513C0C94513C0C94513C0C94513C94
:107840000C94513C0C94513C0C94513C0C94513C84
:107850000C94513C0C94513C0C94513C0C94513C74
:107860000C94513C0C94513C11241FBECFEFD8E036
:10787000DEBFCDBF11E0A0E0B1E0ECE9FFE702C060
:1078800005900D92A230B107D9F712E0A2E0B1E065
:1078900001C01D92AD30B107E1F70E942D3D0C945F
:1078A000CC3F0C94003C982F959595959595959582
:1078B000905D8F708A307CF0282F295A8091C0000B
:1078C00085FFFCCF9093C6008091C00085FFFCCF60
:1078D0002093C6000895282F205DF0CF982F809127
:1078E000C00085FFFCCF9093C6000895EF92FF92F1
:1078F0000F931F93EE24FF2487018091C00087FD22
:1079000017C00894E11CF11C011D111D81E4E8164B
:1079100082E4F8068FE0080780E0180770F3E09132
:107920000401F091050109958091C00087FFE9CF1E
:107930008091C6001F910F91FF90EF9008950E94D3
:10794000763C982F8091C00085FFFCCF9093C600B5
:1079500091362CF490330CF09053892F089597555D
:10796000892F08951F930E949F3C182F0E949F3CCF
:107970001295107F810F1F9108951F93182F882350
:1079800021F00E94763C1150E1F71F9108951F935A
:10799000182F0E94763C803249F0809103018F5F5E
:1079A000809303018530C1F01F9108958091C0003C
:1079B00085FFFCCF84E18093C6008091C00085FFE5
:1079C000FCCF1093C6008091C00085FFFCCF80E102
:1079D0008093C6001F910895E0910401F091050184
:1079E00009951F9108950E94763C803241F0809164
:1079F00003018F5F80930301853081F008958091AA
:107A0000C00085FFFCCF84E18093C6008091C00058
:107A100085FFFCCF80E18093C6000895E0910401CA
:107A2000F09105010995089540E951E08823A1F0FE
:107A30002D9A28EE33E0FA013197F1F721503040CA
:107A4000D1F72D9828EE33E0FA013197F1F7215064
:107A50003040D1F7815061F708953F924F925F9285
:107A60006F927F928F929F92AF92BF92CF92DF924E
:107A7000EF92FF920F931F93CF93DF93000080E16B
:107A80008093C4001092C50088E18093C10086E015
:107A90008093C2005098589A259A81E00E94143D24
:107AA00024E1F22E9EE1E92E85E9D82E0FE0C02ECA
:107AB00010E1B12EAA24A394B1E49B2EA6E58A2E50
:107AC000F2E57F2EE0E26E2E79E4572E63E5462E36
:107AD00050E5352E0E94763C8033B1F18133B9F107
:107AE000803409F46FC0813409F476C0823409F41B
:107AF00085C0853409F488C0803531F1823521F1A3
:107B0000813511F1853509F485C0863509F48DC0BC
:107B1000843609F496C0843709F403C1853709F423
:107B200072C1863709F466C0809103018F5F80932C
:107B30000301853079F6E0910401F0910501099582
:107B40000E94763C803351F60E94F33CC3CF0E94E2
:107B5000763C803249F78091C00085FFFCCFF092DF
:107B6000C6008091C00085FFFCCF9092C600809136
:107B7000C00085FFFCCF8092C6008091C00085FFC9
:107B8000FCCF7092C6008091C00085FFFCCF609250
:107B9000C6008091C00085FFFCCF5092C600809146
:107BA000C00085FFFCCF4092C6008091C00085FFD9
:107BB000FCCF3092C6008091C00085FFFCCFB09210
:107BC000C60088CF0E94763C863808F4BDCF0E945C
:107BD000763C0E94F33C7ECF0E94763C803809F4CC
:107BE0009CC0813809F40BC1823809F43CC1883942
:107BF00009F48FC080E00E94C73C6CCF84E10E94F2
:107C0000BD3C0E94F33C66CF85E00E94BD3C0E94D3
:107C1000F33C60CF0E94763C809306010E94763C44
:107C2000809307010E94F33C55CF0E94763C80333D
:107C300009F41DC183E00E94BD3C80E00E94C73C66
:107C400049CF0E94763C809309020E94763C809343
:107C5000080280910C028E7F80930C020E94763C79
:107C6000853409F415C18091080290910902892B8D
:107C700089F000E010E00E94763CF801E85FFE4FDA
:107C800080830F5F1F4F80910802909109020817AF
:107C9000190788F30E94763C803209F045CF809125
:107CA0000C0280FF01C16091060170910701660F0F
:107CB000771F7093070160930601A0910802B091AD
:107CC00009021097C9F0E8E0F1E09B01AD014E0F09
:107CD0005F1FF999FECF32BD21BD819180BDFA9A17
:107CE000F99A2F5F3F4FE417F50799F76A0F7B1F4B
:107CF00070930701609306018091C00085FFFCCF5F
:107D0000F092C6008091C00085FFFCCFB092C60003
:107D1000E1CE83E00E94C73CDDCE82E00E94C73CFA
:107D2000D9CE0E94763C809309020E94763C8093D3
:107D300008028091060190910701880F991F909386
:107D40000701809306010E94763C853409F4A6C0A1
:107D500080910C028E7F80930C020E94763C8032D0
:107D600009F0B8CE8091C00085FFFCCFF092C6002C
:107D7000609108027091090261157105B9F140E046
:107D800050E080910C02A82FA170B82FB27011C0E2
:107D9000BB2309F45CC0E0910601F0910701319624
:107DA000F0930701E09306014F5F5F4F46175707B7
:107DB000E8F4AA2369F3F999FECF209106013091E6
:107DC000070132BD21BDF89A90B58091C00085FFB2
:107DD000FCCF9093C6002F5F3F4F30930701209355
:107DE00006014F5F5F4F4617570718F38091C00099
:107DF00085FDE5CE8091C00085FFF8CFE0CE81E023
:107E00000E94C73C67CE0E94763C803209F08CCE3F
:107E10008091C00085FFFCCFF092C6008091C00029
:107E200085FFFCCFE092C6008091C00085FFFCCFAB
:107E3000D092C6008091C00085FFFCCFC092C600E2
:107E40008091C00085FFFCCFB092C60043CEE09188
:107E50000601F091070194918091C00085FFFCCF4D
:107E60009093C6009CCF80E10E94C73C33CE0E9415
:107E7000763C0E94763C182F0E94763C112309F430
:107E800083C0113009F484C08FE00E94C73C22CE29
:107E900080910C02816080930C02E5CE80910C02EF
:107EA000816080930C0259CF809107018823880F4D
:107EB000880B8A2180930B02809106019091070123
:107EC000880F991F90930701809306018091080203
:107ED00080FF09C080910802909109020196909359
:107EE000090280930802F894F999FECF1127E091D6
:107EF0000601F0910701C8E0D1E08091080290915D
:107F00000902103091F40091570001700130D9F34B
:107F100003E000935700E89500915700017001308D
:107F2000D9F301E100935700E89509901990009169
:107F3000570001700130D9F301E000935700E89534
:107F40001395103498F011270091570001700130FB
:107F5000D9F305E000935700E895009157000170B0
:107F60000130D9F301E100935700E895329602976A
:107F700009F0C7CF103011F00296E5CF112480919F
:107F8000C00085FFB9CEBCCE8EE10E94C73CA2CD19
:0C7F900085E90E94C73C9ECDF894FFCF0D
:027F9C00800063
:040000030000780081
:00000001FF
