:100000000C942C020C9454020C9454020C94E32192
:100010000C94E3210C94E3210C9454020C945402AC
:100020000C9454020C9454020C9454020C945402F8
:100030000C9454020C941E030C9454020C9454021D
:100040000C94C5260C9454020C94B2290C94E42907
:100050000C9454020C9454020C9454020C945402C8
:100060000C94491E0C945402651174118311921161
:10007000A111B011BF1101122F153B154D155915C6
:100080006B1577157375636365737366756C6C793F
:10009000207365740053687574646F776E2074699B
:1000A0006D65007375636365737366756C6C792039
:1000B00073657400506F776572206F6E2074696D80
:1000C000650041542B434D47443D312C340041548D
:1000D0002B434D47463D310D00656D70747921000D
:1000E0004E756D626572206C69737420697300616E
:1000F0006374697661746564004175746F6D6174D1
:100100006963206D6F646500456E74657220536885
:100110007574646F776E2054696D653A00456E742E
:10012000657220506F776572206F6E2054696D651F
:100130003A002020202020202020202020202000E5
:100140006E6F7720656D70747921004E756D6265F4
:1001500072206C69737420697300737563636573CF
:100160007366756C6C79206164646564004E756DAE
:100170006265720065786973747321004E756D62F3
:10018000657220616C726561647900456E74657298
:1001900020436F6E74616374204E6F2E3A00667553
:1001A0006C6C210053797374656D206D656D6D6F96
:1001B000727900332E2044454C455445204E554D10
:1001C00042455200322E204C495354204E554D4248
:1001D00045525300312E20414444204E554D424556
:1001E000520057726F6E672050617373776F72643D
:1001F00021006D617463680050617373776F72647E
:100200007320646F206E6F7400737563636573731E
:1002100066756C6C79206368616E67656400506117
:100220007373776F726400436F6E6669726D204EF0
:1002300065772050617373776F726400456E7465E3
:1002400072204E65772050617373776F72643A0045
:10025000456E746572204F6C642050617373776FC4
:1002600072643A00616374697661746564004D611B
:100270006E75616C206D6F646500322E204155549F
:100280004F4D41544943204D4F444500312E204DA0
:10029000414E55414C204D4F44450057726F6E679B
:1002A0002050617373776F72642100456E746572BC
:1002B0002050617373776F72643A0041542B434E40
:1002C0004D493D322C322C302C302C300D00415415
:1002D0002B434D47463D310D004E4554574F524B31
:1002E000004C4F4747494E47204F4E20544F001F68
:1002F0001C1F1E1F1E1F1F1E1F1E1F0000000800A8
:1003000002010000030407000000000000000001DB
:100310000204081020408001020408102001020499
:10032000081020040404040404040402020202026B
:100330000203030303030300000000230026002937
:100340000000000000250028002B00000000002411
:100350000027002A0000407A10F35A00A0724E18BD
:10036000090010A5D4E80000E87648170000E40B67
:1003700054020000CA9A3B000000E1F5050000802D
:10038000969800000040420F000000A08601000087
:1003900000102700000000E80300000000640000D7
:1003A0000000000A00000000000100000000002C16
:1003B00076D888DC674F0823DFC1DFAE59E1B1B7DB
:1003C00096E5E3E453C63AE651997696E8E6C284A8
:1003D00026EB898C9B62ED407C6FFCEFBC9C9F40C0
:1003E000F2BAA56FA5F490055A2AF75C936B6CF9E5
:1003F000676DC11BFCE0E40D47FEF520E6B500D0BB
:10040000ED902E0300943577050080841E080000CF
:10041000204E0A000000C80C333333330F986E129D
:10042000831141EF8D2114893BE65516CFFEE6DBA3
:1004300018D1844B381BF77C1D901DA4BBE42420ED
:100440003284725E228100C9F124ECA1E53D2700CF
:100450009A155F1D142AF51511241FBECFEFD8E0A1
:10046000DEBFCDBF12E0A0E0B1E0EEEFFBE602C0E0
:1004700005900D92AA35B107D9F725E0AAE5B2E0BB
:1004800001C01D92A932B207E1F714E0C6E5D4E03D
:1004900004C02297FE010E947F30C035D107C9F702
:1004A0000E94F82F0C94F2350C940000FC0180811E
:1004B00091810C943C330F931F93CF93DF9300D023
:1004C0001F92CDB7DEB78C019A838983CE01019646
:1004D0006B830E9456026B81681751F0C8010F9020
:1004E0000F900F90DF91CF911F910F910C94443397
:1004F0000F900F900F90DF91CF911F910F91089562
:100500000F931F93CF93DF93CDB7DEB72C970FB622
:10051000F894DEBF0FBECDBF8C014AE06A30E8F42C
:10052000CE0107960E94252D60E3CE0101960E9420
:100530000D2DBE01695F7F4FCE0101960E948F2E67
:10054000BC01C8010E94E02CCE0101960E940F2C34
:10055000CE0107960E940F2C02C00E94252DC801D3
:100560002C960FB6F894DEBF0FBECDBFDF91CF91B2
:100570001F910F9108950F931F93CF93DF93CDB7E2
:10058000DEB72C970FB6F894DEBF0FBECDBF8C013F
:100590006D3010F06C5008C0611106C04AE06CE08C
:1005A00070E00E94522D24C04AE06A30F0F4CE017F
:1005B00007960E94252D60EF71E0CE0101960E9402
:1005C0007D2CBE01695F7F4FCE0101960E948F2E68
:1005D000BC01C8010E94E02CCE0101960E940F2CA4
:1005E000CE0107960E940F2C03C0C8010E94252D42
:1005F000C8012C960FB6F894DEBF0FBECDBFDF91B9
:10060000CF911F910F910895CF93DF93EC016C3040
:1006100018F060E271E002C063E271E0CE010E9476
:100620007D2CCE01DF91CF9108958EEE95E89093C9
:100630008500809384001092B50208951F920F9256
:100640000FB60F9211242F933F934F935F936F93A5
:100650007F938F939F93AF93BF93EF93FF9380917B
:10066000B5028F5F8093B5028DEC92E00E949E26CA
:100670008093A6028091A602843421F08091B50275
:100680008A3F11F40E941503FF91EF91BF91AF9142
:100690009F918F917F916F915F914F913F912F919A
:1006A0000F900FBE0F901F901895CF93DF93EC0122
:1006B000462F8091AF0264E080FF0AC083E493E09C
:1006C0000E941220BE0183E493E00E94B82A0AC06F
:1006D00083E493E00E94122062E371E083E493E0FC
:1006E0000E94952A8091AF028F5F8093AF026AEFDC
:1006F00070E080E090E0DF91CF910C943E27DF9294
:10070000EF92FF920F931F93CF93DF9300D000D00F
:1007100000D0CDB7DEB78C017B016CE472E00E94A3
:100720007D2CD12C2D2D30E0F70184819581281767
:100730003907A8F4B801CE0101960E94E02C66E2C8
:1007400071E0CE0101960E94A22EBC01C8010E9458
:10075000C92CCE0101960E940F2CD394E3CFC8017F
:1007600026960FB6F894DEBF0FBECDBFDF91CF91B6
:100770001F910F91FF90EF90DF9008950F931F93BB
:10078000CF93DF93CDB7DEB72C970FB6F894DEBFCB
:100790000FBECDBF8C018091AF0280FF0AC083E401
:1007A00093E00E941220B80183E493E00E94B82AEB
:1007B0001FC083E493E00E941220B801CE01079687
:1007C0000E94E02CBE01695F7F4FCE0101960E941E
:1007D0007F03BE016F5F7F4F83E493E00E94B82ADE
:1007E000CE0101960E940F2CCE0107960E940F2C7D
:1007F0008091AF028F5F8093AF026AEF70E080E07C
:1008000090E00E943E272C960FB6F894DEBF0FBEF4
:10081000CDBFDF91CF911F910F910895CF92DF92BD
:10082000EF92FF920F931F93CF93DF93CDB7DEB775
:1008300068970FB6F894DEBF0FBECDBF7C018B0169
:100840006CE472E0CE0143960E947D2CC80160E109
:1008500077E20E942830FB0180EF98ED689F9001BD
:10086000699F300D789F300D1124200F311FC90171
:1008700064E670E00E9428306B014CE94603800179
:10088000479F100D1124020F131F309729F0319745
:1008900049F460E271E002C063E271E0CE01439688
:1008A0000E94F52C602FCE0101960E9480026C2DD3
:1008B000CE010D960E948002BE01635F7F4FCE0184
:1008C00007960E94E02C68E271E0CE0107960E9434
:1008D000A22EBE016F5F7F4F0E948F2E66E271E0F5
:1008E0000E94A22EBE016D5E7F4F0E948F2EBC0122
:1008F000C7010E94E02CCE0107960E940F2CCE016A
:100900000D960E940F2CCE0101960E940F2CCE0155
:1009100043960E940F2CC70168960FB6F894DEBF6D
:100920000FBECDBFDF91CF911F910F91FF90EF9040
:10093000DF90CF9008950F931F93CF93DF9300D054
:10094000CDB7DEB700E010E01A830983CE0101962F
:100950000E9456028F3F39F4045F1F4F0033110588
:1009600099F781E001C080E00F900F90DF91CF9167
:100970001F910F91089541E062E083E493E00E94AB
:10098000122060EE70E083E493E00E94952A42E03A
:1009900066E083E493E00E94122069ED70E083E456
:1009A00093E00E94952A6CED75E080E090E00E9453
:1009B0003E2783E493E00C940B20AF92BF92CF923A
:1009C000DF92EF92FF920F931F93CF93DF9300D0AC
:1009D0001F92CDB7DEB702E712E06EE771E0C80103
:1009E0000E94F52C0A5F1F4F82E00A381807A9F70A
:1009F00000E010E040E08CE0B82E96E0A92E1A83CB
:100A00000983CE0101964B830E9456024B818F3F92
:100A100011F44C5023C0842F6B2D0E940830A89EE7
:100A200060011124C6018E589D4F6C01E12CF12C00
:100A30009701200F311F3A832983CE0101964B8302
:100A40000E945602682FC6010E94ED2D9FEFE91A01
:100A5000F90A4B818CE0E816F10451F7445F045F1A
:100A60001F4F0033110559F60F900F900F90DF9133
:100A7000CF911F910F91FF90EF90DF90CF90BF909B
:100A8000AF9008951F93CF93DF930E94DD04C2E7D8
:100A9000D2E010E06EE771E0CE010E94FF2E8823C5
:100AA00011F0115022C0412F437064E083E493E0C1
:100AB0000E941220BE0183E493E00E94B82A8DECCC
:100AC00092E00E949E268093A6028091A602843422
:100AD00021F481E080936F020EC08091B5028F30C7
:100AE00020F081E08093700206C01F5F269682E0AE
:100AF000CA38D80779F6DF91CF911F910895CF9327
:100B0000DF93CDB7DEB727970FB6F894DEBF0FBEE1
:100B1000CDBF8BEF91E00E943C33682F8AEF91E0CC
:100B20006F830E943C336F810E940A2C4AE0BC0113
:100B3000CE0101960E947E2DBE016F5F7F4F8DE931
:100B400092E00E94E92CCE0101960E940F2C409168
:100B5000A1025091A2024F5F5F4F20E030E069E9AF
:100B600072E08DE992E00E941E2F69E972E086EB47
:100B700092E00E947A2327960FB6F894DEBF0FBE4C
:100B8000CDBFDF91CF9108951F93CF93DF93182F9F
:100B9000292FCB01EA01622F0E944433612FCE013D
:100BA000DF91CF911F910C944433CF92DF92EF925B
:100BB000FF920F931F93CF93DF93CDB7DEB72897A4
:100BC0000FB6F894DEBF0FBECDBF00E010E026E008
:100BD000D22EC02E6EE771E0CE0101960E947D2CD0
:100BE000E12CF12C9701200F311F38872F83CE0184
:100BF00007960E945602682FCE0101960E94ED2DA5
:100C00008FEFE81AF80A8CE0E816F10459F78091A2
:100C1000B202D89EC0011124BE016F5F7F4F8E5873
:100C20009D4F0E94EC2E882331F0CE0101960E9448
:100C30000F2C8C2D09C0CE0101960E940F2C045F51
:100C40001F4F0033110529F628960FB6F894DEBF22
:100C50000FBECDBFDF91CF911F910F91FF90EF900D
:100C6000DF90CF900895EAE0F1E080E2819391E097
:100C7000E631F907D9F708950F931F93CF93DF93C8
:100C800000D0CDB7DEB700E010E01A830983CE01B3
:100C900001960E9456028F3F39F0045F1F4F0033C8
:100CA000110599F781E001C080E00F900F90DF916E
:100CB000CF911F910F9108950F931F93CF93DF93BF
:100CC0008C010E94DD04C2E7D2E0B801CE010E948F
:100CD000EC2E811107C0269682E0C23AD807A9F708
:100CE00080E001C081E0DF91CF911F910F910895C5
:100CF000CF92DF92EF92FF920F931F93CF93DF93E8
:100D0000CDB7DEB72C970FB6F894DEBF0FBECDBFC0
:100D10006B017C018A01CA010E948D2F6CE472E094
:100D2000CE0107960E947D2C6BE7CE0107960E94AC
:100D3000ED2D62E2CE0107960E94ED2D63E5CE0116
:100D400007960E94ED2D62E2CE0107960E94ED2DDE
:100D50006AE271E0CE0107960E94DD2D62E2CE01CB
:100D600007960E94ED2D61E4CE0107960E94ED2DBD
:100D700062E2CE0107960E94ED2D68E271E0CE019D
:100D800007960E94DD2D6BE5CE0107960E94ED2DA2
:100D900060915C02CE0107960E94002E6CE2CE01AB
:100DA00007960E94ED2D60915D02CE0107960E948C
:100DB000002E6CE2CE0107960E94ED2D60915E023E
:100DC000CE0107960E94002E6CE2CE0107960E948B
:100DD000ED2D60915F02CE0107960E94002E6DE519
:100DE000CE0107960E94ED2D6CE2CE0107960E947F
:100DF000ED2D62E2CE0107960E94ED2D60E5CE0159
:100E000007960E94ED2D62E2CE0107960E94ED2D1D
:100E10006AE3CE0107960E94ED2D60916002CE013B
:100E200007960E94002E6CE2CE0107960E94ED2DDF
:100E300062E2CE0107960E94ED2D69E4CE0107968D
:100E40000E94ED2D62E2CE0107960E94ED2D6AE32D
:100E5000CE0107960E94ED2D60916102CE010796AA
:100E60000E94002E6CE2CE0107960E94ED2D62E2F8
:100E7000CE0107960E94ED2D62E4CE0107960E94F6
:100E8000ED2D62E2CE0107960E94ED2D6AE3CE01C0
:100E900007960E94ED2DB701A601CE0107960E948C
:100EA0005D2E6CE2CE0107960E94ED2D62E2CE012E
:100EB00007960E94ED2D65E5CE0107960E94ED2D67
:100EC00062E2CE0107960E94ED2D6AE3CE010796FD
:100ED0000E94ED2D6CE571E0CE0101960E947D2C03
:100EE00062E672E0CE0101960E948F2E6CE571E001
:100EF0000E94A22EBC01CE0107960E94D62DCE01E3
:100F000001960E940F2C6CE2CE0107960E94ED2DF7
:100F100062E2CE0107960E94ED2D66E5CE010796AE
:100F20000E94ED2D62E2CE0107960E94ED2D6AE34C
:100F3000CE0107960E94ED2D69E070E0CE01079684
:100F40000E942C2E6DE271E0CE0107960E94DD2DED
:100F50006EEC70E08CE593E00E94952A64E670E008
:100F600080E090E00E943E2760E371E0CE010196B0
:100F70000E947D2CB801CE0101960E948F2E6CE557
:100F800071E00E94A22EBC018CE593E00E94E52A4C
:100F9000CE0101960E940F2C64E670E080E090E0A4
:100FA0000E943E27BE01695F7F4F8CE593E00E945F
:100FB000E52A64E670E080E090E00E943E276AE166
:100FC0008CE593E00E94F72A64E670E080E090E010
:100FD0000E943E278CE593E00E94CF2A68E873E1E7
:100FE00080E090E00E943E27CE0107960E940F2CE1
:100FF0002C960FB6F894DEBF0FBECDBFDF91CF9118
:101000001F910F91FF90EF90DF90CF9008950F9375
:101010001F93CF93DF9300D000D000D0CDB7DEB7C1
:101020000E94DD0402E712E06EE771E0C8010E9451
:10103000FF2E811111C0B801CE0101960E94E02C53
:10104000AE014F5F5F4F60E070E0CB010E94780619
:10105000CE0101960E940F2C0A5F1F4F82E00A38D2
:10106000180711F726960FB6F894DEBF0FBECDBF56
:10107000DF91CF911F910F91089562EC70E08CE5A4
:1010800093E00C94D32A1F93CF93DF931F92CDB795
:10109000DEB726E040E855E260E070E088E894E0E2
:1010A0000E94502940E05BE460E070E08CE593E052
:1010B0000E94E62220E044E064E183E493E00E94A1
:1010C0002C2041E063E083E493E00E94122061EE73
:1010D00072E083E493E00E94952A42E063E083E4B7
:1010E00093E00E94122069ED72E083E493E00E9495
:1010F000952A16E062E57AE080E090E00E943E27C3
:101100006AEE71E083E493E00E94C62A115091F7E1
:1011100062E57AE080E090E00E943E276EEC72E0AB
:101120008CE593E00E94952A64E670E080E090E010
:101130000E943E276BEB72E08CE593E00E94952ABB
:1011400064E670E080E090E00E943E278BEF91E043
:101150000E943C33682F8AEF91E069830E943C3300
:1011600069810E940A2C019641F44BEF51E06AEF2D
:1011700071E087E594E00E94C4050E947F05F89421
:1011800010928000109281008EEE95E89093850079
:10119000809384008091810084608093810080919D
:1011A0006F00816080936F0078941092B502109266
:1011B0005C0210925D0210925E0210925F0281E06A
:1011C00080936002109261026EE371E082E692E029
:1011D0000E94F52C66E471E082E692E00E94F52C14
:1011E0008BE793E00E94CF1C82E493E00E94371BC0
:1011F0000E943D0810925B0210925A0283E493E031
:101200000F90DF91CF911F910C940B200F931F93A0
:10121000CF93DF9300D000D000D0CDB7DEB78C01E4
:101220006FE471E0CE0101960E947D2CB801CE01E1
:1012300001960E948F2E6EE571E00E94A22EBC01E5
:101240008CE593E00E94E52ACE0101960E940F2CC6
:1012500026960FB6F894DEBF0FBECDBFDF91CF91BB
:101260001F910F9108950F931F93CF93DF9300D099
:1012700000D000D0CDB7DEB7CE0101960E94AD1BE5
:1012800086E0FE013196ACE3B3E001900D928A95C1
:10129000E1F760913F03CE0101960E94040363E2EF
:1012A00071E0CE0101960E94FF2E182FCE0101960B
:1012B0000E940F2C60913F03CE010196112389F00B
:1012C0000E94BB02CE0101960E94EC2F24E6269FCD
:1012D0008001279F100D112480914003080F111DDC
:1012E00013C00E94BB02CE0101960E94EC2F009118
:1012F000400310E0005F184D44E6469F9001479F71
:10130000300D1124020F131FCE0101960E940F2CE5
:10131000C80126960FB6F894DEBF0FBECDBFDF9191
:10132000CF911F910F9108958091A602843441F4CA
:101330000E94150383E493E00E940B2081E008954E
:1013400080E00895CF93DF9300D000D000D0CDB7D8
:10135000DEB742E065E083E493E00E9412206091F2
:101360001701CE0101960E948002BE016F5F7F4F80
:1013700083E493E00E94B82ACE0101960E940F2CCC
:1013800068E271E083E493E00E94C62A6091AE02B5
:10139000CE0101960E948002BE016F5F7F4F83E401
:1013A00093E00E94B82ACE0101960E940F2C66E2BB
:1013B00071E083E493E00E94C62A67EA72E083E466
:1013C00093E00E94B82A26960FB6F894DEBF0FBEAF
:1013D000CDBFDF91CF910895FF920F931F93CF93CD
:1013E000DF9300D000D000D0CDB7DEB70E94A209B5
:1013F000809117018D3018F08CE080931701809157
:101400001701811103C081E0809317018091B3021D
:10141000823089F1A0F48823F9F0813009F050C0BE
:10142000809117016AE00E940830692F70E04AE05D
:10143000CE0101960E94522D42E066E039C0833011
:1014400049F18430E9F567EA72E0CE0101960E9425
:10145000E02C42E06BE02CC0809117016AE00E9412
:101460000830682F70E04AE0CE0101960E94522DAC
:1014700042E065E01DC08091AE026AE00E94083043
:10148000682F70E04AE0CE0101960E94522D42E0A2
:1014900068E00EC08091AE026AE00E940830692FB9
:1014A00070E04AE0CE0101960E94522D42E069E0D0
:1014B000CE0101960E94BE03CE0101960E940F2C20
:1014C0008DEC92E00E949E268093A6028091A60257
:1014D000803329F18091A602813309F18091A6021F
:1014E0008233E9F08091A6028333C9F08091A6028D
:1014F0008433A9F08091A602853389F08091A602F9
:10150000863369F08091A602873349F08091A60264
:10151000883329F08091A602893309F06FC00E94B8
:1015200015036091A602CE0101960E940D2DCE01F9
:1015300001960E94EC2F162FCE0101960E940F2CCF
:101540008091B302823089F416301CF58091AE028E
:101550006AE00E940830892F90E02AE0129F800DF7
:10156000911D11248093AE0214C0833048F581117F
:1015700019C0123074F4809117016AE00E9408309B
:10158000892F90E02AE0129F800D911D11248093F5
:1015900017010E949409882309F4E8C081E0809330
:1015A0008B02E4C08130A9F7809117016AE00E94A4
:1015B00008309AE0899F100D112410931701E9CF8C
:1015C000833061F48091AE026AE00E9408309AE0B4
:1015D000899F100D11241093AE02DBCF8430C9F621
:1015E000113029F01230A9F660E271E002C063E226
:1015F00071E087EA92E00E94F52CCBCF8091A602A1
:10160000823451F40E9415038091B302811102C00B
:1016100084E010C081500EC08091A602833469F42A
:101620000E9415038091B302843019F41092B30222
:10163000B0CF8F5F8093B302ACCF8091A602843489
:1016400009F4ACCF8091A602813409F0A2CF63E205
:1016500071E087EA92E00E94FF2E882319F0109231
:10166000A50203C081E08093A5022091170130916B
:10167000A50280E197E2389F8001399F100D112467
:1016800084E6289F000D111D11248091AE02080FE1
:10169000111DF0906E02FF20B1F191E0F91279CFA7
:1016A000612F8CEF91E00E945B02602F8DEF91E043
:1016B0000E945B0283E493E00E940B2041E062E021
:1016C00083E493E00E94122065E970E083E493E0F4
:1016D0000E94952A42E061E083E493E00E94122098
:1016E00064E870E083E493E00E94952A6CED75E075
:1016F00080E090E00E943E2783E493E00E940B206C
:10170000F0928A0233C0612F8EEF91E00E945B025B
:10171000602F8FEF91E00E945B0283E493E00E94D0
:101720000B2041E062E083E493E00E94122064EB2E
:1017300070E083E493E00E94952A42E061E083E454
:1017400093E00E94122063EA70E083E493E00E9439
:10175000952A6CED75E080E090E00E943E2783E4DE
:1017600093E00E940B2081E080938A0226960FB6B8
:10177000F894DEBF0FBECDBFDF91CF911F910F91C7
:10178000FF9008950F931F93CF93DF93CDB7DEB7EC
:101790002D970FB6F894DEBF0FBECDBF8FEF91E04F
:1017A0000E943C33682F8EEF91E06D870E943C339E
:1017B0006D850E940A2C019641F44FEF51E06EEFC7
:1017C00071E088EF9AE20E94C4058FEF91E00E94D9
:1017D0003C33682F8EEF91E06D870E943C336D851E
:1017E0000E940A2C8C01BC01CE0107960E940E04B7
:1017F00022E030E040E050E0BE01695F7F4FCE0163
:1018000001960E94482FCE0101960E94EC2F609312
:101810001701CE0101960E940F2CCE0107960E945F
:101820000F2CB801CE0107960E940E0425E030E08F
:1018300043E050E0BE01695F7F4FCE0101960E94F8
:10184000482FCE0101960E94EC2F6093AE02CE018C
:1018500001960E940F2CCE0107960E940F2CB80112
:10186000CE0107960E940E042B853C8546E050E091
:10187000BE01695F7F4FCE0101960E94482FBE01D5
:101880006F5F7F4F87EA92E00E94E92CCE010196BC
:101890000E940F2CCE0107960E940F2C10928B02F3
:1018A00010928A0210926E021092B3028DEC92E0B6
:1018B0000E949E268093A60241E060E083E493E0CC
:1018C0000E9412206DE171E083E493E00E94952A6A
:1018D0000E94EC0980918B028111D0C080918A0214
:1018E000882321F38DEF91E00E943C33682F8CEF29
:1018F00091E06D870E943C336D850E940A2C019611
:1019000041F44DEF51E06CEF71E084EF91E00E9403
:10191000C4058DEF91E00E943C33682F8CEF91E07D
:101920006D870E943C336D850E940A2C8C01BC019E
:10193000CE0107960E940E0422E030E040E050E025
:10194000BE01695F7F4FCE0101960E94482FCE01F4
:1019500001960E94EC2F60931701CE0101960E9420
:101960000F2CCE0107960E940F2CB801CE010796CE
:101970000E940E0425E030E043E050E0BE01695FC4
:101980007F4FCE0101960E94482FCE0101960E9402
:10199000EC2F6093AE02CE0101960E940F2CCE0177
:1019A00007960E940F2CB801CE0107960E940E04E4
:1019B0002B853C8546E050E0BE01695F7F4FCE013C
:1019C00001960E94482FBE016F5F7F4F87EA92E029
:1019D0000E94E92CCE0101960E940F2CCE010796A1
:1019E0000E940F2C10928B0210928A0281E0809349
:1019F0006E021092B3028DEC92E00E949E268093BC
:101A0000A60241E060E083E493E00E94122068E0D7
:101A100071E083E493E00E94952A0E94EC09809192
:101A20008B0281112BC080918A02882321F341E02F
:101A300062E083E493E00E94122069EF70E083E4A7
:101A400093E00E94952A42E064E083E493E00E94E0
:101A500012206FEE70E083E493E00E94952A61E02B
:101A600089EF91E00E945B026CED75E080E090E010
:101A70000E943E2783E493E00E940B202D960FB630
:101A8000F894DEBF0FBECDBFDF91CF911F910F91B4
:101A900008950F931F93CF93DF938C010E94DD0471
:101AA000C2E7D2E0CE010E948D2FB801CE010E9484
:101AB000EC2E811107C0269682E0CA38D80791F72C
:101AC00080E001C081E0DF91CF911F910F910895D7
:101AD000CF93DF9383E493E00E940B2041E062E028
:101AE00083E493E00E94122061E671E083E493E0D6
:101AF0000E94C62A42E062E083E493E00E94122042
:101B0000C0E1D0E069EC7DE080E090E00E943E27FB
:101B10006FE170E080E090E00E943E276AEE71E0A5
:101B200083E493E00E94C62A219761F760ED7DE08F
:101B300080E090E00E943E2783E493E0DF91CF9124
:101B40000C940B201F93CF93DF930E94DD04C2E718
:101B5000D2E010E06EE771E0CE010E94FF2E8823F4
:101B600019F08FEF810F05C01F5F2696143091F793
:101B700083E0DF91CF911F910895CF92DF92EF9292
:101B8000FF920F931F93CF93DF93CDB7DEB72C97C0
:101B90000FB6F894DEBF0FBECDBF182F8DEC92E0CC
:101BA0000E949E268093A602123309F4FDC01333CF
:101BB00009F431C1113309F063C20E943C06882345
:101BC000C9F083E493E00E940B2041E062E083E4EB
:101BD00093E00E94122064EA71E083E493E00E94A3
:101BE000952A42E067E083E493E00E9412206EE9C8
:101BF00071E074C10E94150383E493E00E940B20FE
:101C000041E061E083E493E00E9412206BE871E020
:101C100083E493E00E94952A84E0809316010E9459
:101C2000330644E4D42E50E2C52E0E94940981115B
:101C300027C28091B5028F3008F05AC18DEC92E036
:101C40000E949E268093A6028091A602803321F1F5
:101C50008091A602813301F18091A6028233E1F0E6
:101C60008091A6028333C1F08091A6028433A1F053
:101C70008091A602853381F08091A602863361F0BF
:101C80008091A602873341F08091A602883321F02B
:101C90008091A602893329F480911601803108F4DD
:101CA0006DC18091A602813409F05BC080910A0168
:101CB000803209F07FC155C000E010E01A8309832B
:101CC000CE0101960E9456028F3F09F0C6C17801ED
:101CD0000AE011E0F80161918F01C7010E944433CD
:101CE000FFEFEF1AFF0A81E00631180799F783E446
:101CF00093E00E940B2041E066E083E493E00E94C1
:101D000012206DE671E083E493E00E94952A42E0A0
:101D100061E083E493E00E9412206AE571E083E4CD
:101D200093E00E94952A0E9433066CED75E080E0F6
:101D300090E00E943E2783E493E00E940B200E94E3
:101D400042050E94940981118CC18091B5028F30A7
:101D5000B0F383E493E00E940B20CE0107960E942B
:101D60000F2C8091A602833409F05FCF80910A0185
:101D7000803209F45ACF0E94150360911601615018
:101D80006093160142E083E493E00E94122066E231
:101D900071E083E493E00E94C62AE0911601F0E02E
:101DA000EA5FFE4FC08241CF0E94150383E493E0B7
:101DB0000E940B201092700210926F020E949B04EE
:101DC00081110DC00E94420580917002811190C066
:101DD00080916F02882381F00E94150389C083E4FB
:101DE00093E00E940B200E94BB048DEC92E00E94C5
:101DF0009E268093A60244C18DEC92E00E949E260E
:101E00008093A6020E94940981113AC18091B50283
:101E10008F30A0F26DC00E9415030E94A20D809326
:101E2000B1021092B20283E493E00E940B200E9460
:101E30009B0481119CC036E0D32E0E944205109174
:101E4000B202D19EB00111246E587D4FCE01019691
:101E50000E94E02C612F6370CE0101960E94550311
:101E6000CE0101960E940F2C8DEC92E00E949E26DE
:101E70008093A6028091A602813409F04CC00E9492
:101E8000150383E493E00E940B200E94D50500E037
:101E900010E0E82EF12C6FEFC8018E0D9F1D0E94FF
:101EA00044330F5F1F4F0C301105A9F70E949B04AC
:101EB000882319F141E062E083E493E00E9412205C
:101EC0006BE471E083E493E00E94952A42E064E0D1
:101ED00083E493E00E94122060E471E083E493E0E5
:101EE0000E94952A6CED75E080E090E00E943E270C
:101EF00083E493E00E940B20C3C00E9442050E942D
:101F00009409811108C08091B5028F30B0F383E449
:101F100093E00E940B208091A602823461F40E941B
:101F200015038091B202811103C08091B10201C0FA
:101F300081508093B2028091A602833471F40E9492
:101F400015038091B2029091B102891303C01092DF
:101F5000B20203C08F5F8093B2020E949409811184
:101F60008FC08091B5028F3008F467CFC1CF83E472
:101F700093E00E940B200E94BB0482C00E941503C4
:101F800042E06091160183E493E00E941220609188
:101F9000A60283E493E00E94C82A809116019091E2
:101FA000A602E82FF0E0EA5FFE4F90838F5F8093F8
:101FB000160177CE0E9415036EE771E0CE010796F9
:101FC0000E947D2C0AE011E0F80161918F01CE01A1
:101FD00007960E94ED2DF1E006311F07A9F7BE011B
:101FE000695F7F4FCE0101960E94E02CCE010196E1
:101FF0000E945C06182FCE0101960E940F2C11231F
:1020000009F45ACE83E493E00E940B2041E062E0A1
:1020100083E493E00E9412206CE771E083E493E094
:102020000E94952A42E065E083E493E00E9412203A
:1020300064E771E083E493E00E94952A6CED75E01B
:1020400080E090E00E943E2783E493E00E940B2012
:10205000CE0107960E940F2C13C00E94940988237A
:1020600019F0D092A60279CE8091B5028F3008F097
:1020700070CE045F1F4F0033110509F01FCE6DCEE7
:102080002C960FB6F894DEBF0FBECDBFDF91CF9177
:102090001F910F91FF90EF90DF90CF900895CF9216
:1020A000EF92FF920F931F93CF93DF93CDB7DEB7DD
:1020B00069970FB6F894DEBF0FBECDBF182F8DEC19
:1020C00092E00E949E268093A602133309F4E0C199
:1020D0005CF41133B1F0123309F01EC561E488E8F5
:1020E00094E00E94C82A18C5143309F437C2153386
:1020F00009F012C50E94150383E493E00E940B20AF
:1021000060C40E94150383E493E00E940B20609159
:102110003F03CE0101960E94BB02CE0101960E94B0
:10212000EC2F60931701CE0101960E940F2C609155
:102130004003CE0101960E948002CE0101960E94CA
:10214000EC2F6093AE02CE0101960E940F2C60919D
:102150004103CE0101960E948002CE0101960E94A9
:10216000EC2F6093AD02CE0101960E940F2C60917E
:102170003F03CE0101960E940403BE016F5F7F4FB3
:1021800087EA92E00E94E92CCE0101960E940F2C72
:102190001092B40206E06CE0F62EEE24E3941AE00E
:1021A0000E9494098111B8C48091B5028F3008F063
:1021B00095C18DEC92E00E949E268093A6028091AC
:1021C000A602823461F40E9415038091B402811149
:1021D00003C00093B40203C081508093B402809185
:1021E000A602833461F40E9415038091B402863004
:1021F00019F41092B40203C08F5F8093B4028091EF
:1022000017018D3010F0F0921701809117018111A4
:1022100002C0E092170141E064E083E493E00E9491
:10222000122060911701CE0101960E948002BE012A
:102230006F5F7F4F83E493E00E94B82ACE0101963E
:102240000E940F2C6AE383E493E00E94C82A609105
:10225000AE02CE0101960E948002BE016F5F7F4FE9
:1022600083E493E00E94B82ACE0101960E940F2CCD
:102270006AE383E493E00E94C82A6091AD02CE0134
:1022800001960E948002BE016F5F7F4F83E493E05E
:102290000E94B82ACE0101960E940F2C60E283E4CE
:1022A00093E00E94C82A67EA72E083E493E00E9408
:1022B000B82A8091B40290E08730910508F06FC091
:1022C000FC01EC5CFF4F0C947D3080911701612F75
:1022D0000E940830682F70E04AE0CE0101960E940B
:1022E000522D41E064E053C080911701612F0E949C
:1022F0000830692F70E04AE0CE0101960E94522D0D
:1023000041E065E044C08091AE02612F0E94083038
:10231000682F70E04AE0CE0101960E94522D41E004
:1023200067E035C08091AE02612F0E940830692FAE
:1023300070E04AE0CE0101960E94522D41E068E033
:1023400026C08091AD02612F0E940830682F70E096
:102350004AE0CE0101960E94522D41E06AE017C08A
:102360008091AD02612F0E940830692F70E04AE031
:10237000CE0101960E94522D41E06BE008C067EA51
:1023800072E0CE0101960E94E02C41E06DE0CE01AA
:1023900001960E94BE03CE0101960E940F2C8091EF
:1023A000A602803309F43CC38091A602813309F46C
:1023B00037C38091A602823309F432C38091A6020A
:1023C000833309F42DC38091A602843309F428C312
:1023D0008091A602853309F423C38091A602863337
:1023E00009F41EC38091A602873309F419C38091B2
:1023F000A602883309F414C38091A602893389F4B4
:102400000FC3223074F480911701612F0E940830AD
:10241000892F90E03AE0239F800D911D1124809335
:1024200017018091A602813409F0BACE60E271E012
:1024300087EA92E00E94FF2E882329F080911701FD
:10244000845F8093170160913C0370E06053784F84
:10245000C090AD02E090AE020091170120913E03C2
:1024600040913D03CE0101960E94231BCE010196AF
:102470000E943D1BCE0101960E94AD1B86E0FE012D
:102480003196ACE3B3E001900D928A95E1F744C335
:102490000E94150383E493E00E940B2041E062E078
:1024A00083E493E00E9412206CE872E083E493E0FE
:1024B0000E94952A42E061E083E493E00E941220AA
:1024C0006AE772E083E493E00E94952A0E949409EF
:1024D000811122C38091B5028F3028F083E493E00C
:1024E0000E940B2019C38DEC92E00E949E268093DF
:1024F000A6028091A602813349F0823379F683E403
:1025000093E00E940B200E94C20BC8CF83E493E0AB
:102510000E940B2041E063E083E493E00E941220DC
:102520006EE672E083E493E00E94952A42E064E064
:1025300083E493E00E94122064E672E083E493E077
:102540000E94952A60E089EF91E00E945B026CEDA9
:1025500075E080E090E00E943E279CCF0E9415032A
:1025600083E493E00E940B2086EB92E00E9490238C
:1025700080919002882319F010929002CDC241E020
:1025800060E083E493E00E94122060E572E083E45F
:1025900093E00E94952A10E08DEC92E00E949E2626
:1025A0008093A6020E949409811108C08091B5020F
:1025B0008F3040F083E493E00E940B2081E0809311
:1025C0008F0241C08091A602803329F18091A6023A
:1025D000813309F18091A6028233E9F08091A6024D
:1025E0008333C9F08091A6028433A9F08091A602BA
:1025F000853389F08091A602863369F08091A60226
:10260000873349F08091A602883329F08091A60291
:10261000893309F07BC20E9415036091A60286EB04
:1026200092E00E947E2342E067E0610F83E493E042
:102630000E94122063E283E493E00E94C82A1F5F95
:10264000143008F4A9CF80918F02882319F01092DA
:102650008F0262C286EB92E00E949423882309F4E1
:1026600090C183E493E00E940B2086EB92E00E94ED
:10267000902341E060E083E493E00E9412206CE349
:1026800072E083E493E00E94952A10E08DEC92E0E2
:102690000E949E268093A6020E949409811108C080
:1026A0008091B5028F3040F083E493E00E940B20CC
:1026B00081E080938D0242C08091A602803329F18F
:1026C0008091A602813309F18091A6028233E9F05C
:1026D0008091A6028333C9F08091A6028433A9F0C9
:1026E0008091A602853389F08091A602863369F035
:1026F0008091A602873349F08091A602883329F0A1
:102700008091A602893309F003C20E9415038091CB
:10271000A602E12FF0E0EB56FD4F808342E067E038
:10272000610F83E493E00E94122063E283E493E06C
:102730000E94C82A1F5F143008F4A8CF80918D0230
:1027400081116DC083E493E00E940B2041E060E0C2
:1027500083E493E00E94122067E272E083E493E056
:102760000E94952A10E08DEC92E00E949E268093B4
:10277000A6020E949409811108C08091B5028F3091
:1027800040F083E493E00E940B2081E080938D026F
:1027900042C08091A602803329F18091A602813344
:1027A00009F18091A6028233E9F08091A602833379
:1027B000C9F08091A6028433A9F08091A6028533E6
:1027C00089F08091A602863369F08091A602873352
:1027D00049F08091A602883329F08091A6028933BE
:1027E00009F098C10E9415038091A602E12FF0E044
:1027F000EF56FD4F808342E067E0610F83E493E092
:102800000E94122063E283E493E00E94C82A1F5FC3
:10281000143008F4A8CF80918D02882319F010920B
:102820008D02A6CE61E972E0CE0107960E947D2C52
:1028300024E030E040E050E0BE01695F7F4FCE0110
:1028400001960E94482F65E972E0CE0143960E94EE
:102850007D2C24E030E040E050E0BE016D5E7F4F13
:10286000CE010D960E94482FBE016F5F7F4FCE01B3
:102870000D960E94EC2E182FCE010D960E940F2C63
:10288000CE0143960E940F2CCE0101960E940F2C80
:10289000CE0107960E940F2C83E493E0112309F4E4
:1028A0004FC00E940B2041E065E083E493E00E946A
:1028B00012206EE172E083E493E00E94952A42E0E8
:1028C00060E083E493E00E94122069E072E083E418
:1028D00093E00E94952A61E972E0CE0107960E947A
:1028E0007D2C24E030E040E050E0BE01695F7F4F86
:1028F000CE0101960E94482FCE0101960E94EC2F36
:10290000DC01CB014BEF51E06AEF71E00E94C4059E
:10291000CE0101960E940F2CCE0107960E940F2C2B
:102920000E947F056CED75E080E090E00E943E27FC
:1029300083E493E00E940B2081E08093900218CE04
:102940000E940B2041E061E083E493E00E941220AA
:1029500068EF71E083E493E00E94952A42E066E02C
:1029600083E493E00E94122062EF71E083E493E03D
:102970000E94952A6CED75E080E090E00E943E2771
:1029800070CE83E493E00E940B2041E063E083E497
:1029900093E00E94122062EE71E083E493E00E94D3
:1029A000952A6CED75E080E090E00E943E27D8CD3E
:1029B0008091B5028F3008F091CD8091A6020E94DF
:1029C000BD0D40E062E083E493E00E94122064EDDC
:1029D00071E083E493E00E94952A41E062E083E4A1
:1029E00093E00E94122064EC71E083E493E00E9483
:1029F000952A42E062E083E493E00E94122063EBB8
:102A000071E083E493E00E94952A8DEC92E00E94AD
:102A10009E268093A6020E949409882349F27CC0D6
:102A20000E9415036091A602CE0101960E940D2D11
:102A3000CE0101960E94EC2F262FCE010196298F00
:102A40000E940F2C8091B40290E0298D873091056F
:102A500008F0E7CCFC01E55CFF4F0C947D308091E1
:102A60001701612F0E9408309AE0899F200D1124E0
:102A700020931701D6CC26300CF0D3CC8091AE0237
:102A8000612F0E940830892F90E03AE0239F800D4B
:102A9000911D11248093AE02C4CC8091AE02612FAF
:102AA0000E9408309AE0899F200D11242093AE02E5
:102AB000B8CC26300CF0B5CC8091AD02612F0E94CD
:102AC0000830892F90E03AE0239F800D911D11245A
:102AD0008093AD02A6CC8091AD02612F0E94083098
:102AE0009AE0899F200D11242093AD029ACC2130C9
:102AF00031F0223009F095CC60E271E002C063E26F
:102B000071E087EA92E00E94F52C8BCC115097CDB2
:102B1000115010CE11507BCE69960FB6F894DEBFDF
:102B20000FBECDBFDF91CF911F910F91FF90EF901E
:102B3000CF900895CF92EF920F93CF93DF9320E041
:102B400048E067E08CE593E00E94B62276E0C72E6D
:102B5000E9E0EE2E0AE02BE04CE06DE083E493E048
:102B60000E94CA2040E050E0BA018CE393E00E944A
:102B7000C51AF4E0EF2E04E028E131E04CE151E029
:102B800068EF71E08DEC92E00E94BD2362E771E096
:102B900086EB92E00E94742363E271E087EA92E0A0
:102BA0000E947D2C6CE472E08DE992E00E947D2C05
:102BB000C2E7D2E06CE472E0CE010E947D2C269642
:102BC00082E0CA38D807B1F76CE472E088E692E098
:102BD0000E947D2C6CE472E082E692E0DF91CF915E
:102BE0000F91EF90CF900C947D2C82E692E00E94A2
:102BF0000F2C88E692E00E940F2C84E892E00E945D
:102C00000F2C8EE792E00E940F2C88E792E00E9442
:102C10000F2C82E792E00E940F2C8DE992E00E9437
:102C20000F2C87EA92E00E940F2C8CE593E00C9425
:102C30005D22CF93DF938CE593E00E947D211816EF
:102C400019060CF03FC08CE593E00E94F0208093C1
:102C50005B036AE070E080E090E00E943E27809194
:102C60005B038A32B9F58CE593E00E94F0208093F3
:102C70005B036AE070E080E090E00E943E276CE435
:102C800072E088E692E00E94F52CC6E0D0E0609108
:102C90005B03633299F0219789F088E692E00E9405
:102CA000ED2D8CE593E00E94F02080935B036AE0B9
:102CB00070E080E090E00E943E27E9CFDF91CF9165
:102CC0000C943D086CE472E088E692E0DF91CF91CD
:102CD0000C94F52CDF91CF910895CF93DF9300D022
:102CE00000D000D0CDB7DEB760E871E0CE0101962C
:102CF0000E947D2CCE0101960E940609CE0101960C
:102D00000E940F2C48E55BE160E070E08CE593E009
:102D10000E94372B66E871E08CE593E00E94FF2B60
:102D20008823B1F18CE593E00E94F02080935B034F
:102D30006CE472E0CE0101960E947D2C60915B03F1
:102D40006C3289F0CE0101960E94ED2D6AE070E0B0
:102D500080E090E00E943E278CE593E00E94F02006
:102D600080935B03EBCF83E493E00E940B20BE01D2
:102D70006F5F7F4F83E493E00E94B82A60E472E4BF
:102D80008FE090E00E943E27CE0101960E940F2C1A
:102D900026960FB6F894DEBF0FBECDBFDF91CF9160
:102DA00008959F92AF92BF92CF92DF92EF92FF92DF
:102DB0000F931F93CF93DF93CDB7DEB76F970FB607
:102DC000F894DEBF0FBECDBF8E010F5F1F4FC8014D
:102DD0000E946D16C8010E940F2C89EF91E00E949D
:102DE0003C33D82E81E040E060E0D81273C083E429
:102DF00093E00E9412206AE871E083E493E00E946D
:102E0000C62A0E9433097C018DEF91E00E943C3379
:102E1000682F8CEF91E06F8F0E943C336F8D0E9482
:102E20000A2CE816F90600F10E9433097C018FEFA5
:102E300091E00E943C33682F8EEF91E06F8F0E94EB
:102E40003C336F8D0E940A2CE816F90668F48091D5
:102E50005A028D1549F065E488E894E00E94C82A7A
:102E6000D0925A0210925B020E9433097C018DEFCE
:102E700091E00E943C33682F8CEF91E06F8F0E94AD
:102E80003C336F8D0E940A2CE816F90698F00E94D8
:102E900033097C018FEF91E00E943C33682F8EEF65
:102EA00091E06F8F0E943C336F8D0E940A2CE816D0
:102EB000F906D0F080915B02FF24F3948F15A1F006
:102EC00064E488E894E00E94C82AF0925B021092C1
:102ED0005A020AC083E493E00E9412206CE871E079
:102EE00083E493E00E94C62A88E894E00E946D285B
:102EF0001816190614F588E894E00E948628809335
:102F000071028835C1F08A35C1F481E080935C029A
:102F100080935D0280935E0280935F0280936002E3
:102F2000809361026EE871E082E692E00E94F52CE7
:102F30000E94070802C00E94680DC8010E94AD1BD4
:102F400086E0F801ACE3B3E001900D928A95E1F7D9
:102F500041E064E083E493E00E94122060913F032B
:102F6000C8010E94BB02B80183E493E00E94B82A22
:102F7000C8010E940F2C6AE383E493E00E94C82AF0
:102F800060914003C8010E948002B80183E493E08D
:102F90000E94B82AC8010E940F2C6AE383E493E0E0
:102FA0000E94C82A60914103C8010E948002B801B2
:102FB00083E493E00E94B82AC8010E940F2C60E2CB
:102FC00083E493E00E94C82A60913F03C8010E94F5
:102FD0000403B80183E493E00E94B82AC8010E9468
:102FE0000F2C8DEC92E00E949E268093A602809189
:102FF000A602813409F079C10E94150383E493E0AD
:103000000E940B2086EB92E00E94902310928C028B
:1030100094E1A92EB12C80918C02811166C141E00E
:1030200062E083E493E00E9412206BEA72E083E4A2
:1030300093E00E94952AF12C8DEC92E00E949E264E
:103040008093A6020E949409811108C08091B50264
:103050008F3040F083E493E00E940B2081E0809366
:103060008E0242C08091A602803329F18091A6028F
:10307000813309F18091A6028233E9F08091A602A2
:103080008333C9F08091A6028433A9F08091A6020F
:10309000853389F08091A602863369F08091A6027B
:1030A000873349F08091A602883329F08091A602E7
:1030B000893309F053C20E9415036091A60286EB82
:1030C00092E00E947E2342E067E06F0D83E493E08C
:1030D0000E94122063E283E493E00E94C82AF394E2
:1030E00093E09F1508F0A8CF80918E02882319F0F5
:1030F00010928E02FAC086EB92E00E9494238823FD
:1031000009F4BEC081E080938C0286EB92E00E94BD
:1031100090231092B00283E493E00E940B20992444
:1031200093948DEC92E00E949E268093A60269E91A
:1031300071E0C8010E947D2C65EA71E0CE0107961E
:103140000E947D2C64EB71E0CE010D960E947D2CD7
:1031500065EC71E0CE0143960E947D2C68ED71E034
:10316000CE0149960E947D2CF090B002F11028C04B
:103170008091A402811106C083E493E00E940B2099
:103180009092A4021092A3027801D12CF7018481BD
:103190009581B501681B790B769567954D2D83E474
:1031A00093E00E941220B70183E493E00E94B82AC2
:1031B000D394F6E0EF0EF11C84E0D812E7CF22C0E2
:1031C00091E0F9121FC08091A302811106C083E42F
:1031D00093E00E940B20F092A3021092A4028D8D26
:1031E0009E8DB501681B790B7695679540E083E469
:1031F00093E00E941220BE01675E7F4F83E493E05C
:103200000E94B82A8DEC92E00E949E268093A6022E
:103210008091A602823421F08091A602833441F489
:103220000E9415038091B00281119AC19092B00260
:103230000E949409811111C08091B5028F3028F04D
:1032400083E493E00E940B2008C08091A6020E94B4
:103250004F10CC24C394D12C02C0C12CD12CFE0120
:103260007F967F01F6E0EF1AF108C7010E940F2C4C
:10327000E016F106B9F7CA94CD2809F452CF2BC055
:103280000E949409811131C08091B5028F3028F0DD
:1032900083E493E00E940B2028C083E493E00E9423
:1032A0000B2041E063E083E493E00E9412206BE98D
:1032B00072E083E493E00E94952A6CED75E080E073
:1032C00090E00E943E2783E493E00E940B2086EB6F
:1032D00092E00E9490230E949409811106C080917F
:1032E000B5028F3008F497CED3CF8091A6028A32F0
:1032F00029F466E488E894E00E94C82A8091A60236
:10330000833229F467E488E894E00E94C82A0E9486
:1033100019166CE472E088E692E00E94FF2E81119B
:1033200083C064E471E088E692E00E94FF2E882367
:1033300001F161E488E894E00E94C82AFF24F39434
:10334000F0925F02F0925E02F0925D02F0925C02F7
:10335000F0926002109261020E94070810925F02D0
:1033600010925E0210925D0210925C02F092600276
:1033700051C06CEE71E088E692E00E94FF2E882337
:1033800079F062E488E894E00E94C82A81E08093A2
:103390005F0280935E0280935D0280935C0220C096
:1033A0006FEE71E088E692E00E94FF2E882311F014
:1033B00063E409C062EF71E088E692E00E94FF2EAC
:1033C000882389F064E488E894E00E94C82A109277
:1033D0005F0210925E0210925D0210925C0281E028
:1033E0008093600217C065EF71E088E692E00E946A
:1033F000FF2E882399F065E488E894E00E94C82AAB
:1034000010925F0210925E0210925D0210925C02B6
:1034100010926002109261020E9407086CE472E050
:1034200088E692E00E94F52C6CE472E088E692E077
:103430000E94FF2E811197C062E672E0C8010E94CF
:10344000E02CC8010E94490DF82EC8010E940F2CE3
:10345000FF2009F488C064E471E088E692E00E94ED
:10346000FF2E8823F9F061E488E894E00E94C82ADE
:1034700011E010935F0210935E0210935D021093AF
:103480005C0210936002109261020E940708109281
:103490005F0210925E0210925D0210925C02109325
:1034A000600251C06CEE71E088E692E00E94FF2E4F
:1034B000882379F062E488E894E00E94C82A81E0D9
:1034C00080935F0280935E0280935D0280935C0232
:1034D00020C06FEE71E088E692E00E94FF2E882304
:1034E00011F063E409C062EF71E088E692E00E94A7
:1034F000FF2E882389F064E488E894E00E94C82ABB
:1035000010925F0210925E0210925D0210925C02B5
:1035100081E08093600217C065EF71E088E692E079
:103520000E94FF2E882399F065E488E894E00E94C9
:10353000C82A10925F0210925E0210925D021092F1
:103540005C0210926002109261020E9407086CE413
:1035500072E088E692E00E94F52C05C0FA94BFCD97
:103560001092B00265CE6F960FB6F894DEBF0FBE14
:10357000CDBFDF91CF911F910F91FF90EF90DF9022
:10358000CF90BF90AF909F900895CF92DF92EF922F
:10359000FF92CF93DF93EC01405853446D4678433C
:1035A000ECE3CE2ED12CE12CF12CCB01BA01A701FA
:1035B00096010E943C306D83CA01B901A7019601B2
:1035C0000E943C306C83CA01B90128E130E040E040
:1035D00050E00E943C306B83188243E95EEFE88143
:1035E0008E2F8370A1E009F0A0E08A2F90E0BC014B
:1035F00063597E4F2617370740F0BA01681B790BD5
:10360000260F371FEF5FE883EACF81E08983898146
:10361000E82FF0E0E251FD4FE491AA2319F0823047
:1036200009F4EF5FF0E02E173F0720F02E1B3F0B51
:103630008F5FECCF2F5F2A83DF91CF91FF90EF90C8
:10364000DF90CF900895CF92EF920F93FC01603DF1
:1036500087E0780710F0605D7740608341832283C4
:103660000383E482C5820F91EF90CF9008958BE79A
:1036700093E00E94CF1C81E008951F93CF93DF93C6
:10368000EC0168E670E08BE793E00E94E31C60E0E9
:103690008BE793E00E94901C2D811AE0822F612F0E
:1036A0000E940830682F660F680F660F620F8BE765
:1036B00093E00E94901C2C81822F612F0E94083081
:1036C000682F660F680F660F620F8BE793E00E940A
:1036D000901C2B81822F612F0E940830682F660F6B
:1036E000680F660F620F8BE793E00E94901C60E00A
:1036F0008BE793E00E94901C2A81822F612F0E9409
:103700000830682F660F680F660F620F8BE793E033
:103710000E94901C2981822F612F0E940830682FFF
:10372000660F680F660F620F8BE793E00E94901C94
:103730002881822F612F0E940830682F660F680F42
:10374000660F620F8BE793E00E94901C8BE793E07B
:10375000DF91CF911F910C945C1DCF92DF92EF927D
:10376000FF920F931F93CF93DF93EC0168E670E015
:103770008BE793E00E94E31C60E08BE793E00E94FC
:10378000901C8BE793E00E945C1D47E050E068E6E8
:1037900070E08BE793E00E94591D8BE793E00E9455
:1037A000401C8F77982F92959F701AEF082F919F4A
:1037B000000D11248BE793E00E94401C9C013327ED
:1037C000A4E035952795AA95E1F7F82E129FF00C05
:1037D00011248BE793E00E94401C9C013327B4E046
:1037E00035952795BA95E1F7E82E129FE00C112444
:1037F0008BE793E00E94401C8BE793E00E94401C03
:103800009C01332794E0359527959A95E1F7D82EBA
:10381000129FD00C11248BE793E00E94401C9C0166
:10382000332744E0359527954A95E1F7C82E129F36
:10383000C00C11248BE793E00E94401C9C013327AD
:1038400054E0359527955A95E1F7129F800D112484
:103850008883C982DA82EB82FC820D83CE01DF91FC
:10386000CF911F910F91FF90EF90DF90CF9008952F
:103870008091AB0390E02091AC03821B91090895E5
:103880002091AC038091AB03281750F4E22FF0E0B5
:10389000E355FC4F808190E02F5F2093AC030895A7
:1038A0008FEF9FEF0895E091AC038091AB03E81791
:1038B00030F4F0E0E355FC4F808190E008958FEF05
:1038C0009FEF08950895CF92DF92EF92FF920F93AA
:1038D0001F93CF93DF937C01CB018A012091870353
:1038E000222389F0EB016B01C40ED51ECC15DD053A
:1038F00069F06991D701ED91FC910190F081E02D83
:10390000C7010995F3CF642F0E94201EC801DF91E3
:10391000CF911F910F91FF90EF90DF90CF9008957E
:10392000CF93DF931F92CDB7DEB7698320918703D2
:103930002223D1F020918803203240F021E030E0B2
:10394000FC013383228380E090E015C080918903DD
:10395000E82FF0E0E657FC4F998190838F5F8093CA
:1039600089038093880305C061E0CE0101960E941F
:10397000201E81E090E00F90DF91CF910895FC012F
:103980001382128248EE53E060E070E04483558376
:10399000668377838CE092E0918380830895109210
:1039A000AC031092AB0310928903109288030C941D
:1039B000631D81E0809387036093AA0310928903BB
:1039C0001092880308950C94D91C0F93062F21E0C0
:1039D000409188036AE873E08091AA030E94C91DA0
:1039E0001092890310928803109287030F91089513
:1039F0008F929F92AF92BF92CF92DF92EF92FF92FF
:103A00000F931F93CF93DF93EC01F62ED42E480132
:103A10005901EE2019F10E94D91C1E2D143008F016
:103A200013E01150B8F0E881F98128E0129FB0014D
:103A30001124A501940104C0569547953795279503
:103A40006A95D2F7CA01B9010190F081E02DCE014B
:103A50000995E7CF60E0CE010E94E51C4D2D413273
:103A600008F040E22C2D6DEA73E08F2D0E94811D3D
:103A70001092AC038093AB03DF91CF911F910F9114
:103A8000FF90EF90DF90CF90BF90AF909F908F907E
:103A90000895CF92EF920F931F93C22EE12C00E076
:103AA00010E098010E94F81C1F910F91EF90CF90A9
:103AB000089521E00C94491D61E00C94E51C8BE70E
:103AC00093E00C94BF1C10923A0481E08093380478
:103AD0001092370461E082E10E940E2861E083E1E8
:103AE0000E940E28E9EBF0E080818E7F8083808148
:103AF0008D7F808388E48093B80085E48093BC0048
:103B00000895413208F043C090913A049111FCCFDE
:103B100091E090933A04209338042FEF2093CD0343
:103B200010921204240F2093110490933904909161
:103B30003904880F892B80933904809137048130B0
:103B400061F410923704809139048093BB00809116
:103B5000BC0083FDF8CF85EC01C085EE8093BC00EE
:103B600080913A048130E1F380911204841710F4BB
:103B70004091120423E134E0FB01D9018A2F821B1A
:103B8000841718F48D918193F9CF842F089580E0E4
:103B900008950F93413208F04AC090913A04911170
:103BA000FCCF92E090933A04009338049FEF9093F7
:103BB000CD031092120440931104FB0163E174E001
:103BC000DB019A2F961B941718F491919D93F9CFCE
:103BD0001092390490913904880F892B809339040D
:103BE00080913704813061F4109237048091390458
:103BF0008093BB008091BC0083FDF8CF85EC01C0B1
:103C000085EE8093BC00222321F080913A0482301B
:103C1000E1F38091CD038F3F61F08091CD0380323D
:103C200051F08091CD03803341F483E007C081E0FF
:103C300005C080E003C082E001C084E00F910895D8
:103C4000613298F420913A04243089F46093EF03B0
:103C5000FC0181EF93E0DC012A2F281B261718F4C2
:103C600021912D93F9CF80E0089581E0089582E0BD
:103C7000089585ED8093BC008091BC0084FDFCCF4D
:103C800010923A04089585EC8093BC0010923A0497
:103C900008951F920F920FB60F9211242F933F9306
:103CA0004F935F936F937F938F939F93AF93BF9344
:103CB000EF93FF938091B900887F803609F49EC00E
:103CC00078F5883209F45DC090F4803109F456C06B
:103CD00038F4882309F4F5C0883009F44FC0F5C0E2
:103CE000883109F44EC0803209F45FC0EEC08034E0
:103CF00009F46AC058F4803309F457C0883309F0D6
:103D0000E4C08093CD030E94431EDFC0803509F4D8
:103D10004FC0883509F45DC0883409F0D6C0D3C0DF
:103D2000883909F4C4C0A8F4883709F467C038F4A6
:103D3000883609F463C0803709F460C0C6C088388B
:103D400009F4B5C0803909F45FC0803809F0BDC0FE
:103D50005BC0803B09F483C038F4803A09F466C044
:103D6000883A09F47CC0B1C0803C09F4A4C0883C06
:103D700009F4A1C0883B09F487C0A7C08091390429
:103D800010C09091120480911104981770F5E09181
:103D9000120481E08E0F80931204F0E0ED5EFB4F81
:103DA00080818093BB0085EC83C08093CD038BC062
:103DB000E091120481E08E0F809312048091BB0089
:103DC000F0E0ED5EFB4F808390911204809111042E
:103DD0006BC0E091120481E08E0F809312048091F9
:103DE000BB00F0E0ED5EFB4F8083809138048111D1
:103DF0006AC081E08093370484EA5EC083E08093E8
:103E00003A041092CE03CFCF8091CE03803208F0D7
:103E10004EC0E091CE0381E08E0F8093CE0380915F
:103E2000BB00F0E0E153FC4F8083BDCF0E94431EF6
:103E30008091CE03803230F4E091CE03F0E0E15384
:103E4000FC4F10826091CE0370E0E0913304F0915A
:103E500034048FEC93E009951092CE0336C084E0D1
:103E600080933A041092F0031092EF03E09135042E
:103E7000F091360409958091EF03811105C081E02E
:103E80008093EF031092F103E091F00381E08E0F35
:103E90008093F003F0E0EF50FC4F80818093BB00F3
:103EA0009091F0038091EF03981708F47CCF85E898
:103EB0008093BC000AC085EC8093BC0010923A0449
:103EC00004C01092CD030E94391EFF91EF91BF9163
:103ED000AF919F918F917F916F915F914F913F91A2
:103EE0002F910F900FBE0F901F901895CF93DF93D7
:103EF000EC0160E08E810E940E2881E090E00E943B
:103F0000662761E08E810E940E2881E090E00E9489
:103F1000662760E08E810E940E2884E690E0DF91A3
:103F2000CF910C946627EF92FF920F931F93CF933C
:103F3000DF938C01C0E0D0E0E62EF12CB7010C2E0F
:103F400002C0759567950A94E2F76170F801EC0F6D
:103F5000FD1F87810E940E282196C430D10571F77C
:103F6000C801DF91CF911F910F91FF90EF900C94BA
:103F7000761FEF92FF920F931F93CF93DF938C01E5
:103F8000C0E0D0E0E62EF12CB7010C2E02C07595F2
:103F900067950A94E2F76170F801EC0FFD1F8781C5
:103FA0000E940E282196C830D10571F7C801DF9113
:103FB000CF911F910F91FF90EF900C94761F1F935C
:103FC000CF93DF93EC01162F642F8C810E940E2873
:103FD0008D818F3F19F060E00E940E288F85612F40
:103FE00084FF06C0CE01DF91CF911F910C94B91FC1
:103FF00070E084E0759567958A95E1F7CE010E949F
:10400000931F612FCE01DF91CF911F910C94931FCD
:1040100040E00C94DF1F61E00E94082080ED97E0F3
:104020000C946627443008F043E0FC0123894217D2
:1040300010F04FEF420FFC01E40FF11D2489260F11
:104040002068622F0C940820FC016089262F2460D0
:10405000208B6C600C9408200F931F93CF93DF93F9
:10406000EC01423018F08F8588608F874B8B1C8A5B
:1040700080E48D8B6E8B70E0605C7F4F6F8B2223B2
:1040800029F0413019F48F8584608F8761E08C813D
:104090000E94D5278D818F3F19F061E00E94D527BE
:1040A00061E08E810E94D52700E010E08F8584FFBB
:1040B00003C088E090E002C084E090E00817190790
:1040C00054F4FE01E00FF11F61E087810E94D527C3
:1040D0000F5F1F4FEBCF80E593EC0E94662760E0F7
:1040E0008C810E940E2860E08E810E940E288D81B6
:1040F0008F3F19F060E00E940E286F8564FD1DC09F
:1041000063E0CE010E94931F84E991E10E9466273B
:1041100063E0CE010E94931F84E991E10E9466272B
:1041200063E0CE010E94931F86E990E00E9466271B
:1041300062E0CE010E94931F16C06062CE010E9411
:10414000082084E991E10E9466276F856062CE01B4
:104150000E94082086E990E00E9466276F856062D1
:10416000CE010E9408206F856062CE010E94082067
:1041700084E0888BCE010E942420CE010E940B2077
:1041800082E0898B66E0CE01DF91CF911F910F9184
:104190000C940820CF92EF920F93FC0113821282AD
:1041A0008CE192E09183808364838FEF85834683E3
:1041B00027830087E186C2861386148615861686B5
:1041C000178620E041E060E1CF010F91EF90CF90A2
:1041D0000C942C2041E00E94DF1F81E090E00895C4
:1041E00020917D0430917E0428173907B9F490910D
:1041F0003B0480913C04981789F0E0913B04F0E087
:10420000E35CFB4F808120913B0430E02F5F3F4F08
:104210002F73332720933B0490E008958FEF9FEF97
:1042200008951F93CF93DF93DC015C968D919C9151
:104230005D97009749F481E090E013969C938E93EC
:10424000129780E090E03BC05196ED91FC9152971F
:1042500050962C915097322F30951FB75E964C9107
:104260005E9741FB772770F941FD6095F894408196
:10427000772311F0422B01C043234083EC012197A7
:10428000F1F748E0508160FF02C0522B01C0532378
:104290005083EC012197F1F76695415099F78081A1
:1042A000772311F0832301C0822B80831FBF5C968C
:1042B0008D919C915D970197F1F781E090E0DF91FE
:1042C000CF911F91089520917D0430917E0428178D
:1042D000390781F490913B0480913C04981751F088
:1042E000E0913B04F0E0E35CFB4F8081992787FD80
:1042F000909508958FEF9FEF089520917D04309160
:104300007E042817390771F480913C0420913B0406
:1043100090E0805C9F4F821B910960E470E00E94F6
:104320002830089580E090E0089520917D04309138
:104330007E042817390739F48FB7F89410923C049B
:1043400010923B048FBF0895E0917D04F0917E04AC
:10435000E817F90769F4A389B4899C918589809548
:1043600089238C9310927E0410927D0481E008953D
:1043700080E00895CF93DF93EC018A8D9B8D892B8C
:10438000F1F080917D0490917E048C179D07B9F027
:10439000009711F00E94A4218E8D8E7F8E8F109237
:1043A0003C0410923B04D0937E04C0937D04EB89BF
:1043B000FC8980819D89892B808381E001C080E018
:1043C000DF91CF9108951F920F920FB60F92112493
:1043D0002F933F934F935F936F937F938F939F930D
:1043E000AF93BF93EF93FF93E0917D04F0917E0430
:1043F000309709F451C0868DA685B785958581FFD4
:1044000004C08C91892329F447C08C91892309F039
:1044100043C0A389B4899C918589809589238C9315
:10442000868997890197F1F7208D318DA685B7850B
:10443000758558E040E0C9010197F1F7842F90E0BD
:1044400095958795482F6C91672309F040685150E6
:1044500091F7868D81FD409580913C0490E0019616
:104460008F73992720913B04281749F0A0913C04B1
:10447000B0E0A35CBB4F4C9380933C0403C0868D9B
:104480008160868F828D938D0197F1F7A389B4891E
:104490008C919589892B8C93FF91EF91BF91AF916E
:1044A0009F918F917F916F915F914F913F912F914C
:1044B0000F900FBE0F901F90189524E232E0FC0180
:1044C000318320830C94A4211F93CF93DF93EC01BD
:1044D000162F6E8D6695617081E06827812F0E948E
:1044E0000E2861E0812F0E94D527812F90E0FC01EA
:1044F000E15FFC4FE491E88BFC01ED5DFC4FE49142
:10450000F0E0EE0FFF1FEF5BFC4F859194919A8BCB
:10451000898BDF91CF911F9108951F93CF93DF93E4
:10452000EC01162F60E0812F0E94D5278E8D81FD32
:1045300004C061E0812F0E940E281C87812F90E02B
:10454000FC01E15FFC4FE491ED87FC01ED5DFC4F68
:10455000E491F0E0EE0FFF1FE95CFC4F8591949130
:104560009F878E87DF91CF911F910895FF920F93C0
:104570001F93CF93DF93EC01F62E522F1B821A82EA
:1045800008EE13E020E030E00C831D832E833F8390
:1045900084E292E0998388831F8A1E8A198E188E7E
:1045A0001B8E1A8E1D8E1C8E8E8D8E7F50FB81F978
:1045B0008E8F642FCE010E9464226F2DCE01DF9179
:1045C000CF911F910F91FF900C948D22CF93DF9389
:1045D000EC019A01AB011B8E1A8E198E188E1F8A60
:1045E0001E8A60E079E08DE390E00E945E30C901B0
:1045F0002430310520F0B9016350710902C061E037
:1046000070E07D8F6C8FEC85E63108F068C0B901F1
:10461000769567956431710518F06351710902C090
:1046200061E070E07F8B6E8B069718F0C9010597EB
:1046300002C081E090E0998F888FC901880F991F8F
:10464000820F931F96958795969587958D30910546
:1046500010F00C9702C081E090E09B8F8A8F209130
:104660006800E83050F091E0EE3008F490E081E02E
:1046700001C0880F9A95EAF701C084E0822B8093ED
:1046800068002C85283038F02E3040F0263148F470
:104690008CE690E008C08DE690E005C08BE690E0E7
:1046A00002C080E090E09C8B8B8B283030F481E05E
:1046B00001C0880F2A95EAF70DC0822F90E02E30B6
:1046C00010F4089701C00E9791E001C0990F8A95E8
:1046D000EAF7892F8D8B8C8D9D8D0197F1F7CE0197
:1046E000DF91CF910C94BA21FC0171836083168A0B
:1046F00012820895FC01718360830895FC0126896C
:10470000233161F031E0320F368BE20FF11D62830D
:10471000FC01E30FF11D128281E0089580E008950D
:10472000FC01168A12820895DC01ED91FC9111972B
:10473000519112964C9120E030E0511104C081E07B
:10474000442379F00DC054130BC05191DC01A20F2A
:10475000B31F13964C912F5F3F4F2331310569F7FB
:1047600080E00895862F642F0C94D527862F642F20
:104770000C940E28862F0C9444284F925F926F92CF
:104780007F928F929F92AF92BF92CF92DF92EF92E1
:104790000F93CF93DF93EC014B013A01590102963D
:1047A0000E94BF2684E392E0998388836E018CE1A6
:1047B000C80ED11C26018CE3480E511CC6010E9474
:1047C000BF2686E0C80ED11CC414D504B9F7FE017B
:1047D000EE59FF4F718260823296B182A08232968A
:1047E00000833196E08237979182808238968AE002
:1047F00090E091838083329684EF91E0918380836F
:104800003396118210827197108211821282138264
:10481000C459DF4F1882DF91CF910F91EF90DF9055
:10482000CF90BF90AF909F908F907F906F905F9050
:104830004F9008952F923F924F925F926F927F9286
:104840008F929F92AF92BF92CF92DF92EF92FF92A0
:104850000F931F93CF93DF93CDB7DEB728970FB693
:10486000F894DEBF0FBECDBF98878F83F12C4C012B
:1048700086E6880E911C0F8118850E591F4FD401B2
:104880008C91F816A0F4AF81B8858D919C91F801B8
:10489000A081B181AF0DB11DFC012081318142E0C9
:1048A0006C918F819885F9010995F394E8CF512C8B
:1048B000EF81F885E959FF4FFA83E9830F81188565
:1048C0000C591F4FC12CD12C7601C3948F81988530
:1048D0008E599F4F9C838B83A981BA818C915816E6
:1048E00008F088C0A52CB12CAF81B8858D919C9122
:1048F000F801A081B181AA0DBB1DFC01208131818D
:1049000041E06C918F819885F9010995AF81B88557
:104910008D919C91F801A081B181AA0DBB1DFC0174
:104920002281338140E06C918F819885F90109954E
:10493000D701C601052C04C0880F991FAA1FBB1FF1
:104940000A94D2F79C011C0120943094412CD4018C
:104950008C91EF81F88540815181481648F5642C8F
:10496000712CEB81FC81A081B181A60DB71DFA01EC
:10497000448155816C918F8198852D833E83FA0106
:104980000995660C771C2D813E81EF81F885E60D37
:10499000F71D892B29F480859185822B932B04C0E8
:1049A0008085918582219321918780874394CFCF01
:1049B000F801A081B181AA0DBB1DFA0122813381CA
:1049C00041E06C918F819885F9010995AF81B88597
:1049D0008D919C91F801A081B181AA0DBB1DFC01B4
:1049E0002081318140E06C918F819885F901099592
:1049F000539472CF28960FB6F894DEBF0FBECDBF8A
:104A0000DF91CF911F910F91FF90EF90DF90CF90AA
:104A1000BF90AF909F908F907F906F905F904F90DE
:104A20003F902F900895FC0180E090E0258D368D19
:104A30002617370739F0019636968A309105B1F777
:104A40008FEF9FEF0895DC0126E0629FA00DB11D5E
:104A5000112490965C934E935F9721E091962C934E
:104A60009197FC01E459FF4F208131960190F0812C
:104A7000E02D222331F0309749F0611107C0DC01AD
:104A800002C0309719F05C968C9109940895CF92EA
:104A9000DF92FF920F931F93CF93DF931F92CDB7B7
:104AA000DEB76C01F62EFC0186E0689FE00DF11D7B
:104AB000112411A2878D90A181309105F1F01CF491
:104AC000892B51F046C08230910599F1039709F086
:104AD00040C040E050E031C04423D9F141E050E013
:104AE000C6010E9423250E940F27F601E85AFF4FB6
:104AF00060837183828393832CC049830E940F2734
:104B0000F601E85AFF4F0081118122813381601B39
:104B1000710B820B930B72960081118120E030E0C3
:104B20004981061717072807390718F442E050E0B3
:104B300004C041110EC043E050E06F2DC6010F903C
:104B4000DF91CF911F910F91FF90DF90CF900C9448
:104B500023250F90DF91CF911F910F91FF90DF9050
:104B6000CF9008952F923F924F925F926F927F92D3
:104B70008F929F92AF92BF92CF92DF92EF92FF926D
:104B80000F931F93CF93DF931F92CDB7DEB71C0116
:104B9000FC014AE08FEF9FEF278D30A1232B21F4FA
:104BA000148E968F858F11A2415036964111F4CF05
:104BB000712C610126E6C20ED11C510187E6A80EB8
:104BC000B11C4101A0E68A0E911C46E0442ED6019C
:104BD0008C91781608F055C0612C8101070D111DCC
:104BE000070D111D085F1F4FF501E0806E1408F0DE
:104BF00046C0F80140815181062C02C05695479568
:104C00000A94E2F741707E9C70011124E60CF11CBD
:104C1000D401ED91FC91EE0DFF1D5080B701C10153
:104C200049830E941325498197FD02C0682F1BC04C
:104C3000019619F5442309F180E090E060E070E00E
:104C4000F101E80FF91F248D211111C0469EF001DA
:104C5000479EF00D1124E20DF31D548EF68EE58E65
:104C600010A2178E41E0C1010E94472506C06F5F68
:104C70007F4F06966A30710519F76394B5CF739428
:104C8000A6CF20E030E080E0F101E20FF31F91A118
:104C9000911181E02A5F3F4F2C333105A9F70F9026
:104CA000DF91CF911F910F91FF90EF90DF90CF9008
:104CB000BF90AF909F908F907F906F905F904F903C
:104CC0003F902F900895CF92DF92EF92FF920F9333
:104CD0001F93CF93DF938C010E940F27E801C45AE2
:104CE000DF4FC880D980EA80FB806C197D098E096E
:104CF0009F09F801E859FF4FC080D180E12CF12CC9
:104D0000C616D706E806F90670F4C8010E941A24F0
:104D1000C8010E94B225182F0E940F27688379834B
:104D20008A839B8301C010E0812FDF91CF911F9177
:104D30000F91FF90EF90DF90CF9008950F931F9306
:104D4000CF93DF93EC018C0104591F4F81E0F801F0
:104D50008083CE010E946326882349F089A188239D
:104D600031F08F8D98A1019711F48C8D03C0F8015B
:104D7000108280E0DF91CF911F910F910895FC0187
:104D8000108214821382158208951F920F920FB61B
:104D90000F9211242F933F938F939F93AF93BF93C1
:104DA0008091800490918104A0918204B091830449
:104DB00030917F0423E0230F2D3720F40196A11DAD
:104DC000B11D05C026E8230F0296A11DB11D209339
:104DD0007F048093800490938104A0938204B09315
:104DE00083048091840490918504A0918604B091FD
:104DF00087040196A11DB11D8093840490938504BE
:104E0000A0938604B0938704BF91AF919F918F9137
:104E10003F912F910F900FBE0F901F9018952FB7B5
:104E2000F894609180047091810480918204909143
:104E300083042FBF08953FB7F89480918404909124
:104E40008504A0918604B091870426B5A89B05C06F
:104E50002F3F19F00196A11DB11D3FBF6627782F86
:104E6000892F9A2F620F711D811D911D42E0660FDF
:104E7000771F881F991F4A95D1F70895CF92DF9227
:104E8000EF92FF92CF93DF936B017C010E941B276F
:104E9000EB01C114D104E104F10489F00E94073050
:104EA0000E941B276C1B7D0B683E734090F381E0D2
:104EB000C81AD108E108F108C851DC4FEACFDF91E8
:104EC000CF91FF90EF90DF90CF90089582309105C1
:104ED00038F0880F991F880F991F05970197F1F7F0
:104EE0000895789484B5826084BD84B5816084BD62
:104EF00085B5826085BD85B5816085BDEEE6F0E053
:104F0000808181608083E1E8F0E0108280818260AE
:104F10008083808181608083E0E8F0E0808181602F
:104F20008083E1EBF0E0808184608083E0EBF0E05F
:104F3000808181608083EAE7F0E080818460808303
:104F400080818260808380818160808380818068AD
:104F500080831092C1000895833081F028F481305D
:104F600099F08230A1F008958730A9F08830B9F027
:104F70008430D1F4809180008F7D03C080918000C7
:104F80008F7780938000089584B58F7702C084B5B1
:104F90008F7D84BD08958091B0008F7703C080918C
:104FA000B0008F7D8093B0000895CF93DF9390E0A1
:104FB000FC01E15FFC4F2491FC01ED5DFC4F84910D
:104FC000882349F190E0880F991FFC01E55BFC4FB5
:104FD000A591B4918F5B9C4FFC01C591D4919FB773
:104FE000611108C0F8948C91209582238C9388815C
:104FF00082230AC0623051F4F8948C91322F30959C
:1050000083238C938881822B888304C0F8948C91AD
:10501000822B8C939FBFDF91CF9108950F931F93A5
:10502000CF93DF931F92CDB7DEB7282F30E0F90181
:10503000E550FD4F8491F901E15FFC4F1491F901B6
:10504000ED5DFC4F04910023C9F0882321F06983B2
:105050000E94AC276981E02FF0E0EE0FFF1FEF5BAD
:10506000FC4FA591B4919FB7F8948C91611103C046
:105070001095812301C0812B8C939FBF0F90DF91EE
:10508000CF911F910F910895CF93DF93282F30E098
:10509000F901E550FD4F8491F901E15FFC4FD49196
:1050A000F901ED5DFC4FC491CC2391F081110E9478
:1050B000AC27EC2FF0E0EE0FFF1FE95CFC4FA59151
:1050C000B4912C912D2381E090E021F480E002C086
:1050D00080E090E0DF91CF910895FC01818D228DD9
:1050E00090E0805C9F4F821B91098F7399270895F0
:1050F000FC01918D828D981731F0828DE80FF11DA2
:10510000858D90E008958FEF9FEF0895FC01918DBC
:10511000828D981761F0828DDF01A80FB11D5D9619
:105120008C91928D9F5F9F73928F90E008958FEF87
:105130009FEF08958AE09AE2892B49F080E090E0A1
:10514000892B29F00E940A2A81110C9400000895ED
:10515000FC01848DDF01A80FB11DA35ABF4F2C9114
:10516000848D90E001968F739927848FA689B789E3
:105170002C93A089B1898C9180648C93938D848DBC
:10518000981306C00288F389E02D80818F7D80838B
:105190000895CF93DF93EC01888D8823C9F0EA89C5
:1051A000FB89808185FD05C0A889B9898C9186FD20
:1051B0000FC00FB607FCF5CF808185FFF2CFA8891D
:1051C000B9898C9185FFEDCFCE010E94A828E7CF49
:1051D000DF91CF910895CF92DF92FF920F931F93AB
:1051E000CF93DF931F92CDB7DEB76C0181E0D6017C
:1051F00058968C9358975B969C915B975C968C9194
:105200005C97981307C05096ED91FC91519780815F
:1052100085FD2EC0F601038D10E00F5F1F4F0F7349
:105220001127F02EF601848DF81211C00FB607FC7D
:10523000F9CFD6015096ED91FC915197808185FF71
:10524000F1CFC60169830E94A8286981EBCF838DC5
:10525000E80FF11DE35AFF4F6083D6015B960C9374
:105260005B975296ED91FC915397808180620CC0C0
:10527000D6015696ED91FC91579760835096ED912B
:10528000FC91519780818064808381E090E00F9051
:10529000DF91CF911F910F91FF90DF90CF900895F4
:1052A000BF92CF92DF92EF92FF92CF93DF93EC0108
:1052B0006A017B01B22EE889F98982E08083411579
:1052C00081EE580761057105A1F060E079E08DE39A
:1052D00090E0A70196010E943C302150310941091C
:1052E00051095695479537952795211580E138073F
:1052F00098F0E889F989108260E874E88EE190E01E
:10530000A70196010E943C30215031094109510901
:105310005695479537952795EC85FD853083EE8525
:10532000FF852083188EEC89FD89B082EA89FB898C
:10533000808180618083EA89FB89808188608083A5
:10534000EA89FB89808180688083EA89FB89808182
:105350008F7D8083DF91CF91FF90EF90DF90CF9092
:10536000BF9008951F920F920FB60F9211242F93A2
:105370008F939F93EF93FF93E0919804F09199049A
:105380008081E0919E04F0919F0482FD12C0908183
:105390008091A1048F5F8F732091A204821751F036
:1053A000E091A104F0E0E857FB4F958F8093A104B2
:1053B00001C08081FF91EF919F918F912F910F906C
:1053C0000FBE0F901F9018951F920F920FB60F925D
:1053D00011242F933F934F935F936F937F938F93FA
:1053E0009F93AF93BF93EF93FF9388E894E00E945D
:1053F000A828FF91EF91BF91AF919F918F917F91DD
:105400006F915F914F913F912F910F900FBE0F9031
:105410001F90189588E894E00E946D2821E0892B60
:1054200009F420E0822F089510928B0410928A04D0
:1054300088EE93E0A0E0B0E080938C0490938D041C
:10544000A0938E04B0938F048EE392E0909389042E
:105450008093880485EC90E0909395048093940465
:1054600084EC90E0909397048093960480EC90E015
:10547000909399048093980481EC90E090939B041E
:1054800080939A0482EC90E090939D0480939C0416
:1054900086EC90E090939F0480939E041092A10468
:1054A0001092A2041092A3041092A4040895CF9223
:1054B000DF92EF92FF920F931F93CF93DF937C01C4
:1054C0006A01EB0100E010E00C151D0571F0699117
:1054D000D701ED91FC910190F081E02DC701099574
:1054E000892B19F00F5F1F4FEFCFC801DF91CF91CC
:1054F0001F910F91FF90EF90DF90CF90089561156D
:10550000710581F0DB010D900020E9F7AD014150FC
:105510005109461B570BDC01ED91FC910280F38190
:10552000E02D099480E090E00895EF92FF920F93B0
:105530001F93CF93DF938C017B01C0E0D0E0F70194
:10554000EC0FFD1F6491662359F0F801A081B18131
:10555000ED91FC91C8010995892B11F02196EFCFAF
:10556000CE01DF91CF911F910F91FF90EF900895A1
:10557000DC01ED91FC91DB0114964D915C91159746
:105580006D917C910280F381E02D09940C947F2A27
:10559000DC01ED91FC910190F081E02D09946AE429
:1055A00072E00C947F2A0F931F93CF93DF93EC014B
:1055B0000E94952A8C01CE010E94CF2A800F911F54
:1055C000DF91CF911F910F9108950F931F93CF9368
:1055D000DF93EC010E94B82A8C01CE010E94CF2AF1
:1055E000800F911FDF91CF911F910F9108950F931D
:1055F0001F93CF93DF93EC010E94C82A8C01CE0148
:105600000E94CF2A800F911FDF91CF911F910F91A0
:1056100008950F931F93CF93DF93EC010E940F2700
:10562000688779878A879B87E881F9810680F78177
:10563000E02DCE01099597FF15C00E940F27088520
:1056400019852A853B85601B710B820B930B0C819E
:105650001D812E813F81601771078207930720F318
:105660008FEF9FEFDF91CF911F910F910895FC0174
:10567000448355836683778308954F925F926F9238
:105680007F928F929F92AF92BF92CF92DF92EF92D2
:10569000FF920F931F93CF93DF934C01EB0186E0B2
:1056A000849F8001859F100D1124060F171FFB0199
:1056B000E017F10708F582819381892B21F1369655
:1056C000F7CF4081518164817581DA01A60FB71F40
:1056D0002C91332727FD30958217930711F56F5FC3
:1056E0007F4F75836483228133816217730759F07A
:1056F0003696E017F10728F3C4010E94092B97FDA5
:1057000046C0FE01F6CFEC1BFD0BF595E7952BEAA5
:105710003AEAE29FC001E39F900DF29F900D1124A1
:1057200038C06115710521F3A480B5809501215021
:10573000310935832483DA01A20FB31FAC91BB2753
:10574000A7FDB0958A179B07F9F421153105C9F01B
:105750006A017B01E21AF30AE40EF51E412C512C7A
:10576000D6016D906D01D7017D907D01671006C057
:10577000BFEF4B1A5B0A4216530690F342165306CC
:1057800099F6B582A482B4CF232B71F6B1CF8FEFF7
:105790009FEFDF91CF911F910F91FF90EF90DF90DE
:1057A000CF90BF90AF909F908F907F906F905F90C1
:1057B0004F900895CF93DF9300D000D000D0CDB7A5
:1057C000DEB7FE01319626E0DF011D922A95E9F74A
:1057D0007A8369835C834B8341E050E0BF010E9480
:1057E0003D2B21E0892B09F020E0822F26960FB671
:1057F000F894DEBF0FBECDBFDF91CF910895FB01BE
:1058000001900020E9F7AF0141505109461B570BA9
:105810000C94DA2B70E09B01382BC9010895FC0130
:10582000808191810C943C31CF93DF93EC0188818E
:105830009981009711F00E943C31198218821D82D3
:105840001C821B821A82DF91CF9108950F931F93C0
:10585000CF93DF93EC018B016F5F7F4F888199813C
:105860000E94CB31009731F0998388831B830A8390
:1058700081E001C080E0DF91CF911F910F910895E9
:10588000CF93DF93EC0188819981892B29F08A815C
:105890009B818617970760F4CE010E94262C8823EF
:1058A00041F08C819D81892B19F4E881F981108266
:1058B00081E0DF91CF910895EF92FF920F931F93B4
:1058C000CF93DF93EC017B018A01BA010E94402C47
:1058D000811104C0CE010E94142C07C01D830C83CB
:1058E000B701888199810E94D632CE01DF91CF9194
:1058F0001F910F91FF90EF900895FC01118210828B
:1059000013821282158214826115710559F0FB0110
:1059100001900020E9F7AF0141505109461B570B98
:105920000C945C2C08950F931F93CF93DF938C01FD
:10593000EB01FC0180819181009799F042815381B4
:105940002C813D814217530750F0688179810E9474
:10595000D6328C819D81F8019583848313C00E9487
:105960003C3188819981F801918380838A819B8170
:10597000938382838C819D8195838483198218828D
:105980001B821A821D821C82DF91CF911F910F9181
:105990000895CF93DF93EC01FB018617970761F021
:1059A000608171816115710529F0448155810E94E2
:1059B0005C2C02C00E94142CCE01DF91CF9108957F
:1059C000FC011182108213821282158214820C94BF
:1059D000C92CCF93DF93EC018617970711F00E9433
:1059E000932CCE01DF91CF910895CF93DF93EC01FB
:1059F0006115710561F0FB0101900020E9F7AF012D
:105A000041505109461B570B0E945C2C02C00E945A
:105A1000142CCE01DF91CF910895CF93DF9300D066
:105A2000CDB7DEB7FC01118210821382128215827B
:105A3000148269831A82BE016F5F7F4F0E94F52C2A
:105A40000F900F90DF91CF9108950F931F93CF93F5
:105A5000DF93CDB7DEB729970FB6F894DEBF0FBE40
:105A6000CDBF8C01862FF801118210821382128221
:105A70001582148250E0BE016F5F7F4F90E00E945C
:105A80001733BE016F5F7F4FC8010E94F52C299626
:105A90000FB6F894DEBF0FBECDBFDF91CF911F913F
:105AA0000F9108950F931F93CF93DF93CDB7DEB778
:105AB00062970FB6F894DEBF0FBECDBF8C01CB014D
:105AC000F80111821082138212821582148250E032
:105AD000BE016F5F7F4F0E94EC32BE016F5F7F4F50
